
klawiatura2.elf:     file format elf32-littlearm

Sections:
Idx Name          Size      VMA       LMA       File off  Algn
  0 .isr_vector   00000188  08000000  08000000  00010000  2**0
                  CONTENTS, ALLOC, LOAD, READONLY, DATA
  1 .text         00003a00  08000188  08000188  00010188  2**2
                  CONTENTS, ALLOC, LOAD, READONLY, CODE
  2 .rodata       00000090  08003b88  08003b88  00013b88  2**2
                  CONTENTS, ALLOC, LOAD, READONLY, DATA
  3 .ARM.extab    00000000  08003c18  08003c18  0002000c  2**0
                  CONTENTS
  4 .ARM          00000008  08003c18  08003c18  00013c18  2**2
                  CONTENTS, ALLOC, LOAD, READONLY, DATA
  5 .preinit_array 00000000  08003c20  08003c20  0002000c  2**0
                  CONTENTS, ALLOC, LOAD, DATA
  6 .init_array   00000004  08003c20  08003c20  00013c20  2**2
                  CONTENTS, ALLOC, LOAD, DATA
  7 .fini_array   00000004  08003c24  08003c24  00013c24  2**2
                  CONTENTS, ALLOC, LOAD, DATA
  8 .data         0000000c  20000000  08003c28  00020000  2**2
                  CONTENTS, ALLOC, LOAD, DATA
  9 .bss          000000b8  2000000c  08003c34  0002000c  2**2
                  ALLOC
 10 ._user_heap_stack 00000604  200000c4  08003c34  000200c4  2**0
                  ALLOC
 11 .ARM.attributes 00000030  00000000  00000000  0002000c  2**0
                  CONTENTS, READONLY
 12 .debug_info   0000c4a4  00000000  00000000  0002003c  2**0
                  CONTENTS, READONLY, DEBUGGING, OCTETS
 13 .debug_abbrev 0000188d  00000000  00000000  0002c4e0  2**0
                  CONTENTS, READONLY, DEBUGGING, OCTETS
 14 .debug_aranges 000008e8  00000000  00000000  0002dd70  2**3
                  CONTENTS, READONLY, DEBUGGING, OCTETS
 15 .debug_ranges 00000860  00000000  00000000  0002e658  2**3
                  CONTENTS, READONLY, DEBUGGING, OCTETS
 16 .debug_macro  0002590b  00000000  00000000  0002eeb8  2**0
                  CONTENTS, READONLY, DEBUGGING, OCTETS
 17 .debug_line   0000aa3e  00000000  00000000  000547c3  2**0
                  CONTENTS, READONLY, DEBUGGING, OCTETS
 18 .debug_str    000e8e76  00000000  00000000  0005f201  2**0
                  CONTENTS, READONLY, DEBUGGING, OCTETS
 19 .comment      00000053  00000000  00000000  00148077  2**0
                  CONTENTS, READONLY
 20 .debug_frame  0000239c  00000000  00000000  001480cc  2**2
                  CONTENTS, READONLY, DEBUGGING, OCTETS

Disassembly of section .text:

08000188 <__do_global_dtors_aux>:
 8000188:	b510      	push	{r4, lr}
 800018a:	4c05      	ldr	r4, [pc, #20]	; (80001a0 <__do_global_dtors_aux+0x18>)
 800018c:	7823      	ldrb	r3, [r4, #0]
 800018e:	b933      	cbnz	r3, 800019e <__do_global_dtors_aux+0x16>
 8000190:	4b04      	ldr	r3, [pc, #16]	; (80001a4 <__do_global_dtors_aux+0x1c>)
 8000192:	b113      	cbz	r3, 800019a <__do_global_dtors_aux+0x12>
 8000194:	4804      	ldr	r0, [pc, #16]	; (80001a8 <__do_global_dtors_aux+0x20>)
 8000196:	f3af 8000 	nop.w
 800019a:	2301      	movs	r3, #1
 800019c:	7023      	strb	r3, [r4, #0]
 800019e:	bd10      	pop	{r4, pc}
 80001a0:	2000000c 	.word	0x2000000c
 80001a4:	00000000 	.word	0x00000000
 80001a8:	08003b70 	.word	0x08003b70

080001ac <frame_dummy>:
 80001ac:	b508      	push	{r3, lr}
 80001ae:	4b03      	ldr	r3, [pc, #12]	; (80001bc <frame_dummy+0x10>)
 80001b0:	b11b      	cbz	r3, 80001ba <frame_dummy+0xe>
 80001b2:	4903      	ldr	r1, [pc, #12]	; (80001c0 <frame_dummy+0x14>)
 80001b4:	4803      	ldr	r0, [pc, #12]	; (80001c4 <frame_dummy+0x18>)
 80001b6:	f3af 8000 	nop.w
 80001ba:	bd08      	pop	{r3, pc}
 80001bc:	00000000 	.word	0x00000000
 80001c0:	20000010 	.word	0x20000010
 80001c4:	08003b70 	.word	0x08003b70

080001c8 <__aeabi_uldivmod>:
 80001c8:	b953      	cbnz	r3, 80001e0 <__aeabi_uldivmod+0x18>
 80001ca:	b94a      	cbnz	r2, 80001e0 <__aeabi_uldivmod+0x18>
 80001cc:	2900      	cmp	r1, #0
 80001ce:	bf08      	it	eq
 80001d0:	2800      	cmpeq	r0, #0
 80001d2:	bf1c      	itt	ne
 80001d4:	f04f 31ff 	movne.w	r1, #4294967295
 80001d8:	f04f 30ff 	movne.w	r0, #4294967295
 80001dc:	f000 b96e 	b.w	80004bc <__aeabi_idiv0>
 80001e0:	f1ad 0c08 	sub.w	ip, sp, #8
 80001e4:	e96d ce04 	strd	ip, lr, [sp, #-16]!
 80001e8:	f000 f806 	bl	80001f8 <__udivmoddi4>
 80001ec:	f8dd e004 	ldr.w	lr, [sp, #4]
 80001f0:	e9dd 2302 	ldrd	r2, r3, [sp, #8]
 80001f4:	b004      	add	sp, #16
 80001f6:	4770      	bx	lr

080001f8 <__udivmoddi4>:
 80001f8:	e92d 47f0 	stmdb	sp!, {r4, r5, r6, r7, r8, r9, sl, lr}
 80001fc:	9d08      	ldr	r5, [sp, #32]
 80001fe:	4604      	mov	r4, r0
 8000200:	468c      	mov	ip, r1
 8000202:	2b00      	cmp	r3, #0
 8000204:	f040 8083 	bne.w	800030e <__udivmoddi4+0x116>
 8000208:	428a      	cmp	r2, r1
 800020a:	4617      	mov	r7, r2
 800020c:	d947      	bls.n	800029e <__udivmoddi4+0xa6>
 800020e:	fab2 f282 	clz	r2, r2
 8000212:	b142      	cbz	r2, 8000226 <__udivmoddi4+0x2e>
 8000214:	f1c2 0020 	rsb	r0, r2, #32
 8000218:	fa24 f000 	lsr.w	r0, r4, r0
 800021c:	4091      	lsls	r1, r2
 800021e:	4097      	lsls	r7, r2
 8000220:	ea40 0c01 	orr.w	ip, r0, r1
 8000224:	4094      	lsls	r4, r2
 8000226:	ea4f 4817 	mov.w	r8, r7, lsr #16
 800022a:	0c23      	lsrs	r3, r4, #16
 800022c:	fbbc f6f8 	udiv	r6, ip, r8
 8000230:	fa1f fe87 	uxth.w	lr, r7
 8000234:	fb08 c116 	mls	r1, r8, r6, ip
 8000238:	ea43 4301 	orr.w	r3, r3, r1, lsl #16
 800023c:	fb06 f10e 	mul.w	r1, r6, lr
 8000240:	4299      	cmp	r1, r3
 8000242:	d909      	bls.n	8000258 <__udivmoddi4+0x60>
 8000244:	18fb      	adds	r3, r7, r3
 8000246:	f106 30ff 	add.w	r0, r6, #4294967295
 800024a:	f080 8119 	bcs.w	8000480 <__udivmoddi4+0x288>
 800024e:	4299      	cmp	r1, r3
 8000250:	f240 8116 	bls.w	8000480 <__udivmoddi4+0x288>
 8000254:	3e02      	subs	r6, #2
 8000256:	443b      	add	r3, r7
 8000258:	1a5b      	subs	r3, r3, r1
 800025a:	b2a4      	uxth	r4, r4
 800025c:	fbb3 f0f8 	udiv	r0, r3, r8
 8000260:	fb08 3310 	mls	r3, r8, r0, r3
 8000264:	ea44 4403 	orr.w	r4, r4, r3, lsl #16
 8000268:	fb00 fe0e 	mul.w	lr, r0, lr
 800026c:	45a6      	cmp	lr, r4
 800026e:	d909      	bls.n	8000284 <__udivmoddi4+0x8c>
 8000270:	193c      	adds	r4, r7, r4
 8000272:	f100 33ff 	add.w	r3, r0, #4294967295
 8000276:	f080 8105 	bcs.w	8000484 <__udivmoddi4+0x28c>
 800027a:	45a6      	cmp	lr, r4
 800027c:	f240 8102 	bls.w	8000484 <__udivmoddi4+0x28c>
 8000280:	3802      	subs	r0, #2
 8000282:	443c      	add	r4, r7
 8000284:	ea40 4006 	orr.w	r0, r0, r6, lsl #16
 8000288:	eba4 040e 	sub.w	r4, r4, lr
 800028c:	2600      	movs	r6, #0
 800028e:	b11d      	cbz	r5, 8000298 <__udivmoddi4+0xa0>
 8000290:	40d4      	lsrs	r4, r2
 8000292:	2300      	movs	r3, #0
 8000294:	e9c5 4300 	strd	r4, r3, [r5]
 8000298:	4631      	mov	r1, r6
 800029a:	e8bd 87f0 	ldmia.w	sp!, {r4, r5, r6, r7, r8, r9, sl, pc}
 800029e:	b902      	cbnz	r2, 80002a2 <__udivmoddi4+0xaa>
 80002a0:	deff      	udf	#255	; 0xff
 80002a2:	fab2 f282 	clz	r2, r2
 80002a6:	2a00      	cmp	r2, #0
 80002a8:	d150      	bne.n	800034c <__udivmoddi4+0x154>
 80002aa:	1bcb      	subs	r3, r1, r7
 80002ac:	ea4f 4e17 	mov.w	lr, r7, lsr #16
 80002b0:	fa1f f887 	uxth.w	r8, r7
 80002b4:	2601      	movs	r6, #1
 80002b6:	fbb3 fcfe 	udiv	ip, r3, lr
 80002ba:	0c21      	lsrs	r1, r4, #16
 80002bc:	fb0e 331c 	mls	r3, lr, ip, r3
 80002c0:	ea41 4103 	orr.w	r1, r1, r3, lsl #16
 80002c4:	fb08 f30c 	mul.w	r3, r8, ip
 80002c8:	428b      	cmp	r3, r1
 80002ca:	d907      	bls.n	80002dc <__udivmoddi4+0xe4>
 80002cc:	1879      	adds	r1, r7, r1
 80002ce:	f10c 30ff 	add.w	r0, ip, #4294967295
 80002d2:	d202      	bcs.n	80002da <__udivmoddi4+0xe2>
 80002d4:	428b      	cmp	r3, r1
 80002d6:	f200 80e9 	bhi.w	80004ac <__udivmoddi4+0x2b4>
 80002da:	4684      	mov	ip, r0
 80002dc:	1ac9      	subs	r1, r1, r3
 80002de:	b2a3      	uxth	r3, r4
 80002e0:	fbb1 f0fe 	udiv	r0, r1, lr
 80002e4:	fb0e 1110 	mls	r1, lr, r0, r1
 80002e8:	ea43 4401 	orr.w	r4, r3, r1, lsl #16
 80002ec:	fb08 f800 	mul.w	r8, r8, r0
 80002f0:	45a0      	cmp	r8, r4
 80002f2:	d907      	bls.n	8000304 <__udivmoddi4+0x10c>
 80002f4:	193c      	adds	r4, r7, r4
 80002f6:	f100 33ff 	add.w	r3, r0, #4294967295
 80002fa:	d202      	bcs.n	8000302 <__udivmoddi4+0x10a>
 80002fc:	45a0      	cmp	r8, r4
 80002fe:	f200 80d9 	bhi.w	80004b4 <__udivmoddi4+0x2bc>
 8000302:	4618      	mov	r0, r3
 8000304:	eba4 0408 	sub.w	r4, r4, r8
 8000308:	ea40 400c 	orr.w	r0, r0, ip, lsl #16
 800030c:	e7bf      	b.n	800028e <__udivmoddi4+0x96>
 800030e:	428b      	cmp	r3, r1
 8000310:	d909      	bls.n	8000326 <__udivmoddi4+0x12e>
 8000312:	2d00      	cmp	r5, #0
 8000314:	f000 80b1 	beq.w	800047a <__udivmoddi4+0x282>
 8000318:	2600      	movs	r6, #0
 800031a:	e9c5 0100 	strd	r0, r1, [r5]
 800031e:	4630      	mov	r0, r6
 8000320:	4631      	mov	r1, r6
 8000322:	e8bd 87f0 	ldmia.w	sp!, {r4, r5, r6, r7, r8, r9, sl, pc}
 8000326:	fab3 f683 	clz	r6, r3
 800032a:	2e00      	cmp	r6, #0
 800032c:	d14a      	bne.n	80003c4 <__udivmoddi4+0x1cc>
 800032e:	428b      	cmp	r3, r1
 8000330:	d302      	bcc.n	8000338 <__udivmoddi4+0x140>
 8000332:	4282      	cmp	r2, r0
 8000334:	f200 80b8 	bhi.w	80004a8 <__udivmoddi4+0x2b0>
 8000338:	1a84      	subs	r4, r0, r2
 800033a:	eb61 0103 	sbc.w	r1, r1, r3
 800033e:	2001      	movs	r0, #1
 8000340:	468c      	mov	ip, r1
 8000342:	2d00      	cmp	r5, #0
 8000344:	d0a8      	beq.n	8000298 <__udivmoddi4+0xa0>
 8000346:	e9c5 4c00 	strd	r4, ip, [r5]
 800034a:	e7a5      	b.n	8000298 <__udivmoddi4+0xa0>
 800034c:	f1c2 0320 	rsb	r3, r2, #32
 8000350:	fa20 f603 	lsr.w	r6, r0, r3
 8000354:	4097      	lsls	r7, r2
 8000356:	fa01 f002 	lsl.w	r0, r1, r2
 800035a:	ea4f 4e17 	mov.w	lr, r7, lsr #16
 800035e:	40d9      	lsrs	r1, r3
 8000360:	4330      	orrs	r0, r6
 8000362:	0c03      	lsrs	r3, r0, #16
 8000364:	fbb1 f6fe 	udiv	r6, r1, lr
 8000368:	fa1f f887 	uxth.w	r8, r7
 800036c:	fb0e 1116 	mls	r1, lr, r6, r1
 8000370:	ea43 4301 	orr.w	r3, r3, r1, lsl #16
 8000374:	fb06 f108 	mul.w	r1, r6, r8
 8000378:	4299      	cmp	r1, r3
 800037a:	fa04 f402 	lsl.w	r4, r4, r2
 800037e:	d909      	bls.n	8000394 <__udivmoddi4+0x19c>
 8000380:	18fb      	adds	r3, r7, r3
 8000382:	f106 3cff 	add.w	ip, r6, #4294967295
 8000386:	f080 808d 	bcs.w	80004a4 <__udivmoddi4+0x2ac>
 800038a:	4299      	cmp	r1, r3
 800038c:	f240 808a 	bls.w	80004a4 <__udivmoddi4+0x2ac>
 8000390:	3e02      	subs	r6, #2
 8000392:	443b      	add	r3, r7
 8000394:	1a5b      	subs	r3, r3, r1
 8000396:	b281      	uxth	r1, r0
 8000398:	fbb3 f0fe 	udiv	r0, r3, lr
 800039c:	fb0e 3310 	mls	r3, lr, r0, r3
 80003a0:	ea41 4103 	orr.w	r1, r1, r3, lsl #16
 80003a4:	fb00 f308 	mul.w	r3, r0, r8
 80003a8:	428b      	cmp	r3, r1
 80003aa:	d907      	bls.n	80003bc <__udivmoddi4+0x1c4>
 80003ac:	1879      	adds	r1, r7, r1
 80003ae:	f100 3cff 	add.w	ip, r0, #4294967295
 80003b2:	d273      	bcs.n	800049c <__udivmoddi4+0x2a4>
 80003b4:	428b      	cmp	r3, r1
 80003b6:	d971      	bls.n	800049c <__udivmoddi4+0x2a4>
 80003b8:	3802      	subs	r0, #2
 80003ba:	4439      	add	r1, r7
 80003bc:	1acb      	subs	r3, r1, r3
 80003be:	ea40 4606 	orr.w	r6, r0, r6, lsl #16
 80003c2:	e778      	b.n	80002b6 <__udivmoddi4+0xbe>
 80003c4:	f1c6 0c20 	rsb	ip, r6, #32
 80003c8:	fa03 f406 	lsl.w	r4, r3, r6
 80003cc:	fa22 f30c 	lsr.w	r3, r2, ip
 80003d0:	431c      	orrs	r4, r3
 80003d2:	fa20 f70c 	lsr.w	r7, r0, ip
 80003d6:	fa01 f306 	lsl.w	r3, r1, r6
 80003da:	ea4f 4e14 	mov.w	lr, r4, lsr #16
 80003de:	fa21 f10c 	lsr.w	r1, r1, ip
 80003e2:	431f      	orrs	r7, r3
 80003e4:	0c3b      	lsrs	r3, r7, #16
 80003e6:	fbb1 f9fe 	udiv	r9, r1, lr
 80003ea:	fa1f f884 	uxth.w	r8, r4
 80003ee:	fb0e 1119 	mls	r1, lr, r9, r1
 80003f2:	ea43 4101 	orr.w	r1, r3, r1, lsl #16
 80003f6:	fb09 fa08 	mul.w	sl, r9, r8
 80003fa:	458a      	cmp	sl, r1
 80003fc:	fa02 f206 	lsl.w	r2, r2, r6
 8000400:	fa00 f306 	lsl.w	r3, r0, r6
 8000404:	d908      	bls.n	8000418 <__udivmoddi4+0x220>
 8000406:	1861      	adds	r1, r4, r1
 8000408:	f109 30ff 	add.w	r0, r9, #4294967295
 800040c:	d248      	bcs.n	80004a0 <__udivmoddi4+0x2a8>
 800040e:	458a      	cmp	sl, r1
 8000410:	d946      	bls.n	80004a0 <__udivmoddi4+0x2a8>
 8000412:	f1a9 0902 	sub.w	r9, r9, #2
 8000416:	4421      	add	r1, r4
 8000418:	eba1 010a 	sub.w	r1, r1, sl
 800041c:	b2bf      	uxth	r7, r7
 800041e:	fbb1 f0fe 	udiv	r0, r1, lr
 8000422:	fb0e 1110 	mls	r1, lr, r0, r1
 8000426:	ea47 4701 	orr.w	r7, r7, r1, lsl #16
 800042a:	fb00 f808 	mul.w	r8, r0, r8
 800042e:	45b8      	cmp	r8, r7
 8000430:	d907      	bls.n	8000442 <__udivmoddi4+0x24a>
 8000432:	19e7      	adds	r7, r4, r7
 8000434:	f100 31ff 	add.w	r1, r0, #4294967295
 8000438:	d22e      	bcs.n	8000498 <__udivmoddi4+0x2a0>
 800043a:	45b8      	cmp	r8, r7
 800043c:	d92c      	bls.n	8000498 <__udivmoddi4+0x2a0>
 800043e:	3802      	subs	r0, #2
 8000440:	4427      	add	r7, r4
 8000442:	ea40 4009 	orr.w	r0, r0, r9, lsl #16
 8000446:	eba7 0708 	sub.w	r7, r7, r8
 800044a:	fba0 8902 	umull	r8, r9, r0, r2
 800044e:	454f      	cmp	r7, r9
 8000450:	46c6      	mov	lr, r8
 8000452:	4649      	mov	r1, r9
 8000454:	d31a      	bcc.n	800048c <__udivmoddi4+0x294>
 8000456:	d017      	beq.n	8000488 <__udivmoddi4+0x290>
 8000458:	b15d      	cbz	r5, 8000472 <__udivmoddi4+0x27a>
 800045a:	ebb3 020e 	subs.w	r2, r3, lr
 800045e:	eb67 0701 	sbc.w	r7, r7, r1
 8000462:	fa07 fc0c 	lsl.w	ip, r7, ip
 8000466:	40f2      	lsrs	r2, r6
 8000468:	ea4c 0202 	orr.w	r2, ip, r2
 800046c:	40f7      	lsrs	r7, r6
 800046e:	e9c5 2700 	strd	r2, r7, [r5]
 8000472:	2600      	movs	r6, #0
 8000474:	4631      	mov	r1, r6
 8000476:	e8bd 87f0 	ldmia.w	sp!, {r4, r5, r6, r7, r8, r9, sl, pc}
 800047a:	462e      	mov	r6, r5
 800047c:	4628      	mov	r0, r5
 800047e:	e70b      	b.n	8000298 <__udivmoddi4+0xa0>
 8000480:	4606      	mov	r6, r0
 8000482:	e6e9      	b.n	8000258 <__udivmoddi4+0x60>
 8000484:	4618      	mov	r0, r3
 8000486:	e6fd      	b.n	8000284 <__udivmoddi4+0x8c>
 8000488:	4543      	cmp	r3, r8
 800048a:	d2e5      	bcs.n	8000458 <__udivmoddi4+0x260>
 800048c:	ebb8 0e02 	subs.w	lr, r8, r2
 8000490:	eb69 0104 	sbc.w	r1, r9, r4
 8000494:	3801      	subs	r0, #1
 8000496:	e7df      	b.n	8000458 <__udivmoddi4+0x260>
 8000498:	4608      	mov	r0, r1
 800049a:	e7d2      	b.n	8000442 <__udivmoddi4+0x24a>
 800049c:	4660      	mov	r0, ip
 800049e:	e78d      	b.n	80003bc <__udivmoddi4+0x1c4>
 80004a0:	4681      	mov	r9, r0
 80004a2:	e7b9      	b.n	8000418 <__udivmoddi4+0x220>
 80004a4:	4666      	mov	r6, ip
 80004a6:	e775      	b.n	8000394 <__udivmoddi4+0x19c>
 80004a8:	4630      	mov	r0, r6
 80004aa:	e74a      	b.n	8000342 <__udivmoddi4+0x14a>
 80004ac:	f1ac 0c02 	sub.w	ip, ip, #2
 80004b0:	4439      	add	r1, r7
 80004b2:	e713      	b.n	80002dc <__udivmoddi4+0xe4>
 80004b4:	3802      	subs	r0, #2
 80004b6:	443c      	add	r4, r7
 80004b8:	e724      	b.n	8000304 <__udivmoddi4+0x10c>
 80004ba:	bf00      	nop

080004bc <__aeabi_idiv0>:
 80004bc:	4770      	bx	lr
 80004be:	bf00      	nop

080004c0 <Trigger>:
/* USER CODE END PFP */

/* Private user code ---------------------------------------------------------*/
/* USER CODE BEGIN 0 */
void Trigger()
{
 80004c0:	b580      	push	{r7, lr}
 80004c2:	af00      	add	r7, sp, #0
        HAL_GPIO_WritePin (LCD_E_GPIO_Port, LCD_E_Pin, SET );
 80004c4:	2201      	movs	r2, #1
 80004c6:	2101      	movs	r1, #1
 80004c8:	4806      	ldr	r0, [pc, #24]	; (80004e4 <Trigger+0x24>)
 80004ca:	f001 fb67 	bl	8001b9c <HAL_GPIO_WritePin>
        HAL_Delay(1);
 80004ce:	2001      	movs	r0, #1
 80004d0:	f001 f898 	bl	8001604 <HAL_Delay>
        HAL_GPIO_WritePin (LCD_E_GPIO_Port, LCD_E_Pin, RESET );
 80004d4:	2200      	movs	r2, #0
 80004d6:	2101      	movs	r1, #1
 80004d8:	4802      	ldr	r0, [pc, #8]	; (80004e4 <Trigger+0x24>)
 80004da:	f001 fb5f 	bl	8001b9c <HAL_GPIO_WritePin>
}
 80004de:	bf00      	nop
 80004e0:	bd80      	pop	{r7, pc}
 80004e2:	bf00      	nop
 80004e4:	48000800 	.word	0x48000800

080004e8 <LCD_Instruction>:

void LCD_Instruction (uint8_t DB, uint8_t RS)
{
 80004e8:	b580      	push	{r7, lr}
 80004ea:	b082      	sub	sp, #8
 80004ec:	af00      	add	r7, sp, #0
 80004ee:	4603      	mov	r3, r0
 80004f0:	460a      	mov	r2, r1
 80004f2:	71fb      	strb	r3, [r7, #7]
 80004f4:	4613      	mov	r3, r2
 80004f6:	71bb      	strb	r3, [r7, #6]
        HAL_Delay(2);
 80004f8:	2002      	movs	r0, #2
 80004fa:	f001 f883 	bl	8001604 <HAL_Delay>
        HAL_GPIO_WritePin (LCD_E_GPIO_Port, LCD_E_Pin, SET );
 80004fe:	2201      	movs	r2, #1
 8000500:	2101      	movs	r1, #1
 8000502:	483b      	ldr	r0, [pc, #236]	; (80005f0 <LCD_Instruction+0x108>)
 8000504:	f001 fb4a 	bl	8001b9c <HAL_GPIO_WritePin>

        if (RS)
 8000508:	79bb      	ldrb	r3, [r7, #6]
 800050a:	2b00      	cmp	r3, #0
 800050c:	d005      	beq.n	800051a <LCD_Instruction+0x32>
                HAL_GPIO_WritePin (LCD_RS_GPIO_Port, LCD_RS_Pin, SET );
 800050e:	2201      	movs	r2, #1
 8000510:	2108      	movs	r1, #8
 8000512:	4837      	ldr	r0, [pc, #220]	; (80005f0 <LCD_Instruction+0x108>)
 8000514:	f001 fb42 	bl	8001b9c <HAL_GPIO_WritePin>
 8000518:	e004      	b.n	8000524 <LCD_Instruction+0x3c>
        else
             	HAL_GPIO_WritePin (LCD_RS_GPIO_Port, LCD_RS_Pin, RESET );
 800051a:	2200      	movs	r2, #0
 800051c:	2108      	movs	r1, #8
 800051e:	4834      	ldr	r0, [pc, #208]	; (80005f0 <LCD_Instruction+0x108>)
 8000520:	f001 fb3c 	bl	8001b9c <HAL_GPIO_WritePin>

        HAL_GPIO_WritePin (LCD_D7_GPIO_Port, LCD_D7_Pin, DB & (1<<7) ? SET : RESET);
 8000524:	79fb      	ldrb	r3, [r7, #7]
 8000526:	09db      	lsrs	r3, r3, #7
 8000528:	b2db      	uxtb	r3, r3
 800052a:	461a      	mov	r2, r3
 800052c:	f44f 5180 	mov.w	r1, #4096	; 0x1000
 8000530:	482f      	ldr	r0, [pc, #188]	; (80005f0 <LCD_Instruction+0x108>)
 8000532:	f001 fb33 	bl	8001b9c <HAL_GPIO_WritePin>
        HAL_GPIO_WritePin (LCD_D6_GPIO_Port, LCD_D6_Pin, DB & (1<<6) ? SET : RESET);
 8000536:	79fb      	ldrb	r3, [r7, #7]
 8000538:	119b      	asrs	r3, r3, #6
 800053a:	b2db      	uxtb	r3, r3
 800053c:	f003 0301 	and.w	r3, r3, #1
 8000540:	b2db      	uxtb	r3, r3
 8000542:	461a      	mov	r2, r3
 8000544:	2104      	movs	r1, #4
 8000546:	482b      	ldr	r0, [pc, #172]	; (80005f4 <LCD_Instruction+0x10c>)
 8000548:	f001 fb28 	bl	8001b9c <HAL_GPIO_WritePin>
        HAL_GPIO_WritePin (LCD_D5_GPIO_Port, LCD_D5_Pin, DB & (1<<5) ? SET : RESET);
 800054c:	79fb      	ldrb	r3, [r7, #7]
 800054e:	115b      	asrs	r3, r3, #5
 8000550:	b2db      	uxtb	r3, r3
 8000552:	f003 0301 	and.w	r3, r3, #1
 8000556:	b2db      	uxtb	r3, r3
 8000558:	461a      	mov	r2, r3
 800055a:	f44f 6100 	mov.w	r1, #2048	; 0x800
 800055e:	4824      	ldr	r0, [pc, #144]	; (80005f0 <LCD_Instruction+0x108>)
 8000560:	f001 fb1c 	bl	8001b9c <HAL_GPIO_WritePin>
        HAL_GPIO_WritePin (LCD_D4_GPIO_Port, LCD_D4_Pin, DB & (1<<4) ? SET : RESET);
 8000564:	79fb      	ldrb	r3, [r7, #7]
 8000566:	111b      	asrs	r3, r3, #4
 8000568:	b2db      	uxtb	r3, r3
 800056a:	f003 0301 	and.w	r3, r3, #1
 800056e:	b2db      	uxtb	r3, r3
 8000570:	461a      	mov	r2, r3
 8000572:	f44f 6180 	mov.w	r1, #1024	; 0x400
 8000576:	481e      	ldr	r0, [pc, #120]	; (80005f0 <LCD_Instruction+0x108>)
 8000578:	f001 fb10 	bl	8001b9c <HAL_GPIO_WritePin>
        HAL_GPIO_WritePin (LCD_D3_GPIO_Port, LCD_D3_Pin, DB & (1<<3) ? SET : RESET);
 800057c:	79fb      	ldrb	r3, [r7, #7]
 800057e:	10db      	asrs	r3, r3, #3
 8000580:	b2db      	uxtb	r3, r3
 8000582:	f003 0301 	and.w	r3, r3, #1
 8000586:	b2db      	uxtb	r3, r3
 8000588:	461a      	mov	r2, r3
 800058a:	2140      	movs	r1, #64	; 0x40
 800058c:	4818      	ldr	r0, [pc, #96]	; (80005f0 <LCD_Instruction+0x108>)
 800058e:	f001 fb05 	bl	8001b9c <HAL_GPIO_WritePin>
        HAL_GPIO_WritePin (LCD_D2_GPIO_Port, LCD_D2_Pin, DB & (1<<2) ? SET : RESET);
 8000592:	79fb      	ldrb	r3, [r7, #7]
 8000594:	109b      	asrs	r3, r3, #2
 8000596:	b2db      	uxtb	r3, r3
 8000598:	f003 0301 	and.w	r3, r3, #1
 800059c:	b2db      	uxtb	r3, r3
 800059e:	461a      	mov	r2, r3
 80005a0:	f44f 7180 	mov.w	r1, #256	; 0x100
 80005a4:	4814      	ldr	r0, [pc, #80]	; (80005f8 <LCD_Instruction+0x110>)
 80005a6:	f001 faf9 	bl	8001b9c <HAL_GPIO_WritePin>
        HAL_GPIO_WritePin (LCD_D1_GPIO_Port, LCD_D1_Pin, DB & (1<<1) ? SET : RESET);
 80005aa:	79fb      	ldrb	r3, [r7, #7]
 80005ac:	105b      	asrs	r3, r3, #1
 80005ae:	b2db      	uxtb	r3, r3
 80005b0:	f003 0301 	and.w	r3, r3, #1
 80005b4:	b2db      	uxtb	r3, r3
 80005b6:	461a      	mov	r2, r3
 80005b8:	f44f 7100 	mov.w	r1, #512	; 0x200
 80005bc:	480c      	ldr	r0, [pc, #48]	; (80005f0 <LCD_Instruction+0x108>)
 80005be:	f001 faed 	bl	8001b9c <HAL_GPIO_WritePin>
        HAL_GPIO_WritePin (LCD_D0_GPIO_Port, LCD_D0_Pin, DB & (1<<0) ? SET : RESET);
 80005c2:	79fb      	ldrb	r3, [r7, #7]
 80005c4:	f003 0301 	and.w	r3, r3, #1
 80005c8:	b2db      	uxtb	r3, r3
 80005ca:	461a      	mov	r2, r3
 80005cc:	f44f 7180 	mov.w	r1, #256	; 0x100
 80005d0:	4807      	ldr	r0, [pc, #28]	; (80005f0 <LCD_Instruction+0x108>)
 80005d2:	f001 fae3 	bl	8001b9c <HAL_GPIO_WritePin>
        HAL_Delay(1);
 80005d6:	2001      	movs	r0, #1
 80005d8:	f001 f814 	bl	8001604 <HAL_Delay>
        HAL_GPIO_WritePin (LCD_E_GPIO_Port, LCD_E_Pin, RESET );
 80005dc:	2200      	movs	r2, #0
 80005de:	2101      	movs	r1, #1
 80005e0:	4803      	ldr	r0, [pc, #12]	; (80005f0 <LCD_Instruction+0x108>)
 80005e2:	f001 fadb 	bl	8001b9c <HAL_GPIO_WritePin>
}
 80005e6:	bf00      	nop
 80005e8:	3708      	adds	r7, #8
 80005ea:	46bd      	mov	sp, r7
 80005ec:	bd80      	pop	{r7, pc}
 80005ee:	bf00      	nop
 80005f0:	48000800 	.word	0x48000800
 80005f4:	48000c00 	.word	0x48000c00
 80005f8:	48000400 	.word	0x48000400

080005fc <LCD_Init>:



void LCD_Init()
{
 80005fc:	b580      	push	{r7, lr}
 80005fe:	af00      	add	r7, sp, #0
        HAL_Delay (65);
 8000600:	2041      	movs	r0, #65	; 0x41
 8000602:	f000 ffff 	bl	8001604 <HAL_Delay>
        HAL_GPIO_WritePin (LCD_RS_GPIO_Port, LCD_RS_Pin, RESET );
 8000606:	2200      	movs	r2, #0
 8000608:	2108      	movs	r1, #8
 800060a:	482b      	ldr	r0, [pc, #172]	; (80006b8 <LCD_Init+0xbc>)
 800060c:	f001 fac6 	bl	8001b9c <HAL_GPIO_WritePin>
        HAL_GPIO_WritePin (LCD_D7_GPIO_Port, LCD_D7_Pin, RESET);
 8000610:	2200      	movs	r2, #0
 8000612:	f44f 5180 	mov.w	r1, #4096	; 0x1000
 8000616:	4828      	ldr	r0, [pc, #160]	; (80006b8 <LCD_Init+0xbc>)
 8000618:	f001 fac0 	bl	8001b9c <HAL_GPIO_WritePin>
        HAL_GPIO_WritePin (LCD_D6_GPIO_Port, LCD_D6_Pin, RESET);
 800061c:	2200      	movs	r2, #0
 800061e:	2104      	movs	r1, #4
 8000620:	4826      	ldr	r0, [pc, #152]	; (80006bc <LCD_Init+0xc0>)
 8000622:	f001 fabb 	bl	8001b9c <HAL_GPIO_WritePin>
        HAL_GPIO_WritePin (LCD_D5_GPIO_Port, LCD_D5_Pin, SET);
 8000626:	2201      	movs	r2, #1
 8000628:	f44f 6100 	mov.w	r1, #2048	; 0x800
 800062c:	4822      	ldr	r0, [pc, #136]	; (80006b8 <LCD_Init+0xbc>)
 800062e:	f001 fab5 	bl	8001b9c <HAL_GPIO_WritePin>
        HAL_GPIO_WritePin (LCD_D4_GPIO_Port, LCD_D4_Pin, SET);
 8000632:	2201      	movs	r2, #1
 8000634:	f44f 6180 	mov.w	r1, #1024	; 0x400
 8000638:	481f      	ldr	r0, [pc, #124]	; (80006b8 <LCD_Init+0xbc>)
 800063a:	f001 faaf 	bl	8001b9c <HAL_GPIO_WritePin>
        HAL_GPIO_WritePin (LCD_D3_GPIO_Port, LCD_D3_Pin, RESET );
 800063e:	2200      	movs	r2, #0
 8000640:	2140      	movs	r1, #64	; 0x40
 8000642:	481d      	ldr	r0, [pc, #116]	; (80006b8 <LCD_Init+0xbc>)
 8000644:	f001 faaa 	bl	8001b9c <HAL_GPIO_WritePin>
        HAL_GPIO_WritePin (LCD_D2_GPIO_Port, LCD_D2_Pin, RESET);
 8000648:	2200      	movs	r2, #0
 800064a:	f44f 7180 	mov.w	r1, #256	; 0x100
 800064e:	481c      	ldr	r0, [pc, #112]	; (80006c0 <LCD_Init+0xc4>)
 8000650:	f001 faa4 	bl	8001b9c <HAL_GPIO_WritePin>
        HAL_GPIO_WritePin (LCD_D1_GPIO_Port, LCD_D1_Pin, RESET);
 8000654:	2200      	movs	r2, #0
 8000656:	f44f 7100 	mov.w	r1, #512	; 0x200
 800065a:	4817      	ldr	r0, [pc, #92]	; (80006b8 <LCD_Init+0xbc>)
 800065c:	f001 fa9e 	bl	8001b9c <HAL_GPIO_WritePin>
        HAL_GPIO_WritePin (LCD_D0_GPIO_Port, LCD_D0_Pin, RESET);
 8000660:	2200      	movs	r2, #0
 8000662:	f44f 7180 	mov.w	r1, #256	; 0x100
 8000666:	4814      	ldr	r0, [pc, #80]	; (80006b8 <LCD_Init+0xbc>)
 8000668:	f001 fa98 	bl	8001b9c <HAL_GPIO_WritePin>

        Trigger();
 800066c:	f7ff ff28 	bl	80004c0 <Trigger>
        HAL_Delay(7);
 8000670:	2007      	movs	r0, #7
 8000672:	f000 ffc7 	bl	8001604 <HAL_Delay>

        Trigger();
 8000676:	f7ff ff23 	bl	80004c0 <Trigger>
        HAL_Delay(5);
 800067a:	2005      	movs	r0, #5
 800067c:	f000 ffc2 	bl	8001604 <HAL_Delay>

        Trigger();
 8000680:	f7ff ff1e 	bl	80004c0 <Trigger>
        HAL_Delay(2);
 8000684:	2002      	movs	r0, #2
 8000686:	f000 ffbd 	bl	8001604 <HAL_Delay>
        LCD_Instruction (0b00110000, 0);
 800068a:	2100      	movs	r1, #0
 800068c:	2030      	movs	r0, #48	; 0x30
 800068e:	f7ff ff2b 	bl	80004e8 <LCD_Instruction>

        LCD_Instruction (0b00110000, 0);
 8000692:	2100      	movs	r1, #0
 8000694:	2030      	movs	r0, #48	; 0x30
 8000696:	f7ff ff27 	bl	80004e8 <LCD_Instruction>
        LCD_Instruction (0b00001000, 0);
 800069a:	2100      	movs	r1, #0
 800069c:	2008      	movs	r0, #8
 800069e:	f7ff ff23 	bl	80004e8 <LCD_Instruction>
        LCD_Instruction (0b00000001, 0);
 80006a2:	2100      	movs	r1, #0
 80006a4:	2001      	movs	r0, #1
 80006a6:	f7ff ff1f 	bl	80004e8 <LCD_Instruction>
        LCD_Instruction (0b00000110, 0);
 80006aa:	2100      	movs	r1, #0
 80006ac:	2006      	movs	r0, #6
 80006ae:	f7ff ff1b 	bl	80004e8 <LCD_Instruction>
}
 80006b2:	bf00      	nop
 80006b4:	bd80      	pop	{r7, pc}
 80006b6:	bf00      	nop
 80006b8:	48000800 	.word	0x48000800
 80006bc:	48000c00 	.word	0x48000c00
 80006c0:	48000400 	.word	0x48000400

080006c4 <letter>:


void letter(char c){
 80006c4:	b580      	push	{r7, lr}
 80006c6:	b082      	sub	sp, #8
 80006c8:	af00      	add	r7, sp, #0
 80006ca:	4603      	mov	r3, r0
 80006cc:	71fb      	strb	r3, [r7, #7]
	LCD_Instruction (c, 1);
 80006ce:	79fb      	ldrb	r3, [r7, #7]
 80006d0:	2101      	movs	r1, #1
 80006d2:	4618      	mov	r0, r3
 80006d4:	f7ff ff08 	bl	80004e8 <LCD_Instruction>
	HAL_Delay(50);
 80006d8:	2032      	movs	r0, #50	; 0x32
 80006da:	f000 ff93 	bl	8001604 <HAL_Delay>
}
 80006de:	bf00      	nop
 80006e0:	3708      	adds	r7, #8
 80006e2:	46bd      	mov	sp, r7
 80006e4:	bd80      	pop	{r7, pc}

080006e6 <word>:

void word(char* text){
 80006e6:	b580      	push	{r7, lr}
 80006e8:	b082      	sub	sp, #8
 80006ea:	af00      	add	r7, sp, #0
 80006ec:	6078      	str	r0, [r7, #4]
	while(*text){
 80006ee:	e009      	b.n	8000704 <word+0x1e>
		letter(*text++);
 80006f0:	687b      	ldr	r3, [r7, #4]
 80006f2:	1c5a      	adds	r2, r3, #1
 80006f4:	607a      	str	r2, [r7, #4]
 80006f6:	781b      	ldrb	r3, [r3, #0]
 80006f8:	4618      	mov	r0, r3
 80006fa:	f7ff ffe3 	bl	80006c4 <letter>
		HAL_Delay(50);
 80006fe:	2032      	movs	r0, #50	; 0x32
 8000700:	f000 ff80 	bl	8001604 <HAL_Delay>
	while(*text){
 8000704:	687b      	ldr	r3, [r7, #4]
 8000706:	781b      	ldrb	r3, [r3, #0]
 8000708:	2b00      	cmp	r3, #0
 800070a:	d1f1      	bne.n	80006f0 <word+0xa>
}
}
 800070c:	bf00      	nop
 800070e:	bf00      	nop
 8000710:	3708      	adds	r7, #8
 8000712:	46bd      	mov	sp, r7
 8000714:	bd80      	pop	{r7, pc}

08000716 <absvalue>:

int absvalue(int x){
 8000716:	b480      	push	{r7}
 8000718:	b083      	sub	sp, #12
 800071a:	af00      	add	r7, sp, #0
 800071c:	6078      	str	r0, [r7, #4]
	if(x<0){
 800071e:	687b      	ldr	r3, [r7, #4]
 8000720:	2b00      	cmp	r3, #0
 8000722:	da02      	bge.n	800072a <absvalue+0x14>
		x*=-1;
 8000724:	687b      	ldr	r3, [r7, #4]
 8000726:	425b      	negs	r3, r3
 8000728:	607b      	str	r3, [r7, #4]
	}
	return x;
 800072a:	687b      	ldr	r3, [r7, #4]
}
 800072c:	4618      	mov	r0, r3
 800072e:	370c      	adds	r7, #12
 8000730:	46bd      	mov	sp, r7
 8000732:	f85d 7b04 	ldr.w	r7, [sp], #4
 8000736:	4770      	bx	lr

08000738 <alphanum>:


char alphanum()
{
 8000738:	b580      	push	{r7, lr}
 800073a:	b088      	sub	sp, #32
 800073c:	af00      	add	r7, sp, #0
	int flaga1=1;
 800073e:	2301      	movs	r3, #1
 8000740:	61fb      	str	r3, [r7, #28]
	int flaga2=1;
 8000742:	2301      	movs	r3, #1
 8000744:	61bb      	str	r3, [r7, #24]
	int32_t tick2=0;
 8000746:	2300      	movs	r3, #0
 8000748:	617b      	str	r3, [r7, #20]
	int32_t tick1=0;
 800074a:	2300      	movs	r3, #0
 800074c:	60fb      	str	r3, [r7, #12]
	int flaga3=1;
 800074e:	2301      	movs	r3, #1
 8000750:	60bb      	str	r3, [r7, #8]
	int flaga4=1;
 8000752:	2301      	movs	r3, #1
 8000754:	607b      	str	r3, [r7, #4]
	char symbol=1;
 8000756:	2301      	movs	r3, #1
 8000758:	74fb      	strb	r3, [r7, #19]
	while(flaga3)
 800075a:	e3ec      	b.n	8000f36 <alphanum+0x7fe>
	{
	HAL_Delay(50);
 800075c:	2032      	movs	r0, #50	; 0x32
 800075e:	f000 ff51 	bl	8001604 <HAL_Delay>
	HAL_GPIO_WritePin (KEY_R1_GPIO_Port,KEY_R1_Pin, RESET);
 8000762:	2200      	movs	r2, #0
 8000764:	2140      	movs	r1, #64	; 0x40
 8000766:	f04f 4090 	mov.w	r0, #1207959552	; 0x48000000
 800076a:	f001 fa17 	bl	8001b9c <HAL_GPIO_WritePin>
	HAL_GPIO_WritePin (KEY_R2_GPIO_Port,KEY_R2_Pin, SET);
 800076e:	2201      	movs	r2, #1
 8000770:	2180      	movs	r1, #128	; 0x80
 8000772:	f04f 4090 	mov.w	r0, #1207959552	; 0x48000000
 8000776:	f001 fa11 	bl	8001b9c <HAL_GPIO_WritePin>
	HAL_GPIO_WritePin (KEY_R3_GPIO_Port,KEY_R3_Pin, SET);
 800077a:	2201      	movs	r2, #1
 800077c:	2140      	movs	r1, #64	; 0x40
 800077e:	48af      	ldr	r0, [pc, #700]	; (8000a3c <alphanum+0x304>)
 8000780:	f001 fa0c 	bl	8001b9c <HAL_GPIO_WritePin>
	HAL_GPIO_WritePin (KEY_R4_GPIO_Port,KEY_R4_Pin, SET);
 8000784:	2201      	movs	r2, #1
 8000786:	2180      	movs	r1, #128	; 0x80
 8000788:	48ad      	ldr	r0, [pc, #692]	; (8000a40 <alphanum+0x308>)
 800078a:	f001 fa07 	bl	8001b9c <HAL_GPIO_WritePin>
	//abc
	symbol='a'-1;
 800078e:	2360      	movs	r3, #96	; 0x60
 8000790:	74fb      	strb	r3, [r7, #19]
	if(HAL_GPIO_ReadPin(KEY_C2_GPIO_Port, KEY_C2_Pin)==0){
 8000792:	f44f 7180 	mov.w	r1, #256	; 0x100
 8000796:	f04f 4090 	mov.w	r0, #1207959552	; 0x48000000
 800079a:	f001 f9e7 	bl	8001b6c <HAL_GPIO_ReadPin>
 800079e:	4603      	mov	r3, r0
 80007a0:	2b00      	cmp	r3, #0
 80007a2:	d15c      	bne.n	800085e <alphanum+0x126>
	while(flaga2||flaga4)
 80007a4:	e055      	b.n	8000852 <alphanum+0x11a>
	{
		tick1=HAL_GetTick();
 80007a6:	f000 ff21 	bl	80015ec <HAL_GetTick>
 80007aa:	4603      	mov	r3, r0
 80007ac:	60fb      	str	r3, [r7, #12]
		if((HAL_GPIO_ReadPin(KEY_C2_GPIO_Port, KEY_C2_Pin)==0)&&flaga1&&flaga2)
 80007ae:	f44f 7180 	mov.w	r1, #256	; 0x100
 80007b2:	f04f 4090 	mov.w	r0, #1207959552	; 0x48000000
 80007b6:	f001 f9d9 	bl	8001b6c <HAL_GPIO_ReadPin>
 80007ba:	4603      	mov	r3, r0
 80007bc:	2b00      	cmp	r3, #0
 80007be:	d11d      	bne.n	80007fc <alphanum+0xc4>
 80007c0:	69fb      	ldr	r3, [r7, #28]
 80007c2:	2b00      	cmp	r3, #0
 80007c4:	d01a      	beq.n	80007fc <alphanum+0xc4>
 80007c6:	69bb      	ldr	r3, [r7, #24]
 80007c8:	2b00      	cmp	r3, #0
 80007ca:	d017      	beq.n	80007fc <alphanum+0xc4>
		{
			tick2=HAL_GetTick();
 80007cc:	f000 ff0e 	bl	80015ec <HAL_GetTick>
 80007d0:	4603      	mov	r3, r0
 80007d2:	617b      	str	r3, [r7, #20]
			flaga1=0;
 80007d4:	2300      	movs	r3, #0
 80007d6:	61fb      	str	r3, [r7, #28]
			flaga2=0;
 80007d8:	2300      	movs	r3, #0
 80007da:	61bb      	str	r3, [r7, #24]
			symbol++;
 80007dc:	7cfb      	ldrb	r3, [r7, #19]
 80007de:	3301      	adds	r3, #1
 80007e0:	74fb      	strb	r3, [r7, #19]

			LCD_Instruction (0b00000001, 0);
 80007e2:	2100      	movs	r1, #0
 80007e4:	2001      	movs	r0, #1
 80007e6:	f7ff fe7f 	bl	80004e8 <LCD_Instruction>
													LCD_Instruction (symbol, 1);
 80007ea:	7cfb      	ldrb	r3, [r7, #19]
 80007ec:	2101      	movs	r1, #1
 80007ee:	4618      	mov	r0, r3
 80007f0:	f7ff fe7a 	bl	80004e8 <LCD_Instruction>
													HAL_Delay(500);
 80007f4:	f44f 70fa 	mov.w	r0, #500	; 0x1f4
 80007f8:	f000 ff04 	bl	8001604 <HAL_Delay>
		}

	if((tick2-tick1<1000))
 80007fc:	697a      	ldr	r2, [r7, #20]
 80007fe:	68fb      	ldr	r3, [r7, #12]
 8000800:	1ad3      	subs	r3, r2, r3
 8000802:	f5b3 7f7a 	cmp.w	r3, #1000	; 0x3e8
 8000806:	da0c      	bge.n	8000822 <alphanum+0xea>
	{
		flaga1=1;
 8000808:	2301      	movs	r3, #1
 800080a:	61fb      	str	r3, [r7, #28]
		if((HAL_GPIO_ReadPin(KEY_C2_GPIO_Port, KEY_C2_Pin)==0))
 800080c:	f44f 7180 	mov.w	r1, #256	; 0x100
 8000810:	f04f 4090 	mov.w	r0, #1207959552	; 0x48000000
 8000814:	f001 f9aa 	bl	8001b6c <HAL_GPIO_ReadPin>
 8000818:	4603      	mov	r3, r0
 800081a:	2b00      	cmp	r3, #0
 800081c:	d101      	bne.n	8000822 <alphanum+0xea>
		{
		flaga2=1;
 800081e:	2301      	movs	r3, #1
 8000820:	61bb      	str	r3, [r7, #24]
		}
	}

	HAL_Delay(200);
 8000822:	20c8      	movs	r0, #200	; 0xc8
 8000824:	f000 feee 	bl	8001604 <HAL_Delay>
	if(((symbol>98)||(absvalue(tick2-tick1)>1500))&&(symbol>('a'-1)))
 8000828:	7cfb      	ldrb	r3, [r7, #19]
 800082a:	2b62      	cmp	r3, #98	; 0x62
 800082c:	d80a      	bhi.n	8000844 <alphanum+0x10c>
 800082e:	697a      	ldr	r2, [r7, #20]
 8000830:	68fb      	ldr	r3, [r7, #12]
 8000832:	1ad3      	subs	r3, r2, r3
 8000834:	4618      	mov	r0, r3
 8000836:	f7ff ff6e 	bl	8000716 <absvalue>
 800083a:	4603      	mov	r3, r0
 800083c:	f240 52dc 	movw	r2, #1500	; 0x5dc
 8000840:	4293      	cmp	r3, r2
 8000842:	dd06      	ble.n	8000852 <alphanum+0x11a>
 8000844:	7cfb      	ldrb	r3, [r7, #19]
 8000846:	2b60      	cmp	r3, #96	; 0x60
 8000848:	d903      	bls.n	8000852 <alphanum+0x11a>
	{
		flaga4=0;
 800084a:	2300      	movs	r3, #0
 800084c:	607b      	str	r3, [r7, #4]
	return symbol;
 800084e:	7cfb      	ldrb	r3, [r7, #19]
 8000850:	e376      	b.n	8000f40 <alphanum+0x808>
	while(flaga2||flaga4)
 8000852:	69bb      	ldr	r3, [r7, #24]
 8000854:	2b00      	cmp	r3, #0
 8000856:	d1a6      	bne.n	80007a6 <alphanum+0x6e>
 8000858:	687b      	ldr	r3, [r7, #4]
 800085a:	2b00      	cmp	r3, #0
 800085c:	d1a3      	bne.n	80007a6 <alphanum+0x6e>
	}//zamkniecie while
	}


//def
	symbol='d'-1;
 800085e:	2363      	movs	r3, #99	; 0x63
 8000860:	74fb      	strb	r3, [r7, #19]
	if(HAL_GPIO_ReadPin(KEY_C3_GPIO_Port, KEY_C3_Pin)==0){
 8000862:	f44f 6180 	mov.w	r1, #1024	; 0x400
 8000866:	4875      	ldr	r0, [pc, #468]	; (8000a3c <alphanum+0x304>)
 8000868:	f001 f980 	bl	8001b6c <HAL_GPIO_ReadPin>
 800086c:	4603      	mov	r3, r0
 800086e:	2b00      	cmp	r3, #0
 8000870:	d15a      	bne.n	8000928 <alphanum+0x1f0>
	while(flaga2||flaga4)
 8000872:	e053      	b.n	800091c <alphanum+0x1e4>
	{
		tick1=HAL_GetTick();
 8000874:	f000 feba 	bl	80015ec <HAL_GetTick>
 8000878:	4603      	mov	r3, r0
 800087a:	60fb      	str	r3, [r7, #12]
		if((HAL_GPIO_ReadPin(KEY_C3_GPIO_Port, KEY_C3_Pin)==0)&&flaga1&&flaga2)
 800087c:	f44f 6180 	mov.w	r1, #1024	; 0x400
 8000880:	486e      	ldr	r0, [pc, #440]	; (8000a3c <alphanum+0x304>)
 8000882:	f001 f973 	bl	8001b6c <HAL_GPIO_ReadPin>
 8000886:	4603      	mov	r3, r0
 8000888:	2b00      	cmp	r3, #0
 800088a:	d11d      	bne.n	80008c8 <alphanum+0x190>
 800088c:	69fb      	ldr	r3, [r7, #28]
 800088e:	2b00      	cmp	r3, #0
 8000890:	d01a      	beq.n	80008c8 <alphanum+0x190>
 8000892:	69bb      	ldr	r3, [r7, #24]
 8000894:	2b00      	cmp	r3, #0
 8000896:	d017      	beq.n	80008c8 <alphanum+0x190>
		{
			tick2=HAL_GetTick();
 8000898:	f000 fea8 	bl	80015ec <HAL_GetTick>
 800089c:	4603      	mov	r3, r0
 800089e:	617b      	str	r3, [r7, #20]
			flaga1=0;
 80008a0:	2300      	movs	r3, #0
 80008a2:	61fb      	str	r3, [r7, #28]
			flaga2=0;
 80008a4:	2300      	movs	r3, #0
 80008a6:	61bb      	str	r3, [r7, #24]
			symbol++;
 80008a8:	7cfb      	ldrb	r3, [r7, #19]
 80008aa:	3301      	adds	r3, #1
 80008ac:	74fb      	strb	r3, [r7, #19]

			LCD_Instruction (symbol, 1);
 80008ae:	7cfb      	ldrb	r3, [r7, #19]
 80008b0:	2101      	movs	r1, #1
 80008b2:	4618      	mov	r0, r3
 80008b4:	f7ff fe18 	bl	80004e8 <LCD_Instruction>
						HAL_Delay(500);
 80008b8:	f44f 70fa 	mov.w	r0, #500	; 0x1f4
 80008bc:	f000 fea2 	bl	8001604 <HAL_Delay>
						LCD_Instruction (0b00000001, 0);
 80008c0:	2100      	movs	r1, #0
 80008c2:	2001      	movs	r0, #1
 80008c4:	f7ff fe10 	bl	80004e8 <LCD_Instruction>
		}

	if((tick2-tick1<1000))
 80008c8:	697a      	ldr	r2, [r7, #20]
 80008ca:	68fb      	ldr	r3, [r7, #12]
 80008cc:	1ad3      	subs	r3, r2, r3
 80008ce:	f5b3 7f7a 	cmp.w	r3, #1000	; 0x3e8
 80008d2:	da0b      	bge.n	80008ec <alphanum+0x1b4>
	{
		flaga1=1;
 80008d4:	2301      	movs	r3, #1
 80008d6:	61fb      	str	r3, [r7, #28]
		if((HAL_GPIO_ReadPin(KEY_C3_GPIO_Port, KEY_C3_Pin)==0))
 80008d8:	f44f 6180 	mov.w	r1, #1024	; 0x400
 80008dc:	4857      	ldr	r0, [pc, #348]	; (8000a3c <alphanum+0x304>)
 80008de:	f001 f945 	bl	8001b6c <HAL_GPIO_ReadPin>
 80008e2:	4603      	mov	r3, r0
 80008e4:	2b00      	cmp	r3, #0
 80008e6:	d101      	bne.n	80008ec <alphanum+0x1b4>
		{
		flaga2=1;
 80008e8:	2301      	movs	r3, #1
 80008ea:	61bb      	str	r3, [r7, #24]
		}
	}
	HAL_Delay(200);
 80008ec:	20c8      	movs	r0, #200	; 0xc8
 80008ee:	f000 fe89 	bl	8001604 <HAL_Delay>
	if(((symbol>('f'-1))||(absvalue(tick2-tick1)>1500))&&(symbol>('d'-1)))
 80008f2:	7cfb      	ldrb	r3, [r7, #19]
 80008f4:	2b65      	cmp	r3, #101	; 0x65
 80008f6:	d80a      	bhi.n	800090e <alphanum+0x1d6>
 80008f8:	697a      	ldr	r2, [r7, #20]
 80008fa:	68fb      	ldr	r3, [r7, #12]
 80008fc:	1ad3      	subs	r3, r2, r3
 80008fe:	4618      	mov	r0, r3
 8000900:	f7ff ff09 	bl	8000716 <absvalue>
 8000904:	4603      	mov	r3, r0
 8000906:	f240 52dc 	movw	r2, #1500	; 0x5dc
 800090a:	4293      	cmp	r3, r2
 800090c:	dd06      	ble.n	800091c <alphanum+0x1e4>
 800090e:	7cfb      	ldrb	r3, [r7, #19]
 8000910:	2b63      	cmp	r3, #99	; 0x63
 8000912:	d903      	bls.n	800091c <alphanum+0x1e4>
	{
		flaga4=0;
 8000914:	2300      	movs	r3, #0
 8000916:	607b      	str	r3, [r7, #4]
	return symbol;
 8000918:	7cfb      	ldrb	r3, [r7, #19]
 800091a:	e311      	b.n	8000f40 <alphanum+0x808>
	while(flaga2||flaga4)
 800091c:	69bb      	ldr	r3, [r7, #24]
 800091e:	2b00      	cmp	r3, #0
 8000920:	d1a8      	bne.n	8000874 <alphanum+0x13c>
 8000922:	687b      	ldr	r3, [r7, #4]
 8000924:	2b00      	cmp	r3, #0
 8000926:	d1a5      	bne.n	8000874 <alphanum+0x13c>
		}
	}//zamkniecie while
	}


	HAL_GPIO_WritePin (KEY_R1_GPIO_Port,KEY_R1_Pin, SET);
 8000928:	2201      	movs	r2, #1
 800092a:	2140      	movs	r1, #64	; 0x40
 800092c:	f04f 4090 	mov.w	r0, #1207959552	; 0x48000000
 8000930:	f001 f934 	bl	8001b9c <HAL_GPIO_WritePin>
	HAL_GPIO_WritePin (KEY_R2_GPIO_Port,KEY_R2_Pin, RESET);
 8000934:	2200      	movs	r2, #0
 8000936:	2180      	movs	r1, #128	; 0x80
 8000938:	f04f 4090 	mov.w	r0, #1207959552	; 0x48000000
 800093c:	f001 f92e 	bl	8001b9c <HAL_GPIO_WritePin>
	HAL_GPIO_WritePin (KEY_R3_GPIO_Port,KEY_R3_Pin, SET);
 8000940:	2201      	movs	r2, #1
 8000942:	2140      	movs	r1, #64	; 0x40
 8000944:	483d      	ldr	r0, [pc, #244]	; (8000a3c <alphanum+0x304>)
 8000946:	f001 f929 	bl	8001b9c <HAL_GPIO_WritePin>
	HAL_GPIO_WritePin (KEY_R4_GPIO_Port,KEY_R4_Pin, SET);
 800094a:	2201      	movs	r2, #1
 800094c:	2180      	movs	r1, #128	; 0x80
 800094e:	483c      	ldr	r0, [pc, #240]	; (8000a40 <alphanum+0x308>)
 8000950:	f001 f924 	bl	8001b9c <HAL_GPIO_WritePin>

	//ghi
	symbol='g'-1;
 8000954:	2366      	movs	r3, #102	; 0x66
 8000956:	74fb      	strb	r3, [r7, #19]
		if(HAL_GPIO_ReadPin(KEY_C1_GPIO_Port, KEY_C1_Pin)==0){
 8000958:	f44f 7100 	mov.w	r1, #512	; 0x200
 800095c:	f04f 4090 	mov.w	r0, #1207959552	; 0x48000000
 8000960:	f001 f904 	bl	8001b6c <HAL_GPIO_ReadPin>
 8000964:	4603      	mov	r3, r0
 8000966:	2b00      	cmp	r3, #0
 8000968:	d15c      	bne.n	8000a24 <alphanum+0x2ec>
		while(flaga2||flaga4)
 800096a:	e055      	b.n	8000a18 <alphanum+0x2e0>
		{
			tick1=HAL_GetTick();
 800096c:	f000 fe3e 	bl	80015ec <HAL_GetTick>
 8000970:	4603      	mov	r3, r0
 8000972:	60fb      	str	r3, [r7, #12]
			if((HAL_GPIO_ReadPin(KEY_C1_GPIO_Port, KEY_C1_Pin)==0)&&flaga1&&flaga2)
 8000974:	f44f 7100 	mov.w	r1, #512	; 0x200
 8000978:	f04f 4090 	mov.w	r0, #1207959552	; 0x48000000
 800097c:	f001 f8f6 	bl	8001b6c <HAL_GPIO_ReadPin>
 8000980:	4603      	mov	r3, r0
 8000982:	2b00      	cmp	r3, #0
 8000984:	d11d      	bne.n	80009c2 <alphanum+0x28a>
 8000986:	69fb      	ldr	r3, [r7, #28]
 8000988:	2b00      	cmp	r3, #0
 800098a:	d01a      	beq.n	80009c2 <alphanum+0x28a>
 800098c:	69bb      	ldr	r3, [r7, #24]
 800098e:	2b00      	cmp	r3, #0
 8000990:	d017      	beq.n	80009c2 <alphanum+0x28a>
			{
				tick2=HAL_GetTick();
 8000992:	f000 fe2b 	bl	80015ec <HAL_GetTick>
 8000996:	4603      	mov	r3, r0
 8000998:	617b      	str	r3, [r7, #20]
				flaga1=0;
 800099a:	2300      	movs	r3, #0
 800099c:	61fb      	str	r3, [r7, #28]
				flaga2=0;
 800099e:	2300      	movs	r3, #0
 80009a0:	61bb      	str	r3, [r7, #24]
				symbol++;
 80009a2:	7cfb      	ldrb	r3, [r7, #19]
 80009a4:	3301      	adds	r3, #1
 80009a6:	74fb      	strb	r3, [r7, #19]

				LCD_Instruction (0b00000001, 0);
 80009a8:	2100      	movs	r1, #0
 80009aa:	2001      	movs	r0, #1
 80009ac:	f7ff fd9c 	bl	80004e8 <LCD_Instruction>
				LCD_Instruction (symbol, 1);
 80009b0:	7cfb      	ldrb	r3, [r7, #19]
 80009b2:	2101      	movs	r1, #1
 80009b4:	4618      	mov	r0, r3
 80009b6:	f7ff fd97 	bl	80004e8 <LCD_Instruction>
				HAL_Delay(500);
 80009ba:	f44f 70fa 	mov.w	r0, #500	; 0x1f4
 80009be:	f000 fe21 	bl	8001604 <HAL_Delay>
			}

		if((tick2-tick1<1000))
 80009c2:	697a      	ldr	r2, [r7, #20]
 80009c4:	68fb      	ldr	r3, [r7, #12]
 80009c6:	1ad3      	subs	r3, r2, r3
 80009c8:	f5b3 7f7a 	cmp.w	r3, #1000	; 0x3e8
 80009cc:	da0c      	bge.n	80009e8 <alphanum+0x2b0>
		{
			flaga1=1;
 80009ce:	2301      	movs	r3, #1
 80009d0:	61fb      	str	r3, [r7, #28]
			if((HAL_GPIO_ReadPin(KEY_C1_GPIO_Port, KEY_C1_Pin)==0))
 80009d2:	f44f 7100 	mov.w	r1, #512	; 0x200
 80009d6:	f04f 4090 	mov.w	r0, #1207959552	; 0x48000000
 80009da:	f001 f8c7 	bl	8001b6c <HAL_GPIO_ReadPin>
 80009de:	4603      	mov	r3, r0
 80009e0:	2b00      	cmp	r3, #0
 80009e2:	d101      	bne.n	80009e8 <alphanum+0x2b0>
			{
			flaga2=1;
 80009e4:	2301      	movs	r3, #1
 80009e6:	61bb      	str	r3, [r7, #24]
			}
		}

		HAL_Delay(200);
 80009e8:	20c8      	movs	r0, #200	; 0xc8
 80009ea:	f000 fe0b 	bl	8001604 <HAL_Delay>
		if(((symbol>('i')-1)||(absvalue(tick2-tick1)>1500))&&(symbol>('g'-1)))
 80009ee:	7cfb      	ldrb	r3, [r7, #19]
 80009f0:	2b68      	cmp	r3, #104	; 0x68
 80009f2:	d80a      	bhi.n	8000a0a <alphanum+0x2d2>
 80009f4:	697a      	ldr	r2, [r7, #20]
 80009f6:	68fb      	ldr	r3, [r7, #12]
 80009f8:	1ad3      	subs	r3, r2, r3
 80009fa:	4618      	mov	r0, r3
 80009fc:	f7ff fe8b 	bl	8000716 <absvalue>
 8000a00:	4603      	mov	r3, r0
 8000a02:	f240 52dc 	movw	r2, #1500	; 0x5dc
 8000a06:	4293      	cmp	r3, r2
 8000a08:	dd06      	ble.n	8000a18 <alphanum+0x2e0>
 8000a0a:	7cfb      	ldrb	r3, [r7, #19]
 8000a0c:	2b66      	cmp	r3, #102	; 0x66
 8000a0e:	d903      	bls.n	8000a18 <alphanum+0x2e0>
		{
			flaga4=0;
 8000a10:	2300      	movs	r3, #0
 8000a12:	607b      	str	r3, [r7, #4]
		return symbol;
 8000a14:	7cfb      	ldrb	r3, [r7, #19]
 8000a16:	e293      	b.n	8000f40 <alphanum+0x808>
		while(flaga2||flaga4)
 8000a18:	69bb      	ldr	r3, [r7, #24]
 8000a1a:	2b00      	cmp	r3, #0
 8000a1c:	d1a6      	bne.n	800096c <alphanum+0x234>
 8000a1e:	687b      	ldr	r3, [r7, #4]
 8000a20:	2b00      	cmp	r3, #0
 8000a22:	d1a3      	bne.n	800096c <alphanum+0x234>
			}
		}//zamkniecie while
		}
//jkl
		symbol='j'-1;
 8000a24:	2369      	movs	r3, #105	; 0x69
 8000a26:	74fb      	strb	r3, [r7, #19]
			if(HAL_GPIO_ReadPin(KEY_C2_GPIO_Port, KEY_C2_Pin)==0){
 8000a28:	f44f 7180 	mov.w	r1, #256	; 0x100
 8000a2c:	f04f 4090 	mov.w	r0, #1207959552	; 0x48000000
 8000a30:	f001 f89c 	bl	8001b6c <HAL_GPIO_ReadPin>
 8000a34:	4603      	mov	r3, r0
 8000a36:	2b00      	cmp	r3, #0
 8000a38:	d160      	bne.n	8000afc <alphanum+0x3c4>
			while(flaga2||flaga4)
 8000a3a:	e059      	b.n	8000af0 <alphanum+0x3b8>
 8000a3c:	48000400 	.word	0x48000400
 8000a40:	48000800 	.word	0x48000800
			{
				tick1=HAL_GetTick();
 8000a44:	f000 fdd2 	bl	80015ec <HAL_GetTick>
 8000a48:	4603      	mov	r3, r0
 8000a4a:	60fb      	str	r3, [r7, #12]
				if((HAL_GPIO_ReadPin(KEY_C2_GPIO_Port, KEY_C2_Pin)==0)&&flaga1&&flaga2)
 8000a4c:	f44f 7180 	mov.w	r1, #256	; 0x100
 8000a50:	f04f 4090 	mov.w	r0, #1207959552	; 0x48000000
 8000a54:	f001 f88a 	bl	8001b6c <HAL_GPIO_ReadPin>
 8000a58:	4603      	mov	r3, r0
 8000a5a:	2b00      	cmp	r3, #0
 8000a5c:	d11d      	bne.n	8000a9a <alphanum+0x362>
 8000a5e:	69fb      	ldr	r3, [r7, #28]
 8000a60:	2b00      	cmp	r3, #0
 8000a62:	d01a      	beq.n	8000a9a <alphanum+0x362>
 8000a64:	69bb      	ldr	r3, [r7, #24]
 8000a66:	2b00      	cmp	r3, #0
 8000a68:	d017      	beq.n	8000a9a <alphanum+0x362>
				{
					tick2=HAL_GetTick();
 8000a6a:	f000 fdbf 	bl	80015ec <HAL_GetTick>
 8000a6e:	4603      	mov	r3, r0
 8000a70:	617b      	str	r3, [r7, #20]
					flaga1=0;
 8000a72:	2300      	movs	r3, #0
 8000a74:	61fb      	str	r3, [r7, #28]
					flaga2=0;
 8000a76:	2300      	movs	r3, #0
 8000a78:	61bb      	str	r3, [r7, #24]
					symbol++;
 8000a7a:	7cfb      	ldrb	r3, [r7, #19]
 8000a7c:	3301      	adds	r3, #1
 8000a7e:	74fb      	strb	r3, [r7, #19]

					LCD_Instruction (0b00000001, 0);
 8000a80:	2100      	movs	r1, #0
 8000a82:	2001      	movs	r0, #1
 8000a84:	f7ff fd30 	bl	80004e8 <LCD_Instruction>
					LCD_Instruction (symbol, 1);
 8000a88:	7cfb      	ldrb	r3, [r7, #19]
 8000a8a:	2101      	movs	r1, #1
 8000a8c:	4618      	mov	r0, r3
 8000a8e:	f7ff fd2b 	bl	80004e8 <LCD_Instruction>
					HAL_Delay(500);
 8000a92:	f44f 70fa 	mov.w	r0, #500	; 0x1f4
 8000a96:	f000 fdb5 	bl	8001604 <HAL_Delay>
				}

			if((tick2-tick1<1000))
 8000a9a:	697a      	ldr	r2, [r7, #20]
 8000a9c:	68fb      	ldr	r3, [r7, #12]
 8000a9e:	1ad3      	subs	r3, r2, r3
 8000aa0:	f5b3 7f7a 	cmp.w	r3, #1000	; 0x3e8
 8000aa4:	da0c      	bge.n	8000ac0 <alphanum+0x388>
			{
				flaga1=1;
 8000aa6:	2301      	movs	r3, #1
 8000aa8:	61fb      	str	r3, [r7, #28]
				if((HAL_GPIO_ReadPin(KEY_C2_GPIO_Port, KEY_C2_Pin)==0))
 8000aaa:	f44f 7180 	mov.w	r1, #256	; 0x100
 8000aae:	f04f 4090 	mov.w	r0, #1207959552	; 0x48000000
 8000ab2:	f001 f85b 	bl	8001b6c <HAL_GPIO_ReadPin>
 8000ab6:	4603      	mov	r3, r0
 8000ab8:	2b00      	cmp	r3, #0
 8000aba:	d101      	bne.n	8000ac0 <alphanum+0x388>
				{
				flaga2=1;
 8000abc:	2301      	movs	r3, #1
 8000abe:	61bb      	str	r3, [r7, #24]
				}
			}

			HAL_Delay(200);
 8000ac0:	20c8      	movs	r0, #200	; 0xc8
 8000ac2:	f000 fd9f 	bl	8001604 <HAL_Delay>
			if(((symbol>('l')-1)||(absvalue(tick2-tick1)>1500))&&(symbol>('j'-1)))
 8000ac6:	7cfb      	ldrb	r3, [r7, #19]
 8000ac8:	2b6b      	cmp	r3, #107	; 0x6b
 8000aca:	d80a      	bhi.n	8000ae2 <alphanum+0x3aa>
 8000acc:	697a      	ldr	r2, [r7, #20]
 8000ace:	68fb      	ldr	r3, [r7, #12]
 8000ad0:	1ad3      	subs	r3, r2, r3
 8000ad2:	4618      	mov	r0, r3
 8000ad4:	f7ff fe1f 	bl	8000716 <absvalue>
 8000ad8:	4603      	mov	r3, r0
 8000ada:	f240 52dc 	movw	r2, #1500	; 0x5dc
 8000ade:	4293      	cmp	r3, r2
 8000ae0:	dd06      	ble.n	8000af0 <alphanum+0x3b8>
 8000ae2:	7cfb      	ldrb	r3, [r7, #19]
 8000ae4:	2b69      	cmp	r3, #105	; 0x69
 8000ae6:	d903      	bls.n	8000af0 <alphanum+0x3b8>
			{
				flaga4=0;
 8000ae8:	2300      	movs	r3, #0
 8000aea:	607b      	str	r3, [r7, #4]
			return symbol;
 8000aec:	7cfb      	ldrb	r3, [r7, #19]
 8000aee:	e227      	b.n	8000f40 <alphanum+0x808>
			while(flaga2||flaga4)
 8000af0:	69bb      	ldr	r3, [r7, #24]
 8000af2:	2b00      	cmp	r3, #0
 8000af4:	d1a6      	bne.n	8000a44 <alphanum+0x30c>
 8000af6:	687b      	ldr	r3, [r7, #4]
 8000af8:	2b00      	cmp	r3, #0
 8000afa:	d1a3      	bne.n	8000a44 <alphanum+0x30c>
				}
			}//zamkniecie while
			}

//mno
			symbol='m'-1;
 8000afc:	236c      	movs	r3, #108	; 0x6c
 8000afe:	74fb      	strb	r3, [r7, #19]
				if(HAL_GPIO_ReadPin(KEY_C3_GPIO_Port, KEY_C3_Pin)==0){
 8000b00:	f44f 6180 	mov.w	r1, #1024	; 0x400
 8000b04:	48a8      	ldr	r0, [pc, #672]	; (8000da8 <alphanum+0x670>)
 8000b06:	f001 f831 	bl	8001b6c <HAL_GPIO_ReadPin>
 8000b0a:	4603      	mov	r3, r0
 8000b0c:	2b00      	cmp	r3, #0
 8000b0e:	d15a      	bne.n	8000bc6 <alphanum+0x48e>
				while(flaga2||flaga4)
 8000b10:	e053      	b.n	8000bba <alphanum+0x482>
				{
					tick1=HAL_GetTick();
 8000b12:	f000 fd6b 	bl	80015ec <HAL_GetTick>
 8000b16:	4603      	mov	r3, r0
 8000b18:	60fb      	str	r3, [r7, #12]
					if((HAL_GPIO_ReadPin(KEY_C3_GPIO_Port, KEY_C3_Pin)==0)&&flaga1&&flaga2)
 8000b1a:	f44f 6180 	mov.w	r1, #1024	; 0x400
 8000b1e:	48a2      	ldr	r0, [pc, #648]	; (8000da8 <alphanum+0x670>)
 8000b20:	f001 f824 	bl	8001b6c <HAL_GPIO_ReadPin>
 8000b24:	4603      	mov	r3, r0
 8000b26:	2b00      	cmp	r3, #0
 8000b28:	d11d      	bne.n	8000b66 <alphanum+0x42e>
 8000b2a:	69fb      	ldr	r3, [r7, #28]
 8000b2c:	2b00      	cmp	r3, #0
 8000b2e:	d01a      	beq.n	8000b66 <alphanum+0x42e>
 8000b30:	69bb      	ldr	r3, [r7, #24]
 8000b32:	2b00      	cmp	r3, #0
 8000b34:	d017      	beq.n	8000b66 <alphanum+0x42e>
					{
						tick2=HAL_GetTick();
 8000b36:	f000 fd59 	bl	80015ec <HAL_GetTick>
 8000b3a:	4603      	mov	r3, r0
 8000b3c:	617b      	str	r3, [r7, #20]
						flaga1=0;
 8000b3e:	2300      	movs	r3, #0
 8000b40:	61fb      	str	r3, [r7, #28]
						flaga2=0;
 8000b42:	2300      	movs	r3, #0
 8000b44:	61bb      	str	r3, [r7, #24]
						symbol++;
 8000b46:	7cfb      	ldrb	r3, [r7, #19]
 8000b48:	3301      	adds	r3, #1
 8000b4a:	74fb      	strb	r3, [r7, #19]

						LCD_Instruction (0b00000001, 0);
 8000b4c:	2100      	movs	r1, #0
 8000b4e:	2001      	movs	r0, #1
 8000b50:	f7ff fcca 	bl	80004e8 <LCD_Instruction>
						LCD_Instruction (symbol, 1);
 8000b54:	7cfb      	ldrb	r3, [r7, #19]
 8000b56:	2101      	movs	r1, #1
 8000b58:	4618      	mov	r0, r3
 8000b5a:	f7ff fcc5 	bl	80004e8 <LCD_Instruction>
						HAL_Delay(500);
 8000b5e:	f44f 70fa 	mov.w	r0, #500	; 0x1f4
 8000b62:	f000 fd4f 	bl	8001604 <HAL_Delay>
					}

				if((tick2-tick1<1000))
 8000b66:	697a      	ldr	r2, [r7, #20]
 8000b68:	68fb      	ldr	r3, [r7, #12]
 8000b6a:	1ad3      	subs	r3, r2, r3
 8000b6c:	f5b3 7f7a 	cmp.w	r3, #1000	; 0x3e8
 8000b70:	da0b      	bge.n	8000b8a <alphanum+0x452>
				{
					flaga1=1;
 8000b72:	2301      	movs	r3, #1
 8000b74:	61fb      	str	r3, [r7, #28]
					if((HAL_GPIO_ReadPin(KEY_C3_GPIO_Port, KEY_C3_Pin)==0))
 8000b76:	f44f 6180 	mov.w	r1, #1024	; 0x400
 8000b7a:	488b      	ldr	r0, [pc, #556]	; (8000da8 <alphanum+0x670>)
 8000b7c:	f000 fff6 	bl	8001b6c <HAL_GPIO_ReadPin>
 8000b80:	4603      	mov	r3, r0
 8000b82:	2b00      	cmp	r3, #0
 8000b84:	d101      	bne.n	8000b8a <alphanum+0x452>
					{
					flaga2=1;
 8000b86:	2301      	movs	r3, #1
 8000b88:	61bb      	str	r3, [r7, #24]
					}
				}

				HAL_Delay(200);
 8000b8a:	20c8      	movs	r0, #200	; 0xc8
 8000b8c:	f000 fd3a 	bl	8001604 <HAL_Delay>
				if(((symbol>('o')-1)||(absvalue(tick2-tick1)>1500))&&(symbol>('m'-1)))
 8000b90:	7cfb      	ldrb	r3, [r7, #19]
 8000b92:	2b6e      	cmp	r3, #110	; 0x6e
 8000b94:	d80a      	bhi.n	8000bac <alphanum+0x474>
 8000b96:	697a      	ldr	r2, [r7, #20]
 8000b98:	68fb      	ldr	r3, [r7, #12]
 8000b9a:	1ad3      	subs	r3, r2, r3
 8000b9c:	4618      	mov	r0, r3
 8000b9e:	f7ff fdba 	bl	8000716 <absvalue>
 8000ba2:	4603      	mov	r3, r0
 8000ba4:	f240 52dc 	movw	r2, #1500	; 0x5dc
 8000ba8:	4293      	cmp	r3, r2
 8000baa:	dd06      	ble.n	8000bba <alphanum+0x482>
 8000bac:	7cfb      	ldrb	r3, [r7, #19]
 8000bae:	2b6c      	cmp	r3, #108	; 0x6c
 8000bb0:	d903      	bls.n	8000bba <alphanum+0x482>
				{
					flaga4=0;
 8000bb2:	2300      	movs	r3, #0
 8000bb4:	607b      	str	r3, [r7, #4]
				return symbol;
 8000bb6:	7cfb      	ldrb	r3, [r7, #19]
 8000bb8:	e1c2      	b.n	8000f40 <alphanum+0x808>
				while(flaga2||flaga4)
 8000bba:	69bb      	ldr	r3, [r7, #24]
 8000bbc:	2b00      	cmp	r3, #0
 8000bbe:	d1a8      	bne.n	8000b12 <alphanum+0x3da>
 8000bc0:	687b      	ldr	r3, [r7, #4]
 8000bc2:	2b00      	cmp	r3, #0
 8000bc4:	d1a5      	bne.n	8000b12 <alphanum+0x3da>





				HAL_GPIO_WritePin (KEY_R1_GPIO_Port,KEY_R1_Pin, SET);
 8000bc6:	2201      	movs	r2, #1
 8000bc8:	2140      	movs	r1, #64	; 0x40
 8000bca:	f04f 4090 	mov.w	r0, #1207959552	; 0x48000000
 8000bce:	f000 ffe5 	bl	8001b9c <HAL_GPIO_WritePin>
				HAL_GPIO_WritePin (KEY_R2_GPIO_Port,KEY_R2_Pin, SET);
 8000bd2:	2201      	movs	r2, #1
 8000bd4:	2180      	movs	r1, #128	; 0x80
 8000bd6:	f04f 4090 	mov.w	r0, #1207959552	; 0x48000000
 8000bda:	f000 ffdf 	bl	8001b9c <HAL_GPIO_WritePin>
				HAL_GPIO_WritePin (KEY_R3_GPIO_Port,KEY_R3_Pin, RESET);
 8000bde:	2200      	movs	r2, #0
 8000be0:	2140      	movs	r1, #64	; 0x40
 8000be2:	4871      	ldr	r0, [pc, #452]	; (8000da8 <alphanum+0x670>)
 8000be4:	f000 ffda 	bl	8001b9c <HAL_GPIO_WritePin>
				HAL_GPIO_WritePin (KEY_R4_GPIO_Port,KEY_R4_Pin, SET);
 8000be8:	2201      	movs	r2, #1
 8000bea:	2180      	movs	r1, #128	; 0x80
 8000bec:	486f      	ldr	r0, [pc, #444]	; (8000dac <alphanum+0x674>)
 8000bee:	f000 ffd5 	bl	8001b9c <HAL_GPIO_WritePin>

//pqrs
				symbol='p'-1;
 8000bf2:	236f      	movs	r3, #111	; 0x6f
 8000bf4:	74fb      	strb	r3, [r7, #19]
								if(HAL_GPIO_ReadPin(KEY_C1_GPIO_Port, KEY_C1_Pin)==0){
 8000bf6:	f44f 7100 	mov.w	r1, #512	; 0x200
 8000bfa:	f04f 4090 	mov.w	r0, #1207959552	; 0x48000000
 8000bfe:	f000 ffb5 	bl	8001b6c <HAL_GPIO_ReadPin>
 8000c02:	4603      	mov	r3, r0
 8000c04:	2b00      	cmp	r3, #0
 8000c06:	d15c      	bne.n	8000cc2 <alphanum+0x58a>
								while(flaga2||flaga4)
 8000c08:	e055      	b.n	8000cb6 <alphanum+0x57e>
								{
									tick1=HAL_GetTick();
 8000c0a:	f000 fcef 	bl	80015ec <HAL_GetTick>
 8000c0e:	4603      	mov	r3, r0
 8000c10:	60fb      	str	r3, [r7, #12]
									if((HAL_GPIO_ReadPin(KEY_C1_GPIO_Port, KEY_C1_Pin)==0)&&flaga1&&flaga2)
 8000c12:	f44f 7100 	mov.w	r1, #512	; 0x200
 8000c16:	f04f 4090 	mov.w	r0, #1207959552	; 0x48000000
 8000c1a:	f000 ffa7 	bl	8001b6c <HAL_GPIO_ReadPin>
 8000c1e:	4603      	mov	r3, r0
 8000c20:	2b00      	cmp	r3, #0
 8000c22:	d11d      	bne.n	8000c60 <alphanum+0x528>
 8000c24:	69fb      	ldr	r3, [r7, #28]
 8000c26:	2b00      	cmp	r3, #0
 8000c28:	d01a      	beq.n	8000c60 <alphanum+0x528>
 8000c2a:	69bb      	ldr	r3, [r7, #24]
 8000c2c:	2b00      	cmp	r3, #0
 8000c2e:	d017      	beq.n	8000c60 <alphanum+0x528>
									{
										tick2=HAL_GetTick();
 8000c30:	f000 fcdc 	bl	80015ec <HAL_GetTick>
 8000c34:	4603      	mov	r3, r0
 8000c36:	617b      	str	r3, [r7, #20]
										flaga1=0;
 8000c38:	2300      	movs	r3, #0
 8000c3a:	61fb      	str	r3, [r7, #28]
										flaga2=0;
 8000c3c:	2300      	movs	r3, #0
 8000c3e:	61bb      	str	r3, [r7, #24]
										symbol++;
 8000c40:	7cfb      	ldrb	r3, [r7, #19]
 8000c42:	3301      	adds	r3, #1
 8000c44:	74fb      	strb	r3, [r7, #19]

										LCD_Instruction (0b00000001, 0);
 8000c46:	2100      	movs	r1, #0
 8000c48:	2001      	movs	r0, #1
 8000c4a:	f7ff fc4d 	bl	80004e8 <LCD_Instruction>
										LCD_Instruction (symbol, 1);
 8000c4e:	7cfb      	ldrb	r3, [r7, #19]
 8000c50:	2101      	movs	r1, #1
 8000c52:	4618      	mov	r0, r3
 8000c54:	f7ff fc48 	bl	80004e8 <LCD_Instruction>
										HAL_Delay(500);
 8000c58:	f44f 70fa 	mov.w	r0, #500	; 0x1f4
 8000c5c:	f000 fcd2 	bl	8001604 <HAL_Delay>
									}

								if((tick2-tick1<1000))
 8000c60:	697a      	ldr	r2, [r7, #20]
 8000c62:	68fb      	ldr	r3, [r7, #12]
 8000c64:	1ad3      	subs	r3, r2, r3
 8000c66:	f5b3 7f7a 	cmp.w	r3, #1000	; 0x3e8
 8000c6a:	da0c      	bge.n	8000c86 <alphanum+0x54e>
								{
									flaga1=1;
 8000c6c:	2301      	movs	r3, #1
 8000c6e:	61fb      	str	r3, [r7, #28]
									if((HAL_GPIO_ReadPin(KEY_C1_GPIO_Port, KEY_C1_Pin)==0))
 8000c70:	f44f 7100 	mov.w	r1, #512	; 0x200
 8000c74:	f04f 4090 	mov.w	r0, #1207959552	; 0x48000000
 8000c78:	f000 ff78 	bl	8001b6c <HAL_GPIO_ReadPin>
 8000c7c:	4603      	mov	r3, r0
 8000c7e:	2b00      	cmp	r3, #0
 8000c80:	d101      	bne.n	8000c86 <alphanum+0x54e>
									{
									flaga2=1;
 8000c82:	2301      	movs	r3, #1
 8000c84:	61bb      	str	r3, [r7, #24]
									}
								}

								HAL_Delay(200);
 8000c86:	20c8      	movs	r0, #200	; 0xc8
 8000c88:	f000 fcbc 	bl	8001604 <HAL_Delay>
								if(((symbol>('s')-1)||(absvalue(tick2-tick1)>1500))&&(symbol>('p'-1)))
 8000c8c:	7cfb      	ldrb	r3, [r7, #19]
 8000c8e:	2b72      	cmp	r3, #114	; 0x72
 8000c90:	d80a      	bhi.n	8000ca8 <alphanum+0x570>
 8000c92:	697a      	ldr	r2, [r7, #20]
 8000c94:	68fb      	ldr	r3, [r7, #12]
 8000c96:	1ad3      	subs	r3, r2, r3
 8000c98:	4618      	mov	r0, r3
 8000c9a:	f7ff fd3c 	bl	8000716 <absvalue>
 8000c9e:	4603      	mov	r3, r0
 8000ca0:	f240 52dc 	movw	r2, #1500	; 0x5dc
 8000ca4:	4293      	cmp	r3, r2
 8000ca6:	dd06      	ble.n	8000cb6 <alphanum+0x57e>
 8000ca8:	7cfb      	ldrb	r3, [r7, #19]
 8000caa:	2b6f      	cmp	r3, #111	; 0x6f
 8000cac:	d903      	bls.n	8000cb6 <alphanum+0x57e>
								{
									flaga4=0;
 8000cae:	2300      	movs	r3, #0
 8000cb0:	607b      	str	r3, [r7, #4]
								return symbol;
 8000cb2:	7cfb      	ldrb	r3, [r7, #19]
 8000cb4:	e144      	b.n	8000f40 <alphanum+0x808>
								while(flaga2||flaga4)
 8000cb6:	69bb      	ldr	r3, [r7, #24]
 8000cb8:	2b00      	cmp	r3, #0
 8000cba:	d1a6      	bne.n	8000c0a <alphanum+0x4d2>
 8000cbc:	687b      	ldr	r3, [r7, #4]
 8000cbe:	2b00      	cmp	r3, #0
 8000cc0:	d1a3      	bne.n	8000c0a <alphanum+0x4d2>
									}
								}//zamkniecie while
								}

//tuv
								symbol='t'-1;
 8000cc2:	2373      	movs	r3, #115	; 0x73
 8000cc4:	74fb      	strb	r3, [r7, #19]
												if(HAL_GPIO_ReadPin(KEY_C2_GPIO_Port, KEY_C2_Pin)==0){
 8000cc6:	f44f 7180 	mov.w	r1, #256	; 0x100
 8000cca:	f04f 4090 	mov.w	r0, #1207959552	; 0x48000000
 8000cce:	f000 ff4d 	bl	8001b6c <HAL_GPIO_ReadPin>
 8000cd2:	4603      	mov	r3, r0
 8000cd4:	2b00      	cmp	r3, #0
 8000cd6:	d15c      	bne.n	8000d92 <alphanum+0x65a>
												while(flaga2||flaga4)
 8000cd8:	e055      	b.n	8000d86 <alphanum+0x64e>
												{
													tick1=HAL_GetTick();
 8000cda:	f000 fc87 	bl	80015ec <HAL_GetTick>
 8000cde:	4603      	mov	r3, r0
 8000ce0:	60fb      	str	r3, [r7, #12]
													if((HAL_GPIO_ReadPin(KEY_C2_GPIO_Port, KEY_C2_Pin)==0)&&flaga1&&flaga2)
 8000ce2:	f44f 7180 	mov.w	r1, #256	; 0x100
 8000ce6:	f04f 4090 	mov.w	r0, #1207959552	; 0x48000000
 8000cea:	f000 ff3f 	bl	8001b6c <HAL_GPIO_ReadPin>
 8000cee:	4603      	mov	r3, r0
 8000cf0:	2b00      	cmp	r3, #0
 8000cf2:	d11d      	bne.n	8000d30 <alphanum+0x5f8>
 8000cf4:	69fb      	ldr	r3, [r7, #28]
 8000cf6:	2b00      	cmp	r3, #0
 8000cf8:	d01a      	beq.n	8000d30 <alphanum+0x5f8>
 8000cfa:	69bb      	ldr	r3, [r7, #24]
 8000cfc:	2b00      	cmp	r3, #0
 8000cfe:	d017      	beq.n	8000d30 <alphanum+0x5f8>
													{
														tick2=HAL_GetTick();
 8000d00:	f000 fc74 	bl	80015ec <HAL_GetTick>
 8000d04:	4603      	mov	r3, r0
 8000d06:	617b      	str	r3, [r7, #20]
														flaga1=0;
 8000d08:	2300      	movs	r3, #0
 8000d0a:	61fb      	str	r3, [r7, #28]
														flaga2=0;
 8000d0c:	2300      	movs	r3, #0
 8000d0e:	61bb      	str	r3, [r7, #24]
														symbol++;
 8000d10:	7cfb      	ldrb	r3, [r7, #19]
 8000d12:	3301      	adds	r3, #1
 8000d14:	74fb      	strb	r3, [r7, #19]

														LCD_Instruction (0b00000001, 0);
 8000d16:	2100      	movs	r1, #0
 8000d18:	2001      	movs	r0, #1
 8000d1a:	f7ff fbe5 	bl	80004e8 <LCD_Instruction>
														LCD_Instruction (symbol, 1);
 8000d1e:	7cfb      	ldrb	r3, [r7, #19]
 8000d20:	2101      	movs	r1, #1
 8000d22:	4618      	mov	r0, r3
 8000d24:	f7ff fbe0 	bl	80004e8 <LCD_Instruction>
														HAL_Delay(500);
 8000d28:	f44f 70fa 	mov.w	r0, #500	; 0x1f4
 8000d2c:	f000 fc6a 	bl	8001604 <HAL_Delay>
													}

												if((tick2-tick1<1000))
 8000d30:	697a      	ldr	r2, [r7, #20]
 8000d32:	68fb      	ldr	r3, [r7, #12]
 8000d34:	1ad3      	subs	r3, r2, r3
 8000d36:	f5b3 7f7a 	cmp.w	r3, #1000	; 0x3e8
 8000d3a:	da0c      	bge.n	8000d56 <alphanum+0x61e>
												{
													flaga1=1;
 8000d3c:	2301      	movs	r3, #1
 8000d3e:	61fb      	str	r3, [r7, #28]
													if((HAL_GPIO_ReadPin(KEY_C2_GPIO_Port, KEY_C2_Pin)==0))
 8000d40:	f44f 7180 	mov.w	r1, #256	; 0x100
 8000d44:	f04f 4090 	mov.w	r0, #1207959552	; 0x48000000
 8000d48:	f000 ff10 	bl	8001b6c <HAL_GPIO_ReadPin>
 8000d4c:	4603      	mov	r3, r0
 8000d4e:	2b00      	cmp	r3, #0
 8000d50:	d101      	bne.n	8000d56 <alphanum+0x61e>
													{
													flaga2=1;
 8000d52:	2301      	movs	r3, #1
 8000d54:	61bb      	str	r3, [r7, #24]
													}
												}

												HAL_Delay(200);
 8000d56:	20c8      	movs	r0, #200	; 0xc8
 8000d58:	f000 fc54 	bl	8001604 <HAL_Delay>
												if(((symbol>('v')-1)||(absvalue(tick2-tick1)>1500))&&(symbol>('t'-1)))
 8000d5c:	7cfb      	ldrb	r3, [r7, #19]
 8000d5e:	2b75      	cmp	r3, #117	; 0x75
 8000d60:	d80a      	bhi.n	8000d78 <alphanum+0x640>
 8000d62:	697a      	ldr	r2, [r7, #20]
 8000d64:	68fb      	ldr	r3, [r7, #12]
 8000d66:	1ad3      	subs	r3, r2, r3
 8000d68:	4618      	mov	r0, r3
 8000d6a:	f7ff fcd4 	bl	8000716 <absvalue>
 8000d6e:	4603      	mov	r3, r0
 8000d70:	f240 52dc 	movw	r2, #1500	; 0x5dc
 8000d74:	4293      	cmp	r3, r2
 8000d76:	dd06      	ble.n	8000d86 <alphanum+0x64e>
 8000d78:	7cfb      	ldrb	r3, [r7, #19]
 8000d7a:	2b73      	cmp	r3, #115	; 0x73
 8000d7c:	d903      	bls.n	8000d86 <alphanum+0x64e>
												{
													flaga4=0;
 8000d7e:	2300      	movs	r3, #0
 8000d80:	607b      	str	r3, [r7, #4]
												return symbol;
 8000d82:	7cfb      	ldrb	r3, [r7, #19]
 8000d84:	e0dc      	b.n	8000f40 <alphanum+0x808>
												while(flaga2||flaga4)
 8000d86:	69bb      	ldr	r3, [r7, #24]
 8000d88:	2b00      	cmp	r3, #0
 8000d8a:	d1a6      	bne.n	8000cda <alphanum+0x5a2>
 8000d8c:	687b      	ldr	r3, [r7, #4]
 8000d8e:	2b00      	cmp	r3, #0
 8000d90:	d1a3      	bne.n	8000cda <alphanum+0x5a2>
												}//zamkniecie while
												}


												//wxyz
												symbol='w'-1;
 8000d92:	2376      	movs	r3, #118	; 0x76
 8000d94:	74fb      	strb	r3, [r7, #19]
																if(HAL_GPIO_ReadPin(KEY_C3_GPIO_Port, KEY_C3_Pin)==0){
 8000d96:	f44f 6180 	mov.w	r1, #1024	; 0x400
 8000d9a:	4803      	ldr	r0, [pc, #12]	; (8000da8 <alphanum+0x670>)
 8000d9c:	f000 fee6 	bl	8001b6c <HAL_GPIO_ReadPin>
 8000da0:	4603      	mov	r3, r0
 8000da2:	2b00      	cmp	r3, #0
 8000da4:	d15e      	bne.n	8000e64 <alphanum+0x72c>
																while(flaga2||flaga4)
 8000da6:	e057      	b.n	8000e58 <alphanum+0x720>
 8000da8:	48000400 	.word	0x48000400
 8000dac:	48000800 	.word	0x48000800
																{
																	tick1=HAL_GetTick();
 8000db0:	f000 fc1c 	bl	80015ec <HAL_GetTick>
 8000db4:	4603      	mov	r3, r0
 8000db6:	60fb      	str	r3, [r7, #12]
																	if((HAL_GPIO_ReadPin(KEY_C3_GPIO_Port, KEY_C3_Pin)==0)&&flaga1&&flaga2)
 8000db8:	f44f 6180 	mov.w	r1, #1024	; 0x400
 8000dbc:	4862      	ldr	r0, [pc, #392]	; (8000f48 <alphanum+0x810>)
 8000dbe:	f000 fed5 	bl	8001b6c <HAL_GPIO_ReadPin>
 8000dc2:	4603      	mov	r3, r0
 8000dc4:	2b00      	cmp	r3, #0
 8000dc6:	d11d      	bne.n	8000e04 <alphanum+0x6cc>
 8000dc8:	69fb      	ldr	r3, [r7, #28]
 8000dca:	2b00      	cmp	r3, #0
 8000dcc:	d01a      	beq.n	8000e04 <alphanum+0x6cc>
 8000dce:	69bb      	ldr	r3, [r7, #24]
 8000dd0:	2b00      	cmp	r3, #0
 8000dd2:	d017      	beq.n	8000e04 <alphanum+0x6cc>
																	{
																		tick2=HAL_GetTick();
 8000dd4:	f000 fc0a 	bl	80015ec <HAL_GetTick>
 8000dd8:	4603      	mov	r3, r0
 8000dda:	617b      	str	r3, [r7, #20]
																		flaga1=0;
 8000ddc:	2300      	movs	r3, #0
 8000dde:	61fb      	str	r3, [r7, #28]
																		flaga2=0;
 8000de0:	2300      	movs	r3, #0
 8000de2:	61bb      	str	r3, [r7, #24]
																		symbol++;
 8000de4:	7cfb      	ldrb	r3, [r7, #19]
 8000de6:	3301      	adds	r3, #1
 8000de8:	74fb      	strb	r3, [r7, #19]

																		LCD_Instruction (0b00000001, 0);
 8000dea:	2100      	movs	r1, #0
 8000dec:	2001      	movs	r0, #1
 8000dee:	f7ff fb7b 	bl	80004e8 <LCD_Instruction>
																		LCD_Instruction (symbol, 1);
 8000df2:	7cfb      	ldrb	r3, [r7, #19]
 8000df4:	2101      	movs	r1, #1
 8000df6:	4618      	mov	r0, r3
 8000df8:	f7ff fb76 	bl	80004e8 <LCD_Instruction>
																		HAL_Delay(500);
 8000dfc:	f44f 70fa 	mov.w	r0, #500	; 0x1f4
 8000e00:	f000 fc00 	bl	8001604 <HAL_Delay>
																	}

																if((tick2-tick1<1000))
 8000e04:	697a      	ldr	r2, [r7, #20]
 8000e06:	68fb      	ldr	r3, [r7, #12]
 8000e08:	1ad3      	subs	r3, r2, r3
 8000e0a:	f5b3 7f7a 	cmp.w	r3, #1000	; 0x3e8
 8000e0e:	da0b      	bge.n	8000e28 <alphanum+0x6f0>
																{
																	flaga1=1;
 8000e10:	2301      	movs	r3, #1
 8000e12:	61fb      	str	r3, [r7, #28]
																	if((HAL_GPIO_ReadPin(KEY_C3_GPIO_Port, KEY_C3_Pin)==0))
 8000e14:	f44f 6180 	mov.w	r1, #1024	; 0x400
 8000e18:	484b      	ldr	r0, [pc, #300]	; (8000f48 <alphanum+0x810>)
 8000e1a:	f000 fea7 	bl	8001b6c <HAL_GPIO_ReadPin>
 8000e1e:	4603      	mov	r3, r0
 8000e20:	2b00      	cmp	r3, #0
 8000e22:	d101      	bne.n	8000e28 <alphanum+0x6f0>
																	{
																	flaga2=1;
 8000e24:	2301      	movs	r3, #1
 8000e26:	61bb      	str	r3, [r7, #24]
																	}
																}

																HAL_Delay(200);
 8000e28:	20c8      	movs	r0, #200	; 0xc8
 8000e2a:	f000 fbeb 	bl	8001604 <HAL_Delay>
																if(((symbol>('z')-1)||(absvalue(tick2-tick1)>1500))&&(symbol>('w'-1)))
 8000e2e:	7cfb      	ldrb	r3, [r7, #19]
 8000e30:	2b79      	cmp	r3, #121	; 0x79
 8000e32:	d80a      	bhi.n	8000e4a <alphanum+0x712>
 8000e34:	697a      	ldr	r2, [r7, #20]
 8000e36:	68fb      	ldr	r3, [r7, #12]
 8000e38:	1ad3      	subs	r3, r2, r3
 8000e3a:	4618      	mov	r0, r3
 8000e3c:	f7ff fc6b 	bl	8000716 <absvalue>
 8000e40:	4603      	mov	r3, r0
 8000e42:	f240 52dc 	movw	r2, #1500	; 0x5dc
 8000e46:	4293      	cmp	r3, r2
 8000e48:	dd06      	ble.n	8000e58 <alphanum+0x720>
 8000e4a:	7cfb      	ldrb	r3, [r7, #19]
 8000e4c:	2b76      	cmp	r3, #118	; 0x76
 8000e4e:	d903      	bls.n	8000e58 <alphanum+0x720>
																{
																	flaga4=0;
 8000e50:	2300      	movs	r3, #0
 8000e52:	607b      	str	r3, [r7, #4]
																return symbol;
 8000e54:	7cfb      	ldrb	r3, [r7, #19]
 8000e56:	e073      	b.n	8000f40 <alphanum+0x808>
																while(flaga2||flaga4)
 8000e58:	69bb      	ldr	r3, [r7, #24]
 8000e5a:	2b00      	cmp	r3, #0
 8000e5c:	d1a8      	bne.n	8000db0 <alphanum+0x678>
 8000e5e:	687b      	ldr	r3, [r7, #4]
 8000e60:	2b00      	cmp	r3, #0
 8000e62:	d1a5      	bne.n	8000db0 <alphanum+0x678>
																	}
																}//zamkniecie while
																}

HAL_GPIO_WritePin (KEY_R1_GPIO_Port,KEY_R1_Pin, SET);
 8000e64:	2201      	movs	r2, #1
 8000e66:	2140      	movs	r1, #64	; 0x40
 8000e68:	f04f 4090 	mov.w	r0, #1207959552	; 0x48000000
 8000e6c:	f000 fe96 	bl	8001b9c <HAL_GPIO_WritePin>
HAL_GPIO_WritePin (KEY_R2_GPIO_Port,KEY_R2_Pin, SET);
 8000e70:	2201      	movs	r2, #1
 8000e72:	2180      	movs	r1, #128	; 0x80
 8000e74:	f04f 4090 	mov.w	r0, #1207959552	; 0x48000000
 8000e78:	f000 fe90 	bl	8001b9c <HAL_GPIO_WritePin>
HAL_GPIO_WritePin (KEY_R3_GPIO_Port,KEY_R3_Pin, SET);
 8000e7c:	2201      	movs	r2, #1
 8000e7e:	2140      	movs	r1, #64	; 0x40
 8000e80:	4831      	ldr	r0, [pc, #196]	; (8000f48 <alphanum+0x810>)
 8000e82:	f000 fe8b 	bl	8001b9c <HAL_GPIO_WritePin>
HAL_GPIO_WritePin (KEY_R4_GPIO_Port,KEY_R4_Pin, RESET);
 8000e86:	2200      	movs	r2, #0
 8000e88:	2180      	movs	r1, #128	; 0x80
 8000e8a:	4830      	ldr	r0, [pc, #192]	; (8000f4c <alphanum+0x814>)
 8000e8c:	f000 fe86 	bl	8001b9c <HAL_GPIO_WritePin>

if(HAL_GPIO_ReadPin(KEY_C3_GPIO_Port, KEY_C3_Pin)==0){
 8000e90:	f44f 6180 	mov.w	r1, #1024	; 0x400
 8000e94:	482c      	ldr	r0, [pc, #176]	; (8000f48 <alphanum+0x810>)
 8000e96:	f000 fe69 	bl	8001b6c <HAL_GPIO_ReadPin>
 8000e9a:	4603      	mov	r3, r0
 8000e9c:	2b00      	cmp	r3, #0
 8000e9e:	d112      	bne.n	8000ec6 <alphanum+0x78e>

symbol='#';
 8000ea0:	2323      	movs	r3, #35	; 0x23
 8000ea2:	74fb      	strb	r3, [r7, #19]

LCD_Instruction (0b00000001, 0);
 8000ea4:	2100      	movs	r1, #0
 8000ea6:	2001      	movs	r0, #1
 8000ea8:	f7ff fb1e 	bl	80004e8 <LCD_Instruction>
LCD_Instruction (symbol, 1);
 8000eac:	7cfb      	ldrb	r3, [r7, #19]
 8000eae:	2101      	movs	r1, #1
 8000eb0:	4618      	mov	r0, r3
 8000eb2:	f7ff fb19 	bl	80004e8 <LCD_Instruction>
HAL_Delay(500);
 8000eb6:	f44f 70fa 	mov.w	r0, #500	; 0x1f4
 8000eba:	f000 fba3 	bl	8001604 <HAL_Delay>
flaga4=0;
 8000ebe:	2300      	movs	r3, #0
 8000ec0:	607b      	str	r3, [r7, #4]
return symbol;
 8000ec2:	7cfb      	ldrb	r3, [r7, #19]
 8000ec4:	e03c      	b.n	8000f40 <alphanum+0x808>
}
if(HAL_GPIO_ReadPin(KEY_C2_GPIO_Port, KEY_C2_Pin)==0){
 8000ec6:	f44f 7180 	mov.w	r1, #256	; 0x100
 8000eca:	f04f 4090 	mov.w	r0, #1207959552	; 0x48000000
 8000ece:	f000 fe4d 	bl	8001b6c <HAL_GPIO_ReadPin>
 8000ed2:	4603      	mov	r3, r0
 8000ed4:	2b00      	cmp	r3, #0
 8000ed6:	d112      	bne.n	8000efe <alphanum+0x7c6>

symbol='_';
 8000ed8:	235f      	movs	r3, #95	; 0x5f
 8000eda:	74fb      	strb	r3, [r7, #19]

LCD_Instruction (0b00000001, 0);
 8000edc:	2100      	movs	r1, #0
 8000ede:	2001      	movs	r0, #1
 8000ee0:	f7ff fb02 	bl	80004e8 <LCD_Instruction>
LCD_Instruction (symbol, 1);
 8000ee4:	7cfb      	ldrb	r3, [r7, #19]
 8000ee6:	2101      	movs	r1, #1
 8000ee8:	4618      	mov	r0, r3
 8000eea:	f7ff fafd 	bl	80004e8 <LCD_Instruction>
HAL_Delay(500);
 8000eee:	f44f 70fa 	mov.w	r0, #500	; 0x1f4
 8000ef2:	f000 fb87 	bl	8001604 <HAL_Delay>
flaga4=0;
 8000ef6:	2300      	movs	r3, #0
 8000ef8:	607b      	str	r3, [r7, #4]
return symbol;
 8000efa:	7cfb      	ldrb	r3, [r7, #19]
 8000efc:	e020      	b.n	8000f40 <alphanum+0x808>
}
if(HAL_GPIO_ReadPin(KEY_C1_GPIO_Port, KEY_C1_Pin)==0){
 8000efe:	f44f 7100 	mov.w	r1, #512	; 0x200
 8000f02:	f04f 4090 	mov.w	r0, #1207959552	; 0x48000000
 8000f06:	f000 fe31 	bl	8001b6c <HAL_GPIO_ReadPin>
 8000f0a:	4603      	mov	r3, r0
 8000f0c:	2b00      	cmp	r3, #0
 8000f0e:	d112      	bne.n	8000f36 <alphanum+0x7fe>

symbol='*';
 8000f10:	232a      	movs	r3, #42	; 0x2a
 8000f12:	74fb      	strb	r3, [r7, #19]

LCD_Instruction (0b00000001, 0);
 8000f14:	2100      	movs	r1, #0
 8000f16:	2001      	movs	r0, #1
 8000f18:	f7ff fae6 	bl	80004e8 <LCD_Instruction>
LCD_Instruction (symbol, 1);
 8000f1c:	7cfb      	ldrb	r3, [r7, #19]
 8000f1e:	2101      	movs	r1, #1
 8000f20:	4618      	mov	r0, r3
 8000f22:	f7ff fae1 	bl	80004e8 <LCD_Instruction>
HAL_Delay(500);
 8000f26:	f44f 70fa 	mov.w	r0, #500	; 0x1f4
 8000f2a:	f000 fb6b 	bl	8001604 <HAL_Delay>
flaga4=0;
 8000f2e:	2300      	movs	r3, #0
 8000f30:	607b      	str	r3, [r7, #4]
return symbol;
 8000f32:	7cfb      	ldrb	r3, [r7, #19]
 8000f34:	e004      	b.n	8000f40 <alphanum+0x808>
	while(flaga3)
 8000f36:	68bb      	ldr	r3, [r7, #8]
 8000f38:	2b00      	cmp	r3, #0
 8000f3a:	f47f ac0f 	bne.w	800075c <alphanum+0x24>
}


	}
	return 0;//zamknięcie while flaga 3
 8000f3e:	2300      	movs	r3, #0
}//zamkniecie alphanum
 8000f40:	4618      	mov	r0, r3
 8000f42:	3720      	adds	r7, #32
 8000f44:	46bd      	mov	sp, r7
 8000f46:	bd80      	pop	{r7, pc}
 8000f48:	48000400 	.word	0x48000400
 8000f4c:	48000800 	.word	0x48000800

08000f50 <alphanumtostring>:

volatile char tab[20];
int alphanumtostring(){
 8000f50:	b580      	push	{r7, lr}
 8000f52:	b082      	sub	sp, #8
 8000f54:	af00      	add	r7, sp, #0
	LCD_Instruction (0b00000001, 0);
 8000f56:	2100      	movs	r1, #0
 8000f58:	2001      	movs	r0, #1
 8000f5a:	f7ff fac5 	bl	80004e8 <LCD_Instruction>
	word("Wpisywanie");
 8000f5e:	4825      	ldr	r0, [pc, #148]	; (8000ff4 <alphanumtostring+0xa4>)
 8000f60:	f7ff fbc1 	bl	80006e6 <word>
	HAL_Delay(1000);
 8000f64:	f44f 707a 	mov.w	r0, #1000	; 0x3e8
 8000f68:	f000 fb4c 	bl	8001604 <HAL_Delay>
	LCD_Instruction (0b00000001, 0);
 8000f6c:	2100      	movs	r1, #0
 8000f6e:	2001      	movs	r0, #1
 8000f70:	f7ff faba 	bl	80004e8 <LCD_Instruction>
	int i=-1;
 8000f74:	f04f 33ff 	mov.w	r3, #4294967295
 8000f78:	607b      	str	r3, [r7, #4]
	char znak='c';
 8000f7a:	2363      	movs	r3, #99	; 0x63
 8000f7c:	70fb      	strb	r3, [r7, #3]
	while(znak!='#'&&i<15)
 8000f7e:	e02d      	b.n	8000fdc <alphanumtostring+0x8c>
	{
		znak=alphanum();
 8000f80:	f7ff fbda 	bl	8000738 <alphanum>
 8000f84:	4603      	mov	r3, r0
 8000f86:	70fb      	strb	r3, [r7, #3]
		HAL_Delay(1000);
 8000f88:	f44f 707a 	mov.w	r0, #1000	; 0x3e8
 8000f8c:	f000 fb3a 	bl	8001604 <HAL_Delay>
		LCD_Instruction (0b00000001, 0);
 8000f90:	2100      	movs	r1, #0
 8000f92:	2001      	movs	r0, #1
 8000f94:	f7ff faa8 	bl	80004e8 <LCD_Instruction>
		if(znak=='*')
 8000f98:	78fb      	ldrb	r3, [r7, #3]
 8000f9a:	2b2a      	cmp	r3, #42	; 0x2a
 8000f9c:	d10b      	bne.n	8000fb6 <alphanumtostring+0x66>
		{	tab[i]=0;
 8000f9e:	4a16      	ldr	r2, [pc, #88]	; (8000ff8 <alphanumtostring+0xa8>)
 8000fa0:	687b      	ldr	r3, [r7, #4]
 8000fa2:	4413      	add	r3, r2
 8000fa4:	2200      	movs	r2, #0
 8000fa6:	701a      	strb	r2, [r3, #0]
			i--;
 8000fa8:	687b      	ldr	r3, [r7, #4]
 8000faa:	3b01      	subs	r3, #1
 8000fac:	607b      	str	r3, [r7, #4]
			word(tab);
 8000fae:	4812      	ldr	r0, [pc, #72]	; (8000ff8 <alphanumtostring+0xa8>)
 8000fb0:	f7ff fb99 	bl	80006e6 <word>
 8000fb4:	e012      	b.n	8000fdc <alphanumtostring+0x8c>
		}
		else{
			if(znak=='#'){
 8000fb6:	78fb      	ldrb	r3, [r7, #3]
 8000fb8:	2b23      	cmp	r3, #35	; 0x23
 8000fba:	d104      	bne.n	8000fc6 <alphanumtostring+0x76>
			word("zakonczono");
 8000fbc:	480f      	ldr	r0, [pc, #60]	; (8000ffc <alphanumtostring+0xac>)
 8000fbe:	f7ff fb92 	bl	80006e6 <word>
			return 0;
 8000fc2:	2300      	movs	r3, #0
 8000fc4:	e011      	b.n	8000fea <alphanumtostring+0x9a>

		}
		else{
		i++;
 8000fc6:	687b      	ldr	r3, [r7, #4]
 8000fc8:	3301      	adds	r3, #1
 8000fca:	607b      	str	r3, [r7, #4]
		tab[i]=znak;
 8000fcc:	4a0a      	ldr	r2, [pc, #40]	; (8000ff8 <alphanumtostring+0xa8>)
 8000fce:	687b      	ldr	r3, [r7, #4]
 8000fd0:	4413      	add	r3, r2
 8000fd2:	78fa      	ldrb	r2, [r7, #3]
 8000fd4:	701a      	strb	r2, [r3, #0]
		word(tab);
 8000fd6:	4808      	ldr	r0, [pc, #32]	; (8000ff8 <alphanumtostring+0xa8>)
 8000fd8:	f7ff fb85 	bl	80006e6 <word>
	while(znak!='#'&&i<15)
 8000fdc:	78fb      	ldrb	r3, [r7, #3]
 8000fde:	2b23      	cmp	r3, #35	; 0x23
 8000fe0:	d002      	beq.n	8000fe8 <alphanumtostring+0x98>
 8000fe2:	687b      	ldr	r3, [r7, #4]
 8000fe4:	2b0e      	cmp	r3, #14
 8000fe6:	ddcb      	ble.n	8000f80 <alphanumtostring+0x30>
		}



	}
	return 0;
 8000fe8:	2300      	movs	r3, #0
}
 8000fea:	4618      	mov	r0, r3
 8000fec:	3708      	adds	r7, #8
 8000fee:	46bd      	mov	sp, r7
 8000ff0:	bd80      	pop	{r7, pc}
 8000ff2:	bf00      	nop
 8000ff4:	08003b88 	.word	0x08003b88
 8000ff8:	20000028 	.word	0x20000028
 8000ffc:	08003b94 	.word	0x08003b94

08001000 <main>:
/**
  * @brief  The application entry point.
  * @retval int
  */
int main(void)
{
 8001000:	b580      	push	{r7, lr}
 8001002:	af00      	add	r7, sp, #0
  /* USER CODE END 1 */

  /* MCU Configuration--------------------------------------------------------*/

  /* Reset of all peripherals, Initializes the Flash interface and the Systick. */
  HAL_Init();
 8001004:	f000 fa82 	bl	800150c <HAL_Init>
  /* USER CODE BEGIN Init */

  /* USER CODE END Init */

  /* Configure the system clock */
  SystemClock_Config();
 8001008:	f000 f844 	bl	8001094 <SystemClock_Config>
  /* USER CODE BEGIN SysInit */

  /* USER CODE END SysInit */

  /* Initialize all configured peripherals */
  MX_GPIO_Init();
 800100c:	f000 f8c4 	bl	8001198 <MX_GPIO_Init>
  MX_USART2_UART_Init();
 8001010:	f000 f892 	bl	8001138 <MX_USART2_UART_Init>
  /* USER CODE BEGIN 2 */
  LCD_Init();
 8001014:	f7ff faf2 	bl	80005fc <LCD_Init>
  HAL_Delay(50);
 8001018:	2032      	movs	r0, #50	; 0x32
 800101a:	f000 faf3 	bl	8001604 <HAL_Delay>
  LCD_Instruction (0b00110000, 0);
 800101e:	2100      	movs	r1, #0
 8001020:	2030      	movs	r0, #48	; 0x30
 8001022:	f7ff fa61 	bl	80004e8 <LCD_Instruction>
  HAL_Delay(50);
 8001026:	2032      	movs	r0, #50	; 0x32
 8001028:	f000 faec 	bl	8001604 <HAL_Delay>
  LCD_Instruction (0b00001110, 0);
 800102c:	2100      	movs	r1, #0
 800102e:	200e      	movs	r0, #14
 8001030:	f7ff fa5a 	bl	80004e8 <LCD_Instruction>
  HAL_Delay(50);
 8001034:	2032      	movs	r0, #50	; 0x32
 8001036:	f000 fae5 	bl	8001604 <HAL_Delay>
  LCD_Instruction (0b00000110, 0);
 800103a:	2100      	movs	r1, #0
 800103c:	2006      	movs	r0, #6
 800103e:	f7ff fa53 	bl	80004e8 <LCD_Instruction>
  HAL_Delay(50);
 8001042:	2032      	movs	r0, #50	; 0x32
 8001044:	f000 fade 	bl	8001604 <HAL_Delay>
  LCD_Instruction (0b00000001, 0);
 8001048:	2100      	movs	r1, #0
 800104a:	2001      	movs	r0, #1
 800104c:	f7ff fa4c 	bl	80004e8 <LCD_Instruction>


alphanumtostring();
 8001050:	f7ff ff7e 	bl	8000f50 <alphanumtostring>
HAL_Delay(1000);
 8001054:	f44f 707a 	mov.w	r0, #1000	; 0x3e8
 8001058:	f000 fad4 	bl	8001604 <HAL_Delay>
 LCD_Instruction (0b00000001, 0);
 800105c:	2100      	movs	r1, #0
 800105e:	2001      	movs	r0, #1
 8001060:	f7ff fa42 	bl	80004e8 <LCD_Instruction>
word("Wyraz w mainie");
 8001064:	4809      	ldr	r0, [pc, #36]	; (800108c <main+0x8c>)
 8001066:	f7ff fb3e 	bl	80006e6 <word>
HAL_Delay(1000);
 800106a:	f44f 707a 	mov.w	r0, #1000	; 0x3e8
 800106e:	f000 fac9 	bl	8001604 <HAL_Delay>
 LCD_Instruction (0b00000001, 0);
 8001072:	2100      	movs	r1, #0
 8001074:	2001      	movs	r0, #1
 8001076:	f7ff fa37 	bl	80004e8 <LCD_Instruction>
 word(tab);
 800107a:	4805      	ldr	r0, [pc, #20]	; (8001090 <main+0x90>)
 800107c:	f7ff fb33 	bl	80006e6 <word>
 HAL_Delay(1000);
 8001080:	f44f 707a 	mov.w	r0, #1000	; 0x3e8
 8001084:	f000 fabe 	bl	8001604 <HAL_Delay>

  /* USER CODE END 2 */

  /* Infinite loop */
  /* USER CODE BEGIN WHILE */
  while (1)
 8001088:	e7fe      	b.n	8001088 <main+0x88>
 800108a:	bf00      	nop
 800108c:	08003bc0 	.word	0x08003bc0
 8001090:	20000028 	.word	0x20000028

08001094 <SystemClock_Config>:
/**
  * @brief System Clock Configuration
  * @retval None
  */
void SystemClock_Config(void)
{
 8001094:	b580      	push	{r7, lr}
 8001096:	b096      	sub	sp, #88	; 0x58
 8001098:	af00      	add	r7, sp, #0
  RCC_OscInitTypeDef RCC_OscInitStruct = {0};
 800109a:	f107 0314 	add.w	r3, r7, #20
 800109e:	2244      	movs	r2, #68	; 0x44
 80010a0:	2100      	movs	r1, #0
 80010a2:	4618      	mov	r0, r3
 80010a4:	f002 fd5c 	bl	8003b60 <memset>
  RCC_ClkInitTypeDef RCC_ClkInitStruct = {0};
 80010a8:	463b      	mov	r3, r7
 80010aa:	2200      	movs	r2, #0
 80010ac:	601a      	str	r2, [r3, #0]
 80010ae:	605a      	str	r2, [r3, #4]
 80010b0:	609a      	str	r2, [r3, #8]
 80010b2:	60da      	str	r2, [r3, #12]
 80010b4:	611a      	str	r2, [r3, #16]

  /** Configure the main internal regulator output voltage
  */
  if (HAL_PWREx_ControlVoltageScaling(PWR_REGULATOR_VOLTAGE_SCALE1) != HAL_OK)
 80010b6:	f44f 7000 	mov.w	r0, #512	; 0x200
 80010ba:	f000 fd95 	bl	8001be8 <HAL_PWREx_ControlVoltageScaling>
 80010be:	4603      	mov	r3, r0
 80010c0:	2b00      	cmp	r3, #0
 80010c2:	d001      	beq.n	80010c8 <SystemClock_Config+0x34>
  {
    Error_Handler();
 80010c4:	f000 f936 	bl	8001334 <Error_Handler>
  }
  /** Initializes the RCC Oscillators according to the specified parameters
  * in the RCC_OscInitTypeDef structure.
  */
  RCC_OscInitStruct.OscillatorType = RCC_OSCILLATORTYPE_HSI;
 80010c8:	2302      	movs	r3, #2
 80010ca:	617b      	str	r3, [r7, #20]
  RCC_OscInitStruct.HSIState = RCC_HSI_ON;
 80010cc:	f44f 7380 	mov.w	r3, #256	; 0x100
 80010d0:	623b      	str	r3, [r7, #32]
  RCC_OscInitStruct.HSICalibrationValue = RCC_HSICALIBRATION_DEFAULT;
 80010d2:	2310      	movs	r3, #16
 80010d4:	627b      	str	r3, [r7, #36]	; 0x24
  RCC_OscInitStruct.PLL.PLLState = RCC_PLL_ON;
 80010d6:	2302      	movs	r3, #2
 80010d8:	63fb      	str	r3, [r7, #60]	; 0x3c
  RCC_OscInitStruct.PLL.PLLSource = RCC_PLLSOURCE_HSI;
 80010da:	2302      	movs	r3, #2
 80010dc:	643b      	str	r3, [r7, #64]	; 0x40
  RCC_OscInitStruct.PLL.PLLM = 1;
 80010de:	2301      	movs	r3, #1
 80010e0:	647b      	str	r3, [r7, #68]	; 0x44
  RCC_OscInitStruct.PLL.PLLN = 10;
 80010e2:	230a      	movs	r3, #10
 80010e4:	64bb      	str	r3, [r7, #72]	; 0x48
  RCC_OscInitStruct.PLL.PLLP = RCC_PLLP_DIV7;
 80010e6:	2307      	movs	r3, #7
 80010e8:	64fb      	str	r3, [r7, #76]	; 0x4c
  RCC_OscInitStruct.PLL.PLLQ = RCC_PLLQ_DIV2;
 80010ea:	2302      	movs	r3, #2
 80010ec:	653b      	str	r3, [r7, #80]	; 0x50
  RCC_OscInitStruct.PLL.PLLR = RCC_PLLR_DIV2;
 80010ee:	2302      	movs	r3, #2
 80010f0:	657b      	str	r3, [r7, #84]	; 0x54
  if (HAL_RCC_OscConfig(&RCC_OscInitStruct) != HAL_OK)
 80010f2:	f107 0314 	add.w	r3, r7, #20
 80010f6:	4618      	mov	r0, r3
 80010f8:	f000 fdcc 	bl	8001c94 <HAL_RCC_OscConfig>
 80010fc:	4603      	mov	r3, r0
 80010fe:	2b00      	cmp	r3, #0
 8001100:	d001      	beq.n	8001106 <SystemClock_Config+0x72>
  {
    Error_Handler();
 8001102:	f000 f917 	bl	8001334 <Error_Handler>
  }
  /** Initializes the CPU, AHB and APB buses clocks
  */
  RCC_ClkInitStruct.ClockType = RCC_CLOCKTYPE_HCLK|RCC_CLOCKTYPE_SYSCLK
 8001106:	230f      	movs	r3, #15
 8001108:	603b      	str	r3, [r7, #0]
                              |RCC_CLOCKTYPE_PCLK1|RCC_CLOCKTYPE_PCLK2;
  RCC_ClkInitStruct.SYSCLKSource = RCC_SYSCLKSOURCE_PLLCLK;
 800110a:	2303      	movs	r3, #3
 800110c:	607b      	str	r3, [r7, #4]
  RCC_ClkInitStruct.AHBCLKDivider = RCC_SYSCLK_DIV1;
 800110e:	2300      	movs	r3, #0
 8001110:	60bb      	str	r3, [r7, #8]
  RCC_ClkInitStruct.APB1CLKDivider = RCC_HCLK_DIV1;
 8001112:	2300      	movs	r3, #0
 8001114:	60fb      	str	r3, [r7, #12]
  RCC_ClkInitStruct.APB2CLKDivider = RCC_HCLK_DIV1;
 8001116:	2300      	movs	r3, #0
 8001118:	613b      	str	r3, [r7, #16]

  if (HAL_RCC_ClockConfig(&RCC_ClkInitStruct, FLASH_LATENCY_4) != HAL_OK)
 800111a:	463b      	mov	r3, r7
 800111c:	2104      	movs	r1, #4
 800111e:	4618      	mov	r0, r3
 8001120:	f001 f992 	bl	8002448 <HAL_RCC_ClockConfig>
 8001124:	4603      	mov	r3, r0
 8001126:	2b00      	cmp	r3, #0
 8001128:	d001      	beq.n	800112e <SystemClock_Config+0x9a>
  {
    Error_Handler();
 800112a:	f000 f903 	bl	8001334 <Error_Handler>
  }
}
 800112e:	bf00      	nop
 8001130:	3758      	adds	r7, #88	; 0x58
 8001132:	46bd      	mov	sp, r7
 8001134:	bd80      	pop	{r7, pc}
	...

08001138 <MX_USART2_UART_Init>:
  * @brief USART2 Initialization Function
  * @param None
  * @retval None
  */
static void MX_USART2_UART_Init(void)
{
 8001138:	b580      	push	{r7, lr}
 800113a:	af00      	add	r7, sp, #0
  /* USER CODE END USART2_Init 0 */

  /* USER CODE BEGIN USART2_Init 1 */

  /* USER CODE END USART2_Init 1 */
  huart2.Instance = USART2;
 800113c:	4b14      	ldr	r3, [pc, #80]	; (8001190 <MX_USART2_UART_Init+0x58>)
 800113e:	4a15      	ldr	r2, [pc, #84]	; (8001194 <MX_USART2_UART_Init+0x5c>)
 8001140:	601a      	str	r2, [r3, #0]
  huart2.Init.BaudRate = 115200;
 8001142:	4b13      	ldr	r3, [pc, #76]	; (8001190 <MX_USART2_UART_Init+0x58>)
 8001144:	f44f 32e1 	mov.w	r2, #115200	; 0x1c200
 8001148:	605a      	str	r2, [r3, #4]
  huart2.Init.WordLength = UART_WORDLENGTH_8B;
 800114a:	4b11      	ldr	r3, [pc, #68]	; (8001190 <MX_USART2_UART_Init+0x58>)
 800114c:	2200      	movs	r2, #0
 800114e:	609a      	str	r2, [r3, #8]
  huart2.Init.StopBits = UART_STOPBITS_1;
 8001150:	4b0f      	ldr	r3, [pc, #60]	; (8001190 <MX_USART2_UART_Init+0x58>)
 8001152:	2200      	movs	r2, #0
 8001154:	60da      	str	r2, [r3, #12]
  huart2.Init.Parity = UART_PARITY_NONE;
 8001156:	4b0e      	ldr	r3, [pc, #56]	; (8001190 <MX_USART2_UART_Init+0x58>)
 8001158:	2200      	movs	r2, #0
 800115a:	611a      	str	r2, [r3, #16]
  huart2.Init.Mode = UART_MODE_TX_RX;
 800115c:	4b0c      	ldr	r3, [pc, #48]	; (8001190 <MX_USART2_UART_Init+0x58>)
 800115e:	220c      	movs	r2, #12
 8001160:	615a      	str	r2, [r3, #20]
  huart2.Init.HwFlowCtl = UART_HWCONTROL_NONE;
 8001162:	4b0b      	ldr	r3, [pc, #44]	; (8001190 <MX_USART2_UART_Init+0x58>)
 8001164:	2200      	movs	r2, #0
 8001166:	619a      	str	r2, [r3, #24]
  huart2.Init.OverSampling = UART_OVERSAMPLING_16;
 8001168:	4b09      	ldr	r3, [pc, #36]	; (8001190 <MX_USART2_UART_Init+0x58>)
 800116a:	2200      	movs	r2, #0
 800116c:	61da      	str	r2, [r3, #28]
  huart2.Init.OneBitSampling = UART_ONE_BIT_SAMPLE_DISABLE;
 800116e:	4b08      	ldr	r3, [pc, #32]	; (8001190 <MX_USART2_UART_Init+0x58>)
 8001170:	2200      	movs	r2, #0
 8001172:	621a      	str	r2, [r3, #32]
  huart2.AdvancedInit.AdvFeatureInit = UART_ADVFEATURE_NO_INIT;
 8001174:	4b06      	ldr	r3, [pc, #24]	; (8001190 <MX_USART2_UART_Init+0x58>)
 8001176:	2200      	movs	r2, #0
 8001178:	625a      	str	r2, [r3, #36]	; 0x24
  if (HAL_UART_Init(&huart2) != HAL_OK)
 800117a:	4805      	ldr	r0, [pc, #20]	; (8001190 <MX_USART2_UART_Init+0x58>)
 800117c:	f002 f844 	bl	8003208 <HAL_UART_Init>
 8001180:	4603      	mov	r3, r0
 8001182:	2b00      	cmp	r3, #0
 8001184:	d001      	beq.n	800118a <MX_USART2_UART_Init+0x52>
  {
    Error_Handler();
 8001186:	f000 f8d5 	bl	8001334 <Error_Handler>
  }
  /* USER CODE BEGIN USART2_Init 2 */

  /* USER CODE END USART2_Init 2 */

}
 800118a:	bf00      	nop
 800118c:	bd80      	pop	{r7, pc}
 800118e:	bf00      	nop
 8001190:	2000003c 	.word	0x2000003c
 8001194:	40004400 	.word	0x40004400

08001198 <MX_GPIO_Init>:
  * @brief GPIO Initialization Function
  * @param None
  * @retval None
  */
static void MX_GPIO_Init(void)
{
 8001198:	b580      	push	{r7, lr}
 800119a:	b08a      	sub	sp, #40	; 0x28
 800119c:	af00      	add	r7, sp, #0
  GPIO_InitTypeDef GPIO_InitStruct = {0};
 800119e:	f107 0314 	add.w	r3, r7, #20
 80011a2:	2200      	movs	r2, #0
 80011a4:	601a      	str	r2, [r3, #0]
 80011a6:	605a      	str	r2, [r3, #4]
 80011a8:	609a      	str	r2, [r3, #8]
 80011aa:	60da      	str	r2, [r3, #12]
 80011ac:	611a      	str	r2, [r3, #16]

  /* GPIO Ports Clock Enable */
  __HAL_RCC_GPIOC_CLK_ENABLE();
 80011ae:	4b5d      	ldr	r3, [pc, #372]	; (8001324 <MX_GPIO_Init+0x18c>)
 80011b0:	6cdb      	ldr	r3, [r3, #76]	; 0x4c
 80011b2:	4a5c      	ldr	r2, [pc, #368]	; (8001324 <MX_GPIO_Init+0x18c>)
 80011b4:	f043 0304 	orr.w	r3, r3, #4
 80011b8:	64d3      	str	r3, [r2, #76]	; 0x4c
 80011ba:	4b5a      	ldr	r3, [pc, #360]	; (8001324 <MX_GPIO_Init+0x18c>)
 80011bc:	6cdb      	ldr	r3, [r3, #76]	; 0x4c
 80011be:	f003 0304 	and.w	r3, r3, #4
 80011c2:	613b      	str	r3, [r7, #16]
 80011c4:	693b      	ldr	r3, [r7, #16]
  __HAL_RCC_GPIOH_CLK_ENABLE();
 80011c6:	4b57      	ldr	r3, [pc, #348]	; (8001324 <MX_GPIO_Init+0x18c>)
 80011c8:	6cdb      	ldr	r3, [r3, #76]	; 0x4c
 80011ca:	4a56      	ldr	r2, [pc, #344]	; (8001324 <MX_GPIO_Init+0x18c>)
 80011cc:	f043 0380 	orr.w	r3, r3, #128	; 0x80
 80011d0:	64d3      	str	r3, [r2, #76]	; 0x4c
 80011d2:	4b54      	ldr	r3, [pc, #336]	; (8001324 <MX_GPIO_Init+0x18c>)
 80011d4:	6cdb      	ldr	r3, [r3, #76]	; 0x4c
 80011d6:	f003 0380 	and.w	r3, r3, #128	; 0x80
 80011da:	60fb      	str	r3, [r7, #12]
 80011dc:	68fb      	ldr	r3, [r7, #12]
  __HAL_RCC_GPIOA_CLK_ENABLE();
 80011de:	4b51      	ldr	r3, [pc, #324]	; (8001324 <MX_GPIO_Init+0x18c>)
 80011e0:	6cdb      	ldr	r3, [r3, #76]	; 0x4c
 80011e2:	4a50      	ldr	r2, [pc, #320]	; (8001324 <MX_GPIO_Init+0x18c>)
 80011e4:	f043 0301 	orr.w	r3, r3, #1
 80011e8:	64d3      	str	r3, [r2, #76]	; 0x4c
 80011ea:	4b4e      	ldr	r3, [pc, #312]	; (8001324 <MX_GPIO_Init+0x18c>)
 80011ec:	6cdb      	ldr	r3, [r3, #76]	; 0x4c
 80011ee:	f003 0301 	and.w	r3, r3, #1
 80011f2:	60bb      	str	r3, [r7, #8]
 80011f4:	68bb      	ldr	r3, [r7, #8]
  __HAL_RCC_GPIOB_CLK_ENABLE();
 80011f6:	4b4b      	ldr	r3, [pc, #300]	; (8001324 <MX_GPIO_Init+0x18c>)
 80011f8:	6cdb      	ldr	r3, [r3, #76]	; 0x4c
 80011fa:	4a4a      	ldr	r2, [pc, #296]	; (8001324 <MX_GPIO_Init+0x18c>)
 80011fc:	f043 0302 	orr.w	r3, r3, #2
 8001200:	64d3      	str	r3, [r2, #76]	; 0x4c
 8001202:	4b48      	ldr	r3, [pc, #288]	; (8001324 <MX_GPIO_Init+0x18c>)
 8001204:	6cdb      	ldr	r3, [r3, #76]	; 0x4c
 8001206:	f003 0302 	and.w	r3, r3, #2
 800120a:	607b      	str	r3, [r7, #4]
 800120c:	687b      	ldr	r3, [r7, #4]
  __HAL_RCC_GPIOD_CLK_ENABLE();
 800120e:	4b45      	ldr	r3, [pc, #276]	; (8001324 <MX_GPIO_Init+0x18c>)
 8001210:	6cdb      	ldr	r3, [r3, #76]	; 0x4c
 8001212:	4a44      	ldr	r2, [pc, #272]	; (8001324 <MX_GPIO_Init+0x18c>)
 8001214:	f043 0308 	orr.w	r3, r3, #8
 8001218:	64d3      	str	r3, [r2, #76]	; 0x4c
 800121a:	4b42      	ldr	r3, [pc, #264]	; (8001324 <MX_GPIO_Init+0x18c>)
 800121c:	6cdb      	ldr	r3, [r3, #76]	; 0x4c
 800121e:	f003 0308 	and.w	r3, r3, #8
 8001222:	603b      	str	r3, [r7, #0]
 8001224:	683b      	ldr	r3, [r7, #0]

  /*Configure GPIO pin Output Level */
  HAL_GPIO_WritePin(GPIOC, LCD_E_Pin|LCD_RS_Pin|LCD_D3_Pin|KEY_R4_Pin
 8001226:	2200      	movs	r2, #0
 8001228:	f641 71c9 	movw	r1, #8137	; 0x1fc9
 800122c:	483e      	ldr	r0, [pc, #248]	; (8001328 <MX_GPIO_Init+0x190>)
 800122e:	f000 fcb5 	bl	8001b9c <HAL_GPIO_WritePin>
                          |LCD_D0_Pin|LCD_D1_Pin|LCD_D4_Pin|LCD_D5_Pin
                          |LCD_D7_Pin, GPIO_PIN_RESET);

  /*Configure GPIO pin Output Level */
  HAL_GPIO_WritePin(GPIOA, LD2_Pin|KEY_R1_Pin|KEY_R2_Pin, GPIO_PIN_RESET);
 8001232:	2200      	movs	r2, #0
 8001234:	21e0      	movs	r1, #224	; 0xe0
 8001236:	f04f 4090 	mov.w	r0, #1207959552	; 0x48000000
 800123a:	f000 fcaf 	bl	8001b9c <HAL_GPIO_WritePin>

  /*Configure GPIO pin Output Level */
  HAL_GPIO_WritePin(LCD_D6_GPIO_Port, LCD_D6_Pin, GPIO_PIN_RESET);
 800123e:	2200      	movs	r2, #0
 8001240:	2104      	movs	r1, #4
 8001242:	483a      	ldr	r0, [pc, #232]	; (800132c <MX_GPIO_Init+0x194>)
 8001244:	f000 fcaa 	bl	8001b9c <HAL_GPIO_WritePin>

  /*Configure GPIO pin Output Level */
  HAL_GPIO_WritePin(GPIOB, KEY_R3_Pin|LCD_D2_Pin, GPIO_PIN_RESET);
 8001248:	2200      	movs	r2, #0
 800124a:	f44f 71a0 	mov.w	r1, #320	; 0x140
 800124e:	4838      	ldr	r0, [pc, #224]	; (8001330 <MX_GPIO_Init+0x198>)
 8001250:	f000 fca4 	bl	8001b9c <HAL_GPIO_WritePin>

  /*Configure GPIO pin : B1_Pin */
  GPIO_InitStruct.Pin = B1_Pin;
 8001254:	f44f 5300 	mov.w	r3, #8192	; 0x2000
 8001258:	617b      	str	r3, [r7, #20]
  GPIO_InitStruct.Mode = GPIO_MODE_IT_FALLING;
 800125a:	f44f 1304 	mov.w	r3, #2162688	; 0x210000
 800125e:	61bb      	str	r3, [r7, #24]
  GPIO_InitStruct.Pull = GPIO_NOPULL;
 8001260:	2300      	movs	r3, #0
 8001262:	61fb      	str	r3, [r7, #28]
  HAL_GPIO_Init(B1_GPIO_Port, &GPIO_InitStruct);
 8001264:	f107 0314 	add.w	r3, r7, #20
 8001268:	4619      	mov	r1, r3
 800126a:	482f      	ldr	r0, [pc, #188]	; (8001328 <MX_GPIO_Init+0x190>)
 800126c:	f000 fad4 	bl	8001818 <HAL_GPIO_Init>

  /*Configure GPIO pins : LCD_E_Pin LCD_RS_Pin LCD_D3_Pin KEY_R4_Pin
                           LCD_D0_Pin LCD_D1_Pin LCD_D4_Pin LCD_D5_Pin
                           LCD_D7_Pin */
  GPIO_InitStruct.Pin = LCD_E_Pin|LCD_RS_Pin|LCD_D3_Pin|KEY_R4_Pin
 8001270:	f641 73c9 	movw	r3, #8137	; 0x1fc9
 8001274:	617b      	str	r3, [r7, #20]
                          |LCD_D0_Pin|LCD_D1_Pin|LCD_D4_Pin|LCD_D5_Pin
                          |LCD_D7_Pin;
  GPIO_InitStruct.Mode = GPIO_MODE_OUTPUT_PP;
 8001276:	2301      	movs	r3, #1
 8001278:	61bb      	str	r3, [r7, #24]
  GPIO_InitStruct.Pull = GPIO_NOPULL;
 800127a:	2300      	movs	r3, #0
 800127c:	61fb      	str	r3, [r7, #28]
  GPIO_InitStruct.Speed = GPIO_SPEED_FREQ_LOW;
 800127e:	2300      	movs	r3, #0
 8001280:	623b      	str	r3, [r7, #32]
  HAL_GPIO_Init(GPIOC, &GPIO_InitStruct);
 8001282:	f107 0314 	add.w	r3, r7, #20
 8001286:	4619      	mov	r1, r3
 8001288:	4827      	ldr	r0, [pc, #156]	; (8001328 <MX_GPIO_Init+0x190>)
 800128a:	f000 fac5 	bl	8001818 <HAL_GPIO_Init>

  /*Configure GPIO pins : LD2_Pin KEY_R1_Pin KEY_R2_Pin */
  GPIO_InitStruct.Pin = LD2_Pin|KEY_R1_Pin|KEY_R2_Pin;
 800128e:	23e0      	movs	r3, #224	; 0xe0
 8001290:	617b      	str	r3, [r7, #20]
  GPIO_InitStruct.Mode = GPIO_MODE_OUTPUT_PP;
 8001292:	2301      	movs	r3, #1
 8001294:	61bb      	str	r3, [r7, #24]
  GPIO_InitStruct.Pull = GPIO_NOPULL;
 8001296:	2300      	movs	r3, #0
 8001298:	61fb      	str	r3, [r7, #28]
  GPIO_InitStruct.Speed = GPIO_SPEED_FREQ_LOW;
 800129a:	2300      	movs	r3, #0
 800129c:	623b      	str	r3, [r7, #32]
  HAL_GPIO_Init(GPIOA, &GPIO_InitStruct);
 800129e:	f107 0314 	add.w	r3, r7, #20
 80012a2:	4619      	mov	r1, r3
 80012a4:	f04f 4090 	mov.w	r0, #1207959552	; 0x48000000
 80012a8:	f000 fab6 	bl	8001818 <HAL_GPIO_Init>

  /*Configure GPIO pin : KEY_C3_Pin */
  GPIO_InitStruct.Pin = KEY_C3_Pin;
 80012ac:	f44f 6380 	mov.w	r3, #1024	; 0x400
 80012b0:	617b      	str	r3, [r7, #20]
  GPIO_InitStruct.Mode = GPIO_MODE_INPUT;
 80012b2:	2300      	movs	r3, #0
 80012b4:	61bb      	str	r3, [r7, #24]
  GPIO_InitStruct.Pull = GPIO_PULLUP;
 80012b6:	2301      	movs	r3, #1
 80012b8:	61fb      	str	r3, [r7, #28]
  HAL_GPIO_Init(KEY_C3_GPIO_Port, &GPIO_InitStruct);
 80012ba:	f107 0314 	add.w	r3, r7, #20
 80012be:	4619      	mov	r1, r3
 80012c0:	481b      	ldr	r0, [pc, #108]	; (8001330 <MX_GPIO_Init+0x198>)
 80012c2:	f000 faa9 	bl	8001818 <HAL_GPIO_Init>

  /*Configure GPIO pins : KEY_C2_Pin KEY_C1_Pin */
  GPIO_InitStruct.Pin = KEY_C2_Pin|KEY_C1_Pin;
 80012c6:	f44f 7340 	mov.w	r3, #768	; 0x300
 80012ca:	617b      	str	r3, [r7, #20]
  GPIO_InitStruct.Mode = GPIO_MODE_INPUT;
 80012cc:	2300      	movs	r3, #0
 80012ce:	61bb      	str	r3, [r7, #24]
  GPIO_InitStruct.Pull = GPIO_PULLUP;
 80012d0:	2301      	movs	r3, #1
 80012d2:	61fb      	str	r3, [r7, #28]
  HAL_GPIO_Init(GPIOA, &GPIO_InitStruct);
 80012d4:	f107 0314 	add.w	r3, r7, #20
 80012d8:	4619      	mov	r1, r3
 80012da:	f04f 4090 	mov.w	r0, #1207959552	; 0x48000000
 80012de:	f000 fa9b 	bl	8001818 <HAL_GPIO_Init>

  /*Configure GPIO pin : LCD_D6_Pin */
  GPIO_InitStruct.Pin = LCD_D6_Pin;
 80012e2:	2304      	movs	r3, #4
 80012e4:	617b      	str	r3, [r7, #20]
  GPIO_InitStruct.Mode = GPIO_MODE_OUTPUT_PP;
 80012e6:	2301      	movs	r3, #1
 80012e8:	61bb      	str	r3, [r7, #24]
  GPIO_InitStruct.Pull = GPIO_NOPULL;
 80012ea:	2300      	movs	r3, #0
 80012ec:	61fb      	str	r3, [r7, #28]
  GPIO_InitStruct.Speed = GPIO_SPEED_FREQ_LOW;
 80012ee:	2300      	movs	r3, #0
 80012f0:	623b      	str	r3, [r7, #32]
  HAL_GPIO_Init(LCD_D6_GPIO_Port, &GPIO_InitStruct);
 80012f2:	f107 0314 	add.w	r3, r7, #20
 80012f6:	4619      	mov	r1, r3
 80012f8:	480c      	ldr	r0, [pc, #48]	; (800132c <MX_GPIO_Init+0x194>)
 80012fa:	f000 fa8d 	bl	8001818 <HAL_GPIO_Init>

  /*Configure GPIO pins : KEY_R3_Pin LCD_D2_Pin */
  GPIO_InitStruct.Pin = KEY_R3_Pin|LCD_D2_Pin;
 80012fe:	f44f 73a0 	mov.w	r3, #320	; 0x140
 8001302:	617b      	str	r3, [r7, #20]
  GPIO_InitStruct.Mode = GPIO_MODE_OUTPUT_PP;
 8001304:	2301      	movs	r3, #1
 8001306:	61bb      	str	r3, [r7, #24]
  GPIO_InitStruct.Pull = GPIO_NOPULL;
 8001308:	2300      	movs	r3, #0
 800130a:	61fb      	str	r3, [r7, #28]
  GPIO_InitStruct.Speed = GPIO_SPEED_FREQ_LOW;
 800130c:	2300      	movs	r3, #0
 800130e:	623b      	str	r3, [r7, #32]
  HAL_GPIO_Init(GPIOB, &GPIO_InitStruct);
 8001310:	f107 0314 	add.w	r3, r7, #20
 8001314:	4619      	mov	r1, r3
 8001316:	4806      	ldr	r0, [pc, #24]	; (8001330 <MX_GPIO_Init+0x198>)
 8001318:	f000 fa7e 	bl	8001818 <HAL_GPIO_Init>

}
 800131c:	bf00      	nop
 800131e:	3728      	adds	r7, #40	; 0x28
 8001320:	46bd      	mov	sp, r7
 8001322:	bd80      	pop	{r7, pc}
 8001324:	40021000 	.word	0x40021000
 8001328:	48000800 	.word	0x48000800
 800132c:	48000c00 	.word	0x48000c00
 8001330:	48000400 	.word	0x48000400

08001334 <Error_Handler>:
/**
  * @brief  This function is executed in case of error occurrence.
  * @retval None
  */
void Error_Handler(void)
{
 8001334:	b480      	push	{r7}
 8001336:	af00      	add	r7, sp, #0
  \details Disables IRQ interrupts by setting the I-bit in the CPSR.
           Can only be executed in Privileged modes.
 */
__STATIC_FORCEINLINE void __disable_irq(void)
{
  __ASM volatile ("cpsid i" : : : "memory");
 8001338:	b672      	cpsid	i
}
 800133a:	bf00      	nop
  /* USER CODE BEGIN Error_Handler_Debug */
  /* User can add his own implementation to report the HAL error return state */
  __disable_irq();
  while (1)
 800133c:	e7fe      	b.n	800133c <Error_Handler+0x8>
	...

08001340 <HAL_MspInit>:
/* USER CODE END 0 */
/**
  * Initializes the Global MSP.
  */
void HAL_MspInit(void)
{
 8001340:	b480      	push	{r7}
 8001342:	b083      	sub	sp, #12
 8001344:	af00      	add	r7, sp, #0
  /* USER CODE BEGIN MspInit 0 */

  /* USER CODE END MspInit 0 */

  __HAL_RCC_SYSCFG_CLK_ENABLE();
 8001346:	4b0f      	ldr	r3, [pc, #60]	; (8001384 <HAL_MspInit+0x44>)
 8001348:	6e1b      	ldr	r3, [r3, #96]	; 0x60
 800134a:	4a0e      	ldr	r2, [pc, #56]	; (8001384 <HAL_MspInit+0x44>)
 800134c:	f043 0301 	orr.w	r3, r3, #1
 8001350:	6613      	str	r3, [r2, #96]	; 0x60
 8001352:	4b0c      	ldr	r3, [pc, #48]	; (8001384 <HAL_MspInit+0x44>)
 8001354:	6e1b      	ldr	r3, [r3, #96]	; 0x60
 8001356:	f003 0301 	and.w	r3, r3, #1
 800135a:	607b      	str	r3, [r7, #4]
 800135c:	687b      	ldr	r3, [r7, #4]
  __HAL_RCC_PWR_CLK_ENABLE();
 800135e:	4b09      	ldr	r3, [pc, #36]	; (8001384 <HAL_MspInit+0x44>)
 8001360:	6d9b      	ldr	r3, [r3, #88]	; 0x58
 8001362:	4a08      	ldr	r2, [pc, #32]	; (8001384 <HAL_MspInit+0x44>)
 8001364:	f043 5380 	orr.w	r3, r3, #268435456	; 0x10000000
 8001368:	6593      	str	r3, [r2, #88]	; 0x58
 800136a:	4b06      	ldr	r3, [pc, #24]	; (8001384 <HAL_MspInit+0x44>)
 800136c:	6d9b      	ldr	r3, [r3, #88]	; 0x58
 800136e:	f003 5380 	and.w	r3, r3, #268435456	; 0x10000000
 8001372:	603b      	str	r3, [r7, #0]
 8001374:	683b      	ldr	r3, [r7, #0]
  /* System interrupt init*/

  /* USER CODE BEGIN MspInit 1 */

  /* USER CODE END MspInit 1 */
}
 8001376:	bf00      	nop
 8001378:	370c      	adds	r7, #12
 800137a:	46bd      	mov	sp, r7
 800137c:	f85d 7b04 	ldr.w	r7, [sp], #4
 8001380:	4770      	bx	lr
 8001382:	bf00      	nop
 8001384:	40021000 	.word	0x40021000

08001388 <HAL_UART_MspInit>:
* This function configures the hardware resources used in this example
* @param huart: UART handle pointer
* @retval None
*/
void HAL_UART_MspInit(UART_HandleTypeDef* huart)
{
 8001388:	b580      	push	{r7, lr}
 800138a:	b0ac      	sub	sp, #176	; 0xb0
 800138c:	af00      	add	r7, sp, #0
 800138e:	6078      	str	r0, [r7, #4]
  GPIO_InitTypeDef GPIO_InitStruct = {0};
 8001390:	f107 039c 	add.w	r3, r7, #156	; 0x9c
 8001394:	2200      	movs	r2, #0
 8001396:	601a      	str	r2, [r3, #0]
 8001398:	605a      	str	r2, [r3, #4]
 800139a:	609a      	str	r2, [r3, #8]
 800139c:	60da      	str	r2, [r3, #12]
 800139e:	611a      	str	r2, [r3, #16]
  RCC_PeriphCLKInitTypeDef PeriphClkInit = {0};
 80013a0:	f107 0314 	add.w	r3, r7, #20
 80013a4:	2288      	movs	r2, #136	; 0x88
 80013a6:	2100      	movs	r1, #0
 80013a8:	4618      	mov	r0, r3
 80013aa:	f002 fbd9 	bl	8003b60 <memset>
  if(huart->Instance==USART2)
 80013ae:	687b      	ldr	r3, [r7, #4]
 80013b0:	681b      	ldr	r3, [r3, #0]
 80013b2:	4a21      	ldr	r2, [pc, #132]	; (8001438 <HAL_UART_MspInit+0xb0>)
 80013b4:	4293      	cmp	r3, r2
 80013b6:	d13b      	bne.n	8001430 <HAL_UART_MspInit+0xa8>
  /* USER CODE BEGIN USART2_MspInit 0 */

  /* USER CODE END USART2_MspInit 0 */
  /** Initializes the peripherals clock
  */
    PeriphClkInit.PeriphClockSelection = RCC_PERIPHCLK_USART2;
 80013b8:	2302      	movs	r3, #2
 80013ba:	617b      	str	r3, [r7, #20]
    PeriphClkInit.Usart2ClockSelection = RCC_USART2CLKSOURCE_PCLK1;
 80013bc:	2300      	movs	r3, #0
 80013be:	653b      	str	r3, [r7, #80]	; 0x50
    if (HAL_RCCEx_PeriphCLKConfig(&PeriphClkInit) != HAL_OK)
 80013c0:	f107 0314 	add.w	r3, r7, #20
 80013c4:	4618      	mov	r0, r3
 80013c6:	f001 fa63 	bl	8002890 <HAL_RCCEx_PeriphCLKConfig>
 80013ca:	4603      	mov	r3, r0
 80013cc:	2b00      	cmp	r3, #0
 80013ce:	d001      	beq.n	80013d4 <HAL_UART_MspInit+0x4c>
    {
      Error_Handler();
 80013d0:	f7ff ffb0 	bl	8001334 <Error_Handler>
    }

    /* Peripheral clock enable */
    __HAL_RCC_USART2_CLK_ENABLE();
 80013d4:	4b19      	ldr	r3, [pc, #100]	; (800143c <HAL_UART_MspInit+0xb4>)
 80013d6:	6d9b      	ldr	r3, [r3, #88]	; 0x58
 80013d8:	4a18      	ldr	r2, [pc, #96]	; (800143c <HAL_UART_MspInit+0xb4>)
 80013da:	f443 3300 	orr.w	r3, r3, #131072	; 0x20000
 80013de:	6593      	str	r3, [r2, #88]	; 0x58
 80013e0:	4b16      	ldr	r3, [pc, #88]	; (800143c <HAL_UART_MspInit+0xb4>)
 80013e2:	6d9b      	ldr	r3, [r3, #88]	; 0x58
 80013e4:	f403 3300 	and.w	r3, r3, #131072	; 0x20000
 80013e8:	613b      	str	r3, [r7, #16]
 80013ea:	693b      	ldr	r3, [r7, #16]

    __HAL_RCC_GPIOA_CLK_ENABLE();
 80013ec:	4b13      	ldr	r3, [pc, #76]	; (800143c <HAL_UART_MspInit+0xb4>)
 80013ee:	6cdb      	ldr	r3, [r3, #76]	; 0x4c
 80013f0:	4a12      	ldr	r2, [pc, #72]	; (800143c <HAL_UART_MspInit+0xb4>)
 80013f2:	f043 0301 	orr.w	r3, r3, #1
 80013f6:	64d3      	str	r3, [r2, #76]	; 0x4c
 80013f8:	4b10      	ldr	r3, [pc, #64]	; (800143c <HAL_UART_MspInit+0xb4>)
 80013fa:	6cdb      	ldr	r3, [r3, #76]	; 0x4c
 80013fc:	f003 0301 	and.w	r3, r3, #1
 8001400:	60fb      	str	r3, [r7, #12]
 8001402:	68fb      	ldr	r3, [r7, #12]
    /**USART2 GPIO Configuration
    PA2     ------> USART2_TX
    PA3     ------> USART2_RX
    */
    GPIO_InitStruct.Pin = USART_TX_Pin|USART_RX_Pin;
 8001404:	230c      	movs	r3, #12
 8001406:	f8c7 309c 	str.w	r3, [r7, #156]	; 0x9c
    GPIO_InitStruct.Mode = GPIO_MODE_AF_PP;
 800140a:	2302      	movs	r3, #2
 800140c:	f8c7 30a0 	str.w	r3, [r7, #160]	; 0xa0
    GPIO_InitStruct.Pull = GPIO_NOPULL;
 8001410:	2300      	movs	r3, #0
 8001412:	f8c7 30a4 	str.w	r3, [r7, #164]	; 0xa4
    GPIO_InitStruct.Speed = GPIO_SPEED_FREQ_VERY_HIGH;
 8001416:	2303      	movs	r3, #3
 8001418:	f8c7 30a8 	str.w	r3, [r7, #168]	; 0xa8
    GPIO_InitStruct.Alternate = GPIO_AF7_USART2;
 800141c:	2307      	movs	r3, #7
 800141e:	f8c7 30ac 	str.w	r3, [r7, #172]	; 0xac
    HAL_GPIO_Init(GPIOA, &GPIO_InitStruct);
 8001422:	f107 039c 	add.w	r3, r7, #156	; 0x9c
 8001426:	4619      	mov	r1, r3
 8001428:	f04f 4090 	mov.w	r0, #1207959552	; 0x48000000
 800142c:	f000 f9f4 	bl	8001818 <HAL_GPIO_Init>
  /* USER CODE BEGIN USART2_MspInit 1 */

  /* USER CODE END USART2_MspInit 1 */
  }

}
 8001430:	bf00      	nop
 8001432:	37b0      	adds	r7, #176	; 0xb0
 8001434:	46bd      	mov	sp, r7
 8001436:	bd80      	pop	{r7, pc}
 8001438:	40004400 	.word	0x40004400
 800143c:	40021000 	.word	0x40021000

08001440 <NMI_Handler>:
/******************************************************************************/
/**
  * @brief This function handles Non maskable interrupt.
  */
void NMI_Handler(void)
{
 8001440:	b480      	push	{r7}
 8001442:	af00      	add	r7, sp, #0
  /* USER CODE BEGIN NonMaskableInt_IRQn 0 */

  /* USER CODE END NonMaskableInt_IRQn 0 */
  /* USER CODE BEGIN NonMaskableInt_IRQn 1 */
  while (1)
 8001444:	e7fe      	b.n	8001444 <NMI_Handler+0x4>

08001446 <HardFault_Handler>:

/**
  * @brief This function handles Hard fault interrupt.
  */
void HardFault_Handler(void)
{
 8001446:	b480      	push	{r7}
 8001448:	af00      	add	r7, sp, #0
  /* USER CODE BEGIN HardFault_IRQn 0 */

  /* USER CODE END HardFault_IRQn 0 */
  while (1)
 800144a:	e7fe      	b.n	800144a <HardFault_Handler+0x4>

0800144c <MemManage_Handler>:

/**
  * @brief This function handles Memory management fault.
  */
void MemManage_Handler(void)
{
 800144c:	b480      	push	{r7}
 800144e:	af00      	add	r7, sp, #0
  /* USER CODE BEGIN MemoryManagement_IRQn 0 */

  /* USER CODE END MemoryManagement_IRQn 0 */
  while (1)
 8001450:	e7fe      	b.n	8001450 <MemManage_Handler+0x4>

08001452 <BusFault_Handler>:

/**
  * @brief This function handles Prefetch fault, memory access fault.
  */
void BusFault_Handler(void)
{
 8001452:	b480      	push	{r7}
 8001454:	af00      	add	r7, sp, #0
  /* USER CODE BEGIN BusFault_IRQn 0 */

  /* USER CODE END BusFault_IRQn 0 */
  while (1)
 8001456:	e7fe      	b.n	8001456 <BusFault_Handler+0x4>

08001458 <UsageFault_Handler>:

/**
  * @brief This function handles Undefined instruction or illegal state.
  */
void UsageFault_Handler(void)
{
 8001458:	b480      	push	{r7}
 800145a:	af00      	add	r7, sp, #0
  /* USER CODE BEGIN UsageFault_IRQn 0 */

  /* USER CODE END UsageFault_IRQn 0 */
  while (1)
 800145c:	e7fe      	b.n	800145c <UsageFault_Handler+0x4>

0800145e <SVC_Handler>:

/**
  * @brief This function handles System service call via SWI instruction.
  */
void SVC_Handler(void)
{
 800145e:	b480      	push	{r7}
 8001460:	af00      	add	r7, sp, #0

  /* USER CODE END SVCall_IRQn 0 */
  /* USER CODE BEGIN SVCall_IRQn 1 */

  /* USER CODE END SVCall_IRQn 1 */
}
 8001462:	bf00      	nop
 8001464:	46bd      	mov	sp, r7
 8001466:	f85d 7b04 	ldr.w	r7, [sp], #4
 800146a:	4770      	bx	lr

0800146c <DebugMon_Handler>:

/**
  * @brief This function handles Debug monitor.
  */
void DebugMon_Handler(void)
{
 800146c:	b480      	push	{r7}
 800146e:	af00      	add	r7, sp, #0

  /* USER CODE END DebugMonitor_IRQn 0 */
  /* USER CODE BEGIN DebugMonitor_IRQn 1 */

  /* USER CODE END DebugMonitor_IRQn 1 */
}
 8001470:	bf00      	nop
 8001472:	46bd      	mov	sp, r7
 8001474:	f85d 7b04 	ldr.w	r7, [sp], #4
 8001478:	4770      	bx	lr

0800147a <PendSV_Handler>:

/**
  * @brief This function handles Pendable request for system service.
  */
void PendSV_Handler(void)
{
 800147a:	b480      	push	{r7}
 800147c:	af00      	add	r7, sp, #0

  /* USER CODE END PendSV_IRQn 0 */
  /* USER CODE BEGIN PendSV_IRQn 1 */

  /* USER CODE END PendSV_IRQn 1 */
}
 800147e:	bf00      	nop
 8001480:	46bd      	mov	sp, r7
 8001482:	f85d 7b04 	ldr.w	r7, [sp], #4
 8001486:	4770      	bx	lr

08001488 <SysTick_Handler>:

/**
  * @brief This function handles System tick timer.
  */
void SysTick_Handler(void)
{
 8001488:	b580      	push	{r7, lr}
 800148a:	af00      	add	r7, sp, #0
  /* USER CODE BEGIN SysTick_IRQn 0 */

  /* USER CODE END SysTick_IRQn 0 */
  HAL_IncTick();
 800148c:	f000 f89a 	bl	80015c4 <HAL_IncTick>
  /* USER CODE BEGIN SysTick_IRQn 1 */

  /* USER CODE END SysTick_IRQn 1 */
}
 8001490:	bf00      	nop
 8001492:	bd80      	pop	{r7, pc}

08001494 <SystemInit>:
  * @brief  Setup the microcontroller system.
  * @retval None
  */

void SystemInit(void)
{
 8001494:	b480      	push	{r7}
 8001496:	af00      	add	r7, sp, #0
  SCB->VTOR = VECT_TAB_BASE_ADDRESS | VECT_TAB_OFFSET;
#endif

  /* FPU settings ------------------------------------------------------------*/
#if (__FPU_PRESENT == 1) && (__FPU_USED == 1)
  SCB->CPACR |= ((3UL << 20U)|(3UL << 22U));  /* set CP10 and CP11 Full Access */
 8001498:	4b06      	ldr	r3, [pc, #24]	; (80014b4 <SystemInit+0x20>)
 800149a:	f8d3 3088 	ldr.w	r3, [r3, #136]	; 0x88
 800149e:	4a05      	ldr	r2, [pc, #20]	; (80014b4 <SystemInit+0x20>)
 80014a0:	f443 0370 	orr.w	r3, r3, #15728640	; 0xf00000
 80014a4:	f8c2 3088 	str.w	r3, [r2, #136]	; 0x88
#endif
}
 80014a8:	bf00      	nop
 80014aa:	46bd      	mov	sp, r7
 80014ac:	f85d 7b04 	ldr.w	r7, [sp], #4
 80014b0:	4770      	bx	lr
 80014b2:	bf00      	nop
 80014b4:	e000ed00 	.word	0xe000ed00

080014b8 <Reset_Handler>:

    .section	.text.Reset_Handler
	.weak	Reset_Handler
	.type	Reset_Handler, %function
Reset_Handler:
  ldr   sp, =_estack    /* Set stack pointer */
 80014b8:	f8df d034 	ldr.w	sp, [pc, #52]	; 80014f0 <LoopForever+0x2>

/* Call the clock system initialization function.*/
    bl  SystemInit
 80014bc:	f7ff ffea 	bl	8001494 <SystemInit>

/* Copy the data segment initializers from flash to SRAM */
  ldr r0, =_sdata
 80014c0:	480c      	ldr	r0, [pc, #48]	; (80014f4 <LoopForever+0x6>)
  ldr r1, =_edata
 80014c2:	490d      	ldr	r1, [pc, #52]	; (80014f8 <LoopForever+0xa>)
  ldr r2, =_sidata
 80014c4:	4a0d      	ldr	r2, [pc, #52]	; (80014fc <LoopForever+0xe>)
  movs r3, #0
 80014c6:	2300      	movs	r3, #0
  b LoopCopyDataInit
 80014c8:	e002      	b.n	80014d0 <LoopCopyDataInit>

080014ca <CopyDataInit>:

CopyDataInit:
  ldr r4, [r2, r3]
 80014ca:	58d4      	ldr	r4, [r2, r3]
  str r4, [r0, r3]
 80014cc:	50c4      	str	r4, [r0, r3]
  adds r3, r3, #4
 80014ce:	3304      	adds	r3, #4

080014d0 <LoopCopyDataInit>:

LoopCopyDataInit:
  adds r4, r0, r3
 80014d0:	18c4      	adds	r4, r0, r3
  cmp r4, r1
 80014d2:	428c      	cmp	r4, r1
  bcc CopyDataInit
 80014d4:	d3f9      	bcc.n	80014ca <CopyDataInit>
  
/* Zero fill the bss segment. */
  ldr r2, =_sbss
 80014d6:	4a0a      	ldr	r2, [pc, #40]	; (8001500 <LoopForever+0x12>)
  ldr r4, =_ebss
 80014d8:	4c0a      	ldr	r4, [pc, #40]	; (8001504 <LoopForever+0x16>)
  movs r3, #0
 80014da:	2300      	movs	r3, #0
  b LoopFillZerobss
 80014dc:	e001      	b.n	80014e2 <LoopFillZerobss>

080014de <FillZerobss>:

FillZerobss:
  str  r3, [r2]
 80014de:	6013      	str	r3, [r2, #0]
  adds r2, r2, #4
 80014e0:	3204      	adds	r2, #4

080014e2 <LoopFillZerobss>:

LoopFillZerobss:
  cmp r2, r4
 80014e2:	42a2      	cmp	r2, r4
  bcc FillZerobss
 80014e4:	d3fb      	bcc.n	80014de <FillZerobss>

/* Call static constructors */
    bl __libc_init_array
 80014e6:	f002 fb17 	bl	8003b18 <__libc_init_array>
/* Call the application's entry point.*/
	bl	main
 80014ea:	f7ff fd89 	bl	8001000 <main>

080014ee <LoopForever>:

LoopForever:
    b LoopForever
 80014ee:	e7fe      	b.n	80014ee <LoopForever>
  ldr   sp, =_estack    /* Set stack pointer */
 80014f0:	20018000 	.word	0x20018000
  ldr r0, =_sdata
 80014f4:	20000000 	.word	0x20000000
  ldr r1, =_edata
 80014f8:	2000000c 	.word	0x2000000c
  ldr r2, =_sidata
 80014fc:	08003c28 	.word	0x08003c28
  ldr r2, =_sbss
 8001500:	2000000c 	.word	0x2000000c
  ldr r4, =_ebss
 8001504:	200000c4 	.word	0x200000c4

08001508 <ADC1_2_IRQHandler>:
 * @retval : None
*/
    .section	.text.Default_Handler,"ax",%progbits
Default_Handler:
Infinite_Loop:
	b	Infinite_Loop
 8001508:	e7fe      	b.n	8001508 <ADC1_2_IRQHandler>
	...

0800150c <HAL_Init>:
  *         each 1ms in the SysTick_Handler() interrupt handler.
  *
  * @retval HAL status
  */
HAL_StatusTypeDef HAL_Init(void)
{
 800150c:	b580      	push	{r7, lr}
 800150e:	b082      	sub	sp, #8
 8001510:	af00      	add	r7, sp, #0
  HAL_StatusTypeDef  status = HAL_OK;
 8001512:	2300      	movs	r3, #0
 8001514:	71fb      	strb	r3, [r7, #7]
#if (DATA_CACHE_ENABLE == 0)
   __HAL_FLASH_DATA_CACHE_DISABLE();
#endif /* DATA_CACHE_ENABLE */

#if (PREFETCH_ENABLE != 0)
  __HAL_FLASH_PREFETCH_BUFFER_ENABLE();
 8001516:	4b0c      	ldr	r3, [pc, #48]	; (8001548 <HAL_Init+0x3c>)
 8001518:	681b      	ldr	r3, [r3, #0]
 800151a:	4a0b      	ldr	r2, [pc, #44]	; (8001548 <HAL_Init+0x3c>)
 800151c:	f443 7380 	orr.w	r3, r3, #256	; 0x100
 8001520:	6013      	str	r3, [r2, #0]
#endif /* PREFETCH_ENABLE */

  /* Set Interrupt Group Priority */
  HAL_NVIC_SetPriorityGrouping(NVIC_PRIORITYGROUP_4);
 8001522:	2003      	movs	r0, #3
 8001524:	f000 f944 	bl	80017b0 <HAL_NVIC_SetPriorityGrouping>

  /* Use SysTick as time base source and configure 1ms tick (default clock after Reset is MSI) */
  if (HAL_InitTick(TICK_INT_PRIORITY) != HAL_OK)
 8001528:	2000      	movs	r0, #0
 800152a:	f000 f80f 	bl	800154c <HAL_InitTick>
 800152e:	4603      	mov	r3, r0
 8001530:	2b00      	cmp	r3, #0
 8001532:	d002      	beq.n	800153a <HAL_Init+0x2e>
  {
    status = HAL_ERROR;
 8001534:	2301      	movs	r3, #1
 8001536:	71fb      	strb	r3, [r7, #7]
 8001538:	e001      	b.n	800153e <HAL_Init+0x32>
  }
  else
  {
    /* Init the low level hardware */
    HAL_MspInit();
 800153a:	f7ff ff01 	bl	8001340 <HAL_MspInit>
  }

  /* Return function status */
  return status;
 800153e:	79fb      	ldrb	r3, [r7, #7]
}
 8001540:	4618      	mov	r0, r3
 8001542:	3708      	adds	r7, #8
 8001544:	46bd      	mov	sp, r7
 8001546:	bd80      	pop	{r7, pc}
 8001548:	40022000 	.word	0x40022000

0800154c <HAL_InitTick>:
  *       implementation  in user file.
  * @param TickPriority  Tick interrupt priority.
  * @retval HAL status
  */
__weak HAL_StatusTypeDef HAL_InitTick(uint32_t TickPriority)
{
 800154c:	b580      	push	{r7, lr}
 800154e:	b084      	sub	sp, #16
 8001550:	af00      	add	r7, sp, #0
 8001552:	6078      	str	r0, [r7, #4]
  HAL_StatusTypeDef  status = HAL_OK;
 8001554:	2300      	movs	r3, #0
 8001556:	73fb      	strb	r3, [r7, #15]

  /* Check uwTickFreq for MisraC 2012 (even if uwTickFreq is a enum type that doesn't take the value zero)*/
  if ((uint32_t)uwTickFreq != 0U)
 8001558:	4b17      	ldr	r3, [pc, #92]	; (80015b8 <HAL_InitTick+0x6c>)
 800155a:	781b      	ldrb	r3, [r3, #0]
 800155c:	2b00      	cmp	r3, #0
 800155e:	d023      	beq.n	80015a8 <HAL_InitTick+0x5c>
  {
    /*Configure the SysTick to have interrupt in 1ms time basis*/
    if (HAL_SYSTICK_Config(SystemCoreClock / (1000U / (uint32_t)uwTickFreq)) == 0U)
 8001560:	4b16      	ldr	r3, [pc, #88]	; (80015bc <HAL_InitTick+0x70>)
 8001562:	681a      	ldr	r2, [r3, #0]
 8001564:	4b14      	ldr	r3, [pc, #80]	; (80015b8 <HAL_InitTick+0x6c>)
 8001566:	781b      	ldrb	r3, [r3, #0]
 8001568:	4619      	mov	r1, r3
 800156a:	f44f 737a 	mov.w	r3, #1000	; 0x3e8
 800156e:	fbb3 f3f1 	udiv	r3, r3, r1
 8001572:	fbb2 f3f3 	udiv	r3, r2, r3
 8001576:	4618      	mov	r0, r3
 8001578:	f000 f941 	bl	80017fe <HAL_SYSTICK_Config>
 800157c:	4603      	mov	r3, r0
 800157e:	2b00      	cmp	r3, #0
 8001580:	d10f      	bne.n	80015a2 <HAL_InitTick+0x56>
    {
      /* Configure the SysTick IRQ priority */
      if (TickPriority < (1UL << __NVIC_PRIO_BITS))
 8001582:	687b      	ldr	r3, [r7, #4]
 8001584:	2b0f      	cmp	r3, #15
 8001586:	d809      	bhi.n	800159c <HAL_InitTick+0x50>
      {
        HAL_NVIC_SetPriority(SysTick_IRQn, TickPriority, 0U);
 8001588:	2200      	movs	r2, #0
 800158a:	6879      	ldr	r1, [r7, #4]
 800158c:	f04f 30ff 	mov.w	r0, #4294967295
 8001590:	f000 f919 	bl	80017c6 <HAL_NVIC_SetPriority>
        uwTickPrio = TickPriority;
 8001594:	4a0a      	ldr	r2, [pc, #40]	; (80015c0 <HAL_InitTick+0x74>)
 8001596:	687b      	ldr	r3, [r7, #4]
 8001598:	6013      	str	r3, [r2, #0]
 800159a:	e007      	b.n	80015ac <HAL_InitTick+0x60>
      }
      else
      {
        status = HAL_ERROR;
 800159c:	2301      	movs	r3, #1
 800159e:	73fb      	strb	r3, [r7, #15]
 80015a0:	e004      	b.n	80015ac <HAL_InitTick+0x60>
      }
    }
    else
    {
      status = HAL_ERROR;
 80015a2:	2301      	movs	r3, #1
 80015a4:	73fb      	strb	r3, [r7, #15]
 80015a6:	e001      	b.n	80015ac <HAL_InitTick+0x60>
    }
  }
  else
  {
    status = HAL_ERROR;
 80015a8:	2301      	movs	r3, #1
 80015aa:	73fb      	strb	r3, [r7, #15]
  }

  /* Return function status */
  return status;
 80015ac:	7bfb      	ldrb	r3, [r7, #15]
}
 80015ae:	4618      	mov	r0, r3
 80015b0:	3710      	adds	r7, #16
 80015b2:	46bd      	mov	sp, r7
 80015b4:	bd80      	pop	{r7, pc}
 80015b6:	bf00      	nop
 80015b8:	20000008 	.word	0x20000008
 80015bc:	20000000 	.word	0x20000000
 80015c0:	20000004 	.word	0x20000004

080015c4 <HAL_IncTick>:
 * @note This function is declared as __weak to be overwritten in case of other
  *      implementations in user file.
  * @retval None
  */
__weak void HAL_IncTick(void)
{
 80015c4:	b480      	push	{r7}
 80015c6:	af00      	add	r7, sp, #0
  uwTick += (uint32_t)uwTickFreq;
 80015c8:	4b06      	ldr	r3, [pc, #24]	; (80015e4 <HAL_IncTick+0x20>)
 80015ca:	781b      	ldrb	r3, [r3, #0]
 80015cc:	461a      	mov	r2, r3
 80015ce:	4b06      	ldr	r3, [pc, #24]	; (80015e8 <HAL_IncTick+0x24>)
 80015d0:	681b      	ldr	r3, [r3, #0]
 80015d2:	4413      	add	r3, r2
 80015d4:	4a04      	ldr	r2, [pc, #16]	; (80015e8 <HAL_IncTick+0x24>)
 80015d6:	6013      	str	r3, [r2, #0]
}
 80015d8:	bf00      	nop
 80015da:	46bd      	mov	sp, r7
 80015dc:	f85d 7b04 	ldr.w	r7, [sp], #4
 80015e0:	4770      	bx	lr
 80015e2:	bf00      	nop
 80015e4:	20000008 	.word	0x20000008
 80015e8:	200000c0 	.word	0x200000c0

080015ec <HAL_GetTick>:
  * @note This function is declared as __weak to be overwritten in case of other
  *       implementations in user file.
  * @retval tick value
  */
__weak uint32_t HAL_GetTick(void)
{
 80015ec:	b480      	push	{r7}
 80015ee:	af00      	add	r7, sp, #0
  return uwTick;
 80015f0:	4b03      	ldr	r3, [pc, #12]	; (8001600 <HAL_GetTick+0x14>)
 80015f2:	681b      	ldr	r3, [r3, #0]
}
 80015f4:	4618      	mov	r0, r3
 80015f6:	46bd      	mov	sp, r7
 80015f8:	f85d 7b04 	ldr.w	r7, [sp], #4
 80015fc:	4770      	bx	lr
 80015fe:	bf00      	nop
 8001600:	200000c0 	.word	0x200000c0

08001604 <HAL_Delay>:
  *       implementations in user file.
  * @param Delay  specifies the delay time length, in milliseconds.
  * @retval None
  */
__weak void HAL_Delay(uint32_t Delay)
{
 8001604:	b580      	push	{r7, lr}
 8001606:	b084      	sub	sp, #16
 8001608:	af00      	add	r7, sp, #0
 800160a:	6078      	str	r0, [r7, #4]
  uint32_t tickstart = HAL_GetTick();
 800160c:	f7ff ffee 	bl	80015ec <HAL_GetTick>
 8001610:	60b8      	str	r0, [r7, #8]
  uint32_t wait = Delay;
 8001612:	687b      	ldr	r3, [r7, #4]
 8001614:	60fb      	str	r3, [r7, #12]

  /* Add a period to guaranty minimum wait */
  if (wait < HAL_MAX_DELAY)
 8001616:	68fb      	ldr	r3, [r7, #12]
 8001618:	f1b3 3fff 	cmp.w	r3, #4294967295
 800161c:	d005      	beq.n	800162a <HAL_Delay+0x26>
  {
    wait += (uint32_t)uwTickFreq;
 800161e:	4b0a      	ldr	r3, [pc, #40]	; (8001648 <HAL_Delay+0x44>)
 8001620:	781b      	ldrb	r3, [r3, #0]
 8001622:	461a      	mov	r2, r3
 8001624:	68fb      	ldr	r3, [r7, #12]
 8001626:	4413      	add	r3, r2
 8001628:	60fb      	str	r3, [r7, #12]
  }

  while ((HAL_GetTick() - tickstart) < wait)
 800162a:	bf00      	nop
 800162c:	f7ff ffde 	bl	80015ec <HAL_GetTick>
 8001630:	4602      	mov	r2, r0
 8001632:	68bb      	ldr	r3, [r7, #8]
 8001634:	1ad3      	subs	r3, r2, r3
 8001636:	68fa      	ldr	r2, [r7, #12]
 8001638:	429a      	cmp	r2, r3
 800163a:	d8f7      	bhi.n	800162c <HAL_Delay+0x28>
  {
  }
}
 800163c:	bf00      	nop
 800163e:	bf00      	nop
 8001640:	3710      	adds	r7, #16
 8001642:	46bd      	mov	sp, r7
 8001644:	bd80      	pop	{r7, pc}
 8001646:	bf00      	nop
 8001648:	20000008 	.word	0x20000008

0800164c <__NVIC_SetPriorityGrouping>:
           In case of a conflict between priority grouping and available
           priority bits (__NVIC_PRIO_BITS), the smallest possible priority group is set.
  \param [in]      PriorityGroup  Priority grouping field.
 */
__STATIC_INLINE void __NVIC_SetPriorityGrouping(uint32_t PriorityGroup)
{
 800164c:	b480      	push	{r7}
 800164e:	b085      	sub	sp, #20
 8001650:	af00      	add	r7, sp, #0
 8001652:	6078      	str	r0, [r7, #4]
  uint32_t reg_value;
  uint32_t PriorityGroupTmp = (PriorityGroup & (uint32_t)0x07UL);             /* only values 0..7 are used          */
 8001654:	687b      	ldr	r3, [r7, #4]
 8001656:	f003 0307 	and.w	r3, r3, #7
 800165a:	60fb      	str	r3, [r7, #12]

  reg_value  =  SCB->AIRCR;                                                   /* read old register configuration    */
 800165c:	4b0c      	ldr	r3, [pc, #48]	; (8001690 <__NVIC_SetPriorityGrouping+0x44>)
 800165e:	68db      	ldr	r3, [r3, #12]
 8001660:	60bb      	str	r3, [r7, #8]
  reg_value &= ~((uint32_t)(SCB_AIRCR_VECTKEY_Msk | SCB_AIRCR_PRIGROUP_Msk)); /* clear bits to change               */
 8001662:	68ba      	ldr	r2, [r7, #8]
 8001664:	f64f 03ff 	movw	r3, #63743	; 0xf8ff
 8001668:	4013      	ands	r3, r2
 800166a:	60bb      	str	r3, [r7, #8]
  reg_value  =  (reg_value                                   |
                ((uint32_t)0x5FAUL << SCB_AIRCR_VECTKEY_Pos) |
                (PriorityGroupTmp << SCB_AIRCR_PRIGROUP_Pos)  );              /* Insert write key and priority group */
 800166c:	68fb      	ldr	r3, [r7, #12]
 800166e:	021a      	lsls	r2, r3, #8
                ((uint32_t)0x5FAUL << SCB_AIRCR_VECTKEY_Pos) |
 8001670:	68bb      	ldr	r3, [r7, #8]
 8001672:	4313      	orrs	r3, r2
  reg_value  =  (reg_value                                   |
 8001674:	f043 63bf 	orr.w	r3, r3, #100139008	; 0x5f80000
 8001678:	f443 3300 	orr.w	r3, r3, #131072	; 0x20000
 800167c:	60bb      	str	r3, [r7, #8]
  SCB->AIRCR =  reg_value;
 800167e:	4a04      	ldr	r2, [pc, #16]	; (8001690 <__NVIC_SetPriorityGrouping+0x44>)
 8001680:	68bb      	ldr	r3, [r7, #8]
 8001682:	60d3      	str	r3, [r2, #12]
}
 8001684:	bf00      	nop
 8001686:	3714      	adds	r7, #20
 8001688:	46bd      	mov	sp, r7
 800168a:	f85d 7b04 	ldr.w	r7, [sp], #4
 800168e:	4770      	bx	lr
 8001690:	e000ed00 	.word	0xe000ed00

08001694 <__NVIC_GetPriorityGrouping>:
  \brief   Get Priority Grouping
  \details Reads the priority grouping field from the NVIC Interrupt Controller.
  \return                Priority grouping field (SCB->AIRCR [10:8] PRIGROUP field).
 */
__STATIC_INLINE uint32_t __NVIC_GetPriorityGrouping(void)
{
 8001694:	b480      	push	{r7}
 8001696:	af00      	add	r7, sp, #0
  return ((uint32_t)((SCB->AIRCR & SCB_AIRCR_PRIGROUP_Msk) >> SCB_AIRCR_PRIGROUP_Pos));
 8001698:	4b04      	ldr	r3, [pc, #16]	; (80016ac <__NVIC_GetPriorityGrouping+0x18>)
 800169a:	68db      	ldr	r3, [r3, #12]
 800169c:	0a1b      	lsrs	r3, r3, #8
 800169e:	f003 0307 	and.w	r3, r3, #7
}
 80016a2:	4618      	mov	r0, r3
 80016a4:	46bd      	mov	sp, r7
 80016a6:	f85d 7b04 	ldr.w	r7, [sp], #4
 80016aa:	4770      	bx	lr
 80016ac:	e000ed00 	.word	0xe000ed00

080016b0 <__NVIC_SetPriority>:
  \param [in]      IRQn  Interrupt number.
  \param [in]  priority  Priority to set.
  \note    The priority cannot be set for every processor exception.
 */
__STATIC_INLINE void __NVIC_SetPriority(IRQn_Type IRQn, uint32_t priority)
{
 80016b0:	b480      	push	{r7}
 80016b2:	b083      	sub	sp, #12
 80016b4:	af00      	add	r7, sp, #0
 80016b6:	4603      	mov	r3, r0
 80016b8:	6039      	str	r1, [r7, #0]
 80016ba:	71fb      	strb	r3, [r7, #7]
  if ((int32_t)(IRQn) >= 0)
 80016bc:	f997 3007 	ldrsb.w	r3, [r7, #7]
 80016c0:	2b00      	cmp	r3, #0
 80016c2:	db0a      	blt.n	80016da <__NVIC_SetPriority+0x2a>
  {
    NVIC->IP[((uint32_t)IRQn)]               = (uint8_t)((priority << (8U - __NVIC_PRIO_BITS)) & (uint32_t)0xFFUL);
 80016c4:	683b      	ldr	r3, [r7, #0]
 80016c6:	b2da      	uxtb	r2, r3
 80016c8:	490c      	ldr	r1, [pc, #48]	; (80016fc <__NVIC_SetPriority+0x4c>)
 80016ca:	f997 3007 	ldrsb.w	r3, [r7, #7]
 80016ce:	0112      	lsls	r2, r2, #4
 80016d0:	b2d2      	uxtb	r2, r2
 80016d2:	440b      	add	r3, r1
 80016d4:	f883 2300 	strb.w	r2, [r3, #768]	; 0x300
  }
  else
  {
    SCB->SHP[(((uint32_t)IRQn) & 0xFUL)-4UL] = (uint8_t)((priority << (8U - __NVIC_PRIO_BITS)) & (uint32_t)0xFFUL);
  }
}
 80016d8:	e00a      	b.n	80016f0 <__NVIC_SetPriority+0x40>
    SCB->SHP[(((uint32_t)IRQn) & 0xFUL)-4UL] = (uint8_t)((priority << (8U - __NVIC_PRIO_BITS)) & (uint32_t)0xFFUL);
 80016da:	683b      	ldr	r3, [r7, #0]
 80016dc:	b2da      	uxtb	r2, r3
 80016de:	4908      	ldr	r1, [pc, #32]	; (8001700 <__NVIC_SetPriority+0x50>)
 80016e0:	79fb      	ldrb	r3, [r7, #7]
 80016e2:	f003 030f 	and.w	r3, r3, #15
 80016e6:	3b04      	subs	r3, #4
 80016e8:	0112      	lsls	r2, r2, #4
 80016ea:	b2d2      	uxtb	r2, r2
 80016ec:	440b      	add	r3, r1
 80016ee:	761a      	strb	r2, [r3, #24]
}
 80016f0:	bf00      	nop
 80016f2:	370c      	adds	r7, #12
 80016f4:	46bd      	mov	sp, r7
 80016f6:	f85d 7b04 	ldr.w	r7, [sp], #4
 80016fa:	4770      	bx	lr
 80016fc:	e000e100 	.word	0xe000e100
 8001700:	e000ed00 	.word	0xe000ed00

08001704 <NVIC_EncodePriority>:
  \param [in]   PreemptPriority  Preemptive priority value (starting from 0).
  \param [in]       SubPriority  Subpriority value (starting from 0).
  \return                        Encoded priority. Value can be used in the function \ref NVIC_SetPriority().
 */
__STATIC_INLINE uint32_t NVIC_EncodePriority (uint32_t PriorityGroup, uint32_t PreemptPriority, uint32_t SubPriority)
{
 8001704:	b480      	push	{r7}
 8001706:	b089      	sub	sp, #36	; 0x24
 8001708:	af00      	add	r7, sp, #0
 800170a:	60f8      	str	r0, [r7, #12]
 800170c:	60b9      	str	r1, [r7, #8]
 800170e:	607a      	str	r2, [r7, #4]
  uint32_t PriorityGroupTmp = (PriorityGroup & (uint32_t)0x07UL);   /* only values 0..7 are used          */
 8001710:	68fb      	ldr	r3, [r7, #12]
 8001712:	f003 0307 	and.w	r3, r3, #7
 8001716:	61fb      	str	r3, [r7, #28]
  uint32_t PreemptPriorityBits;
  uint32_t SubPriorityBits;

  PreemptPriorityBits = ((7UL - PriorityGroupTmp) > (uint32_t)(__NVIC_PRIO_BITS)) ? (uint32_t)(__NVIC_PRIO_BITS) : (uint32_t)(7UL - PriorityGroupTmp);
 8001718:	69fb      	ldr	r3, [r7, #28]
 800171a:	f1c3 0307 	rsb	r3, r3, #7
 800171e:	2b04      	cmp	r3, #4
 8001720:	bf28      	it	cs
 8001722:	2304      	movcs	r3, #4
 8001724:	61bb      	str	r3, [r7, #24]
  SubPriorityBits     = ((PriorityGroupTmp + (uint32_t)(__NVIC_PRIO_BITS)) < (uint32_t)7UL) ? (uint32_t)0UL : (uint32_t)((PriorityGroupTmp - 7UL) + (uint32_t)(__NVIC_PRIO_BITS));
 8001726:	69fb      	ldr	r3, [r7, #28]
 8001728:	3304      	adds	r3, #4
 800172a:	2b06      	cmp	r3, #6
 800172c:	d902      	bls.n	8001734 <NVIC_EncodePriority+0x30>
 800172e:	69fb      	ldr	r3, [r7, #28]
 8001730:	3b03      	subs	r3, #3
 8001732:	e000      	b.n	8001736 <NVIC_EncodePriority+0x32>
 8001734:	2300      	movs	r3, #0
 8001736:	617b      	str	r3, [r7, #20]

  return (
           ((PreemptPriority & (uint32_t)((1UL << (PreemptPriorityBits)) - 1UL)) << SubPriorityBits) |
 8001738:	f04f 32ff 	mov.w	r2, #4294967295
 800173c:	69bb      	ldr	r3, [r7, #24]
 800173e:	fa02 f303 	lsl.w	r3, r2, r3
 8001742:	43da      	mvns	r2, r3
 8001744:	68bb      	ldr	r3, [r7, #8]
 8001746:	401a      	ands	r2, r3
 8001748:	697b      	ldr	r3, [r7, #20]
 800174a:	409a      	lsls	r2, r3
           ((SubPriority     & (uint32_t)((1UL << (SubPriorityBits    )) - 1UL)))
 800174c:	f04f 31ff 	mov.w	r1, #4294967295
 8001750:	697b      	ldr	r3, [r7, #20]
 8001752:	fa01 f303 	lsl.w	r3, r1, r3
 8001756:	43d9      	mvns	r1, r3
 8001758:	687b      	ldr	r3, [r7, #4]
 800175a:	400b      	ands	r3, r1
           ((PreemptPriority & (uint32_t)((1UL << (PreemptPriorityBits)) - 1UL)) << SubPriorityBits) |
 800175c:	4313      	orrs	r3, r2
         );
}
 800175e:	4618      	mov	r0, r3
 8001760:	3724      	adds	r7, #36	; 0x24
 8001762:	46bd      	mov	sp, r7
 8001764:	f85d 7b04 	ldr.w	r7, [sp], #4
 8001768:	4770      	bx	lr
	...

0800176c <SysTick_Config>:
  \note    When the variable <b>__Vendor_SysTickConfig</b> is set to 1, then the
           function <b>SysTick_Config</b> is not included. In this case, the file <b><i>device</i>.h</b>
           must contain a vendor-specific implementation of this function.
 */
__STATIC_INLINE uint32_t SysTick_Config(uint32_t ticks)
{
 800176c:	b580      	push	{r7, lr}
 800176e:	b082      	sub	sp, #8
 8001770:	af00      	add	r7, sp, #0
 8001772:	6078      	str	r0, [r7, #4]
  if ((ticks - 1UL) > SysTick_LOAD_RELOAD_Msk)
 8001774:	687b      	ldr	r3, [r7, #4]
 8001776:	3b01      	subs	r3, #1
 8001778:	f1b3 7f80 	cmp.w	r3, #16777216	; 0x1000000
 800177c:	d301      	bcc.n	8001782 <SysTick_Config+0x16>
  {
    return (1UL);                                                   /* Reload value impossible */
 800177e:	2301      	movs	r3, #1
 8001780:	e00f      	b.n	80017a2 <SysTick_Config+0x36>
  }

  SysTick->LOAD  = (uint32_t)(ticks - 1UL);                         /* set reload register */
 8001782:	4a0a      	ldr	r2, [pc, #40]	; (80017ac <SysTick_Config+0x40>)
 8001784:	687b      	ldr	r3, [r7, #4]
 8001786:	3b01      	subs	r3, #1
 8001788:	6053      	str	r3, [r2, #4]
  NVIC_SetPriority (SysTick_IRQn, (1UL << __NVIC_PRIO_BITS) - 1UL); /* set Priority for Systick Interrupt */
 800178a:	210f      	movs	r1, #15
 800178c:	f04f 30ff 	mov.w	r0, #4294967295
 8001790:	f7ff ff8e 	bl	80016b0 <__NVIC_SetPriority>
  SysTick->VAL   = 0UL;                                             /* Load the SysTick Counter Value */
 8001794:	4b05      	ldr	r3, [pc, #20]	; (80017ac <SysTick_Config+0x40>)
 8001796:	2200      	movs	r2, #0
 8001798:	609a      	str	r2, [r3, #8]
  SysTick->CTRL  = SysTick_CTRL_CLKSOURCE_Msk |
 800179a:	4b04      	ldr	r3, [pc, #16]	; (80017ac <SysTick_Config+0x40>)
 800179c:	2207      	movs	r2, #7
 800179e:	601a      	str	r2, [r3, #0]
                   SysTick_CTRL_TICKINT_Msk   |
                   SysTick_CTRL_ENABLE_Msk;                         /* Enable SysTick IRQ and SysTick Timer */
  return (0UL);                                                     /* Function successful */
 80017a0:	2300      	movs	r3, #0
}
 80017a2:	4618      	mov	r0, r3
 80017a4:	3708      	adds	r7, #8
 80017a6:	46bd      	mov	sp, r7
 80017a8:	bd80      	pop	{r7, pc}
 80017aa:	bf00      	nop
 80017ac:	e000e010 	.word	0xe000e010

080017b0 <HAL_NVIC_SetPriorityGrouping>:
  * @note   When the NVIC_PriorityGroup_0 is selected, IRQ pre-emption is no more possible.
  *         The pending IRQ priority will be managed only by the subpriority.
  * @retval None
  */
void HAL_NVIC_SetPriorityGrouping(uint32_t PriorityGroup)
{
 80017b0:	b580      	push	{r7, lr}
 80017b2:	b082      	sub	sp, #8
 80017b4:	af00      	add	r7, sp, #0
 80017b6:	6078      	str	r0, [r7, #4]
  /* Check the parameters */
  assert_param(IS_NVIC_PRIORITY_GROUP(PriorityGroup));

  /* Set the PRIGROUP[10:8] bits according to the PriorityGroup parameter value */
  NVIC_SetPriorityGrouping(PriorityGroup);
 80017b8:	6878      	ldr	r0, [r7, #4]
 80017ba:	f7ff ff47 	bl	800164c <__NVIC_SetPriorityGrouping>
}
 80017be:	bf00      	nop
 80017c0:	3708      	adds	r7, #8
 80017c2:	46bd      	mov	sp, r7
 80017c4:	bd80      	pop	{r7, pc}

080017c6 <HAL_NVIC_SetPriority>:
  *         This parameter can be a value between 0 and 15
  *         A lower priority value indicates a higher priority.
  * @retval None
  */
void HAL_NVIC_SetPriority(IRQn_Type IRQn, uint32_t PreemptPriority, uint32_t SubPriority)
{
 80017c6:	b580      	push	{r7, lr}
 80017c8:	b086      	sub	sp, #24
 80017ca:	af00      	add	r7, sp, #0
 80017cc:	4603      	mov	r3, r0
 80017ce:	60b9      	str	r1, [r7, #8]
 80017d0:	607a      	str	r2, [r7, #4]
 80017d2:	73fb      	strb	r3, [r7, #15]
  uint32_t prioritygroup = 0x00;
 80017d4:	2300      	movs	r3, #0
 80017d6:	617b      	str	r3, [r7, #20]

  /* Check the parameters */
  assert_param(IS_NVIC_SUB_PRIORITY(SubPriority));
  assert_param(IS_NVIC_PREEMPTION_PRIORITY(PreemptPriority));

  prioritygroup = NVIC_GetPriorityGrouping();
 80017d8:	f7ff ff5c 	bl	8001694 <__NVIC_GetPriorityGrouping>
 80017dc:	6178      	str	r0, [r7, #20]

  NVIC_SetPriority(IRQn, NVIC_EncodePriority(prioritygroup, PreemptPriority, SubPriority));
 80017de:	687a      	ldr	r2, [r7, #4]
 80017e0:	68b9      	ldr	r1, [r7, #8]
 80017e2:	6978      	ldr	r0, [r7, #20]
 80017e4:	f7ff ff8e 	bl	8001704 <NVIC_EncodePriority>
 80017e8:	4602      	mov	r2, r0
 80017ea:	f997 300f 	ldrsb.w	r3, [r7, #15]
 80017ee:	4611      	mov	r1, r2
 80017f0:	4618      	mov	r0, r3
 80017f2:	f7ff ff5d 	bl	80016b0 <__NVIC_SetPriority>
}
 80017f6:	bf00      	nop
 80017f8:	3718      	adds	r7, #24
 80017fa:	46bd      	mov	sp, r7
 80017fc:	bd80      	pop	{r7, pc}

080017fe <HAL_SYSTICK_Config>:
  * @param  TicksNumb: Specifies the ticks Number of ticks between two interrupts.
  * @retval status:  - 0  Function succeeded.
  *                  - 1  Function failed.
  */
uint32_t HAL_SYSTICK_Config(uint32_t TicksNumb)
{
 80017fe:	b580      	push	{r7, lr}
 8001800:	b082      	sub	sp, #8
 8001802:	af00      	add	r7, sp, #0
 8001804:	6078      	str	r0, [r7, #4]
   return SysTick_Config(TicksNumb);
 8001806:	6878      	ldr	r0, [r7, #4]
 8001808:	f7ff ffb0 	bl	800176c <SysTick_Config>
 800180c:	4603      	mov	r3, r0
}
 800180e:	4618      	mov	r0, r3
 8001810:	3708      	adds	r7, #8
 8001812:	46bd      	mov	sp, r7
 8001814:	bd80      	pop	{r7, pc}
	...

08001818 <HAL_GPIO_Init>:
  * @param  GPIO_Init pointer to a GPIO_InitTypeDef structure that contains
  *         the configuration information for the specified GPIO peripheral.
  * @retval None
  */
void HAL_GPIO_Init(GPIO_TypeDef  *GPIOx, GPIO_InitTypeDef *GPIO_Init)
{
 8001818:	b480      	push	{r7}
 800181a:	b087      	sub	sp, #28
 800181c:	af00      	add	r7, sp, #0
 800181e:	6078      	str	r0, [r7, #4]
 8001820:	6039      	str	r1, [r7, #0]
  uint32_t position = 0x00u;
 8001822:	2300      	movs	r3, #0
 8001824:	617b      	str	r3, [r7, #20]
  assert_param(IS_GPIO_ALL_INSTANCE(GPIOx));
  assert_param(IS_GPIO_PIN(GPIO_Init->Pin));
  assert_param(IS_GPIO_MODE(GPIO_Init->Mode));

  /* Configure the port pins */
  while (((GPIO_Init->Pin) >> position) != 0x00u)
 8001826:	e17f      	b.n	8001b28 <HAL_GPIO_Init+0x310>
  {
    /* Get current io position */
    iocurrent = (GPIO_Init->Pin) & (1uL << position);
 8001828:	683b      	ldr	r3, [r7, #0]
 800182a:	681a      	ldr	r2, [r3, #0]
 800182c:	2101      	movs	r1, #1
 800182e:	697b      	ldr	r3, [r7, #20]
 8001830:	fa01 f303 	lsl.w	r3, r1, r3
 8001834:	4013      	ands	r3, r2
 8001836:	60fb      	str	r3, [r7, #12]

    if (iocurrent != 0x00u)
 8001838:	68fb      	ldr	r3, [r7, #12]
 800183a:	2b00      	cmp	r3, #0
 800183c:	f000 8171 	beq.w	8001b22 <HAL_GPIO_Init+0x30a>
    {
      /*--------------------- GPIO Mode Configuration ------------------------*/
      /* In case of Output or Alternate function mode selection */
      if (((GPIO_Init->Mode & GPIO_MODE) == MODE_OUTPUT) || ((GPIO_Init->Mode & GPIO_MODE) == MODE_AF))
 8001840:	683b      	ldr	r3, [r7, #0]
 8001842:	685b      	ldr	r3, [r3, #4]
 8001844:	f003 0303 	and.w	r3, r3, #3
 8001848:	2b01      	cmp	r3, #1
 800184a:	d005      	beq.n	8001858 <HAL_GPIO_Init+0x40>
 800184c:	683b      	ldr	r3, [r7, #0]
 800184e:	685b      	ldr	r3, [r3, #4]
 8001850:	f003 0303 	and.w	r3, r3, #3
 8001854:	2b02      	cmp	r3, #2
 8001856:	d130      	bne.n	80018ba <HAL_GPIO_Init+0xa2>
      {
        /* Check the Speed parameter */
        assert_param(IS_GPIO_SPEED(GPIO_Init->Speed));

        /* Configure the IO Speed */
        temp = GPIOx->OSPEEDR;
 8001858:	687b      	ldr	r3, [r7, #4]
 800185a:	689b      	ldr	r3, [r3, #8]
 800185c:	613b      	str	r3, [r7, #16]
        temp &= ~(GPIO_OSPEEDR_OSPEED0 << (position * 2u));
 800185e:	697b      	ldr	r3, [r7, #20]
 8001860:	005b      	lsls	r3, r3, #1
 8001862:	2203      	movs	r2, #3
 8001864:	fa02 f303 	lsl.w	r3, r2, r3
 8001868:	43db      	mvns	r3, r3
 800186a:	693a      	ldr	r2, [r7, #16]
 800186c:	4013      	ands	r3, r2
 800186e:	613b      	str	r3, [r7, #16]
        temp |= (GPIO_Init->Speed << (position * 2u));
 8001870:	683b      	ldr	r3, [r7, #0]
 8001872:	68da      	ldr	r2, [r3, #12]
 8001874:	697b      	ldr	r3, [r7, #20]
 8001876:	005b      	lsls	r3, r3, #1
 8001878:	fa02 f303 	lsl.w	r3, r2, r3
 800187c:	693a      	ldr	r2, [r7, #16]
 800187e:	4313      	orrs	r3, r2
 8001880:	613b      	str	r3, [r7, #16]
        GPIOx->OSPEEDR = temp;
 8001882:	687b      	ldr	r3, [r7, #4]
 8001884:	693a      	ldr	r2, [r7, #16]
 8001886:	609a      	str	r2, [r3, #8]

        /* Configure the IO Output Type */
        temp = GPIOx->OTYPER;
 8001888:	687b      	ldr	r3, [r7, #4]
 800188a:	685b      	ldr	r3, [r3, #4]
 800188c:	613b      	str	r3, [r7, #16]
        temp &= ~(GPIO_OTYPER_OT0 << position) ;
 800188e:	2201      	movs	r2, #1
 8001890:	697b      	ldr	r3, [r7, #20]
 8001892:	fa02 f303 	lsl.w	r3, r2, r3
 8001896:	43db      	mvns	r3, r3
 8001898:	693a      	ldr	r2, [r7, #16]
 800189a:	4013      	ands	r3, r2
 800189c:	613b      	str	r3, [r7, #16]
        temp |= (((GPIO_Init->Mode & OUTPUT_TYPE) >> OUTPUT_TYPE_Pos) << position);
 800189e:	683b      	ldr	r3, [r7, #0]
 80018a0:	685b      	ldr	r3, [r3, #4]
 80018a2:	091b      	lsrs	r3, r3, #4
 80018a4:	f003 0201 	and.w	r2, r3, #1
 80018a8:	697b      	ldr	r3, [r7, #20]
 80018aa:	fa02 f303 	lsl.w	r3, r2, r3
 80018ae:	693a      	ldr	r2, [r7, #16]
 80018b0:	4313      	orrs	r3, r2
 80018b2:	613b      	str	r3, [r7, #16]
        GPIOx->OTYPER = temp;
 80018b4:	687b      	ldr	r3, [r7, #4]
 80018b6:	693a      	ldr	r2, [r7, #16]
 80018b8:	605a      	str	r2, [r3, #4]
      }

#if defined(STM32L471xx) || defined(STM32L475xx) || defined(STM32L476xx) || defined(STM32L485xx) || defined(STM32L486xx)

      /* In case of Analog mode, check if ADC control mode is selected */
      if((GPIO_Init->Mode & GPIO_MODE_ANALOG) == GPIO_MODE_ANALOG)
 80018ba:	683b      	ldr	r3, [r7, #0]
 80018bc:	685b      	ldr	r3, [r3, #4]
 80018be:	f003 0303 	and.w	r3, r3, #3
 80018c2:	2b03      	cmp	r3, #3
 80018c4:	d118      	bne.n	80018f8 <HAL_GPIO_Init+0xe0>
      {
        /* Configure the IO Output Type */
        temp = GPIOx->ASCR;
 80018c6:	687b      	ldr	r3, [r7, #4]
 80018c8:	6adb      	ldr	r3, [r3, #44]	; 0x2c
 80018ca:	613b      	str	r3, [r7, #16]
        temp &= ~(GPIO_ASCR_ASC0 << position) ;
 80018cc:	2201      	movs	r2, #1
 80018ce:	697b      	ldr	r3, [r7, #20]
 80018d0:	fa02 f303 	lsl.w	r3, r2, r3
 80018d4:	43db      	mvns	r3, r3
 80018d6:	693a      	ldr	r2, [r7, #16]
 80018d8:	4013      	ands	r3, r2
 80018da:	613b      	str	r3, [r7, #16]
        temp |= (((GPIO_Init->Mode & GPIO_MODE_ANALOG_ADC_CONTROL) >> 3) << position);
 80018dc:	683b      	ldr	r3, [r7, #0]
 80018de:	685b      	ldr	r3, [r3, #4]
 80018e0:	08db      	lsrs	r3, r3, #3
 80018e2:	f003 0201 	and.w	r2, r3, #1
 80018e6:	697b      	ldr	r3, [r7, #20]
 80018e8:	fa02 f303 	lsl.w	r3, r2, r3
 80018ec:	693a      	ldr	r2, [r7, #16]
 80018ee:	4313      	orrs	r3, r2
 80018f0:	613b      	str	r3, [r7, #16]
        GPIOx->ASCR = temp;
 80018f2:	687b      	ldr	r3, [r7, #4]
 80018f4:	693a      	ldr	r2, [r7, #16]
 80018f6:	62da      	str	r2, [r3, #44]	; 0x2c
      }

#endif /* STM32L471xx || STM32L475xx || STM32L476xx || STM32L485xx || STM32L486xx */

      /* Activate the Pull-up or Pull down resistor for the current IO */
      if ((GPIO_Init->Mode & GPIO_MODE) != MODE_ANALOG)
 80018f8:	683b      	ldr	r3, [r7, #0]
 80018fa:	685b      	ldr	r3, [r3, #4]
 80018fc:	f003 0303 	and.w	r3, r3, #3
 8001900:	2b03      	cmp	r3, #3
 8001902:	d017      	beq.n	8001934 <HAL_GPIO_Init+0x11c>
      {
        /* Check the Pull parameter */
        assert_param(IS_GPIO_PULL(GPIO_Init->Pull));

        temp = GPIOx->PUPDR;
 8001904:	687b      	ldr	r3, [r7, #4]
 8001906:	68db      	ldr	r3, [r3, #12]
 8001908:	613b      	str	r3, [r7, #16]
        temp &= ~(GPIO_PUPDR_PUPD0 << (position * 2U));
 800190a:	697b      	ldr	r3, [r7, #20]
 800190c:	005b      	lsls	r3, r3, #1
 800190e:	2203      	movs	r2, #3
 8001910:	fa02 f303 	lsl.w	r3, r2, r3
 8001914:	43db      	mvns	r3, r3
 8001916:	693a      	ldr	r2, [r7, #16]
 8001918:	4013      	ands	r3, r2
 800191a:	613b      	str	r3, [r7, #16]
        temp |= ((GPIO_Init->Pull) << (position * 2U));
 800191c:	683b      	ldr	r3, [r7, #0]
 800191e:	689a      	ldr	r2, [r3, #8]
 8001920:	697b      	ldr	r3, [r7, #20]
 8001922:	005b      	lsls	r3, r3, #1
 8001924:	fa02 f303 	lsl.w	r3, r2, r3
 8001928:	693a      	ldr	r2, [r7, #16]
 800192a:	4313      	orrs	r3, r2
 800192c:	613b      	str	r3, [r7, #16]
        GPIOx->PUPDR = temp;
 800192e:	687b      	ldr	r3, [r7, #4]
 8001930:	693a      	ldr	r2, [r7, #16]
 8001932:	60da      	str	r2, [r3, #12]
      }

      /* In case of Alternate function mode selection */
      if ((GPIO_Init->Mode & GPIO_MODE) == MODE_AF)
 8001934:	683b      	ldr	r3, [r7, #0]
 8001936:	685b      	ldr	r3, [r3, #4]
 8001938:	f003 0303 	and.w	r3, r3, #3
 800193c:	2b02      	cmp	r3, #2
 800193e:	d123      	bne.n	8001988 <HAL_GPIO_Init+0x170>
        /* Check the Alternate function parameters */
        assert_param(IS_GPIO_AF_INSTANCE(GPIOx));
        assert_param(IS_GPIO_AF(GPIO_Init->Alternate));

        /* Configure Alternate function mapped with the current IO */
        temp = GPIOx->AFR[position >> 3u];
 8001940:	697b      	ldr	r3, [r7, #20]
 8001942:	08da      	lsrs	r2, r3, #3
 8001944:	687b      	ldr	r3, [r7, #4]
 8001946:	3208      	adds	r2, #8
 8001948:	f853 3022 	ldr.w	r3, [r3, r2, lsl #2]
 800194c:	613b      	str	r3, [r7, #16]
        temp &= ~(0xFu << ((position & 0x07u) * 4u));
 800194e:	697b      	ldr	r3, [r7, #20]
 8001950:	f003 0307 	and.w	r3, r3, #7
 8001954:	009b      	lsls	r3, r3, #2
 8001956:	220f      	movs	r2, #15
 8001958:	fa02 f303 	lsl.w	r3, r2, r3
 800195c:	43db      	mvns	r3, r3
 800195e:	693a      	ldr	r2, [r7, #16]
 8001960:	4013      	ands	r3, r2
 8001962:	613b      	str	r3, [r7, #16]
        temp |= ((GPIO_Init->Alternate) << ((position & 0x07u) * 4u));
 8001964:	683b      	ldr	r3, [r7, #0]
 8001966:	691a      	ldr	r2, [r3, #16]
 8001968:	697b      	ldr	r3, [r7, #20]
 800196a:	f003 0307 	and.w	r3, r3, #7
 800196e:	009b      	lsls	r3, r3, #2
 8001970:	fa02 f303 	lsl.w	r3, r2, r3
 8001974:	693a      	ldr	r2, [r7, #16]
 8001976:	4313      	orrs	r3, r2
 8001978:	613b      	str	r3, [r7, #16]
        GPIOx->AFR[position >> 3u] = temp;
 800197a:	697b      	ldr	r3, [r7, #20]
 800197c:	08da      	lsrs	r2, r3, #3
 800197e:	687b      	ldr	r3, [r7, #4]
 8001980:	3208      	adds	r2, #8
 8001982:	6939      	ldr	r1, [r7, #16]
 8001984:	f843 1022 	str.w	r1, [r3, r2, lsl #2]
      }

      /* Configure IO Direction mode (Input, Output, Alternate or Analog) */
      temp = GPIOx->MODER;
 8001988:	687b      	ldr	r3, [r7, #4]
 800198a:	681b      	ldr	r3, [r3, #0]
 800198c:	613b      	str	r3, [r7, #16]
      temp &= ~(GPIO_MODER_MODE0 << (position * 2u));
 800198e:	697b      	ldr	r3, [r7, #20]
 8001990:	005b      	lsls	r3, r3, #1
 8001992:	2203      	movs	r2, #3
 8001994:	fa02 f303 	lsl.w	r3, r2, r3
 8001998:	43db      	mvns	r3, r3
 800199a:	693a      	ldr	r2, [r7, #16]
 800199c:	4013      	ands	r3, r2
 800199e:	613b      	str	r3, [r7, #16]
      temp |= ((GPIO_Init->Mode & GPIO_MODE) << (position * 2u));
 80019a0:	683b      	ldr	r3, [r7, #0]
 80019a2:	685b      	ldr	r3, [r3, #4]
 80019a4:	f003 0203 	and.w	r2, r3, #3
 80019a8:	697b      	ldr	r3, [r7, #20]
 80019aa:	005b      	lsls	r3, r3, #1
 80019ac:	fa02 f303 	lsl.w	r3, r2, r3
 80019b0:	693a      	ldr	r2, [r7, #16]
 80019b2:	4313      	orrs	r3, r2
 80019b4:	613b      	str	r3, [r7, #16]
      GPIOx->MODER = temp;
 80019b6:	687b      	ldr	r3, [r7, #4]
 80019b8:	693a      	ldr	r2, [r7, #16]
 80019ba:	601a      	str	r2, [r3, #0]

      /*--------------------- EXTI Mode Configuration ------------------------*/
      /* Configure the External Interrupt or event for the current IO */
      if ((GPIO_Init->Mode & EXTI_MODE) != 0x00u)
 80019bc:	683b      	ldr	r3, [r7, #0]
 80019be:	685b      	ldr	r3, [r3, #4]
 80019c0:	f403 3340 	and.w	r3, r3, #196608	; 0x30000
 80019c4:	2b00      	cmp	r3, #0
 80019c6:	f000 80ac 	beq.w	8001b22 <HAL_GPIO_Init+0x30a>
      {
        /* Enable SYSCFG Clock */
        __HAL_RCC_SYSCFG_CLK_ENABLE();
 80019ca:	4b5f      	ldr	r3, [pc, #380]	; (8001b48 <HAL_GPIO_Init+0x330>)
 80019cc:	6e1b      	ldr	r3, [r3, #96]	; 0x60
 80019ce:	4a5e      	ldr	r2, [pc, #376]	; (8001b48 <HAL_GPIO_Init+0x330>)
 80019d0:	f043 0301 	orr.w	r3, r3, #1
 80019d4:	6613      	str	r3, [r2, #96]	; 0x60
 80019d6:	4b5c      	ldr	r3, [pc, #368]	; (8001b48 <HAL_GPIO_Init+0x330>)
 80019d8:	6e1b      	ldr	r3, [r3, #96]	; 0x60
 80019da:	f003 0301 	and.w	r3, r3, #1
 80019de:	60bb      	str	r3, [r7, #8]
 80019e0:	68bb      	ldr	r3, [r7, #8]

        temp = SYSCFG->EXTICR[position >> 2u];
 80019e2:	4a5a      	ldr	r2, [pc, #360]	; (8001b4c <HAL_GPIO_Init+0x334>)
 80019e4:	697b      	ldr	r3, [r7, #20]
 80019e6:	089b      	lsrs	r3, r3, #2
 80019e8:	3302      	adds	r3, #2
 80019ea:	f852 3023 	ldr.w	r3, [r2, r3, lsl #2]
 80019ee:	613b      	str	r3, [r7, #16]
        temp &= ~(0x0FuL << (4u * (position & 0x03u)));
 80019f0:	697b      	ldr	r3, [r7, #20]
 80019f2:	f003 0303 	and.w	r3, r3, #3
 80019f6:	009b      	lsls	r3, r3, #2
 80019f8:	220f      	movs	r2, #15
 80019fa:	fa02 f303 	lsl.w	r3, r2, r3
 80019fe:	43db      	mvns	r3, r3
 8001a00:	693a      	ldr	r2, [r7, #16]
 8001a02:	4013      	ands	r3, r2
 8001a04:	613b      	str	r3, [r7, #16]
        temp |= (GPIO_GET_INDEX(GPIOx) << (4u * (position & 0x03u)));
 8001a06:	687b      	ldr	r3, [r7, #4]
 8001a08:	f1b3 4f90 	cmp.w	r3, #1207959552	; 0x48000000
 8001a0c:	d025      	beq.n	8001a5a <HAL_GPIO_Init+0x242>
 8001a0e:	687b      	ldr	r3, [r7, #4]
 8001a10:	4a4f      	ldr	r2, [pc, #316]	; (8001b50 <HAL_GPIO_Init+0x338>)
 8001a12:	4293      	cmp	r3, r2
 8001a14:	d01f      	beq.n	8001a56 <HAL_GPIO_Init+0x23e>
 8001a16:	687b      	ldr	r3, [r7, #4]
 8001a18:	4a4e      	ldr	r2, [pc, #312]	; (8001b54 <HAL_GPIO_Init+0x33c>)
 8001a1a:	4293      	cmp	r3, r2
 8001a1c:	d019      	beq.n	8001a52 <HAL_GPIO_Init+0x23a>
 8001a1e:	687b      	ldr	r3, [r7, #4]
 8001a20:	4a4d      	ldr	r2, [pc, #308]	; (8001b58 <HAL_GPIO_Init+0x340>)
 8001a22:	4293      	cmp	r3, r2
 8001a24:	d013      	beq.n	8001a4e <HAL_GPIO_Init+0x236>
 8001a26:	687b      	ldr	r3, [r7, #4]
 8001a28:	4a4c      	ldr	r2, [pc, #304]	; (8001b5c <HAL_GPIO_Init+0x344>)
 8001a2a:	4293      	cmp	r3, r2
 8001a2c:	d00d      	beq.n	8001a4a <HAL_GPIO_Init+0x232>
 8001a2e:	687b      	ldr	r3, [r7, #4]
 8001a30:	4a4b      	ldr	r2, [pc, #300]	; (8001b60 <HAL_GPIO_Init+0x348>)
 8001a32:	4293      	cmp	r3, r2
 8001a34:	d007      	beq.n	8001a46 <HAL_GPIO_Init+0x22e>
 8001a36:	687b      	ldr	r3, [r7, #4]
 8001a38:	4a4a      	ldr	r2, [pc, #296]	; (8001b64 <HAL_GPIO_Init+0x34c>)
 8001a3a:	4293      	cmp	r3, r2
 8001a3c:	d101      	bne.n	8001a42 <HAL_GPIO_Init+0x22a>
 8001a3e:	2306      	movs	r3, #6
 8001a40:	e00c      	b.n	8001a5c <HAL_GPIO_Init+0x244>
 8001a42:	2307      	movs	r3, #7
 8001a44:	e00a      	b.n	8001a5c <HAL_GPIO_Init+0x244>
 8001a46:	2305      	movs	r3, #5
 8001a48:	e008      	b.n	8001a5c <HAL_GPIO_Init+0x244>
 8001a4a:	2304      	movs	r3, #4
 8001a4c:	e006      	b.n	8001a5c <HAL_GPIO_Init+0x244>
 8001a4e:	2303      	movs	r3, #3
 8001a50:	e004      	b.n	8001a5c <HAL_GPIO_Init+0x244>
 8001a52:	2302      	movs	r3, #2
 8001a54:	e002      	b.n	8001a5c <HAL_GPIO_Init+0x244>
 8001a56:	2301      	movs	r3, #1
 8001a58:	e000      	b.n	8001a5c <HAL_GPIO_Init+0x244>
 8001a5a:	2300      	movs	r3, #0
 8001a5c:	697a      	ldr	r2, [r7, #20]
 8001a5e:	f002 0203 	and.w	r2, r2, #3
 8001a62:	0092      	lsls	r2, r2, #2
 8001a64:	4093      	lsls	r3, r2
 8001a66:	693a      	ldr	r2, [r7, #16]
 8001a68:	4313      	orrs	r3, r2
 8001a6a:	613b      	str	r3, [r7, #16]
        SYSCFG->EXTICR[position >> 2u] = temp;
 8001a6c:	4937      	ldr	r1, [pc, #220]	; (8001b4c <HAL_GPIO_Init+0x334>)
 8001a6e:	697b      	ldr	r3, [r7, #20]
 8001a70:	089b      	lsrs	r3, r3, #2
 8001a72:	3302      	adds	r3, #2
 8001a74:	693a      	ldr	r2, [r7, #16]
 8001a76:	f841 2023 	str.w	r2, [r1, r3, lsl #2]

        /* Clear Rising Falling edge configuration */
        temp = EXTI->RTSR1;
 8001a7a:	4b3b      	ldr	r3, [pc, #236]	; (8001b68 <HAL_GPIO_Init+0x350>)
 8001a7c:	689b      	ldr	r3, [r3, #8]
 8001a7e:	613b      	str	r3, [r7, #16]
        temp &= ~(iocurrent);
 8001a80:	68fb      	ldr	r3, [r7, #12]
 8001a82:	43db      	mvns	r3, r3
 8001a84:	693a      	ldr	r2, [r7, #16]
 8001a86:	4013      	ands	r3, r2
 8001a88:	613b      	str	r3, [r7, #16]
        if ((GPIO_Init->Mode & TRIGGER_RISING) != 0x00u)
 8001a8a:	683b      	ldr	r3, [r7, #0]
 8001a8c:	685b      	ldr	r3, [r3, #4]
 8001a8e:	f403 1380 	and.w	r3, r3, #1048576	; 0x100000
 8001a92:	2b00      	cmp	r3, #0
 8001a94:	d003      	beq.n	8001a9e <HAL_GPIO_Init+0x286>
        {
          temp |= iocurrent;
 8001a96:	693a      	ldr	r2, [r7, #16]
 8001a98:	68fb      	ldr	r3, [r7, #12]
 8001a9a:	4313      	orrs	r3, r2
 8001a9c:	613b      	str	r3, [r7, #16]
        }
        EXTI->RTSR1 = temp;
 8001a9e:	4a32      	ldr	r2, [pc, #200]	; (8001b68 <HAL_GPIO_Init+0x350>)
 8001aa0:	693b      	ldr	r3, [r7, #16]
 8001aa2:	6093      	str	r3, [r2, #8]

        temp = EXTI->FTSR1;
 8001aa4:	4b30      	ldr	r3, [pc, #192]	; (8001b68 <HAL_GPIO_Init+0x350>)
 8001aa6:	68db      	ldr	r3, [r3, #12]
 8001aa8:	613b      	str	r3, [r7, #16]
        temp &= ~(iocurrent);
 8001aaa:	68fb      	ldr	r3, [r7, #12]
 8001aac:	43db      	mvns	r3, r3
 8001aae:	693a      	ldr	r2, [r7, #16]
 8001ab0:	4013      	ands	r3, r2
 8001ab2:	613b      	str	r3, [r7, #16]
        if ((GPIO_Init->Mode & TRIGGER_FALLING) != 0x00u)
 8001ab4:	683b      	ldr	r3, [r7, #0]
 8001ab6:	685b      	ldr	r3, [r3, #4]
 8001ab8:	f403 1300 	and.w	r3, r3, #2097152	; 0x200000
 8001abc:	2b00      	cmp	r3, #0
 8001abe:	d003      	beq.n	8001ac8 <HAL_GPIO_Init+0x2b0>
        {
          temp |= iocurrent;
 8001ac0:	693a      	ldr	r2, [r7, #16]
 8001ac2:	68fb      	ldr	r3, [r7, #12]
 8001ac4:	4313      	orrs	r3, r2
 8001ac6:	613b      	str	r3, [r7, #16]
        }
        EXTI->FTSR1 = temp;
 8001ac8:	4a27      	ldr	r2, [pc, #156]	; (8001b68 <HAL_GPIO_Init+0x350>)
 8001aca:	693b      	ldr	r3, [r7, #16]
 8001acc:	60d3      	str	r3, [r2, #12]

        /* Clear EXTI line configuration */
        temp = EXTI->EMR1;
 8001ace:	4b26      	ldr	r3, [pc, #152]	; (8001b68 <HAL_GPIO_Init+0x350>)
 8001ad0:	685b      	ldr	r3, [r3, #4]
 8001ad2:	613b      	str	r3, [r7, #16]
        temp &= ~(iocurrent);
 8001ad4:	68fb      	ldr	r3, [r7, #12]
 8001ad6:	43db      	mvns	r3, r3
 8001ad8:	693a      	ldr	r2, [r7, #16]
 8001ada:	4013      	ands	r3, r2
 8001adc:	613b      	str	r3, [r7, #16]
        if ((GPIO_Init->Mode & EXTI_EVT) != 0x00u)
 8001ade:	683b      	ldr	r3, [r7, #0]
 8001ae0:	685b      	ldr	r3, [r3, #4]
 8001ae2:	f403 3300 	and.w	r3, r3, #131072	; 0x20000
 8001ae6:	2b00      	cmp	r3, #0
 8001ae8:	d003      	beq.n	8001af2 <HAL_GPIO_Init+0x2da>
        {
          temp |= iocurrent;
 8001aea:	693a      	ldr	r2, [r7, #16]
 8001aec:	68fb      	ldr	r3, [r7, #12]
 8001aee:	4313      	orrs	r3, r2
 8001af0:	613b      	str	r3, [r7, #16]
        }
        EXTI->EMR1 = temp;
 8001af2:	4a1d      	ldr	r2, [pc, #116]	; (8001b68 <HAL_GPIO_Init+0x350>)
 8001af4:	693b      	ldr	r3, [r7, #16]
 8001af6:	6053      	str	r3, [r2, #4]

        temp = EXTI->IMR1;
 8001af8:	4b1b      	ldr	r3, [pc, #108]	; (8001b68 <HAL_GPIO_Init+0x350>)
 8001afa:	681b      	ldr	r3, [r3, #0]
 8001afc:	613b      	str	r3, [r7, #16]
        temp &= ~(iocurrent);
 8001afe:	68fb      	ldr	r3, [r7, #12]
 8001b00:	43db      	mvns	r3, r3
 8001b02:	693a      	ldr	r2, [r7, #16]
 8001b04:	4013      	ands	r3, r2
 8001b06:	613b      	str	r3, [r7, #16]
        if ((GPIO_Init->Mode & EXTI_IT) != 0x00u)
 8001b08:	683b      	ldr	r3, [r7, #0]
 8001b0a:	685b      	ldr	r3, [r3, #4]
 8001b0c:	f403 3380 	and.w	r3, r3, #65536	; 0x10000
 8001b10:	2b00      	cmp	r3, #0
 8001b12:	d003      	beq.n	8001b1c <HAL_GPIO_Init+0x304>
        {
          temp |= iocurrent;
 8001b14:	693a      	ldr	r2, [r7, #16]
 8001b16:	68fb      	ldr	r3, [r7, #12]
 8001b18:	4313      	orrs	r3, r2
 8001b1a:	613b      	str	r3, [r7, #16]
        }
        EXTI->IMR1 = temp;
 8001b1c:	4a12      	ldr	r2, [pc, #72]	; (8001b68 <HAL_GPIO_Init+0x350>)
 8001b1e:	693b      	ldr	r3, [r7, #16]
 8001b20:	6013      	str	r3, [r2, #0]
      }
    }

    position++;
 8001b22:	697b      	ldr	r3, [r7, #20]
 8001b24:	3301      	adds	r3, #1
 8001b26:	617b      	str	r3, [r7, #20]
  while (((GPIO_Init->Pin) >> position) != 0x00u)
 8001b28:	683b      	ldr	r3, [r7, #0]
 8001b2a:	681a      	ldr	r2, [r3, #0]
 8001b2c:	697b      	ldr	r3, [r7, #20]
 8001b2e:	fa22 f303 	lsr.w	r3, r2, r3
 8001b32:	2b00      	cmp	r3, #0
 8001b34:	f47f ae78 	bne.w	8001828 <HAL_GPIO_Init+0x10>
  }
}
 8001b38:	bf00      	nop
 8001b3a:	bf00      	nop
 8001b3c:	371c      	adds	r7, #28
 8001b3e:	46bd      	mov	sp, r7
 8001b40:	f85d 7b04 	ldr.w	r7, [sp], #4
 8001b44:	4770      	bx	lr
 8001b46:	bf00      	nop
 8001b48:	40021000 	.word	0x40021000
 8001b4c:	40010000 	.word	0x40010000
 8001b50:	48000400 	.word	0x48000400
 8001b54:	48000800 	.word	0x48000800
 8001b58:	48000c00 	.word	0x48000c00
 8001b5c:	48001000 	.word	0x48001000
 8001b60:	48001400 	.word	0x48001400
 8001b64:	48001800 	.word	0x48001800
 8001b68:	40010400 	.word	0x40010400

08001b6c <HAL_GPIO_ReadPin>:
  * @param  GPIO_Pin specifies the port bit to read.
  *         This parameter can be any combination of GPIO_Pin_x where x can be (0..15).
  * @retval The input port pin value.
  */
GPIO_PinState HAL_GPIO_ReadPin(GPIO_TypeDef* GPIOx, uint16_t GPIO_Pin)
{
 8001b6c:	b480      	push	{r7}
 8001b6e:	b085      	sub	sp, #20
 8001b70:	af00      	add	r7, sp, #0
 8001b72:	6078      	str	r0, [r7, #4]
 8001b74:	460b      	mov	r3, r1
 8001b76:	807b      	strh	r3, [r7, #2]
  GPIO_PinState bitstatus;

  /* Check the parameters */
  assert_param(IS_GPIO_PIN(GPIO_Pin));

  if ((GPIOx->IDR & GPIO_Pin) != 0x00u)
 8001b78:	687b      	ldr	r3, [r7, #4]
 8001b7a:	691a      	ldr	r2, [r3, #16]
 8001b7c:	887b      	ldrh	r3, [r7, #2]
 8001b7e:	4013      	ands	r3, r2
 8001b80:	2b00      	cmp	r3, #0
 8001b82:	d002      	beq.n	8001b8a <HAL_GPIO_ReadPin+0x1e>
  {
    bitstatus = GPIO_PIN_SET;
 8001b84:	2301      	movs	r3, #1
 8001b86:	73fb      	strb	r3, [r7, #15]
 8001b88:	e001      	b.n	8001b8e <HAL_GPIO_ReadPin+0x22>
  }
  else
  {
    bitstatus = GPIO_PIN_RESET;
 8001b8a:	2300      	movs	r3, #0
 8001b8c:	73fb      	strb	r3, [r7, #15]
  }
  return bitstatus;
 8001b8e:	7bfb      	ldrb	r3, [r7, #15]
}
 8001b90:	4618      	mov	r0, r3
 8001b92:	3714      	adds	r7, #20
 8001b94:	46bd      	mov	sp, r7
 8001b96:	f85d 7b04 	ldr.w	r7, [sp], #4
 8001b9a:	4770      	bx	lr

08001b9c <HAL_GPIO_WritePin>:
  *            @arg GPIO_PIN_RESET: to clear the port pin
  *            @arg GPIO_PIN_SET: to set the port pin
  * @retval None
  */
void HAL_GPIO_WritePin(GPIO_TypeDef* GPIOx, uint16_t GPIO_Pin, GPIO_PinState PinState)
{
 8001b9c:	b480      	push	{r7}
 8001b9e:	b083      	sub	sp, #12
 8001ba0:	af00      	add	r7, sp, #0
 8001ba2:	6078      	str	r0, [r7, #4]
 8001ba4:	460b      	mov	r3, r1
 8001ba6:	807b      	strh	r3, [r7, #2]
 8001ba8:	4613      	mov	r3, r2
 8001baa:	707b      	strb	r3, [r7, #1]
  /* Check the parameters */
  assert_param(IS_GPIO_PIN(GPIO_Pin));
  assert_param(IS_GPIO_PIN_ACTION(PinState));

  if(PinState != GPIO_PIN_RESET)
 8001bac:	787b      	ldrb	r3, [r7, #1]
 8001bae:	2b00      	cmp	r3, #0
 8001bb0:	d003      	beq.n	8001bba <HAL_GPIO_WritePin+0x1e>
  {
    GPIOx->BSRR = (uint32_t)GPIO_Pin;
 8001bb2:	887a      	ldrh	r2, [r7, #2]
 8001bb4:	687b      	ldr	r3, [r7, #4]
 8001bb6:	619a      	str	r2, [r3, #24]
  }
  else
  {
    GPIOx->BRR = (uint32_t)GPIO_Pin;
  }
}
 8001bb8:	e002      	b.n	8001bc0 <HAL_GPIO_WritePin+0x24>
    GPIOx->BRR = (uint32_t)GPIO_Pin;
 8001bba:	887a      	ldrh	r2, [r7, #2]
 8001bbc:	687b      	ldr	r3, [r7, #4]
 8001bbe:	629a      	str	r2, [r3, #40]	; 0x28
}
 8001bc0:	bf00      	nop
 8001bc2:	370c      	adds	r7, #12
 8001bc4:	46bd      	mov	sp, r7
 8001bc6:	f85d 7b04 	ldr.w	r7, [sp], #4
 8001bca:	4770      	bx	lr

08001bcc <HAL_PWREx_GetVoltageRange>:
  * @brief Return Voltage Scaling Range.
  * @retval VOS bit field (PWR_REGULATOR_VOLTAGE_SCALE1 or PWR_REGULATOR_VOLTAGE_SCALE2
  *         or PWR_REGULATOR_VOLTAGE_SCALE1_BOOST when applicable)
  */
uint32_t HAL_PWREx_GetVoltageRange(void)
{
 8001bcc:	b480      	push	{r7}
 8001bce:	af00      	add	r7, sp, #0
    else
    {
      return PWR_REGULATOR_VOLTAGE_SCALE1_BOOST;
    }
#else
  return  (PWR->CR1 & PWR_CR1_VOS);
 8001bd0:	4b04      	ldr	r3, [pc, #16]	; (8001be4 <HAL_PWREx_GetVoltageRange+0x18>)
 8001bd2:	681b      	ldr	r3, [r3, #0]
 8001bd4:	f403 63c0 	and.w	r3, r3, #1536	; 0x600
#endif
}
 8001bd8:	4618      	mov	r0, r3
 8001bda:	46bd      	mov	sp, r7
 8001bdc:	f85d 7b04 	ldr.w	r7, [sp], #4
 8001be0:	4770      	bx	lr
 8001be2:	bf00      	nop
 8001be4:	40007000 	.word	0x40007000

08001be8 <HAL_PWREx_ControlVoltageScaling>:
  *        cleared before returning the status. If the flag is not cleared within
  *        50 microseconds, HAL_TIMEOUT status is reported.
  * @retval HAL Status
  */
HAL_StatusTypeDef HAL_PWREx_ControlVoltageScaling(uint32_t VoltageScaling)
{
 8001be8:	b480      	push	{r7}
 8001bea:	b085      	sub	sp, #20
 8001bec:	af00      	add	r7, sp, #0
 8001bee:	6078      	str	r0, [r7, #4]
  }

#else

  /* If Set Range 1 */
  if (VoltageScaling == PWR_REGULATOR_VOLTAGE_SCALE1)
 8001bf0:	687b      	ldr	r3, [r7, #4]
 8001bf2:	f5b3 7f00 	cmp.w	r3, #512	; 0x200
 8001bf6:	d130      	bne.n	8001c5a <HAL_PWREx_ControlVoltageScaling+0x72>
  {
    if (READ_BIT(PWR->CR1, PWR_CR1_VOS) != PWR_REGULATOR_VOLTAGE_SCALE1)
 8001bf8:	4b23      	ldr	r3, [pc, #140]	; (8001c88 <HAL_PWREx_ControlVoltageScaling+0xa0>)
 8001bfa:	681b      	ldr	r3, [r3, #0]
 8001bfc:	f403 63c0 	and.w	r3, r3, #1536	; 0x600
 8001c00:	f5b3 7f00 	cmp.w	r3, #512	; 0x200
 8001c04:	d038      	beq.n	8001c78 <HAL_PWREx_ControlVoltageScaling+0x90>
    {
      /* Set Range 1 */
      MODIFY_REG(PWR->CR1, PWR_CR1_VOS, PWR_REGULATOR_VOLTAGE_SCALE1);
 8001c06:	4b20      	ldr	r3, [pc, #128]	; (8001c88 <HAL_PWREx_ControlVoltageScaling+0xa0>)
 8001c08:	681b      	ldr	r3, [r3, #0]
 8001c0a:	f423 63c0 	bic.w	r3, r3, #1536	; 0x600
 8001c0e:	4a1e      	ldr	r2, [pc, #120]	; (8001c88 <HAL_PWREx_ControlVoltageScaling+0xa0>)
 8001c10:	f443 7300 	orr.w	r3, r3, #512	; 0x200
 8001c14:	6013      	str	r3, [r2, #0]

      /* Wait until VOSF is cleared */
      wait_loop_index = ((PWR_FLAG_SETTING_DELAY_US * SystemCoreClock) / 1000000U) + 1U;
 8001c16:	4b1d      	ldr	r3, [pc, #116]	; (8001c8c <HAL_PWREx_ControlVoltageScaling+0xa4>)
 8001c18:	681b      	ldr	r3, [r3, #0]
 8001c1a:	2232      	movs	r2, #50	; 0x32
 8001c1c:	fb02 f303 	mul.w	r3, r2, r3
 8001c20:	4a1b      	ldr	r2, [pc, #108]	; (8001c90 <HAL_PWREx_ControlVoltageScaling+0xa8>)
 8001c22:	fba2 2303 	umull	r2, r3, r2, r3
 8001c26:	0c9b      	lsrs	r3, r3, #18
 8001c28:	3301      	adds	r3, #1
 8001c2a:	60fb      	str	r3, [r7, #12]
      while ((HAL_IS_BIT_SET(PWR->SR2, PWR_SR2_VOSF)) && (wait_loop_index != 0U))
 8001c2c:	e002      	b.n	8001c34 <HAL_PWREx_ControlVoltageScaling+0x4c>
      {
        wait_loop_index--;
 8001c2e:	68fb      	ldr	r3, [r7, #12]
 8001c30:	3b01      	subs	r3, #1
 8001c32:	60fb      	str	r3, [r7, #12]
      while ((HAL_IS_BIT_SET(PWR->SR2, PWR_SR2_VOSF)) && (wait_loop_index != 0U))
 8001c34:	4b14      	ldr	r3, [pc, #80]	; (8001c88 <HAL_PWREx_ControlVoltageScaling+0xa0>)
 8001c36:	695b      	ldr	r3, [r3, #20]
 8001c38:	f403 6380 	and.w	r3, r3, #1024	; 0x400
 8001c3c:	f5b3 6f80 	cmp.w	r3, #1024	; 0x400
 8001c40:	d102      	bne.n	8001c48 <HAL_PWREx_ControlVoltageScaling+0x60>
 8001c42:	68fb      	ldr	r3, [r7, #12]
 8001c44:	2b00      	cmp	r3, #0
 8001c46:	d1f2      	bne.n	8001c2e <HAL_PWREx_ControlVoltageScaling+0x46>
      }
      if (HAL_IS_BIT_SET(PWR->SR2, PWR_SR2_VOSF))
 8001c48:	4b0f      	ldr	r3, [pc, #60]	; (8001c88 <HAL_PWREx_ControlVoltageScaling+0xa0>)
 8001c4a:	695b      	ldr	r3, [r3, #20]
 8001c4c:	f403 6380 	and.w	r3, r3, #1024	; 0x400
 8001c50:	f5b3 6f80 	cmp.w	r3, #1024	; 0x400
 8001c54:	d110      	bne.n	8001c78 <HAL_PWREx_ControlVoltageScaling+0x90>
      {
        return HAL_TIMEOUT;
 8001c56:	2303      	movs	r3, #3
 8001c58:	e00f      	b.n	8001c7a <HAL_PWREx_ControlVoltageScaling+0x92>
      }
    }
  }
  else
  {
    if (READ_BIT(PWR->CR1, PWR_CR1_VOS) != PWR_REGULATOR_VOLTAGE_SCALE2)
 8001c5a:	4b0b      	ldr	r3, [pc, #44]	; (8001c88 <HAL_PWREx_ControlVoltageScaling+0xa0>)
 8001c5c:	681b      	ldr	r3, [r3, #0]
 8001c5e:	f403 63c0 	and.w	r3, r3, #1536	; 0x600
 8001c62:	f5b3 6f80 	cmp.w	r3, #1024	; 0x400
 8001c66:	d007      	beq.n	8001c78 <HAL_PWREx_ControlVoltageScaling+0x90>
    {
      /* Set Range 2 */
      MODIFY_REG(PWR->CR1, PWR_CR1_VOS, PWR_REGULATOR_VOLTAGE_SCALE2);
 8001c68:	4b07      	ldr	r3, [pc, #28]	; (8001c88 <HAL_PWREx_ControlVoltageScaling+0xa0>)
 8001c6a:	681b      	ldr	r3, [r3, #0]
 8001c6c:	f423 63c0 	bic.w	r3, r3, #1536	; 0x600
 8001c70:	4a05      	ldr	r2, [pc, #20]	; (8001c88 <HAL_PWREx_ControlVoltageScaling+0xa0>)
 8001c72:	f443 6380 	orr.w	r3, r3, #1024	; 0x400
 8001c76:	6013      	str	r3, [r2, #0]
      /* No need to wait for VOSF to be cleared for this transition */
    }
  }
#endif

  return HAL_OK;
 8001c78:	2300      	movs	r3, #0
}
 8001c7a:	4618      	mov	r0, r3
 8001c7c:	3714      	adds	r7, #20
 8001c7e:	46bd      	mov	sp, r7
 8001c80:	f85d 7b04 	ldr.w	r7, [sp], #4
 8001c84:	4770      	bx	lr
 8001c86:	bf00      	nop
 8001c88:	40007000 	.word	0x40007000
 8001c8c:	20000000 	.word	0x20000000
 8001c90:	431bde83 	.word	0x431bde83

08001c94 <HAL_RCC_OscConfig>:
  *         supported by this macro. User should request a transition to HSE Off
  *         first and then HSE On or HSE Bypass.
  * @retval HAL status
  */
HAL_StatusTypeDef HAL_RCC_OscConfig(RCC_OscInitTypeDef  *RCC_OscInitStruct)
{
 8001c94:	b580      	push	{r7, lr}
 8001c96:	b088      	sub	sp, #32
 8001c98:	af00      	add	r7, sp, #0
 8001c9a:	6078      	str	r0, [r7, #4]
  uint32_t tickstart;
  HAL_StatusTypeDef status;
  uint32_t sysclk_source, pll_config;

  /* Check Null pointer */
  if(RCC_OscInitStruct == NULL)
 8001c9c:	687b      	ldr	r3, [r7, #4]
 8001c9e:	2b00      	cmp	r3, #0
 8001ca0:	d101      	bne.n	8001ca6 <HAL_RCC_OscConfig+0x12>
  {
    return HAL_ERROR;
 8001ca2:	2301      	movs	r3, #1
 8001ca4:	e3c6      	b.n	8002434 <HAL_RCC_OscConfig+0x7a0>
  }

  /* Check the parameters */
  assert_param(IS_RCC_OSCILLATORTYPE(RCC_OscInitStruct->OscillatorType));

  sysclk_source = __HAL_RCC_GET_SYSCLK_SOURCE();
 8001ca6:	4ba1      	ldr	r3, [pc, #644]	; (8001f2c <HAL_RCC_OscConfig+0x298>)
 8001ca8:	689b      	ldr	r3, [r3, #8]
 8001caa:	f003 030c 	and.w	r3, r3, #12
 8001cae:	61bb      	str	r3, [r7, #24]
  pll_config = __HAL_RCC_GET_PLL_OSCSOURCE();
 8001cb0:	4b9e      	ldr	r3, [pc, #632]	; (8001f2c <HAL_RCC_OscConfig+0x298>)
 8001cb2:	68db      	ldr	r3, [r3, #12]
 8001cb4:	f003 0303 	and.w	r3, r3, #3
 8001cb8:	617b      	str	r3, [r7, #20]

  /*----------------------------- MSI Configuration --------------------------*/
  if(((RCC_OscInitStruct->OscillatorType) & RCC_OSCILLATORTYPE_MSI) == RCC_OSCILLATORTYPE_MSI)
 8001cba:	687b      	ldr	r3, [r7, #4]
 8001cbc:	681b      	ldr	r3, [r3, #0]
 8001cbe:	f003 0310 	and.w	r3, r3, #16
 8001cc2:	2b00      	cmp	r3, #0
 8001cc4:	f000 80e4 	beq.w	8001e90 <HAL_RCC_OscConfig+0x1fc>
    assert_param(IS_RCC_MSI(RCC_OscInitStruct->MSIState));
    assert_param(IS_RCC_MSICALIBRATION_VALUE(RCC_OscInitStruct->MSICalibrationValue));
    assert_param(IS_RCC_MSI_CLOCK_RANGE(RCC_OscInitStruct->MSIClockRange));

    /* Check if MSI is used as system clock or as PLL source when PLL is selected as system clock */
    if((sysclk_source == RCC_CFGR_SWS_MSI) ||
 8001cc8:	69bb      	ldr	r3, [r7, #24]
 8001cca:	2b00      	cmp	r3, #0
 8001ccc:	d007      	beq.n	8001cde <HAL_RCC_OscConfig+0x4a>
 8001cce:	69bb      	ldr	r3, [r7, #24]
 8001cd0:	2b0c      	cmp	r3, #12
 8001cd2:	f040 808b 	bne.w	8001dec <HAL_RCC_OscConfig+0x158>
       ((sysclk_source == RCC_CFGR_SWS_PLL) && (pll_config == RCC_PLLSOURCE_MSI)))
 8001cd6:	697b      	ldr	r3, [r7, #20]
 8001cd8:	2b01      	cmp	r3, #1
 8001cda:	f040 8087 	bne.w	8001dec <HAL_RCC_OscConfig+0x158>
    {
      if((READ_BIT(RCC->CR, RCC_CR_MSIRDY) != 0U) && (RCC_OscInitStruct->MSIState == RCC_MSI_OFF))
 8001cde:	4b93      	ldr	r3, [pc, #588]	; (8001f2c <HAL_RCC_OscConfig+0x298>)
 8001ce0:	681b      	ldr	r3, [r3, #0]
 8001ce2:	f003 0302 	and.w	r3, r3, #2
 8001ce6:	2b00      	cmp	r3, #0
 8001ce8:	d005      	beq.n	8001cf6 <HAL_RCC_OscConfig+0x62>
 8001cea:	687b      	ldr	r3, [r7, #4]
 8001cec:	699b      	ldr	r3, [r3, #24]
 8001cee:	2b00      	cmp	r3, #0
 8001cf0:	d101      	bne.n	8001cf6 <HAL_RCC_OscConfig+0x62>
      {
        return HAL_ERROR;
 8001cf2:	2301      	movs	r3, #1
 8001cf4:	e39e      	b.n	8002434 <HAL_RCC_OscConfig+0x7a0>
      else
      {
        /* To correctly read data from FLASH memory, the number of wait states (LATENCY)
           must be correctly programmed according to the frequency of the CPU clock
           (HCLK) and the supply voltage of the device. */
        if(RCC_OscInitStruct->MSIClockRange > __HAL_RCC_GET_MSI_RANGE())
 8001cf6:	687b      	ldr	r3, [r7, #4]
 8001cf8:	6a1a      	ldr	r2, [r3, #32]
 8001cfa:	4b8c      	ldr	r3, [pc, #560]	; (8001f2c <HAL_RCC_OscConfig+0x298>)
 8001cfc:	681b      	ldr	r3, [r3, #0]
 8001cfe:	f003 0308 	and.w	r3, r3, #8
 8001d02:	2b00      	cmp	r3, #0
 8001d04:	d004      	beq.n	8001d10 <HAL_RCC_OscConfig+0x7c>
 8001d06:	4b89      	ldr	r3, [pc, #548]	; (8001f2c <HAL_RCC_OscConfig+0x298>)
 8001d08:	681b      	ldr	r3, [r3, #0]
 8001d0a:	f003 03f0 	and.w	r3, r3, #240	; 0xf0
 8001d0e:	e005      	b.n	8001d1c <HAL_RCC_OscConfig+0x88>
 8001d10:	4b86      	ldr	r3, [pc, #536]	; (8001f2c <HAL_RCC_OscConfig+0x298>)
 8001d12:	f8d3 3094 	ldr.w	r3, [r3, #148]	; 0x94
 8001d16:	091b      	lsrs	r3, r3, #4
 8001d18:	f003 03f0 	and.w	r3, r3, #240	; 0xf0
 8001d1c:	4293      	cmp	r3, r2
 8001d1e:	d223      	bcs.n	8001d68 <HAL_RCC_OscConfig+0xd4>
        {
          /* First increase number of wait states update if necessary */
          if(RCC_SetFlashLatencyFromMSIRange(RCC_OscInitStruct->MSIClockRange) != HAL_OK)
 8001d20:	687b      	ldr	r3, [r7, #4]
 8001d22:	6a1b      	ldr	r3, [r3, #32]
 8001d24:	4618      	mov	r0, r3
 8001d26:	f000 fd53 	bl	80027d0 <RCC_SetFlashLatencyFromMSIRange>
 8001d2a:	4603      	mov	r3, r0
 8001d2c:	2b00      	cmp	r3, #0
 8001d2e:	d001      	beq.n	8001d34 <HAL_RCC_OscConfig+0xa0>
          {
            return HAL_ERROR;
 8001d30:	2301      	movs	r3, #1
 8001d32:	e37f      	b.n	8002434 <HAL_RCC_OscConfig+0x7a0>
          }

          /* Selects the Multiple Speed oscillator (MSI) clock range .*/
          __HAL_RCC_MSI_RANGE_CONFIG(RCC_OscInitStruct->MSIClockRange);
 8001d34:	4b7d      	ldr	r3, [pc, #500]	; (8001f2c <HAL_RCC_OscConfig+0x298>)
 8001d36:	681b      	ldr	r3, [r3, #0]
 8001d38:	4a7c      	ldr	r2, [pc, #496]	; (8001f2c <HAL_RCC_OscConfig+0x298>)
 8001d3a:	f043 0308 	orr.w	r3, r3, #8
 8001d3e:	6013      	str	r3, [r2, #0]
 8001d40:	4b7a      	ldr	r3, [pc, #488]	; (8001f2c <HAL_RCC_OscConfig+0x298>)
 8001d42:	681b      	ldr	r3, [r3, #0]
 8001d44:	f023 02f0 	bic.w	r2, r3, #240	; 0xf0
 8001d48:	687b      	ldr	r3, [r7, #4]
 8001d4a:	6a1b      	ldr	r3, [r3, #32]
 8001d4c:	4977      	ldr	r1, [pc, #476]	; (8001f2c <HAL_RCC_OscConfig+0x298>)
 8001d4e:	4313      	orrs	r3, r2
 8001d50:	600b      	str	r3, [r1, #0]
          /* Adjusts the Multiple Speed oscillator (MSI) calibration value.*/
          __HAL_RCC_MSI_CALIBRATIONVALUE_ADJUST(RCC_OscInitStruct->MSICalibrationValue);
 8001d52:	4b76      	ldr	r3, [pc, #472]	; (8001f2c <HAL_RCC_OscConfig+0x298>)
 8001d54:	685b      	ldr	r3, [r3, #4]
 8001d56:	f423 427f 	bic.w	r2, r3, #65280	; 0xff00
 8001d5a:	687b      	ldr	r3, [r7, #4]
 8001d5c:	69db      	ldr	r3, [r3, #28]
 8001d5e:	021b      	lsls	r3, r3, #8
 8001d60:	4972      	ldr	r1, [pc, #456]	; (8001f2c <HAL_RCC_OscConfig+0x298>)
 8001d62:	4313      	orrs	r3, r2
 8001d64:	604b      	str	r3, [r1, #4]
 8001d66:	e025      	b.n	8001db4 <HAL_RCC_OscConfig+0x120>
        }
        else
        {
          /* Else, keep current flash latency while decreasing applies */
          /* Selects the Multiple Speed oscillator (MSI) clock range .*/
          __HAL_RCC_MSI_RANGE_CONFIG(RCC_OscInitStruct->MSIClockRange);
 8001d68:	4b70      	ldr	r3, [pc, #448]	; (8001f2c <HAL_RCC_OscConfig+0x298>)
 8001d6a:	681b      	ldr	r3, [r3, #0]
 8001d6c:	4a6f      	ldr	r2, [pc, #444]	; (8001f2c <HAL_RCC_OscConfig+0x298>)
 8001d6e:	f043 0308 	orr.w	r3, r3, #8
 8001d72:	6013      	str	r3, [r2, #0]
 8001d74:	4b6d      	ldr	r3, [pc, #436]	; (8001f2c <HAL_RCC_OscConfig+0x298>)
 8001d76:	681b      	ldr	r3, [r3, #0]
 8001d78:	f023 02f0 	bic.w	r2, r3, #240	; 0xf0
 8001d7c:	687b      	ldr	r3, [r7, #4]
 8001d7e:	6a1b      	ldr	r3, [r3, #32]
 8001d80:	496a      	ldr	r1, [pc, #424]	; (8001f2c <HAL_RCC_OscConfig+0x298>)
 8001d82:	4313      	orrs	r3, r2
 8001d84:	600b      	str	r3, [r1, #0]
          /* Adjusts the Multiple Speed oscillator (MSI) calibration value.*/
          __HAL_RCC_MSI_CALIBRATIONVALUE_ADJUST(RCC_OscInitStruct->MSICalibrationValue);
 8001d86:	4b69      	ldr	r3, [pc, #420]	; (8001f2c <HAL_RCC_OscConfig+0x298>)
 8001d88:	685b      	ldr	r3, [r3, #4]
 8001d8a:	f423 427f 	bic.w	r2, r3, #65280	; 0xff00
 8001d8e:	687b      	ldr	r3, [r7, #4]
 8001d90:	69db      	ldr	r3, [r3, #28]
 8001d92:	021b      	lsls	r3, r3, #8
 8001d94:	4965      	ldr	r1, [pc, #404]	; (8001f2c <HAL_RCC_OscConfig+0x298>)
 8001d96:	4313      	orrs	r3, r2
 8001d98:	604b      	str	r3, [r1, #4]

          /* Decrease number of wait states update if necessary */
          /* Only possible when MSI is the System clock source  */
          if(sysclk_source == RCC_CFGR_SWS_MSI)
 8001d9a:	69bb      	ldr	r3, [r7, #24]
 8001d9c:	2b00      	cmp	r3, #0
 8001d9e:	d109      	bne.n	8001db4 <HAL_RCC_OscConfig+0x120>
          {
            if(RCC_SetFlashLatencyFromMSIRange(RCC_OscInitStruct->MSIClockRange) != HAL_OK)
 8001da0:	687b      	ldr	r3, [r7, #4]
 8001da2:	6a1b      	ldr	r3, [r3, #32]
 8001da4:	4618      	mov	r0, r3
 8001da6:	f000 fd13 	bl	80027d0 <RCC_SetFlashLatencyFromMSIRange>
 8001daa:	4603      	mov	r3, r0
 8001dac:	2b00      	cmp	r3, #0
 8001dae:	d001      	beq.n	8001db4 <HAL_RCC_OscConfig+0x120>
            {
              return HAL_ERROR;
 8001db0:	2301      	movs	r3, #1
 8001db2:	e33f      	b.n	8002434 <HAL_RCC_OscConfig+0x7a0>
            }
          }
        }

        /* Update the SystemCoreClock global variable */
        SystemCoreClock = HAL_RCC_GetSysClockFreq() >> (AHBPrescTable[READ_BIT(RCC->CFGR, RCC_CFGR_HPRE) >> RCC_CFGR_HPRE_Pos] & 0x1FU);
 8001db4:	f000 fc48 	bl	8002648 <HAL_RCC_GetSysClockFreq>
 8001db8:	4602      	mov	r2, r0
 8001dba:	4b5c      	ldr	r3, [pc, #368]	; (8001f2c <HAL_RCC_OscConfig+0x298>)
 8001dbc:	689b      	ldr	r3, [r3, #8]
 8001dbe:	091b      	lsrs	r3, r3, #4
 8001dc0:	f003 030f 	and.w	r3, r3, #15
 8001dc4:	495a      	ldr	r1, [pc, #360]	; (8001f30 <HAL_RCC_OscConfig+0x29c>)
 8001dc6:	5ccb      	ldrb	r3, [r1, r3]
 8001dc8:	f003 031f 	and.w	r3, r3, #31
 8001dcc:	fa22 f303 	lsr.w	r3, r2, r3
 8001dd0:	4a58      	ldr	r2, [pc, #352]	; (8001f34 <HAL_RCC_OscConfig+0x2a0>)
 8001dd2:	6013      	str	r3, [r2, #0]

        /* Configure the source of time base considering new system clocks settings*/
        status = HAL_InitTick(uwTickPrio);
 8001dd4:	4b58      	ldr	r3, [pc, #352]	; (8001f38 <HAL_RCC_OscConfig+0x2a4>)
 8001dd6:	681b      	ldr	r3, [r3, #0]
 8001dd8:	4618      	mov	r0, r3
 8001dda:	f7ff fbb7 	bl	800154c <HAL_InitTick>
 8001dde:	4603      	mov	r3, r0
 8001de0:	73fb      	strb	r3, [r7, #15]
        if(status != HAL_OK)
 8001de2:	7bfb      	ldrb	r3, [r7, #15]
 8001de4:	2b00      	cmp	r3, #0
 8001de6:	d052      	beq.n	8001e8e <HAL_RCC_OscConfig+0x1fa>
        {
          return status;
 8001de8:	7bfb      	ldrb	r3, [r7, #15]
 8001dea:	e323      	b.n	8002434 <HAL_RCC_OscConfig+0x7a0>
      }
    }
    else
    {
      /* Check the MSI State */
      if(RCC_OscInitStruct->MSIState != RCC_MSI_OFF)
 8001dec:	687b      	ldr	r3, [r7, #4]
 8001dee:	699b      	ldr	r3, [r3, #24]
 8001df0:	2b00      	cmp	r3, #0
 8001df2:	d032      	beq.n	8001e5a <HAL_RCC_OscConfig+0x1c6>
      {
        /* Enable the Internal High Speed oscillator (MSI). */
        __HAL_RCC_MSI_ENABLE();
 8001df4:	4b4d      	ldr	r3, [pc, #308]	; (8001f2c <HAL_RCC_OscConfig+0x298>)
 8001df6:	681b      	ldr	r3, [r3, #0]
 8001df8:	4a4c      	ldr	r2, [pc, #304]	; (8001f2c <HAL_RCC_OscConfig+0x298>)
 8001dfa:	f043 0301 	orr.w	r3, r3, #1
 8001dfe:	6013      	str	r3, [r2, #0]

        /* Get timeout */
        tickstart = HAL_GetTick();
 8001e00:	f7ff fbf4 	bl	80015ec <HAL_GetTick>
 8001e04:	6138      	str	r0, [r7, #16]

        /* Wait till MSI is ready */
        while(READ_BIT(RCC->CR, RCC_CR_MSIRDY) == 0U)
 8001e06:	e008      	b.n	8001e1a <HAL_RCC_OscConfig+0x186>
        {
          if((HAL_GetTick() - tickstart) > MSI_TIMEOUT_VALUE)
 8001e08:	f7ff fbf0 	bl	80015ec <HAL_GetTick>
 8001e0c:	4602      	mov	r2, r0
 8001e0e:	693b      	ldr	r3, [r7, #16]
 8001e10:	1ad3      	subs	r3, r2, r3
 8001e12:	2b02      	cmp	r3, #2
 8001e14:	d901      	bls.n	8001e1a <HAL_RCC_OscConfig+0x186>
          {
            return HAL_TIMEOUT;
 8001e16:	2303      	movs	r3, #3
 8001e18:	e30c      	b.n	8002434 <HAL_RCC_OscConfig+0x7a0>
        while(READ_BIT(RCC->CR, RCC_CR_MSIRDY) == 0U)
 8001e1a:	4b44      	ldr	r3, [pc, #272]	; (8001f2c <HAL_RCC_OscConfig+0x298>)
 8001e1c:	681b      	ldr	r3, [r3, #0]
 8001e1e:	f003 0302 	and.w	r3, r3, #2
 8001e22:	2b00      	cmp	r3, #0
 8001e24:	d0f0      	beq.n	8001e08 <HAL_RCC_OscConfig+0x174>
          }
        }
         /* Selects the Multiple Speed oscillator (MSI) clock range .*/
        __HAL_RCC_MSI_RANGE_CONFIG(RCC_OscInitStruct->MSIClockRange);
 8001e26:	4b41      	ldr	r3, [pc, #260]	; (8001f2c <HAL_RCC_OscConfig+0x298>)
 8001e28:	681b      	ldr	r3, [r3, #0]
 8001e2a:	4a40      	ldr	r2, [pc, #256]	; (8001f2c <HAL_RCC_OscConfig+0x298>)
 8001e2c:	f043 0308 	orr.w	r3, r3, #8
 8001e30:	6013      	str	r3, [r2, #0]
 8001e32:	4b3e      	ldr	r3, [pc, #248]	; (8001f2c <HAL_RCC_OscConfig+0x298>)
 8001e34:	681b      	ldr	r3, [r3, #0]
 8001e36:	f023 02f0 	bic.w	r2, r3, #240	; 0xf0
 8001e3a:	687b      	ldr	r3, [r7, #4]
 8001e3c:	6a1b      	ldr	r3, [r3, #32]
 8001e3e:	493b      	ldr	r1, [pc, #236]	; (8001f2c <HAL_RCC_OscConfig+0x298>)
 8001e40:	4313      	orrs	r3, r2
 8001e42:	600b      	str	r3, [r1, #0]
         /* Adjusts the Multiple Speed oscillator (MSI) calibration value.*/
        __HAL_RCC_MSI_CALIBRATIONVALUE_ADJUST(RCC_OscInitStruct->MSICalibrationValue);
 8001e44:	4b39      	ldr	r3, [pc, #228]	; (8001f2c <HAL_RCC_OscConfig+0x298>)
 8001e46:	685b      	ldr	r3, [r3, #4]
 8001e48:	f423 427f 	bic.w	r2, r3, #65280	; 0xff00
 8001e4c:	687b      	ldr	r3, [r7, #4]
 8001e4e:	69db      	ldr	r3, [r3, #28]
 8001e50:	021b      	lsls	r3, r3, #8
 8001e52:	4936      	ldr	r1, [pc, #216]	; (8001f2c <HAL_RCC_OscConfig+0x298>)
 8001e54:	4313      	orrs	r3, r2
 8001e56:	604b      	str	r3, [r1, #4]
 8001e58:	e01a      	b.n	8001e90 <HAL_RCC_OscConfig+0x1fc>

      }
      else
      {
        /* Disable the Internal High Speed oscillator (MSI). */
        __HAL_RCC_MSI_DISABLE();
 8001e5a:	4b34      	ldr	r3, [pc, #208]	; (8001f2c <HAL_RCC_OscConfig+0x298>)
 8001e5c:	681b      	ldr	r3, [r3, #0]
 8001e5e:	4a33      	ldr	r2, [pc, #204]	; (8001f2c <HAL_RCC_OscConfig+0x298>)
 8001e60:	f023 0301 	bic.w	r3, r3, #1
 8001e64:	6013      	str	r3, [r2, #0]

        /* Get timeout */
        tickstart = HAL_GetTick();
 8001e66:	f7ff fbc1 	bl	80015ec <HAL_GetTick>
 8001e6a:	6138      	str	r0, [r7, #16]

        /* Wait till MSI is ready */
        while(READ_BIT(RCC->CR, RCC_CR_MSIRDY) != 0U)
 8001e6c:	e008      	b.n	8001e80 <HAL_RCC_OscConfig+0x1ec>
        {
          if((HAL_GetTick() - tickstart) > MSI_TIMEOUT_VALUE)
 8001e6e:	f7ff fbbd 	bl	80015ec <HAL_GetTick>
 8001e72:	4602      	mov	r2, r0
 8001e74:	693b      	ldr	r3, [r7, #16]
 8001e76:	1ad3      	subs	r3, r2, r3
 8001e78:	2b02      	cmp	r3, #2
 8001e7a:	d901      	bls.n	8001e80 <HAL_RCC_OscConfig+0x1ec>
          {
            return HAL_TIMEOUT;
 8001e7c:	2303      	movs	r3, #3
 8001e7e:	e2d9      	b.n	8002434 <HAL_RCC_OscConfig+0x7a0>
        while(READ_BIT(RCC->CR, RCC_CR_MSIRDY) != 0U)
 8001e80:	4b2a      	ldr	r3, [pc, #168]	; (8001f2c <HAL_RCC_OscConfig+0x298>)
 8001e82:	681b      	ldr	r3, [r3, #0]
 8001e84:	f003 0302 	and.w	r3, r3, #2
 8001e88:	2b00      	cmp	r3, #0
 8001e8a:	d1f0      	bne.n	8001e6e <HAL_RCC_OscConfig+0x1da>
 8001e8c:	e000      	b.n	8001e90 <HAL_RCC_OscConfig+0x1fc>
      if((READ_BIT(RCC->CR, RCC_CR_MSIRDY) != 0U) && (RCC_OscInitStruct->MSIState == RCC_MSI_OFF))
 8001e8e:	bf00      	nop
        }
      }
    }
  }
  /*------------------------------- HSE Configuration ------------------------*/
  if(((RCC_OscInitStruct->OscillatorType) & RCC_OSCILLATORTYPE_HSE) == RCC_OSCILLATORTYPE_HSE)
 8001e90:	687b      	ldr	r3, [r7, #4]
 8001e92:	681b      	ldr	r3, [r3, #0]
 8001e94:	f003 0301 	and.w	r3, r3, #1
 8001e98:	2b00      	cmp	r3, #0
 8001e9a:	d074      	beq.n	8001f86 <HAL_RCC_OscConfig+0x2f2>
  {
    /* Check the parameters */
    assert_param(IS_RCC_HSE(RCC_OscInitStruct->HSEState));

    /* When the HSE is used as system clock or clock source for PLL in these cases it is not allowed to be disabled */
    if((sysclk_source == RCC_CFGR_SWS_HSE) ||
 8001e9c:	69bb      	ldr	r3, [r7, #24]
 8001e9e:	2b08      	cmp	r3, #8
 8001ea0:	d005      	beq.n	8001eae <HAL_RCC_OscConfig+0x21a>
 8001ea2:	69bb      	ldr	r3, [r7, #24]
 8001ea4:	2b0c      	cmp	r3, #12
 8001ea6:	d10e      	bne.n	8001ec6 <HAL_RCC_OscConfig+0x232>
       ((sysclk_source == RCC_CFGR_SWS_PLL) && (pll_config == RCC_PLLSOURCE_HSE)))
 8001ea8:	697b      	ldr	r3, [r7, #20]
 8001eaa:	2b03      	cmp	r3, #3
 8001eac:	d10b      	bne.n	8001ec6 <HAL_RCC_OscConfig+0x232>
    {
      if((READ_BIT(RCC->CR, RCC_CR_HSERDY) != 0U) && (RCC_OscInitStruct->HSEState == RCC_HSE_OFF))
 8001eae:	4b1f      	ldr	r3, [pc, #124]	; (8001f2c <HAL_RCC_OscConfig+0x298>)
 8001eb0:	681b      	ldr	r3, [r3, #0]
 8001eb2:	f403 3300 	and.w	r3, r3, #131072	; 0x20000
 8001eb6:	2b00      	cmp	r3, #0
 8001eb8:	d064      	beq.n	8001f84 <HAL_RCC_OscConfig+0x2f0>
 8001eba:	687b      	ldr	r3, [r7, #4]
 8001ebc:	685b      	ldr	r3, [r3, #4]
 8001ebe:	2b00      	cmp	r3, #0
 8001ec0:	d160      	bne.n	8001f84 <HAL_RCC_OscConfig+0x2f0>
      {
        return HAL_ERROR;
 8001ec2:	2301      	movs	r3, #1
 8001ec4:	e2b6      	b.n	8002434 <HAL_RCC_OscConfig+0x7a0>
      }
    }
    else
    {
      /* Set the new HSE configuration ---------------------------------------*/
      __HAL_RCC_HSE_CONFIG(RCC_OscInitStruct->HSEState);
 8001ec6:	687b      	ldr	r3, [r7, #4]
 8001ec8:	685b      	ldr	r3, [r3, #4]
 8001eca:	f5b3 3f80 	cmp.w	r3, #65536	; 0x10000
 8001ece:	d106      	bne.n	8001ede <HAL_RCC_OscConfig+0x24a>
 8001ed0:	4b16      	ldr	r3, [pc, #88]	; (8001f2c <HAL_RCC_OscConfig+0x298>)
 8001ed2:	681b      	ldr	r3, [r3, #0]
 8001ed4:	4a15      	ldr	r2, [pc, #84]	; (8001f2c <HAL_RCC_OscConfig+0x298>)
 8001ed6:	f443 3380 	orr.w	r3, r3, #65536	; 0x10000
 8001eda:	6013      	str	r3, [r2, #0]
 8001edc:	e01d      	b.n	8001f1a <HAL_RCC_OscConfig+0x286>
 8001ede:	687b      	ldr	r3, [r7, #4]
 8001ee0:	685b      	ldr	r3, [r3, #4]
 8001ee2:	f5b3 2fa0 	cmp.w	r3, #327680	; 0x50000
 8001ee6:	d10c      	bne.n	8001f02 <HAL_RCC_OscConfig+0x26e>
 8001ee8:	4b10      	ldr	r3, [pc, #64]	; (8001f2c <HAL_RCC_OscConfig+0x298>)
 8001eea:	681b      	ldr	r3, [r3, #0]
 8001eec:	4a0f      	ldr	r2, [pc, #60]	; (8001f2c <HAL_RCC_OscConfig+0x298>)
 8001eee:	f443 2380 	orr.w	r3, r3, #262144	; 0x40000
 8001ef2:	6013      	str	r3, [r2, #0]
 8001ef4:	4b0d      	ldr	r3, [pc, #52]	; (8001f2c <HAL_RCC_OscConfig+0x298>)
 8001ef6:	681b      	ldr	r3, [r3, #0]
 8001ef8:	4a0c      	ldr	r2, [pc, #48]	; (8001f2c <HAL_RCC_OscConfig+0x298>)
 8001efa:	f443 3380 	orr.w	r3, r3, #65536	; 0x10000
 8001efe:	6013      	str	r3, [r2, #0]
 8001f00:	e00b      	b.n	8001f1a <HAL_RCC_OscConfig+0x286>
 8001f02:	4b0a      	ldr	r3, [pc, #40]	; (8001f2c <HAL_RCC_OscConfig+0x298>)
 8001f04:	681b      	ldr	r3, [r3, #0]
 8001f06:	4a09      	ldr	r2, [pc, #36]	; (8001f2c <HAL_RCC_OscConfig+0x298>)
 8001f08:	f423 3380 	bic.w	r3, r3, #65536	; 0x10000
 8001f0c:	6013      	str	r3, [r2, #0]
 8001f0e:	4b07      	ldr	r3, [pc, #28]	; (8001f2c <HAL_RCC_OscConfig+0x298>)
 8001f10:	681b      	ldr	r3, [r3, #0]
 8001f12:	4a06      	ldr	r2, [pc, #24]	; (8001f2c <HAL_RCC_OscConfig+0x298>)
 8001f14:	f423 2380 	bic.w	r3, r3, #262144	; 0x40000
 8001f18:	6013      	str	r3, [r2, #0]

      /* Check the HSE State */
      if(RCC_OscInitStruct->HSEState != RCC_HSE_OFF)
 8001f1a:	687b      	ldr	r3, [r7, #4]
 8001f1c:	685b      	ldr	r3, [r3, #4]
 8001f1e:	2b00      	cmp	r3, #0
 8001f20:	d01c      	beq.n	8001f5c <HAL_RCC_OscConfig+0x2c8>
      {
        /* Get Start Tick*/
        tickstart = HAL_GetTick();
 8001f22:	f7ff fb63 	bl	80015ec <HAL_GetTick>
 8001f26:	6138      	str	r0, [r7, #16]

        /* Wait till HSE is ready */
        while(READ_BIT(RCC->CR, RCC_CR_HSERDY) == 0U)
 8001f28:	e011      	b.n	8001f4e <HAL_RCC_OscConfig+0x2ba>
 8001f2a:	bf00      	nop
 8001f2c:	40021000 	.word	0x40021000
 8001f30:	08003bd0 	.word	0x08003bd0
 8001f34:	20000000 	.word	0x20000000
 8001f38:	20000004 	.word	0x20000004
        {
          if((HAL_GetTick() - tickstart) > HSE_TIMEOUT_VALUE)
 8001f3c:	f7ff fb56 	bl	80015ec <HAL_GetTick>
 8001f40:	4602      	mov	r2, r0
 8001f42:	693b      	ldr	r3, [r7, #16]
 8001f44:	1ad3      	subs	r3, r2, r3
 8001f46:	2b64      	cmp	r3, #100	; 0x64
 8001f48:	d901      	bls.n	8001f4e <HAL_RCC_OscConfig+0x2ba>
          {
            return HAL_TIMEOUT;
 8001f4a:	2303      	movs	r3, #3
 8001f4c:	e272      	b.n	8002434 <HAL_RCC_OscConfig+0x7a0>
        while(READ_BIT(RCC->CR, RCC_CR_HSERDY) == 0U)
 8001f4e:	4baf      	ldr	r3, [pc, #700]	; (800220c <HAL_RCC_OscConfig+0x578>)
 8001f50:	681b      	ldr	r3, [r3, #0]
 8001f52:	f403 3300 	and.w	r3, r3, #131072	; 0x20000
 8001f56:	2b00      	cmp	r3, #0
 8001f58:	d0f0      	beq.n	8001f3c <HAL_RCC_OscConfig+0x2a8>
 8001f5a:	e014      	b.n	8001f86 <HAL_RCC_OscConfig+0x2f2>
        }
      }
      else
      {
        /* Get Start Tick*/
        tickstart = HAL_GetTick();
 8001f5c:	f7ff fb46 	bl	80015ec <HAL_GetTick>
 8001f60:	6138      	str	r0, [r7, #16]

        /* Wait till HSE is disabled */
        while(READ_BIT(RCC->CR, RCC_CR_HSERDY) != 0U)
 8001f62:	e008      	b.n	8001f76 <HAL_RCC_OscConfig+0x2e2>
        {
          if((HAL_GetTick() - tickstart) > HSE_TIMEOUT_VALUE)
 8001f64:	f7ff fb42 	bl	80015ec <HAL_GetTick>
 8001f68:	4602      	mov	r2, r0
 8001f6a:	693b      	ldr	r3, [r7, #16]
 8001f6c:	1ad3      	subs	r3, r2, r3
 8001f6e:	2b64      	cmp	r3, #100	; 0x64
 8001f70:	d901      	bls.n	8001f76 <HAL_RCC_OscConfig+0x2e2>
          {
            return HAL_TIMEOUT;
 8001f72:	2303      	movs	r3, #3
 8001f74:	e25e      	b.n	8002434 <HAL_RCC_OscConfig+0x7a0>
        while(READ_BIT(RCC->CR, RCC_CR_HSERDY) != 0U)
 8001f76:	4ba5      	ldr	r3, [pc, #660]	; (800220c <HAL_RCC_OscConfig+0x578>)
 8001f78:	681b      	ldr	r3, [r3, #0]
 8001f7a:	f403 3300 	and.w	r3, r3, #131072	; 0x20000
 8001f7e:	2b00      	cmp	r3, #0
 8001f80:	d1f0      	bne.n	8001f64 <HAL_RCC_OscConfig+0x2d0>
 8001f82:	e000      	b.n	8001f86 <HAL_RCC_OscConfig+0x2f2>
      if((READ_BIT(RCC->CR, RCC_CR_HSERDY) != 0U) && (RCC_OscInitStruct->HSEState == RCC_HSE_OFF))
 8001f84:	bf00      	nop
        }
      }
    }
  }
  /*----------------------------- HSI Configuration --------------------------*/
  if(((RCC_OscInitStruct->OscillatorType) & RCC_OSCILLATORTYPE_HSI) == RCC_OSCILLATORTYPE_HSI)
 8001f86:	687b      	ldr	r3, [r7, #4]
 8001f88:	681b      	ldr	r3, [r3, #0]
 8001f8a:	f003 0302 	and.w	r3, r3, #2
 8001f8e:	2b00      	cmp	r3, #0
 8001f90:	d060      	beq.n	8002054 <HAL_RCC_OscConfig+0x3c0>
    /* Check the parameters */
    assert_param(IS_RCC_HSI(RCC_OscInitStruct->HSIState));
    assert_param(IS_RCC_HSI_CALIBRATION_VALUE(RCC_OscInitStruct->HSICalibrationValue));

    /* Check if HSI is used as system clock or as PLL source when PLL is selected as system clock */
    if((sysclk_source == RCC_CFGR_SWS_HSI) ||
 8001f92:	69bb      	ldr	r3, [r7, #24]
 8001f94:	2b04      	cmp	r3, #4
 8001f96:	d005      	beq.n	8001fa4 <HAL_RCC_OscConfig+0x310>
 8001f98:	69bb      	ldr	r3, [r7, #24]
 8001f9a:	2b0c      	cmp	r3, #12
 8001f9c:	d119      	bne.n	8001fd2 <HAL_RCC_OscConfig+0x33e>
       ((sysclk_source == RCC_CFGR_SWS_PLL) && (pll_config == RCC_PLLSOURCE_HSI)))
 8001f9e:	697b      	ldr	r3, [r7, #20]
 8001fa0:	2b02      	cmp	r3, #2
 8001fa2:	d116      	bne.n	8001fd2 <HAL_RCC_OscConfig+0x33e>
    {
      /* When HSI is used as system clock it will not be disabled */
      if((READ_BIT(RCC->CR, RCC_CR_HSIRDY) != 0U) && (RCC_OscInitStruct->HSIState == RCC_HSI_OFF))
 8001fa4:	4b99      	ldr	r3, [pc, #612]	; (800220c <HAL_RCC_OscConfig+0x578>)
 8001fa6:	681b      	ldr	r3, [r3, #0]
 8001fa8:	f403 6380 	and.w	r3, r3, #1024	; 0x400
 8001fac:	2b00      	cmp	r3, #0
 8001fae:	d005      	beq.n	8001fbc <HAL_RCC_OscConfig+0x328>
 8001fb0:	687b      	ldr	r3, [r7, #4]
 8001fb2:	68db      	ldr	r3, [r3, #12]
 8001fb4:	2b00      	cmp	r3, #0
 8001fb6:	d101      	bne.n	8001fbc <HAL_RCC_OscConfig+0x328>
      {
        return HAL_ERROR;
 8001fb8:	2301      	movs	r3, #1
 8001fba:	e23b      	b.n	8002434 <HAL_RCC_OscConfig+0x7a0>
      }
      /* Otherwise, just the calibration is allowed */
      else
      {
        /* Adjusts the Internal High Speed oscillator (HSI) calibration value.*/
        __HAL_RCC_HSI_CALIBRATIONVALUE_ADJUST(RCC_OscInitStruct->HSICalibrationValue);
 8001fbc:	4b93      	ldr	r3, [pc, #588]	; (800220c <HAL_RCC_OscConfig+0x578>)
 8001fbe:	685b      	ldr	r3, [r3, #4]
 8001fc0:	f023 52f8 	bic.w	r2, r3, #520093696	; 0x1f000000
 8001fc4:	687b      	ldr	r3, [r7, #4]
 8001fc6:	691b      	ldr	r3, [r3, #16]
 8001fc8:	061b      	lsls	r3, r3, #24
 8001fca:	4990      	ldr	r1, [pc, #576]	; (800220c <HAL_RCC_OscConfig+0x578>)
 8001fcc:	4313      	orrs	r3, r2
 8001fce:	604b      	str	r3, [r1, #4]
      if((READ_BIT(RCC->CR, RCC_CR_HSIRDY) != 0U) && (RCC_OscInitStruct->HSIState == RCC_HSI_OFF))
 8001fd0:	e040      	b.n	8002054 <HAL_RCC_OscConfig+0x3c0>
      }
    }
    else
    {
      /* Check the HSI State */
      if(RCC_OscInitStruct->HSIState != RCC_HSI_OFF)
 8001fd2:	687b      	ldr	r3, [r7, #4]
 8001fd4:	68db      	ldr	r3, [r3, #12]
 8001fd6:	2b00      	cmp	r3, #0
 8001fd8:	d023      	beq.n	8002022 <HAL_RCC_OscConfig+0x38e>
      {
        /* Enable the Internal High Speed oscillator (HSI). */
        __HAL_RCC_HSI_ENABLE();
 8001fda:	4b8c      	ldr	r3, [pc, #560]	; (800220c <HAL_RCC_OscConfig+0x578>)
 8001fdc:	681b      	ldr	r3, [r3, #0]
 8001fde:	4a8b      	ldr	r2, [pc, #556]	; (800220c <HAL_RCC_OscConfig+0x578>)
 8001fe0:	f443 7380 	orr.w	r3, r3, #256	; 0x100
 8001fe4:	6013      	str	r3, [r2, #0]

        /* Get Start Tick*/
        tickstart = HAL_GetTick();
 8001fe6:	f7ff fb01 	bl	80015ec <HAL_GetTick>
 8001fea:	6138      	str	r0, [r7, #16]

        /* Wait till HSI is ready */
        while(READ_BIT(RCC->CR, RCC_CR_HSIRDY) == 0U)
 8001fec:	e008      	b.n	8002000 <HAL_RCC_OscConfig+0x36c>
        {
          if((HAL_GetTick() - tickstart) > HSI_TIMEOUT_VALUE)
 8001fee:	f7ff fafd 	bl	80015ec <HAL_GetTick>
 8001ff2:	4602      	mov	r2, r0
 8001ff4:	693b      	ldr	r3, [r7, #16]
 8001ff6:	1ad3      	subs	r3, r2, r3
 8001ff8:	2b02      	cmp	r3, #2
 8001ffa:	d901      	bls.n	8002000 <HAL_RCC_OscConfig+0x36c>
          {
            return HAL_TIMEOUT;
 8001ffc:	2303      	movs	r3, #3
 8001ffe:	e219      	b.n	8002434 <HAL_RCC_OscConfig+0x7a0>
        while(READ_BIT(RCC->CR, RCC_CR_HSIRDY) == 0U)
 8002000:	4b82      	ldr	r3, [pc, #520]	; (800220c <HAL_RCC_OscConfig+0x578>)
 8002002:	681b      	ldr	r3, [r3, #0]
 8002004:	f403 6380 	and.w	r3, r3, #1024	; 0x400
 8002008:	2b00      	cmp	r3, #0
 800200a:	d0f0      	beq.n	8001fee <HAL_RCC_OscConfig+0x35a>
          }
        }

        /* Adjusts the Internal High Speed oscillator (HSI) calibration value.*/
        __HAL_RCC_HSI_CALIBRATIONVALUE_ADJUST(RCC_OscInitStruct->HSICalibrationValue);
 800200c:	4b7f      	ldr	r3, [pc, #508]	; (800220c <HAL_RCC_OscConfig+0x578>)
 800200e:	685b      	ldr	r3, [r3, #4]
 8002010:	f023 52f8 	bic.w	r2, r3, #520093696	; 0x1f000000
 8002014:	687b      	ldr	r3, [r7, #4]
 8002016:	691b      	ldr	r3, [r3, #16]
 8002018:	061b      	lsls	r3, r3, #24
 800201a:	497c      	ldr	r1, [pc, #496]	; (800220c <HAL_RCC_OscConfig+0x578>)
 800201c:	4313      	orrs	r3, r2
 800201e:	604b      	str	r3, [r1, #4]
 8002020:	e018      	b.n	8002054 <HAL_RCC_OscConfig+0x3c0>
      }
      else
      {
        /* Disable the Internal High Speed oscillator (HSI). */
        __HAL_RCC_HSI_DISABLE();
 8002022:	4b7a      	ldr	r3, [pc, #488]	; (800220c <HAL_RCC_OscConfig+0x578>)
 8002024:	681b      	ldr	r3, [r3, #0]
 8002026:	4a79      	ldr	r2, [pc, #484]	; (800220c <HAL_RCC_OscConfig+0x578>)
 8002028:	f423 7380 	bic.w	r3, r3, #256	; 0x100
 800202c:	6013      	str	r3, [r2, #0]

        /* Get Start Tick*/
        tickstart = HAL_GetTick();
 800202e:	f7ff fadd 	bl	80015ec <HAL_GetTick>
 8002032:	6138      	str	r0, [r7, #16]

        /* Wait till HSI is disabled */
        while(READ_BIT(RCC->CR, RCC_CR_HSIRDY) != 0U)
 8002034:	e008      	b.n	8002048 <HAL_RCC_OscConfig+0x3b4>
        {
          if((HAL_GetTick() - tickstart) > HSI_TIMEOUT_VALUE)
 8002036:	f7ff fad9 	bl	80015ec <HAL_GetTick>
 800203a:	4602      	mov	r2, r0
 800203c:	693b      	ldr	r3, [r7, #16]
 800203e:	1ad3      	subs	r3, r2, r3
 8002040:	2b02      	cmp	r3, #2
 8002042:	d901      	bls.n	8002048 <HAL_RCC_OscConfig+0x3b4>
          {
            return HAL_TIMEOUT;
 8002044:	2303      	movs	r3, #3
 8002046:	e1f5      	b.n	8002434 <HAL_RCC_OscConfig+0x7a0>
        while(READ_BIT(RCC->CR, RCC_CR_HSIRDY) != 0U)
 8002048:	4b70      	ldr	r3, [pc, #448]	; (800220c <HAL_RCC_OscConfig+0x578>)
 800204a:	681b      	ldr	r3, [r3, #0]
 800204c:	f403 6380 	and.w	r3, r3, #1024	; 0x400
 8002050:	2b00      	cmp	r3, #0
 8002052:	d1f0      	bne.n	8002036 <HAL_RCC_OscConfig+0x3a2>
        }
      }
    }
  }
  /*------------------------------ LSI Configuration -------------------------*/
  if(((RCC_OscInitStruct->OscillatorType) & RCC_OSCILLATORTYPE_LSI) == RCC_OSCILLATORTYPE_LSI)
 8002054:	687b      	ldr	r3, [r7, #4]
 8002056:	681b      	ldr	r3, [r3, #0]
 8002058:	f003 0308 	and.w	r3, r3, #8
 800205c:	2b00      	cmp	r3, #0
 800205e:	d03c      	beq.n	80020da <HAL_RCC_OscConfig+0x446>
  {
    /* Check the parameters */
    assert_param(IS_RCC_LSI(RCC_OscInitStruct->LSIState));

    /* Check the LSI State */
    if(RCC_OscInitStruct->LSIState != RCC_LSI_OFF)
 8002060:	687b      	ldr	r3, [r7, #4]
 8002062:	695b      	ldr	r3, [r3, #20]
 8002064:	2b00      	cmp	r3, #0
 8002066:	d01c      	beq.n	80020a2 <HAL_RCC_OscConfig+0x40e>
        MODIFY_REG(RCC->CSR, RCC_CSR_LSIPREDIV, RCC_OscInitStruct->LSIDiv);
      }
#endif /* RCC_CSR_LSIPREDIV */

      /* Enable the Internal Low Speed oscillator (LSI). */
      __HAL_RCC_LSI_ENABLE();
 8002068:	4b68      	ldr	r3, [pc, #416]	; (800220c <HAL_RCC_OscConfig+0x578>)
 800206a:	f8d3 3094 	ldr.w	r3, [r3, #148]	; 0x94
 800206e:	4a67      	ldr	r2, [pc, #412]	; (800220c <HAL_RCC_OscConfig+0x578>)
 8002070:	f043 0301 	orr.w	r3, r3, #1
 8002074:	f8c2 3094 	str.w	r3, [r2, #148]	; 0x94

      /* Get Start Tick*/
      tickstart = HAL_GetTick();
 8002078:	f7ff fab8 	bl	80015ec <HAL_GetTick>
 800207c:	6138      	str	r0, [r7, #16]

      /* Wait till LSI is ready */
      while(READ_BIT(RCC->CSR, RCC_CSR_LSIRDY) == 0U)
 800207e:	e008      	b.n	8002092 <HAL_RCC_OscConfig+0x3fe>
      {
        if((HAL_GetTick() - tickstart) > LSI_TIMEOUT_VALUE)
 8002080:	f7ff fab4 	bl	80015ec <HAL_GetTick>
 8002084:	4602      	mov	r2, r0
 8002086:	693b      	ldr	r3, [r7, #16]
 8002088:	1ad3      	subs	r3, r2, r3
 800208a:	2b02      	cmp	r3, #2
 800208c:	d901      	bls.n	8002092 <HAL_RCC_OscConfig+0x3fe>
        {
          return HAL_TIMEOUT;
 800208e:	2303      	movs	r3, #3
 8002090:	e1d0      	b.n	8002434 <HAL_RCC_OscConfig+0x7a0>
      while(READ_BIT(RCC->CSR, RCC_CSR_LSIRDY) == 0U)
 8002092:	4b5e      	ldr	r3, [pc, #376]	; (800220c <HAL_RCC_OscConfig+0x578>)
 8002094:	f8d3 3094 	ldr.w	r3, [r3, #148]	; 0x94
 8002098:	f003 0302 	and.w	r3, r3, #2
 800209c:	2b00      	cmp	r3, #0
 800209e:	d0ef      	beq.n	8002080 <HAL_RCC_OscConfig+0x3ec>
 80020a0:	e01b      	b.n	80020da <HAL_RCC_OscConfig+0x446>
      }
    }
    else
    {
      /* Disable the Internal Low Speed oscillator (LSI). */
      __HAL_RCC_LSI_DISABLE();
 80020a2:	4b5a      	ldr	r3, [pc, #360]	; (800220c <HAL_RCC_OscConfig+0x578>)
 80020a4:	f8d3 3094 	ldr.w	r3, [r3, #148]	; 0x94
 80020a8:	4a58      	ldr	r2, [pc, #352]	; (800220c <HAL_RCC_OscConfig+0x578>)
 80020aa:	f023 0301 	bic.w	r3, r3, #1
 80020ae:	f8c2 3094 	str.w	r3, [r2, #148]	; 0x94

      /* Get Start Tick*/
      tickstart = HAL_GetTick();
 80020b2:	f7ff fa9b 	bl	80015ec <HAL_GetTick>
 80020b6:	6138      	str	r0, [r7, #16]

      /* Wait till LSI is disabled */
      while(READ_BIT(RCC->CSR, RCC_CSR_LSIRDY) != 0U)
 80020b8:	e008      	b.n	80020cc <HAL_RCC_OscConfig+0x438>
      {
        if((HAL_GetTick() - tickstart) > LSI_TIMEOUT_VALUE)
 80020ba:	f7ff fa97 	bl	80015ec <HAL_GetTick>
 80020be:	4602      	mov	r2, r0
 80020c0:	693b      	ldr	r3, [r7, #16]
 80020c2:	1ad3      	subs	r3, r2, r3
 80020c4:	2b02      	cmp	r3, #2
 80020c6:	d901      	bls.n	80020cc <HAL_RCC_OscConfig+0x438>
        {
          return HAL_TIMEOUT;
 80020c8:	2303      	movs	r3, #3
 80020ca:	e1b3      	b.n	8002434 <HAL_RCC_OscConfig+0x7a0>
      while(READ_BIT(RCC->CSR, RCC_CSR_LSIRDY) != 0U)
 80020cc:	4b4f      	ldr	r3, [pc, #316]	; (800220c <HAL_RCC_OscConfig+0x578>)
 80020ce:	f8d3 3094 	ldr.w	r3, [r3, #148]	; 0x94
 80020d2:	f003 0302 	and.w	r3, r3, #2
 80020d6:	2b00      	cmp	r3, #0
 80020d8:	d1ef      	bne.n	80020ba <HAL_RCC_OscConfig+0x426>
        }
      }
    }
  }
  /*------------------------------ LSE Configuration -------------------------*/
  if(((RCC_OscInitStruct->OscillatorType) & RCC_OSCILLATORTYPE_LSE) == RCC_OSCILLATORTYPE_LSE)
 80020da:	687b      	ldr	r3, [r7, #4]
 80020dc:	681b      	ldr	r3, [r3, #0]
 80020de:	f003 0304 	and.w	r3, r3, #4
 80020e2:	2b00      	cmp	r3, #0
 80020e4:	f000 80a6 	beq.w	8002234 <HAL_RCC_OscConfig+0x5a0>
  {
    FlagStatus       pwrclkchanged = RESET;
 80020e8:	2300      	movs	r3, #0
 80020ea:	77fb      	strb	r3, [r7, #31]
    /* Check the parameters */
    assert_param(IS_RCC_LSE(RCC_OscInitStruct->LSEState));

    /* Update LSE configuration in Backup Domain control register    */
    /* Requires to enable write access to Backup Domain of necessary */
    if(HAL_IS_BIT_CLR(RCC->APB1ENR1, RCC_APB1ENR1_PWREN))
 80020ec:	4b47      	ldr	r3, [pc, #284]	; (800220c <HAL_RCC_OscConfig+0x578>)
 80020ee:	6d9b      	ldr	r3, [r3, #88]	; 0x58
 80020f0:	f003 5380 	and.w	r3, r3, #268435456	; 0x10000000
 80020f4:	2b00      	cmp	r3, #0
 80020f6:	d10d      	bne.n	8002114 <HAL_RCC_OscConfig+0x480>
    {
      __HAL_RCC_PWR_CLK_ENABLE();
 80020f8:	4b44      	ldr	r3, [pc, #272]	; (800220c <HAL_RCC_OscConfig+0x578>)
 80020fa:	6d9b      	ldr	r3, [r3, #88]	; 0x58
 80020fc:	4a43      	ldr	r2, [pc, #268]	; (800220c <HAL_RCC_OscConfig+0x578>)
 80020fe:	f043 5380 	orr.w	r3, r3, #268435456	; 0x10000000
 8002102:	6593      	str	r3, [r2, #88]	; 0x58
 8002104:	4b41      	ldr	r3, [pc, #260]	; (800220c <HAL_RCC_OscConfig+0x578>)
 8002106:	6d9b      	ldr	r3, [r3, #88]	; 0x58
 8002108:	f003 5380 	and.w	r3, r3, #268435456	; 0x10000000
 800210c:	60bb      	str	r3, [r7, #8]
 800210e:	68bb      	ldr	r3, [r7, #8]
      pwrclkchanged = SET;
 8002110:	2301      	movs	r3, #1
 8002112:	77fb      	strb	r3, [r7, #31]
    }

    if(HAL_IS_BIT_CLR(PWR->CR1, PWR_CR1_DBP))
 8002114:	4b3e      	ldr	r3, [pc, #248]	; (8002210 <HAL_RCC_OscConfig+0x57c>)
 8002116:	681b      	ldr	r3, [r3, #0]
 8002118:	f403 7380 	and.w	r3, r3, #256	; 0x100
 800211c:	2b00      	cmp	r3, #0
 800211e:	d118      	bne.n	8002152 <HAL_RCC_OscConfig+0x4be>
    {
      /* Enable write access to Backup domain */
      SET_BIT(PWR->CR1, PWR_CR1_DBP);
 8002120:	4b3b      	ldr	r3, [pc, #236]	; (8002210 <HAL_RCC_OscConfig+0x57c>)
 8002122:	681b      	ldr	r3, [r3, #0]
 8002124:	4a3a      	ldr	r2, [pc, #232]	; (8002210 <HAL_RCC_OscConfig+0x57c>)
 8002126:	f443 7380 	orr.w	r3, r3, #256	; 0x100
 800212a:	6013      	str	r3, [r2, #0]

      /* Wait for Backup domain Write protection disable */
      tickstart = HAL_GetTick();
 800212c:	f7ff fa5e 	bl	80015ec <HAL_GetTick>
 8002130:	6138      	str	r0, [r7, #16]

      while(HAL_IS_BIT_CLR(PWR->CR1, PWR_CR1_DBP))
 8002132:	e008      	b.n	8002146 <HAL_RCC_OscConfig+0x4b2>
      {
        if((HAL_GetTick() - tickstart) > RCC_DBP_TIMEOUT_VALUE)
 8002134:	f7ff fa5a 	bl	80015ec <HAL_GetTick>
 8002138:	4602      	mov	r2, r0
 800213a:	693b      	ldr	r3, [r7, #16]
 800213c:	1ad3      	subs	r3, r2, r3
 800213e:	2b02      	cmp	r3, #2
 8002140:	d901      	bls.n	8002146 <HAL_RCC_OscConfig+0x4b2>
        {
          return HAL_TIMEOUT;
 8002142:	2303      	movs	r3, #3
 8002144:	e176      	b.n	8002434 <HAL_RCC_OscConfig+0x7a0>
      while(HAL_IS_BIT_CLR(PWR->CR1, PWR_CR1_DBP))
 8002146:	4b32      	ldr	r3, [pc, #200]	; (8002210 <HAL_RCC_OscConfig+0x57c>)
 8002148:	681b      	ldr	r3, [r3, #0]
