
wyswietlacz2.elf:     file format elf32-littlearm

Sections:
Idx Name          Size      VMA       LMA       File off  Algn
  0 .isr_vector   00000188  08000000  08000000  00010000  2**0
                  CONTENTS, ALLOC, LOAD, READONLY, DATA
  1 .text         00003720  08000188  08000188  00010188  2**2
                  CONTENTS, ALLOC, LOAD, READONLY, CODE
  2 .rodata       00000054  080038a8  080038a8  000138a8  2**2
                  CONTENTS, ALLOC, LOAD, READONLY, DATA
  3 .ARM.extab    00000000  080038fc  080038fc  0002000c  2**0
                  CONTENTS
  4 .ARM          00000008  080038fc  080038fc  000138fc  2**2
                  CONTENTS, ALLOC, LOAD, READONLY, DATA
  5 .preinit_array 00000000  08003904  08003904  0002000c  2**0
                  CONTENTS, ALLOC, LOAD, DATA
  6 .init_array   00000004  08003904  08003904  00013904  2**2
                  CONTENTS, ALLOC, LOAD, DATA
  7 .fini_array   00000004  08003908  08003908  00013908  2**2
                  CONTENTS, ALLOC, LOAD, DATA
  8 .data         0000000c  20000000  0800390c  00020000  2**2
                  CONTENTS, ALLOC, LOAD, DATA
  9 .bss          000000a4  2000000c  08003918  0002000c  2**2
                  ALLOC
 10 ._user_heap_stack 00000600  200000b0  08003918  000200b0  2**0
                  ALLOC
 11 .ARM.attributes 00000030  00000000  00000000  0002000c  2**0
                  CONTENTS, READONLY
 12 .debug_info   0000bb2f  00000000  00000000  0002003c  2**0
                  CONTENTS, READONLY, DEBUGGING, OCTETS
 13 .debug_abbrev 000017a0  00000000  00000000  0002bb6b  2**0
                  CONTENTS, READONLY, DEBUGGING, OCTETS
 14 .debug_aranges 000008c8  00000000  00000000  0002d310  2**3
                  CONTENTS, READONLY, DEBUGGING, OCTETS
 15 .debug_ranges 00000840  00000000  00000000  0002dbd8  2**3
                  CONTENTS, READONLY, DEBUGGING, OCTETS
 16 .debug_macro  0002511f  00000000  00000000  0002e418  2**0
                  CONTENTS, READONLY, DEBUGGING, OCTETS
 17 .debug_line   0000a5b6  00000000  00000000  00053537  2**0
                  CONTENTS, READONLY, DEBUGGING, OCTETS
 18 .debug_str    000e5c8e  00000000  00000000  0005daed  2**0
                  CONTENTS, READONLY, DEBUGGING, OCTETS
 19 .comment      00000053  00000000  00000000  0014377b  2**0
                  CONTENTS, READONLY
 20 .debug_frame  00002308  00000000  00000000  001437d0  2**2
                  CONTENTS, READONLY, DEBUGGING, OCTETS

Disassembly of section .text:

08000188 <__do_global_dtors_aux>:
 8000188:	b510      	push	{r4, lr}
 800018a:	4c05      	ldr	r4, [pc, #20]	; (80001a0 <__do_global_dtors_aux+0x18>)
 800018c:	7823      	ldrb	r3, [r4, #0]
 800018e:	b933      	cbnz	r3, 800019e <__do_global_dtors_aux+0x16>
 8000190:	4b04      	ldr	r3, [pc, #16]	; (80001a4 <__do_global_dtors_aux+0x1c>)
 8000192:	b113      	cbz	r3, 800019a <__do_global_dtors_aux+0x12>
 8000194:	4804      	ldr	r0, [pc, #16]	; (80001a8 <__do_global_dtors_aux+0x20>)
 8000196:	f3af 8000 	nop.w
 800019a:	2301      	movs	r3, #1
 800019c:	7023      	strb	r3, [r4, #0]
 800019e:	bd10      	pop	{r4, pc}
 80001a0:	2000000c 	.word	0x2000000c
 80001a4:	00000000 	.word	0x00000000
 80001a8:	08003890 	.word	0x08003890

080001ac <frame_dummy>:
 80001ac:	b508      	push	{r3, lr}
 80001ae:	4b03      	ldr	r3, [pc, #12]	; (80001bc <frame_dummy+0x10>)
 80001b0:	b11b      	cbz	r3, 80001ba <frame_dummy+0xe>
 80001b2:	4903      	ldr	r1, [pc, #12]	; (80001c0 <frame_dummy+0x14>)
 80001b4:	4803      	ldr	r0, [pc, #12]	; (80001c4 <frame_dummy+0x18>)
 80001b6:	f3af 8000 	nop.w
 80001ba:	bd08      	pop	{r3, pc}
 80001bc:	00000000 	.word	0x00000000
 80001c0:	20000010 	.word	0x20000010
 80001c4:	08003890 	.word	0x08003890

080001c8 <__aeabi_uldivmod>:
 80001c8:	b953      	cbnz	r3, 80001e0 <__aeabi_uldivmod+0x18>
 80001ca:	b94a      	cbnz	r2, 80001e0 <__aeabi_uldivmod+0x18>
 80001cc:	2900      	cmp	r1, #0
 80001ce:	bf08      	it	eq
 80001d0:	2800      	cmpeq	r0, #0
 80001d2:	bf1c      	itt	ne
 80001d4:	f04f 31ff 	movne.w	r1, #4294967295
 80001d8:	f04f 30ff 	movne.w	r0, #4294967295
 80001dc:	f000 b96e 	b.w	80004bc <__aeabi_idiv0>
 80001e0:	f1ad 0c08 	sub.w	ip, sp, #8
 80001e4:	e96d ce04 	strd	ip, lr, [sp, #-16]!
 80001e8:	f000 f806 	bl	80001f8 <__udivmoddi4>
 80001ec:	f8dd e004 	ldr.w	lr, [sp, #4]
 80001f0:	e9dd 2302 	ldrd	r2, r3, [sp, #8]
 80001f4:	b004      	add	sp, #16
 80001f6:	4770      	bx	lr

080001f8 <__udivmoddi4>:
 80001f8:	e92d 47f0 	stmdb	sp!, {r4, r5, r6, r7, r8, r9, sl, lr}
 80001fc:	9d08      	ldr	r5, [sp, #32]
 80001fe:	4604      	mov	r4, r0
 8000200:	468c      	mov	ip, r1
 8000202:	2b00      	cmp	r3, #0
 8000204:	f040 8083 	bne.w	800030e <__udivmoddi4+0x116>
 8000208:	428a      	cmp	r2, r1
 800020a:	4617      	mov	r7, r2
 800020c:	d947      	bls.n	800029e <__udivmoddi4+0xa6>
 800020e:	fab2 f282 	clz	r2, r2
 8000212:	b142      	cbz	r2, 8000226 <__udivmoddi4+0x2e>
 8000214:	f1c2 0020 	rsb	r0, r2, #32
 8000218:	fa24 f000 	lsr.w	r0, r4, r0
 800021c:	4091      	lsls	r1, r2
 800021e:	4097      	lsls	r7, r2
 8000220:	ea40 0c01 	orr.w	ip, r0, r1
 8000224:	4094      	lsls	r4, r2
 8000226:	ea4f 4817 	mov.w	r8, r7, lsr #16
 800022a:	0c23      	lsrs	r3, r4, #16
 800022c:	fbbc f6f8 	udiv	r6, ip, r8
 8000230:	fa1f fe87 	uxth.w	lr, r7
 8000234:	fb08 c116 	mls	r1, r8, r6, ip
 8000238:	ea43 4301 	orr.w	r3, r3, r1, lsl #16
 800023c:	fb06 f10e 	mul.w	r1, r6, lr
 8000240:	4299      	cmp	r1, r3
 8000242:	d909      	bls.n	8000258 <__udivmoddi4+0x60>
 8000244:	18fb      	adds	r3, r7, r3
 8000246:	f106 30ff 	add.w	r0, r6, #4294967295
 800024a:	f080 8119 	bcs.w	8000480 <__udivmoddi4+0x288>
 800024e:	4299      	cmp	r1, r3
 8000250:	f240 8116 	bls.w	8000480 <__udivmoddi4+0x288>
 8000254:	3e02      	subs	r6, #2
 8000256:	443b      	add	r3, r7
 8000258:	1a5b      	subs	r3, r3, r1
 800025a:	b2a4      	uxth	r4, r4
 800025c:	fbb3 f0f8 	udiv	r0, r3, r8
 8000260:	fb08 3310 	mls	r3, r8, r0, r3
 8000264:	ea44 4403 	orr.w	r4, r4, r3, lsl #16
 8000268:	fb00 fe0e 	mul.w	lr, r0, lr
 800026c:	45a6      	cmp	lr, r4
 800026e:	d909      	bls.n	8000284 <__udivmoddi4+0x8c>
 8000270:	193c      	adds	r4, r7, r4
 8000272:	f100 33ff 	add.w	r3, r0, #4294967295
 8000276:	f080 8105 	bcs.w	8000484 <__udivmoddi4+0x28c>
 800027a:	45a6      	cmp	lr, r4
 800027c:	f240 8102 	bls.w	8000484 <__udivmoddi4+0x28c>
 8000280:	3802      	subs	r0, #2
 8000282:	443c      	add	r4, r7
 8000284:	ea40 4006 	orr.w	r0, r0, r6, lsl #16
 8000288:	eba4 040e 	sub.w	r4, r4, lr
 800028c:	2600      	movs	r6, #0
 800028e:	b11d      	cbz	r5, 8000298 <__udivmoddi4+0xa0>
 8000290:	40d4      	lsrs	r4, r2
 8000292:	2300      	movs	r3, #0
 8000294:	e9c5 4300 	strd	r4, r3, [r5]
 8000298:	4631      	mov	r1, r6
 800029a:	e8bd 87f0 	ldmia.w	sp!, {r4, r5, r6, r7, r8, r9, sl, pc}
 800029e:	b902      	cbnz	r2, 80002a2 <__udivmoddi4+0xaa>
 80002a0:	deff      	udf	#255	; 0xff
 80002a2:	fab2 f282 	clz	r2, r2
 80002a6:	2a00      	cmp	r2, #0
 80002a8:	d150      	bne.n	800034c <__udivmoddi4+0x154>
 80002aa:	1bcb      	subs	r3, r1, r7
 80002ac:	ea4f 4e17 	mov.w	lr, r7, lsr #16
 80002b0:	fa1f f887 	uxth.w	r8, r7
 80002b4:	2601      	movs	r6, #1
 80002b6:	fbb3 fcfe 	udiv	ip, r3, lr
 80002ba:	0c21      	lsrs	r1, r4, #16
 80002bc:	fb0e 331c 	mls	r3, lr, ip, r3
 80002c0:	ea41 4103 	orr.w	r1, r1, r3, lsl #16
 80002c4:	fb08 f30c 	mul.w	r3, r8, ip
 80002c8:	428b      	cmp	r3, r1
 80002ca:	d907      	bls.n	80002dc <__udivmoddi4+0xe4>
 80002cc:	1879      	adds	r1, r7, r1
 80002ce:	f10c 30ff 	add.w	r0, ip, #4294967295
 80002d2:	d202      	bcs.n	80002da <__udivmoddi4+0xe2>
 80002d4:	428b      	cmp	r3, r1
 80002d6:	f200 80e9 	bhi.w	80004ac <__udivmoddi4+0x2b4>
 80002da:	4684      	mov	ip, r0
 80002dc:	1ac9      	subs	r1, r1, r3
 80002de:	b2a3      	uxth	r3, r4
 80002e0:	fbb1 f0fe 	udiv	r0, r1, lr
 80002e4:	fb0e 1110 	mls	r1, lr, r0, r1
 80002e8:	ea43 4401 	orr.w	r4, r3, r1, lsl #16
 80002ec:	fb08 f800 	mul.w	r8, r8, r0
 80002f0:	45a0      	cmp	r8, r4
 80002f2:	d907      	bls.n	8000304 <__udivmoddi4+0x10c>
 80002f4:	193c      	adds	r4, r7, r4
 80002f6:	f100 33ff 	add.w	r3, r0, #4294967295
 80002fa:	d202      	bcs.n	8000302 <__udivmoddi4+0x10a>
 80002fc:	45a0      	cmp	r8, r4
 80002fe:	f200 80d9 	bhi.w	80004b4 <__udivmoddi4+0x2bc>
 8000302:	4618      	mov	r0, r3
 8000304:	eba4 0408 	sub.w	r4, r4, r8
 8000308:	ea40 400c 	orr.w	r0, r0, ip, lsl #16
 800030c:	e7bf      	b.n	800028e <__udivmoddi4+0x96>
 800030e:	428b      	cmp	r3, r1
 8000310:	d909      	bls.n	8000326 <__udivmoddi4+0x12e>
 8000312:	2d00      	cmp	r5, #0
 8000314:	f000 80b1 	beq.w	800047a <__udivmoddi4+0x282>
 8000318:	2600      	movs	r6, #0
 800031a:	e9c5 0100 	strd	r0, r1, [r5]
 800031e:	4630      	mov	r0, r6
 8000320:	4631      	mov	r1, r6
 8000322:	e8bd 87f0 	ldmia.w	sp!, {r4, r5, r6, r7, r8, r9, sl, pc}
 8000326:	fab3 f683 	clz	r6, r3
 800032a:	2e00      	cmp	r6, #0
 800032c:	d14a      	bne.n	80003c4 <__udivmoddi4+0x1cc>
 800032e:	428b      	cmp	r3, r1
 8000330:	d302      	bcc.n	8000338 <__udivmoddi4+0x140>
 8000332:	4282      	cmp	r2, r0
 8000334:	f200 80b8 	bhi.w	80004a8 <__udivmoddi4+0x2b0>
 8000338:	1a84      	subs	r4, r0, r2
 800033a:	eb61 0103 	sbc.w	r1, r1, r3
 800033e:	2001      	movs	r0, #1
 8000340:	468c      	mov	ip, r1
 8000342:	2d00      	cmp	r5, #0
 8000344:	d0a8      	beq.n	8000298 <__udivmoddi4+0xa0>
 8000346:	e9c5 4c00 	strd	r4, ip, [r5]
 800034a:	e7a5      	b.n	8000298 <__udivmoddi4+0xa0>
 800034c:	f1c2 0320 	rsb	r3, r2, #32
 8000350:	fa20 f603 	lsr.w	r6, r0, r3
 8000354:	4097      	lsls	r7, r2
 8000356:	fa01 f002 	lsl.w	r0, r1, r2
 800035a:	ea4f 4e17 	mov.w	lr, r7, lsr #16
 800035e:	40d9      	lsrs	r1, r3
 8000360:	4330      	orrs	r0, r6
 8000362:	0c03      	lsrs	r3, r0, #16
 8000364:	fbb1 f6fe 	udiv	r6, r1, lr
 8000368:	fa1f f887 	uxth.w	r8, r7
 800036c:	fb0e 1116 	mls	r1, lr, r6, r1
 8000370:	ea43 4301 	orr.w	r3, r3, r1, lsl #16
 8000374:	fb06 f108 	mul.w	r1, r6, r8
 8000378:	4299      	cmp	r1, r3
 800037a:	fa04 f402 	lsl.w	r4, r4, r2
 800037e:	d909      	bls.n	8000394 <__udivmoddi4+0x19c>
 8000380:	18fb      	adds	r3, r7, r3
 8000382:	f106 3cff 	add.w	ip, r6, #4294967295
 8000386:	f080 808d 	bcs.w	80004a4 <__udivmoddi4+0x2ac>
 800038a:	4299      	cmp	r1, r3
 800038c:	f240 808a 	bls.w	80004a4 <__udivmoddi4+0x2ac>
 8000390:	3e02      	subs	r6, #2
 8000392:	443b      	add	r3, r7
 8000394:	1a5b      	subs	r3, r3, r1
 8000396:	b281      	uxth	r1, r0
 8000398:	fbb3 f0fe 	udiv	r0, r3, lr
 800039c:	fb0e 3310 	mls	r3, lr, r0, r3
 80003a0:	ea41 4103 	orr.w	r1, r1, r3, lsl #16
 80003a4:	fb00 f308 	mul.w	r3, r0, r8
 80003a8:	428b      	cmp	r3, r1
 80003aa:	d907      	bls.n	80003bc <__udivmoddi4+0x1c4>
 80003ac:	1879      	adds	r1, r7, r1
 80003ae:	f100 3cff 	add.w	ip, r0, #4294967295
 80003b2:	d273      	bcs.n	800049c <__udivmoddi4+0x2a4>
 80003b4:	428b      	cmp	r3, r1
 80003b6:	d971      	bls.n	800049c <__udivmoddi4+0x2a4>
 80003b8:	3802      	subs	r0, #2
 80003ba:	4439      	add	r1, r7
 80003bc:	1acb      	subs	r3, r1, r3
 80003be:	ea40 4606 	orr.w	r6, r0, r6, lsl #16
 80003c2:	e778      	b.n	80002b6 <__udivmoddi4+0xbe>
 80003c4:	f1c6 0c20 	rsb	ip, r6, #32
 80003c8:	fa03 f406 	lsl.w	r4, r3, r6
 80003cc:	fa22 f30c 	lsr.w	r3, r2, ip
 80003d0:	431c      	orrs	r4, r3
 80003d2:	fa20 f70c 	lsr.w	r7, r0, ip
 80003d6:	fa01 f306 	lsl.w	r3, r1, r6
 80003da:	ea4f 4e14 	mov.w	lr, r4, lsr #16
 80003de:	fa21 f10c 	lsr.w	r1, r1, ip
 80003e2:	431f      	orrs	r7, r3
 80003e4:	0c3b      	lsrs	r3, r7, #16
 80003e6:	fbb1 f9fe 	udiv	r9, r1, lr
 80003ea:	fa1f f884 	uxth.w	r8, r4
 80003ee:	fb0e 1119 	mls	r1, lr, r9, r1
 80003f2:	ea43 4101 	orr.w	r1, r3, r1, lsl #16
 80003f6:	fb09 fa08 	mul.w	sl, r9, r8
 80003fa:	458a      	cmp	sl, r1
 80003fc:	fa02 f206 	lsl.w	r2, r2, r6
 8000400:	fa00 f306 	lsl.w	r3, r0, r6
 8000404:	d908      	bls.n	8000418 <__udivmoddi4+0x220>
 8000406:	1861      	adds	r1, r4, r1
 8000408:	f109 30ff 	add.w	r0, r9, #4294967295
 800040c:	d248      	bcs.n	80004a0 <__udivmoddi4+0x2a8>
 800040e:	458a      	cmp	sl, r1
 8000410:	d946      	bls.n	80004a0 <__udivmoddi4+0x2a8>
 8000412:	f1a9 0902 	sub.w	r9, r9, #2
 8000416:	4421      	add	r1, r4
 8000418:	eba1 010a 	sub.w	r1, r1, sl
 800041c:	b2bf      	uxth	r7, r7
 800041e:	fbb1 f0fe 	udiv	r0, r1, lr
 8000422:	fb0e 1110 	mls	r1, lr, r0, r1
 8000426:	ea47 4701 	orr.w	r7, r7, r1, lsl #16
 800042a:	fb00 f808 	mul.w	r8, r0, r8
 800042e:	45b8      	cmp	r8, r7
 8000430:	d907      	bls.n	8000442 <__udivmoddi4+0x24a>
 8000432:	19e7      	adds	r7, r4, r7
 8000434:	f100 31ff 	add.w	r1, r0, #4294967295
 8000438:	d22e      	bcs.n	8000498 <__udivmoddi4+0x2a0>
 800043a:	45b8      	cmp	r8, r7
 800043c:	d92c      	bls.n	8000498 <__udivmoddi4+0x2a0>
 800043e:	3802      	subs	r0, #2
 8000440:	4427      	add	r7, r4
 8000442:	ea40 4009 	orr.w	r0, r0, r9, lsl #16
 8000446:	eba7 0708 	sub.w	r7, r7, r8
 800044a:	fba0 8902 	umull	r8, r9, r0, r2
 800044e:	454f      	cmp	r7, r9
 8000450:	46c6      	mov	lr, r8
 8000452:	4649      	mov	r1, r9
 8000454:	d31a      	bcc.n	800048c <__udivmoddi4+0x294>
 8000456:	d017      	beq.n	8000488 <__udivmoddi4+0x290>
 8000458:	b15d      	cbz	r5, 8000472 <__udivmoddi4+0x27a>
 800045a:	ebb3 020e 	subs.w	r2, r3, lr
 800045e:	eb67 0701 	sbc.w	r7, r7, r1
 8000462:	fa07 fc0c 	lsl.w	ip, r7, ip
 8000466:	40f2      	lsrs	r2, r6
 8000468:	ea4c 0202 	orr.w	r2, ip, r2
 800046c:	40f7      	lsrs	r7, r6
 800046e:	e9c5 2700 	strd	r2, r7, [r5]
 8000472:	2600      	movs	r6, #0
 8000474:	4631      	mov	r1, r6
 8000476:	e8bd 87f0 	ldmia.w	sp!, {r4, r5, r6, r7, r8, r9, sl, pc}
 800047a:	462e      	mov	r6, r5
 800047c:	4628      	mov	r0, r5
 800047e:	e70b      	b.n	8000298 <__udivmoddi4+0xa0>
 8000480:	4606      	mov	r6, r0
 8000482:	e6e9      	b.n	8000258 <__udivmoddi4+0x60>
 8000484:	4618      	mov	r0, r3
 8000486:	e6fd      	b.n	8000284 <__udivmoddi4+0x8c>
 8000488:	4543      	cmp	r3, r8
 800048a:	d2e5      	bcs.n	8000458 <__udivmoddi4+0x260>
 800048c:	ebb8 0e02 	subs.w	lr, r8, r2
 8000490:	eb69 0104 	sbc.w	r1, r9, r4
 8000494:	3801      	subs	r0, #1
 8000496:	e7df      	b.n	8000458 <__udivmoddi4+0x260>
 8000498:	4608      	mov	r0, r1
 800049a:	e7d2      	b.n	8000442 <__udivmoddi4+0x24a>
 800049c:	4660      	mov	r0, ip
 800049e:	e78d      	b.n	80003bc <__udivmoddi4+0x1c4>
 80004a0:	4681      	mov	r9, r0
 80004a2:	e7b9      	b.n	8000418 <__udivmoddi4+0x220>
 80004a4:	4666      	mov	r6, ip
 80004a6:	e775      	b.n	8000394 <__udivmoddi4+0x19c>
 80004a8:	4630      	mov	r0, r6
 80004aa:	e74a      	b.n	8000342 <__udivmoddi4+0x14a>
 80004ac:	f1ac 0c02 	sub.w	ip, ip, #2
 80004b0:	4439      	add	r1, r7
 80004b2:	e713      	b.n	80002dc <__udivmoddi4+0xe4>
 80004b4:	3802      	subs	r0, #2
 80004b6:	443c      	add	r4, r7
 80004b8:	e724      	b.n	8000304 <__udivmoddi4+0x10c>
 80004ba:	bf00      	nop

080004bc <__aeabi_idiv0>:
 80004bc:	4770      	bx	lr
 80004be:	bf00      	nop

080004c0 <Trigger>:
/* USER CODE END PFP */

/* Private user code ---------------------------------------------------------*/
/* USER CODE BEGIN 0 */
void Trigger()
{
 80004c0:	b580      	push	{r7, lr}
 80004c2:	af00      	add	r7, sp, #0
        HAL_GPIO_WritePin (LCD_E_GPIO_Port, LCD_E_Pin, SET );
 80004c4:	2201      	movs	r2, #1
 80004c6:	2101      	movs	r1, #1
 80004c8:	4806      	ldr	r0, [pc, #24]	; (80004e4 <Trigger+0x24>)
 80004ca:	f001 f9f7 	bl	80018bc <HAL_GPIO_WritePin>
        HAL_Delay(1);
 80004ce:	2001      	movs	r0, #1
 80004d0:	f000 ff28 	bl	8001324 <HAL_Delay>
        HAL_GPIO_WritePin (LCD_E_GPIO_Port, LCD_E_Pin, RESET );
 80004d4:	2200      	movs	r2, #0
 80004d6:	2101      	movs	r1, #1
 80004d8:	4802      	ldr	r0, [pc, #8]	; (80004e4 <Trigger+0x24>)
 80004da:	f001 f9ef 	bl	80018bc <HAL_GPIO_WritePin>
}
 80004de:	bf00      	nop
 80004e0:	bd80      	pop	{r7, pc}
 80004e2:	bf00      	nop
 80004e4:	48000800 	.word	0x48000800

080004e8 <LCD_Instruction>:

void LCD_Instruction (uint8_t DB, uint8_t RS)
{
 80004e8:	b580      	push	{r7, lr}
 80004ea:	b082      	sub	sp, #8
 80004ec:	af00      	add	r7, sp, #0
 80004ee:	4603      	mov	r3, r0
 80004f0:	460a      	mov	r2, r1
 80004f2:	71fb      	strb	r3, [r7, #7]
 80004f4:	4613      	mov	r3, r2
 80004f6:	71bb      	strb	r3, [r7, #6]
        HAL_Delay(2);
 80004f8:	2002      	movs	r0, #2
 80004fa:	f000 ff13 	bl	8001324 <HAL_Delay>
        HAL_GPIO_WritePin (LCD_E_GPIO_Port, LCD_E_Pin, SET );
 80004fe:	2201      	movs	r2, #1
 8000500:	2101      	movs	r1, #1
 8000502:	483b      	ldr	r0, [pc, #236]	; (80005f0 <LCD_Instruction+0x108>)
 8000504:	f001 f9da 	bl	80018bc <HAL_GPIO_WritePin>

        if (RS)
 8000508:	79bb      	ldrb	r3, [r7, #6]
 800050a:	2b00      	cmp	r3, #0
 800050c:	d005      	beq.n	800051a <LCD_Instruction+0x32>
                HAL_GPIO_WritePin (LCD_RS_GPIO_Port, LCD_RS_Pin, SET );
 800050e:	2201      	movs	r2, #1
 8000510:	2108      	movs	r1, #8
 8000512:	4837      	ldr	r0, [pc, #220]	; (80005f0 <LCD_Instruction+0x108>)
 8000514:	f001 f9d2 	bl	80018bc <HAL_GPIO_WritePin>
 8000518:	e004      	b.n	8000524 <LCD_Instruction+0x3c>
        else
             	HAL_GPIO_WritePin (LCD_RS_GPIO_Port, LCD_RS_Pin, RESET );
 800051a:	2200      	movs	r2, #0
 800051c:	2108      	movs	r1, #8
 800051e:	4834      	ldr	r0, [pc, #208]	; (80005f0 <LCD_Instruction+0x108>)
 8000520:	f001 f9cc 	bl	80018bc <HAL_GPIO_WritePin>

        HAL_GPIO_WritePin (LCD_D7_GPIO_Port, LCD_D7_Pin, DB & (1<<7) ? SET : RESET);
 8000524:	79fb      	ldrb	r3, [r7, #7]
 8000526:	09db      	lsrs	r3, r3, #7
 8000528:	b2db      	uxtb	r3, r3
 800052a:	461a      	mov	r2, r3
 800052c:	f44f 5180 	mov.w	r1, #4096	; 0x1000
 8000530:	482f      	ldr	r0, [pc, #188]	; (80005f0 <LCD_Instruction+0x108>)
 8000532:	f001 f9c3 	bl	80018bc <HAL_GPIO_WritePin>
        HAL_GPIO_WritePin (LCD_D6_GPIO_Port, LCD_D6_Pin, DB & (1<<6) ? SET : RESET);
 8000536:	79fb      	ldrb	r3, [r7, #7]
 8000538:	119b      	asrs	r3, r3, #6
 800053a:	b2db      	uxtb	r3, r3
 800053c:	f003 0301 	and.w	r3, r3, #1
 8000540:	b2db      	uxtb	r3, r3
 8000542:	461a      	mov	r2, r3
 8000544:	2104      	movs	r1, #4
 8000546:	482b      	ldr	r0, [pc, #172]	; (80005f4 <LCD_Instruction+0x10c>)
 8000548:	f001 f9b8 	bl	80018bc <HAL_GPIO_WritePin>
        HAL_GPIO_WritePin (LCD_D5_GPIO_Port, LCD_D5_Pin, DB & (1<<5) ? SET : RESET);
 800054c:	79fb      	ldrb	r3, [r7, #7]
 800054e:	115b      	asrs	r3, r3, #5
 8000550:	b2db      	uxtb	r3, r3
 8000552:	f003 0301 	and.w	r3, r3, #1
 8000556:	b2db      	uxtb	r3, r3
 8000558:	461a      	mov	r2, r3
 800055a:	f44f 6100 	mov.w	r1, #2048	; 0x800
 800055e:	4824      	ldr	r0, [pc, #144]	; (80005f0 <LCD_Instruction+0x108>)
 8000560:	f001 f9ac 	bl	80018bc <HAL_GPIO_WritePin>
        HAL_GPIO_WritePin (LCD_D4_GPIO_Port, LCD_D4_Pin, DB & (1<<4) ? SET : RESET);
 8000564:	79fb      	ldrb	r3, [r7, #7]
 8000566:	111b      	asrs	r3, r3, #4
 8000568:	b2db      	uxtb	r3, r3
 800056a:	f003 0301 	and.w	r3, r3, #1
 800056e:	b2db      	uxtb	r3, r3
 8000570:	461a      	mov	r2, r3
 8000572:	f44f 6180 	mov.w	r1, #1024	; 0x400
 8000576:	481e      	ldr	r0, [pc, #120]	; (80005f0 <LCD_Instruction+0x108>)
 8000578:	f001 f9a0 	bl	80018bc <HAL_GPIO_WritePin>
        HAL_GPIO_WritePin (LCD_D3_GPIO_Port, LCD_D3_Pin, DB & (1<<3) ? SET : RESET);
 800057c:	79fb      	ldrb	r3, [r7, #7]
 800057e:	10db      	asrs	r3, r3, #3
 8000580:	b2db      	uxtb	r3, r3
 8000582:	f003 0301 	and.w	r3, r3, #1
 8000586:	b2db      	uxtb	r3, r3
 8000588:	461a      	mov	r2, r3
 800058a:	2140      	movs	r1, #64	; 0x40
 800058c:	4818      	ldr	r0, [pc, #96]	; (80005f0 <LCD_Instruction+0x108>)
 800058e:	f001 f995 	bl	80018bc <HAL_GPIO_WritePin>
        HAL_GPIO_WritePin (LCD_D2_GPIO_Port, LCD_D2_Pin, DB & (1<<2) ? SET : RESET);
 8000592:	79fb      	ldrb	r3, [r7, #7]
 8000594:	109b      	asrs	r3, r3, #2
 8000596:	b2db      	uxtb	r3, r3
 8000598:	f003 0301 	and.w	r3, r3, #1
 800059c:	b2db      	uxtb	r3, r3
 800059e:	461a      	mov	r2, r3
 80005a0:	f44f 7180 	mov.w	r1, #256	; 0x100
 80005a4:	4814      	ldr	r0, [pc, #80]	; (80005f8 <LCD_Instruction+0x110>)
 80005a6:	f001 f989 	bl	80018bc <HAL_GPIO_WritePin>
        HAL_GPIO_WritePin (LCD_D1_GPIO_Port, LCD_D1_Pin, DB & (1<<1) ? SET : RESET);
 80005aa:	79fb      	ldrb	r3, [r7, #7]
 80005ac:	105b      	asrs	r3, r3, #1
 80005ae:	b2db      	uxtb	r3, r3
 80005b0:	f003 0301 	and.w	r3, r3, #1
 80005b4:	b2db      	uxtb	r3, r3
 80005b6:	461a      	mov	r2, r3
 80005b8:	f44f 7100 	mov.w	r1, #512	; 0x200
 80005bc:	480c      	ldr	r0, [pc, #48]	; (80005f0 <LCD_Instruction+0x108>)
 80005be:	f001 f97d 	bl	80018bc <HAL_GPIO_WritePin>
        HAL_GPIO_WritePin (LCD_D0_GPIO_Port, LCD_D0_Pin, DB & (1<<0) ? SET : RESET);
 80005c2:	79fb      	ldrb	r3, [r7, #7]
 80005c4:	f003 0301 	and.w	r3, r3, #1
 80005c8:	b2db      	uxtb	r3, r3
 80005ca:	461a      	mov	r2, r3
 80005cc:	f44f 7180 	mov.w	r1, #256	; 0x100
 80005d0:	4807      	ldr	r0, [pc, #28]	; (80005f0 <LCD_Instruction+0x108>)
 80005d2:	f001 f973 	bl	80018bc <HAL_GPIO_WritePin>
        HAL_Delay(1);
 80005d6:	2001      	movs	r0, #1
 80005d8:	f000 fea4 	bl	8001324 <HAL_Delay>
        HAL_GPIO_WritePin (LCD_E_GPIO_Port, LCD_E_Pin, RESET );
 80005dc:	2200      	movs	r2, #0
 80005de:	2101      	movs	r1, #1
 80005e0:	4803      	ldr	r0, [pc, #12]	; (80005f0 <LCD_Instruction+0x108>)
 80005e2:	f001 f96b 	bl	80018bc <HAL_GPIO_WritePin>
}
 80005e6:	bf00      	nop
 80005e8:	3708      	adds	r7, #8
 80005ea:	46bd      	mov	sp, r7
 80005ec:	bd80      	pop	{r7, pc}
 80005ee:	bf00      	nop
 80005f0:	48000800 	.word	0x48000800
 80005f4:	48000c00 	.word	0x48000c00
 80005f8:	48000400 	.word	0x48000400

080005fc <LCD_Init>:



void LCD_Init()
{
 80005fc:	b580      	push	{r7, lr}
 80005fe:	af00      	add	r7, sp, #0
        HAL_Delay (65);
 8000600:	2041      	movs	r0, #65	; 0x41
 8000602:	f000 fe8f 	bl	8001324 <HAL_Delay>
        HAL_GPIO_WritePin (LCD_RS_GPIO_Port, LCD_RS_Pin, RESET );
 8000606:	2200      	movs	r2, #0
 8000608:	2108      	movs	r1, #8
 800060a:	482b      	ldr	r0, [pc, #172]	; (80006b8 <LCD_Init+0xbc>)
 800060c:	f001 f956 	bl	80018bc <HAL_GPIO_WritePin>
        HAL_GPIO_WritePin (LCD_D7_GPIO_Port, LCD_D7_Pin, RESET);
 8000610:	2200      	movs	r2, #0
 8000612:	f44f 5180 	mov.w	r1, #4096	; 0x1000
 8000616:	4828      	ldr	r0, [pc, #160]	; (80006b8 <LCD_Init+0xbc>)
 8000618:	f001 f950 	bl	80018bc <HAL_GPIO_WritePin>
        HAL_GPIO_WritePin (LCD_D6_GPIO_Port, LCD_D6_Pin, RESET);
 800061c:	2200      	movs	r2, #0
 800061e:	2104      	movs	r1, #4
 8000620:	4826      	ldr	r0, [pc, #152]	; (80006bc <LCD_Init+0xc0>)
 8000622:	f001 f94b 	bl	80018bc <HAL_GPIO_WritePin>
        HAL_GPIO_WritePin (LCD_D5_GPIO_Port, LCD_D5_Pin, SET);
 8000626:	2201      	movs	r2, #1
 8000628:	f44f 6100 	mov.w	r1, #2048	; 0x800
 800062c:	4822      	ldr	r0, [pc, #136]	; (80006b8 <LCD_Init+0xbc>)
 800062e:	f001 f945 	bl	80018bc <HAL_GPIO_WritePin>
        HAL_GPIO_WritePin (LCD_D4_GPIO_Port, LCD_D4_Pin, SET);
 8000632:	2201      	movs	r2, #1
 8000634:	f44f 6180 	mov.w	r1, #1024	; 0x400
 8000638:	481f      	ldr	r0, [pc, #124]	; (80006b8 <LCD_Init+0xbc>)
 800063a:	f001 f93f 	bl	80018bc <HAL_GPIO_WritePin>
        HAL_GPIO_WritePin (LCD_D3_GPIO_Port, LCD_D3_Pin, RESET );
 800063e:	2200      	movs	r2, #0
 8000640:	2140      	movs	r1, #64	; 0x40
 8000642:	481d      	ldr	r0, [pc, #116]	; (80006b8 <LCD_Init+0xbc>)
 8000644:	f001 f93a 	bl	80018bc <HAL_GPIO_WritePin>
        HAL_GPIO_WritePin (LCD_D2_GPIO_Port, LCD_D2_Pin, RESET);
 8000648:	2200      	movs	r2, #0
 800064a:	f44f 7180 	mov.w	r1, #256	; 0x100
 800064e:	481c      	ldr	r0, [pc, #112]	; (80006c0 <LCD_Init+0xc4>)
 8000650:	f001 f934 	bl	80018bc <HAL_GPIO_WritePin>
        HAL_GPIO_WritePin (LCD_D1_GPIO_Port, LCD_D1_Pin, RESET);
 8000654:	2200      	movs	r2, #0
 8000656:	f44f 7100 	mov.w	r1, #512	; 0x200
 800065a:	4817      	ldr	r0, [pc, #92]	; (80006b8 <LCD_Init+0xbc>)
 800065c:	f001 f92e 	bl	80018bc <HAL_GPIO_WritePin>
        HAL_GPIO_WritePin (LCD_D0_GPIO_Port, LCD_D0_Pin, RESET);
 8000660:	2200      	movs	r2, #0
 8000662:	f44f 7180 	mov.w	r1, #256	; 0x100
 8000666:	4814      	ldr	r0, [pc, #80]	; (80006b8 <LCD_Init+0xbc>)
 8000668:	f001 f928 	bl	80018bc <HAL_GPIO_WritePin>

        Trigger();
 800066c:	f7ff ff28 	bl	80004c0 <Trigger>
        HAL_Delay(7);
 8000670:	2007      	movs	r0, #7
 8000672:	f000 fe57 	bl	8001324 <HAL_Delay>

        Trigger();
 8000676:	f7ff ff23 	bl	80004c0 <Trigger>
        HAL_Delay(5);
 800067a:	2005      	movs	r0, #5
 800067c:	f000 fe52 	bl	8001324 <HAL_Delay>

        Trigger();
 8000680:	f7ff ff1e 	bl	80004c0 <Trigger>
        HAL_Delay(2);
 8000684:	2002      	movs	r0, #2
 8000686:	f000 fe4d 	bl	8001324 <HAL_Delay>
        LCD_Instruction (0b00110000, 0);
 800068a:	2100      	movs	r1, #0
 800068c:	2030      	movs	r0, #48	; 0x30
 800068e:	f7ff ff2b 	bl	80004e8 <LCD_Instruction>

        LCD_Instruction (0b00110000, 0);
 8000692:	2100      	movs	r1, #0
 8000694:	2030      	movs	r0, #48	; 0x30
 8000696:	f7ff ff27 	bl	80004e8 <LCD_Instruction>
        LCD_Instruction (0b00001000, 0);
 800069a:	2100      	movs	r1, #0
 800069c:	2008      	movs	r0, #8
 800069e:	f7ff ff23 	bl	80004e8 <LCD_Instruction>
        LCD_Instruction (0b00000001, 0);
 80006a2:	2100      	movs	r1, #0
 80006a4:	2001      	movs	r0, #1
 80006a6:	f7ff ff1f 	bl	80004e8 <LCD_Instruction>
        LCD_Instruction (0b00000110, 0);
 80006aa:	2100      	movs	r1, #0
 80006ac:	2006      	movs	r0, #6
 80006ae:	f7ff ff1b 	bl	80004e8 <LCD_Instruction>
}
 80006b2:	bf00      	nop
 80006b4:	bd80      	pop	{r7, pc}
 80006b6:	bf00      	nop
 80006b8:	48000800 	.word	0x48000800
 80006bc:	48000c00 	.word	0x48000c00
 80006c0:	48000400 	.word	0x48000400

080006c4 <letter>:


void letter(char c){
 80006c4:	b580      	push	{r7, lr}
 80006c6:	b082      	sub	sp, #8
 80006c8:	af00      	add	r7, sp, #0
 80006ca:	4603      	mov	r3, r0
 80006cc:	71fb      	strb	r3, [r7, #7]
	LCD_Instruction (c, 1);
 80006ce:	79fb      	ldrb	r3, [r7, #7]
 80006d0:	2101      	movs	r1, #1
 80006d2:	4618      	mov	r0, r3
 80006d4:	f7ff ff08 	bl	80004e8 <LCD_Instruction>
	HAL_Delay(50);
 80006d8:	2032      	movs	r0, #50	; 0x32
 80006da:	f000 fe23 	bl	8001324 <HAL_Delay>
}
 80006de:	bf00      	nop
 80006e0:	3708      	adds	r7, #8
 80006e2:	46bd      	mov	sp, r7
 80006e4:	bd80      	pop	{r7, pc}

080006e6 <word>:

void word(char* text){
 80006e6:	b580      	push	{r7, lr}
 80006e8:	b082      	sub	sp, #8
 80006ea:	af00      	add	r7, sp, #0
 80006ec:	6078      	str	r0, [r7, #4]
	while(*text){
 80006ee:	e009      	b.n	8000704 <word+0x1e>
		letter(*text++);
 80006f0:	687b      	ldr	r3, [r7, #4]
 80006f2:	1c5a      	adds	r2, r3, #1
 80006f4:	607a      	str	r2, [r7, #4]
 80006f6:	781b      	ldrb	r3, [r3, #0]
 80006f8:	4618      	mov	r0, r3
 80006fa:	f7ff ffe3 	bl	80006c4 <letter>
		HAL_Delay(50);
 80006fe:	2032      	movs	r0, #50	; 0x32
 8000700:	f000 fe10 	bl	8001324 <HAL_Delay>
	while(*text){
 8000704:	687b      	ldr	r3, [r7, #4]
 8000706:	781b      	ldrb	r3, [r3, #0]
 8000708:	2b00      	cmp	r3, #0
 800070a:	d1f1      	bne.n	80006f0 <word+0xa>
}
}
 800070c:	bf00      	nop
 800070e:	bf00      	nop
 8000710:	3708      	adds	r7, #8
 8000712:	46bd      	mov	sp, r7
 8000714:	bd80      	pop	{r7, pc}
	...

08000718 <alphanum>:




char alphanum()
{
 8000718:	b580      	push	{r7, lr}
 800071a:	b086      	sub	sp, #24
 800071c:	af00      	add	r7, sp, #0
	int flag=1;
 800071e:	2301      	movs	r3, #1
 8000720:	617b      	str	r3, [r7, #20]
	int flaga1=1;
 8000722:	2301      	movs	r3, #1
 8000724:	60fb      	str	r3, [r7, #12]
	int flaga2=1;
 8000726:	2301      	movs	r3, #1
 8000728:	60bb      	str	r3, [r7, #8]
	int32_t tick2;
	int32_t tick1=HAL_GetTick();
 800072a:	f000 fdef 	bl	800130c <HAL_GetTick>
 800072e:	4603      	mov	r3, r0
 8000730:	607b      	str	r3, [r7, #4]
	char symbol;

while(flag){
 8000732:	e2fd      	b.n	8000d30 <alphanum+0x618>
HAL_GPIO_WritePin (KEY_R1_GPIO_Port,KEY_R1_Pin, RESET);
 8000734:	2200      	movs	r2, #0
 8000736:	2140      	movs	r1, #64	; 0x40
 8000738:	f04f 4090 	mov.w	r0, #1207959552	; 0x48000000
 800073c:	f001 f8be 	bl	80018bc <HAL_GPIO_WritePin>
HAL_GPIO_WritePin (KEY_R2_GPIO_Port,KEY_R2_Pin, SET);
 8000740:	2201      	movs	r2, #1
 8000742:	2180      	movs	r1, #128	; 0x80
 8000744:	f04f 4090 	mov.w	r0, #1207959552	; 0x48000000
 8000748:	f001 f8b8 	bl	80018bc <HAL_GPIO_WritePin>
HAL_GPIO_WritePin (KEY_R3_GPIO_Port,KEY_R3_Pin, SET);
 800074c:	2201      	movs	r2, #1
 800074e:	2140      	movs	r1, #64	; 0x40
 8000750:	48dd      	ldr	r0, [pc, #884]	; (8000ac8 <alphanum+0x3b0>)
 8000752:	f001 f8b3 	bl	80018bc <HAL_GPIO_WritePin>
HAL_GPIO_WritePin (KEY_R4_GPIO_Port,KEY_R4_Pin, SET);
 8000756:	2201      	movs	r2, #1
 8000758:	2180      	movs	r1, #128	; 0x80
 800075a:	48dc      	ldr	r0, [pc, #880]	; (8000acc <alphanum+0x3b4>)
 800075c:	f001 f8ae 	bl	80018bc <HAL_GPIO_WritePin>


if(HAL_GPIO_ReadPin(KEY_C2_GPIO_Port, KEY_C2_Pin)==0)
 8000760:	f44f 7180 	mov.w	r1, #256	; 0x100
 8000764:	f04f 4090 	mov.w	r0, #1207959552	; 0x48000000
 8000768:	f001 f890 	bl	800188c <HAL_GPIO_ReadPin>
 800076c:	4603      	mov	r3, r0
 800076e:	2b00      	cmp	r3, #0
 8000770:	d149      	bne.n	8000806 <alphanum+0xee>
	{

		symbol='a';
 8000772:	2361      	movs	r3, #97	; 0x61
 8000774:	74fb      	strb	r3, [r7, #19]
		HAL_Delay(50);
 8000776:	2032      	movs	r0, #50	; 0x32
 8000778:	f000 fdd4 	bl	8001324 <HAL_Delay>
		LCD_Instruction (0b00000001, 0);
 800077c:	2100      	movs	r1, #0
 800077e:	2001      	movs	r0, #1
 8000780:	f7ff feb2 	bl	80004e8 <LCD_Instruction>

		LCD_Instruction (symbol, 1);
 8000784:	7cfb      	ldrb	r3, [r7, #19]
 8000786:	2101      	movs	r1, #1
 8000788:	4618      	mov	r0, r3
 800078a:	f7ff fead 	bl	80004e8 <LCD_Instruction>
		HAL_Delay(1000);
 800078e:	f44f 707a 	mov.w	r0, #1000	; 0x3e8
 8000792:	f000 fdc7 	bl	8001324 <HAL_Delay>
		if(HAL_GPIO_ReadPin(KEY_C2_GPIO_Port, KEY_C2_Pin)==0)
 8000796:	f44f 7180 	mov.w	r1, #256	; 0x100
 800079a:	f04f 4090 	mov.w	r0, #1207959552	; 0x48000000
 800079e:	f001 f875 	bl	800188c <HAL_GPIO_ReadPin>
 80007a2:	4603      	mov	r3, r0
 80007a4:	2b00      	cmp	r3, #0
 80007a6:	d12c      	bne.n	8000802 <alphanum+0xea>
		{
			symbol='b';
 80007a8:	2362      	movs	r3, #98	; 0x62
 80007aa:	74fb      	strb	r3, [r7, #19]
			HAL_Delay(50);
 80007ac:	2032      	movs	r0, #50	; 0x32
 80007ae:	f000 fdb9 	bl	8001324 <HAL_Delay>
			LCD_Instruction (0b00000001, 0);
 80007b2:	2100      	movs	r1, #0
 80007b4:	2001      	movs	r0, #1
 80007b6:	f7ff fe97 	bl	80004e8 <LCD_Instruction>
			LCD_Instruction (symbol, 1);
 80007ba:	7cfb      	ldrb	r3, [r7, #19]
 80007bc:	2101      	movs	r1, #1
 80007be:	4618      	mov	r0, r3
 80007c0:	f7ff fe92 	bl	80004e8 <LCD_Instruction>
			HAL_Delay(1000);
 80007c4:	f44f 707a 	mov.w	r0, #1000	; 0x3e8
 80007c8:	f000 fdac 	bl	8001324 <HAL_Delay>

			if(HAL_GPIO_ReadPin(KEY_C2_GPIO_Port, KEY_C2_Pin)==0){
 80007cc:	f44f 7180 	mov.w	r1, #256	; 0x100
 80007d0:	f04f 4090 	mov.w	r0, #1207959552	; 0x48000000
 80007d4:	f001 f85a 	bl	800188c <HAL_GPIO_ReadPin>
 80007d8:	4603      	mov	r3, r0
 80007da:	2b00      	cmp	r3, #0
 80007dc:	d111      	bne.n	8000802 <alphanum+0xea>
				symbol='c';
 80007de:	2363      	movs	r3, #99	; 0x63
 80007e0:	74fb      	strb	r3, [r7, #19]
				HAL_Delay(50);
 80007e2:	2032      	movs	r0, #50	; 0x32
 80007e4:	f000 fd9e 	bl	8001324 <HAL_Delay>
				LCD_Instruction (0b00000001, 0);
 80007e8:	2100      	movs	r1, #0
 80007ea:	2001      	movs	r0, #1
 80007ec:	f7ff fe7c 	bl	80004e8 <LCD_Instruction>
				LCD_Instruction (symbol, 1);
 80007f0:	7cfb      	ldrb	r3, [r7, #19]
 80007f2:	2101      	movs	r1, #1
 80007f4:	4618      	mov	r0, r3
 80007f6:	f7ff fe77 	bl	80004e8 <LCD_Instruction>
				HAL_Delay(1000);
 80007fa:	f44f 707a 	mov.w	r0, #1000	; 0x3e8
 80007fe:	f000 fd91 	bl	8001324 <HAL_Delay>

			}

		}
		flag=0;
 8000802:	2300      	movs	r3, #0
 8000804:	617b      	str	r3, [r7, #20]
	}

if(HAL_GPIO_ReadPin(KEY_C3_GPIO_Port, KEY_C3_Pin)==0)
 8000806:	f44f 6180 	mov.w	r1, #1024	; 0x400
 800080a:	48af      	ldr	r0, [pc, #700]	; (8000ac8 <alphanum+0x3b0>)
 800080c:	f001 f83e 	bl	800188c <HAL_GPIO_ReadPin>
 8000810:	4603      	mov	r3, r0
 8000812:	2b00      	cmp	r3, #0
 8000814:	d147      	bne.n	80008a6 <alphanum+0x18e>
{


	symbol='d';HAL_Delay(50);
 8000816:	2364      	movs	r3, #100	; 0x64
 8000818:	74fb      	strb	r3, [r7, #19]
 800081a:	2032      	movs	r0, #50	; 0x32
 800081c:	f000 fd82 	bl	8001324 <HAL_Delay>
	LCD_Instruction (0b00000001, 0);
 8000820:	2100      	movs	r1, #0
 8000822:	2001      	movs	r0, #1
 8000824:	f7ff fe60 	bl	80004e8 <LCD_Instruction>

	LCD_Instruction (symbol, 1);
 8000828:	7cfb      	ldrb	r3, [r7, #19]
 800082a:	2101      	movs	r1, #1
 800082c:	4618      	mov	r0, r3
 800082e:	f7ff fe5b 	bl	80004e8 <LCD_Instruction>
	HAL_Delay(1000);
 8000832:	f44f 707a 	mov.w	r0, #1000	; 0x3e8
 8000836:	f000 fd75 	bl	8001324 <HAL_Delay>
	if(HAL_GPIO_ReadPin(KEY_C3_GPIO_Port, KEY_C3_Pin)==0)
 800083a:	f44f 6180 	mov.w	r1, #1024	; 0x400
 800083e:	48a2      	ldr	r0, [pc, #648]	; (8000ac8 <alphanum+0x3b0>)
 8000840:	f001 f824 	bl	800188c <HAL_GPIO_ReadPin>
 8000844:	4603      	mov	r3, r0
 8000846:	2b00      	cmp	r3, #0
 8000848:	d12b      	bne.n	80008a2 <alphanum+0x18a>
	{
		symbol='e';
 800084a:	2365      	movs	r3, #101	; 0x65
 800084c:	74fb      	strb	r3, [r7, #19]
		HAL_Delay(50);
 800084e:	2032      	movs	r0, #50	; 0x32
 8000850:	f000 fd68 	bl	8001324 <HAL_Delay>
		LCD_Instruction (0b00000001, 0);
 8000854:	2100      	movs	r1, #0
 8000856:	2001      	movs	r0, #1
 8000858:	f7ff fe46 	bl	80004e8 <LCD_Instruction>
		LCD_Instruction (symbol, 1);
 800085c:	7cfb      	ldrb	r3, [r7, #19]
 800085e:	2101      	movs	r1, #1
 8000860:	4618      	mov	r0, r3
 8000862:	f7ff fe41 	bl	80004e8 <LCD_Instruction>
		HAL_Delay(1000);
 8000866:	f44f 707a 	mov.w	r0, #1000	; 0x3e8
 800086a:	f000 fd5b 	bl	8001324 <HAL_Delay>

		if(HAL_GPIO_ReadPin(KEY_C3_GPIO_Port, KEY_C3_Pin)==0){
 800086e:	f44f 6180 	mov.w	r1, #1024	; 0x400
 8000872:	4895      	ldr	r0, [pc, #596]	; (8000ac8 <alphanum+0x3b0>)
 8000874:	f001 f80a 	bl	800188c <HAL_GPIO_ReadPin>
 8000878:	4603      	mov	r3, r0
 800087a:	2b00      	cmp	r3, #0
 800087c:	d111      	bne.n	80008a2 <alphanum+0x18a>
			symbol='f';
 800087e:	2366      	movs	r3, #102	; 0x66
 8000880:	74fb      	strb	r3, [r7, #19]
			HAL_Delay(50);
 8000882:	2032      	movs	r0, #50	; 0x32
 8000884:	f000 fd4e 	bl	8001324 <HAL_Delay>
			LCD_Instruction (0b00000001, 0);
 8000888:	2100      	movs	r1, #0
 800088a:	2001      	movs	r0, #1
 800088c:	f7ff fe2c 	bl	80004e8 <LCD_Instruction>
			LCD_Instruction (symbol, 1);
 8000890:	7cfb      	ldrb	r3, [r7, #19]
 8000892:	2101      	movs	r1, #1
 8000894:	4618      	mov	r0, r3
 8000896:	f7ff fe27 	bl	80004e8 <LCD_Instruction>
			HAL_Delay(1000);
 800089a:	f44f 707a 	mov.w	r0, #1000	; 0x3e8
 800089e:	f000 fd41 	bl	8001324 <HAL_Delay>

		}

	}
	flag=0;
 80008a2:	2300      	movs	r3, #0
 80008a4:	617b      	str	r3, [r7, #20]
}



HAL_GPIO_WritePin (KEY_R1_GPIO_Port,KEY_R1_Pin, SET);
 80008a6:	2201      	movs	r2, #1
 80008a8:	2140      	movs	r1, #64	; 0x40
 80008aa:	f04f 4090 	mov.w	r0, #1207959552	; 0x48000000
 80008ae:	f001 f805 	bl	80018bc <HAL_GPIO_WritePin>
HAL_GPIO_WritePin (KEY_R2_GPIO_Port,KEY_R2_Pin, RESET);
 80008b2:	2200      	movs	r2, #0
 80008b4:	2180      	movs	r1, #128	; 0x80
 80008b6:	f04f 4090 	mov.w	r0, #1207959552	; 0x48000000
 80008ba:	f000 ffff 	bl	80018bc <HAL_GPIO_WritePin>
HAL_GPIO_WritePin (KEY_R3_GPIO_Port,KEY_R3_Pin, SET);
 80008be:	2201      	movs	r2, #1
 80008c0:	2140      	movs	r1, #64	; 0x40
 80008c2:	4881      	ldr	r0, [pc, #516]	; (8000ac8 <alphanum+0x3b0>)
 80008c4:	f000 fffa 	bl	80018bc <HAL_GPIO_WritePin>
HAL_GPIO_WritePin (KEY_R4_GPIO_Port,KEY_R4_Pin, SET);
 80008c8:	2201      	movs	r2, #1
 80008ca:	2180      	movs	r1, #128	; 0x80
 80008cc:	487f      	ldr	r0, [pc, #508]	; (8000acc <alphanum+0x3b4>)
 80008ce:	f000 fff5 	bl	80018bc <HAL_GPIO_WritePin>

if(HAL_GPIO_ReadPin(KEY_C1_GPIO_Port, KEY_C1_Pin)==0)
 80008d2:	f44f 7100 	mov.w	r1, #512	; 0x200
 80008d6:	f04f 4090 	mov.w	r0, #1207959552	; 0x48000000
 80008da:	f000 ffd7 	bl	800188c <HAL_GPIO_ReadPin>
 80008de:	4603      	mov	r3, r0
 80008e0:	2b00      	cmp	r3, #0
 80008e2:	d140      	bne.n	8000966 <alphanum+0x24e>
	{
		symbol='g';		LCD_Instruction (0b00000001, 0);
 80008e4:	2367      	movs	r3, #103	; 0x67
 80008e6:	74fb      	strb	r3, [r7, #19]
 80008e8:	2100      	movs	r1, #0
 80008ea:	2001      	movs	r0, #1
 80008ec:	f7ff fdfc 	bl	80004e8 <LCD_Instruction>
		LCD_Instruction (symbol, 1);
 80008f0:	7cfb      	ldrb	r3, [r7, #19]
 80008f2:	2101      	movs	r1, #1
 80008f4:	4618      	mov	r0, r3
 80008f6:	f7ff fdf7 	bl	80004e8 <LCD_Instruction>
		HAL_Delay(1000);
 80008fa:	f44f 707a 	mov.w	r0, #1000	; 0x3e8
 80008fe:	f000 fd11 	bl	8001324 <HAL_Delay>
		if(HAL_GPIO_ReadPin(KEY_C1_GPIO_Port, KEY_C1_Pin)==0){
 8000902:	f44f 7100 	mov.w	r1, #512	; 0x200
 8000906:	f04f 4090 	mov.w	r0, #1207959552	; 0x48000000
 800090a:	f000 ffbf 	bl	800188c <HAL_GPIO_ReadPin>
 800090e:	4603      	mov	r3, r0
 8000910:	2b00      	cmp	r3, #0
 8000912:	d126      	bne.n	8000962 <alphanum+0x24a>
			symbol='h';		LCD_Instruction (0b00000001, 0);
 8000914:	2368      	movs	r3, #104	; 0x68
 8000916:	74fb      	strb	r3, [r7, #19]
 8000918:	2100      	movs	r1, #0
 800091a:	2001      	movs	r0, #1
 800091c:	f7ff fde4 	bl	80004e8 <LCD_Instruction>
			LCD_Instruction (symbol, 1);
 8000920:	7cfb      	ldrb	r3, [r7, #19]
 8000922:	2101      	movs	r1, #1
 8000924:	4618      	mov	r0, r3
 8000926:	f7ff fddf 	bl	80004e8 <LCD_Instruction>
			HAL_Delay(1000);
 800092a:	f44f 707a 	mov.w	r0, #1000	; 0x3e8
 800092e:	f000 fcf9 	bl	8001324 <HAL_Delay>
			if(HAL_GPIO_ReadPin(KEY_C1_GPIO_Port, KEY_C1_Pin)==0){
 8000932:	f44f 7100 	mov.w	r1, #512	; 0x200
 8000936:	f04f 4090 	mov.w	r0, #1207959552	; 0x48000000
 800093a:	f000 ffa7 	bl	800188c <HAL_GPIO_ReadPin>
 800093e:	4603      	mov	r3, r0
 8000940:	2b00      	cmp	r3, #0
 8000942:	d10e      	bne.n	8000962 <alphanum+0x24a>
				symbol='i';		LCD_Instruction (0b00000001, 0);
 8000944:	2369      	movs	r3, #105	; 0x69
 8000946:	74fb      	strb	r3, [r7, #19]
 8000948:	2100      	movs	r1, #0
 800094a:	2001      	movs	r0, #1
 800094c:	f7ff fdcc 	bl	80004e8 <LCD_Instruction>
				LCD_Instruction (symbol, 1);
 8000950:	7cfb      	ldrb	r3, [r7, #19]
 8000952:	2101      	movs	r1, #1
 8000954:	4618      	mov	r0, r3
 8000956:	f7ff fdc7 	bl	80004e8 <LCD_Instruction>
				HAL_Delay(1000);
 800095a:	f44f 707a 	mov.w	r0, #1000	; 0x3e8
 800095e:	f000 fce1 	bl	8001324 <HAL_Delay>
			}

		}
		flag=0;
 8000962:	2300      	movs	r3, #0
 8000964:	617b      	str	r3, [r7, #20]
	}




if(HAL_GPIO_ReadPin(KEY_C2_GPIO_Port, KEY_C2_Pin)==0)
 8000966:	f44f 7180 	mov.w	r1, #256	; 0x100
 800096a:	f04f 4090 	mov.w	r0, #1207959552	; 0x48000000
 800096e:	f000 ff8d 	bl	800188c <HAL_GPIO_ReadPin>
 8000972:	4603      	mov	r3, r0
 8000974:	2b00      	cmp	r3, #0
 8000976:	d140      	bne.n	80009fa <alphanum+0x2e2>
	{
		symbol='j';		LCD_Instruction (0b00000001, 0);
 8000978:	236a      	movs	r3, #106	; 0x6a
 800097a:	74fb      	strb	r3, [r7, #19]
 800097c:	2100      	movs	r1, #0
 800097e:	2001      	movs	r0, #1
 8000980:	f7ff fdb2 	bl	80004e8 <LCD_Instruction>
		LCD_Instruction (symbol, 1);
 8000984:	7cfb      	ldrb	r3, [r7, #19]
 8000986:	2101      	movs	r1, #1
 8000988:	4618      	mov	r0, r3
 800098a:	f7ff fdad 	bl	80004e8 <LCD_Instruction>
		HAL_Delay(1000);
 800098e:	f44f 707a 	mov.w	r0, #1000	; 0x3e8
 8000992:	f000 fcc7 	bl	8001324 <HAL_Delay>
		if(HAL_GPIO_ReadPin(KEY_C2_GPIO_Port, KEY_C2_Pin)==0){
 8000996:	f44f 7180 	mov.w	r1, #256	; 0x100
 800099a:	f04f 4090 	mov.w	r0, #1207959552	; 0x48000000
 800099e:	f000 ff75 	bl	800188c <HAL_GPIO_ReadPin>
 80009a2:	4603      	mov	r3, r0
 80009a4:	2b00      	cmp	r3, #0
 80009a6:	d126      	bne.n	80009f6 <alphanum+0x2de>
			symbol='k';		LCD_Instruction (0b00000001, 0);
 80009a8:	236b      	movs	r3, #107	; 0x6b
 80009aa:	74fb      	strb	r3, [r7, #19]
 80009ac:	2100      	movs	r1, #0
 80009ae:	2001      	movs	r0, #1
 80009b0:	f7ff fd9a 	bl	80004e8 <LCD_Instruction>
			LCD_Instruction (symbol, 1);
 80009b4:	7cfb      	ldrb	r3, [r7, #19]
 80009b6:	2101      	movs	r1, #1
 80009b8:	4618      	mov	r0, r3
 80009ba:	f7ff fd95 	bl	80004e8 <LCD_Instruction>
			HAL_Delay(1000);
 80009be:	f44f 707a 	mov.w	r0, #1000	; 0x3e8
 80009c2:	f000 fcaf 	bl	8001324 <HAL_Delay>
			if(HAL_GPIO_ReadPin(KEY_C2_GPIO_Port, KEY_C2_Pin)==0){
 80009c6:	f44f 7180 	mov.w	r1, #256	; 0x100
 80009ca:	f04f 4090 	mov.w	r0, #1207959552	; 0x48000000
 80009ce:	f000 ff5d 	bl	800188c <HAL_GPIO_ReadPin>
 80009d2:	4603      	mov	r3, r0
 80009d4:	2b00      	cmp	r3, #0
 80009d6:	d10e      	bne.n	80009f6 <alphanum+0x2de>
				symbol='l';		LCD_Instruction (0b00000001, 0);
 80009d8:	236c      	movs	r3, #108	; 0x6c
 80009da:	74fb      	strb	r3, [r7, #19]
 80009dc:	2100      	movs	r1, #0
 80009de:	2001      	movs	r0, #1
 80009e0:	f7ff fd82 	bl	80004e8 <LCD_Instruction>
				LCD_Instruction (symbol, 1);
 80009e4:	7cfb      	ldrb	r3, [r7, #19]
 80009e6:	2101      	movs	r1, #1
 80009e8:	4618      	mov	r0, r3
 80009ea:	f7ff fd7d 	bl	80004e8 <LCD_Instruction>
				HAL_Delay(1000);
 80009ee:	f44f 707a 	mov.w	r0, #1000	; 0x3e8
 80009f2:	f000 fc97 	bl	8001324 <HAL_Delay>
			}

		}
		flag=0;
 80009f6:	2300      	movs	r3, #0
 80009f8:	617b      	str	r3, [r7, #20]
	}


if(HAL_GPIO_ReadPin(KEY_C3_GPIO_Port, KEY_C3_Pin)==0)
 80009fa:	f44f 6180 	mov.w	r1, #1024	; 0x400
 80009fe:	4832      	ldr	r0, [pc, #200]	; (8000ac8 <alphanum+0x3b0>)
 8000a00:	f000 ff44 	bl	800188c <HAL_GPIO_ReadPin>
 8000a04:	4603      	mov	r3, r0
 8000a06:	2b00      	cmp	r3, #0
 8000a08:	d13e      	bne.n	8000a88 <alphanum+0x370>
	{
		symbol='m';		LCD_Instruction (0b00000001, 0);
 8000a0a:	236d      	movs	r3, #109	; 0x6d
 8000a0c:	74fb      	strb	r3, [r7, #19]
 8000a0e:	2100      	movs	r1, #0
 8000a10:	2001      	movs	r0, #1
 8000a12:	f7ff fd69 	bl	80004e8 <LCD_Instruction>
		LCD_Instruction (symbol, 1);
 8000a16:	7cfb      	ldrb	r3, [r7, #19]
 8000a18:	2101      	movs	r1, #1
 8000a1a:	4618      	mov	r0, r3
 8000a1c:	f7ff fd64 	bl	80004e8 <LCD_Instruction>
		HAL_Delay(1000);
 8000a20:	f44f 707a 	mov.w	r0, #1000	; 0x3e8
 8000a24:	f000 fc7e 	bl	8001324 <HAL_Delay>
		if(HAL_GPIO_ReadPin(KEY_C3_GPIO_Port, KEY_C3_Pin)==0){
 8000a28:	f44f 6180 	mov.w	r1, #1024	; 0x400
 8000a2c:	4826      	ldr	r0, [pc, #152]	; (8000ac8 <alphanum+0x3b0>)
 8000a2e:	f000 ff2d 	bl	800188c <HAL_GPIO_ReadPin>
 8000a32:	4603      	mov	r3, r0
 8000a34:	2b00      	cmp	r3, #0
 8000a36:	d125      	bne.n	8000a84 <alphanum+0x36c>
			symbol='n';		LCD_Instruction (0b00000001, 0);
 8000a38:	236e      	movs	r3, #110	; 0x6e
 8000a3a:	74fb      	strb	r3, [r7, #19]
 8000a3c:	2100      	movs	r1, #0
 8000a3e:	2001      	movs	r0, #1
 8000a40:	f7ff fd52 	bl	80004e8 <LCD_Instruction>
			LCD_Instruction (symbol, 1);
 8000a44:	7cfb      	ldrb	r3, [r7, #19]
 8000a46:	2101      	movs	r1, #1
 8000a48:	4618      	mov	r0, r3
 8000a4a:	f7ff fd4d 	bl	80004e8 <LCD_Instruction>
			HAL_Delay(1000);
 8000a4e:	f44f 707a 	mov.w	r0, #1000	; 0x3e8
 8000a52:	f000 fc67 	bl	8001324 <HAL_Delay>
			if(HAL_GPIO_ReadPin(KEY_C3_GPIO_Port, KEY_C3_Pin)==0){
 8000a56:	f44f 6180 	mov.w	r1, #1024	; 0x400
 8000a5a:	481b      	ldr	r0, [pc, #108]	; (8000ac8 <alphanum+0x3b0>)
 8000a5c:	f000 ff16 	bl	800188c <HAL_GPIO_ReadPin>
 8000a60:	4603      	mov	r3, r0
 8000a62:	2b00      	cmp	r3, #0
 8000a64:	d10e      	bne.n	8000a84 <alphanum+0x36c>
				symbol='o';		LCD_Instruction (0b00000001, 0);
 8000a66:	236f      	movs	r3, #111	; 0x6f
 8000a68:	74fb      	strb	r3, [r7, #19]
 8000a6a:	2100      	movs	r1, #0
 8000a6c:	2001      	movs	r0, #1
 8000a6e:	f7ff fd3b 	bl	80004e8 <LCD_Instruction>
				LCD_Instruction (symbol, 1);
 8000a72:	7cfb      	ldrb	r3, [r7, #19]
 8000a74:	2101      	movs	r1, #1
 8000a76:	4618      	mov	r0, r3
 8000a78:	f7ff fd36 	bl	80004e8 <LCD_Instruction>
				HAL_Delay(1000);
 8000a7c:	f44f 707a 	mov.w	r0, #1000	; 0x3e8
 8000a80:	f000 fc50 	bl	8001324 <HAL_Delay>
			}

		}
		flag=0;
 8000a84:	2300      	movs	r3, #0
 8000a86:	617b      	str	r3, [r7, #20]
	}



HAL_GPIO_WritePin (KEY_R1_GPIO_Port,KEY_R1_Pin, SET);
 8000a88:	2201      	movs	r2, #1
 8000a8a:	2140      	movs	r1, #64	; 0x40
 8000a8c:	f04f 4090 	mov.w	r0, #1207959552	; 0x48000000
 8000a90:	f000 ff14 	bl	80018bc <HAL_GPIO_WritePin>
HAL_GPIO_WritePin (KEY_R2_GPIO_Port,KEY_R2_Pin, SET);
 8000a94:	2201      	movs	r2, #1
 8000a96:	2180      	movs	r1, #128	; 0x80
 8000a98:	f04f 4090 	mov.w	r0, #1207959552	; 0x48000000
 8000a9c:	f000 ff0e 	bl	80018bc <HAL_GPIO_WritePin>
HAL_GPIO_WritePin (KEY_R3_GPIO_Port,KEY_R3_Pin, RESET);
 8000aa0:	2200      	movs	r2, #0
 8000aa2:	2140      	movs	r1, #64	; 0x40
 8000aa4:	4808      	ldr	r0, [pc, #32]	; (8000ac8 <alphanum+0x3b0>)
 8000aa6:	f000 ff09 	bl	80018bc <HAL_GPIO_WritePin>
HAL_GPIO_WritePin (KEY_R4_GPIO_Port,KEY_R4_Pin, SET);
 8000aaa:	2201      	movs	r2, #1
 8000aac:	2180      	movs	r1, #128	; 0x80
 8000aae:	4807      	ldr	r0, [pc, #28]	; (8000acc <alphanum+0x3b4>)
 8000ab0:	f000 ff04 	bl	80018bc <HAL_GPIO_WritePin>

if(HAL_GPIO_ReadPin(KEY_C1_GPIO_Port, KEY_C1_Pin)==0)
 8000ab4:	f44f 7100 	mov.w	r1, #512	; 0x200
 8000ab8:	f04f 4090 	mov.w	r0, #1207959552	; 0x48000000
 8000abc:	f000 fee6 	bl	800188c <HAL_GPIO_ReadPin>
 8000ac0:	4603      	mov	r3, r0
 8000ac2:	2b00      	cmp	r3, #0
 8000ac4:	d15d      	bne.n	8000b82 <alphanum+0x46a>
 8000ac6:	e003      	b.n	8000ad0 <alphanum+0x3b8>
 8000ac8:	48000400 	.word	0x48000400
 8000acc:	48000800 	.word	0x48000800
	{
		symbol='p';		LCD_Instruction (0b00000001, 0);
 8000ad0:	2370      	movs	r3, #112	; 0x70
 8000ad2:	74fb      	strb	r3, [r7, #19]
 8000ad4:	2100      	movs	r1, #0
 8000ad6:	2001      	movs	r0, #1
 8000ad8:	f7ff fd06 	bl	80004e8 <LCD_Instruction>
		LCD_Instruction (symbol, 1);
 8000adc:	7cfb      	ldrb	r3, [r7, #19]
 8000ade:	2101      	movs	r1, #1
 8000ae0:	4618      	mov	r0, r3
 8000ae2:	f7ff fd01 	bl	80004e8 <LCD_Instruction>
		HAL_Delay(1000);
 8000ae6:	f44f 707a 	mov.w	r0, #1000	; 0x3e8
 8000aea:	f000 fc1b 	bl	8001324 <HAL_Delay>
		if(HAL_GPIO_ReadPin(KEY_C1_GPIO_Port, KEY_C1_Pin)==0){
 8000aee:	f44f 7100 	mov.w	r1, #512	; 0x200
 8000af2:	f04f 4090 	mov.w	r0, #1207959552	; 0x48000000
 8000af6:	f000 fec9 	bl	800188c <HAL_GPIO_ReadPin>
 8000afa:	4603      	mov	r3, r0
 8000afc:	2b00      	cmp	r3, #0
 8000afe:	d13e      	bne.n	8000b7e <alphanum+0x466>
			symbol='q';		LCD_Instruction (0b00000001, 0);
 8000b00:	2371      	movs	r3, #113	; 0x71
 8000b02:	74fb      	strb	r3, [r7, #19]
 8000b04:	2100      	movs	r1, #0
 8000b06:	2001      	movs	r0, #1
 8000b08:	f7ff fcee 	bl	80004e8 <LCD_Instruction>
			LCD_Instruction (symbol, 1);
 8000b0c:	7cfb      	ldrb	r3, [r7, #19]
 8000b0e:	2101      	movs	r1, #1
 8000b10:	4618      	mov	r0, r3
 8000b12:	f7ff fce9 	bl	80004e8 <LCD_Instruction>
			HAL_Delay(1000);
 8000b16:	f44f 707a 	mov.w	r0, #1000	; 0x3e8
 8000b1a:	f000 fc03 	bl	8001324 <HAL_Delay>
			if(HAL_GPIO_ReadPin(KEY_C1_GPIO_Port, KEY_C1_Pin)==0){
 8000b1e:	f44f 7100 	mov.w	r1, #512	; 0x200
 8000b22:	f04f 4090 	mov.w	r0, #1207959552	; 0x48000000
 8000b26:	f000 feb1 	bl	800188c <HAL_GPIO_ReadPin>
 8000b2a:	4603      	mov	r3, r0
 8000b2c:	2b00      	cmp	r3, #0
 8000b2e:	d126      	bne.n	8000b7e <alphanum+0x466>
				symbol='r';		LCD_Instruction (0b00000001, 0);
 8000b30:	2372      	movs	r3, #114	; 0x72
 8000b32:	74fb      	strb	r3, [r7, #19]
 8000b34:	2100      	movs	r1, #0
 8000b36:	2001      	movs	r0, #1
 8000b38:	f7ff fcd6 	bl	80004e8 <LCD_Instruction>
				LCD_Instruction (symbol, 1);
 8000b3c:	7cfb      	ldrb	r3, [r7, #19]
 8000b3e:	2101      	movs	r1, #1
 8000b40:	4618      	mov	r0, r3
 8000b42:	f7ff fcd1 	bl	80004e8 <LCD_Instruction>
				HAL_Delay(1000);
 8000b46:	f44f 707a 	mov.w	r0, #1000	; 0x3e8
 8000b4a:	f000 fbeb 	bl	8001324 <HAL_Delay>
				if(HAL_GPIO_ReadPin(KEY_C1_GPIO_Port, KEY_C1_Pin)==0){
 8000b4e:	f44f 7100 	mov.w	r1, #512	; 0x200
 8000b52:	f04f 4090 	mov.w	r0, #1207959552	; 0x48000000
 8000b56:	f000 fe99 	bl	800188c <HAL_GPIO_ReadPin>
 8000b5a:	4603      	mov	r3, r0
 8000b5c:	2b00      	cmp	r3, #0
 8000b5e:	d10e      	bne.n	8000b7e <alphanum+0x466>
					symbol='s';		LCD_Instruction (0b00000001, 0);
 8000b60:	2373      	movs	r3, #115	; 0x73
 8000b62:	74fb      	strb	r3, [r7, #19]
 8000b64:	2100      	movs	r1, #0
 8000b66:	2001      	movs	r0, #1
 8000b68:	f7ff fcbe 	bl	80004e8 <LCD_Instruction>
					LCD_Instruction (symbol, 1);
 8000b6c:	7cfb      	ldrb	r3, [r7, #19]
 8000b6e:	2101      	movs	r1, #1
 8000b70:	4618      	mov	r0, r3
 8000b72:	f7ff fcb9 	bl	80004e8 <LCD_Instruction>
					HAL_Delay(1000);
 8000b76:	f44f 707a 	mov.w	r0, #1000	; 0x3e8
 8000b7a:	f000 fbd3 	bl	8001324 <HAL_Delay>
				}
			}

		}
		flag=0;
 8000b7e:	2300      	movs	r3, #0
 8000b80:	617b      	str	r3, [r7, #20]
	}

if(HAL_GPIO_ReadPin(KEY_C2_GPIO_Port, KEY_C2_Pin)==0)
 8000b82:	f44f 7180 	mov.w	r1, #256	; 0x100
 8000b86:	f04f 4090 	mov.w	r0, #1207959552	; 0x48000000
 8000b8a:	f000 fe7f 	bl	800188c <HAL_GPIO_ReadPin>
 8000b8e:	4603      	mov	r3, r0
 8000b90:	2b00      	cmp	r3, #0
 8000b92:	d140      	bne.n	8000c16 <alphanum+0x4fe>
	{
		symbol='t';		LCD_Instruction (0b00000001, 0);
 8000b94:	2374      	movs	r3, #116	; 0x74
 8000b96:	74fb      	strb	r3, [r7, #19]
 8000b98:	2100      	movs	r1, #0
 8000b9a:	2001      	movs	r0, #1
 8000b9c:	f7ff fca4 	bl	80004e8 <LCD_Instruction>
		LCD_Instruction (symbol, 1);
 8000ba0:	7cfb      	ldrb	r3, [r7, #19]
 8000ba2:	2101      	movs	r1, #1
 8000ba4:	4618      	mov	r0, r3
 8000ba6:	f7ff fc9f 	bl	80004e8 <LCD_Instruction>
		HAL_Delay(1000);
 8000baa:	f44f 707a 	mov.w	r0, #1000	; 0x3e8
 8000bae:	f000 fbb9 	bl	8001324 <HAL_Delay>
		if(HAL_GPIO_ReadPin(KEY_C2_GPIO_Port, KEY_C2_Pin)==0){
 8000bb2:	f44f 7180 	mov.w	r1, #256	; 0x100
 8000bb6:	f04f 4090 	mov.w	r0, #1207959552	; 0x48000000
 8000bba:	f000 fe67 	bl	800188c <HAL_GPIO_ReadPin>
 8000bbe:	4603      	mov	r3, r0
 8000bc0:	2b00      	cmp	r3, #0
 8000bc2:	d126      	bne.n	8000c12 <alphanum+0x4fa>
			symbol='u';		LCD_Instruction (0b00000001, 0);
 8000bc4:	2375      	movs	r3, #117	; 0x75
 8000bc6:	74fb      	strb	r3, [r7, #19]
 8000bc8:	2100      	movs	r1, #0
 8000bca:	2001      	movs	r0, #1
 8000bcc:	f7ff fc8c 	bl	80004e8 <LCD_Instruction>
			LCD_Instruction (symbol, 1);
 8000bd0:	7cfb      	ldrb	r3, [r7, #19]
 8000bd2:	2101      	movs	r1, #1
 8000bd4:	4618      	mov	r0, r3
 8000bd6:	f7ff fc87 	bl	80004e8 <LCD_Instruction>
			HAL_Delay(1000);
 8000bda:	f44f 707a 	mov.w	r0, #1000	; 0x3e8
 8000bde:	f000 fba1 	bl	8001324 <HAL_Delay>
			if(HAL_GPIO_ReadPin(KEY_C2_GPIO_Port, KEY_C2_Pin)==0){
 8000be2:	f44f 7180 	mov.w	r1, #256	; 0x100
 8000be6:	f04f 4090 	mov.w	r0, #1207959552	; 0x48000000
 8000bea:	f000 fe4f 	bl	800188c <HAL_GPIO_ReadPin>
 8000bee:	4603      	mov	r3, r0
 8000bf0:	2b00      	cmp	r3, #0
 8000bf2:	d10e      	bne.n	8000c12 <alphanum+0x4fa>
				symbol='v';		LCD_Instruction (0b00000001, 0);
 8000bf4:	2376      	movs	r3, #118	; 0x76
 8000bf6:	74fb      	strb	r3, [r7, #19]
 8000bf8:	2100      	movs	r1, #0
 8000bfa:	2001      	movs	r0, #1
 8000bfc:	f7ff fc74 	bl	80004e8 <LCD_Instruction>
				LCD_Instruction (symbol, 1);
 8000c00:	7cfb      	ldrb	r3, [r7, #19]
 8000c02:	2101      	movs	r1, #1
 8000c04:	4618      	mov	r0, r3
 8000c06:	f7ff fc6f 	bl	80004e8 <LCD_Instruction>
				HAL_Delay(1000);
 8000c0a:	f44f 707a 	mov.w	r0, #1000	; 0x3e8
 8000c0e:	f000 fb89 	bl	8001324 <HAL_Delay>
			}

		}
		flag=0;
 8000c12:	2300      	movs	r3, #0
 8000c14:	617b      	str	r3, [r7, #20]
	}

if(HAL_GPIO_ReadPin(KEY_C3_GPIO_Port, KEY_C3_Pin)==0)
 8000c16:	f44f 6180 	mov.w	r1, #1024	; 0x400
 8000c1a:	484a      	ldr	r0, [pc, #296]	; (8000d44 <alphanum+0x62c>)
 8000c1c:	f000 fe36 	bl	800188c <HAL_GPIO_ReadPin>
 8000c20:	4603      	mov	r3, r0
 8000c22:	2b00      	cmp	r3, #0
 8000c24:	d155      	bne.n	8000cd2 <alphanum+0x5ba>
	{
		symbol='w';		LCD_Instruction (0b00000001, 0);
 8000c26:	2377      	movs	r3, #119	; 0x77
 8000c28:	74fb      	strb	r3, [r7, #19]
 8000c2a:	2100      	movs	r1, #0
 8000c2c:	2001      	movs	r0, #1
 8000c2e:	f7ff fc5b 	bl	80004e8 <LCD_Instruction>
		LCD_Instruction (symbol, 1);
 8000c32:	7cfb      	ldrb	r3, [r7, #19]
 8000c34:	2101      	movs	r1, #1
 8000c36:	4618      	mov	r0, r3
 8000c38:	f7ff fc56 	bl	80004e8 <LCD_Instruction>
		HAL_Delay(1000);
 8000c3c:	f44f 707a 	mov.w	r0, #1000	; 0x3e8
 8000c40:	f000 fb70 	bl	8001324 <HAL_Delay>
		if(HAL_GPIO_ReadPin(KEY_C3_GPIO_Port, KEY_C3_Pin)==0){
 8000c44:	f44f 6180 	mov.w	r1, #1024	; 0x400
 8000c48:	483e      	ldr	r0, [pc, #248]	; (8000d44 <alphanum+0x62c>)
 8000c4a:	f000 fe1f 	bl	800188c <HAL_GPIO_ReadPin>
 8000c4e:	4603      	mov	r3, r0
 8000c50:	2b00      	cmp	r3, #0
 8000c52:	d13c      	bne.n	8000cce <alphanum+0x5b6>
			symbol='x';		LCD_Instruction (0b00000001, 0);
 8000c54:	2378      	movs	r3, #120	; 0x78
 8000c56:	74fb      	strb	r3, [r7, #19]
 8000c58:	2100      	movs	r1, #0
 8000c5a:	2001      	movs	r0, #1
 8000c5c:	f7ff fc44 	bl	80004e8 <LCD_Instruction>
			LCD_Instruction (symbol, 1);
 8000c60:	7cfb      	ldrb	r3, [r7, #19]
 8000c62:	2101      	movs	r1, #1
 8000c64:	4618      	mov	r0, r3
 8000c66:	f7ff fc3f 	bl	80004e8 <LCD_Instruction>
			HAL_Delay(1000);
 8000c6a:	f44f 707a 	mov.w	r0, #1000	; 0x3e8
 8000c6e:	f000 fb59 	bl	8001324 <HAL_Delay>
			if(HAL_GPIO_ReadPin(KEY_C3_GPIO_Port, KEY_C3_Pin)==0){
 8000c72:	f44f 6180 	mov.w	r1, #1024	; 0x400
 8000c76:	4833      	ldr	r0, [pc, #204]	; (8000d44 <alphanum+0x62c>)
 8000c78:	f000 fe08 	bl	800188c <HAL_GPIO_ReadPin>
 8000c7c:	4603      	mov	r3, r0
 8000c7e:	2b00      	cmp	r3, #0
 8000c80:	d125      	bne.n	8000cce <alphanum+0x5b6>
				symbol='y';		LCD_Instruction (0b00000001, 0);
 8000c82:	2379      	movs	r3, #121	; 0x79
 8000c84:	74fb      	strb	r3, [r7, #19]
 8000c86:	2100      	movs	r1, #0
 8000c88:	2001      	movs	r0, #1
 8000c8a:	f7ff fc2d 	bl	80004e8 <LCD_Instruction>
				LCD_Instruction (symbol, 1);
 8000c8e:	7cfb      	ldrb	r3, [r7, #19]
 8000c90:	2101      	movs	r1, #1
 8000c92:	4618      	mov	r0, r3
 8000c94:	f7ff fc28 	bl	80004e8 <LCD_Instruction>
				HAL_Delay(1000);
 8000c98:	f44f 707a 	mov.w	r0, #1000	; 0x3e8
 8000c9c:	f000 fb42 	bl	8001324 <HAL_Delay>
				if(HAL_GPIO_ReadPin(KEY_C3_GPIO_Port, KEY_C3_Pin)==0){
 8000ca0:	f44f 6180 	mov.w	r1, #1024	; 0x400
 8000ca4:	4827      	ldr	r0, [pc, #156]	; (8000d44 <alphanum+0x62c>)
 8000ca6:	f000 fdf1 	bl	800188c <HAL_GPIO_ReadPin>
 8000caa:	4603      	mov	r3, r0
 8000cac:	2b00      	cmp	r3, #0
 8000cae:	d10e      	bne.n	8000cce <alphanum+0x5b6>
					symbol='z';		LCD_Instruction (0b00000001, 0);
 8000cb0:	237a      	movs	r3, #122	; 0x7a
 8000cb2:	74fb      	strb	r3, [r7, #19]
 8000cb4:	2100      	movs	r1, #0
 8000cb6:	2001      	movs	r0, #1
 8000cb8:	f7ff fc16 	bl	80004e8 <LCD_Instruction>
					LCD_Instruction (symbol, 1);
 8000cbc:	7cfb      	ldrb	r3, [r7, #19]
 8000cbe:	2101      	movs	r1, #1
 8000cc0:	4618      	mov	r0, r3
 8000cc2:	f7ff fc11 	bl	80004e8 <LCD_Instruction>
					HAL_Delay(1000);
 8000cc6:	f44f 707a 	mov.w	r0, #1000	; 0x3e8
 8000cca:	f000 fb2b 	bl	8001324 <HAL_Delay>
				}
			}

		}
		flag=0;
 8000cce:	2300      	movs	r3, #0
 8000cd0:	617b      	str	r3, [r7, #20]
	}

HAL_GPIO_WritePin (KEY_R1_GPIO_Port,KEY_R1_Pin, SET);
 8000cd2:	2201      	movs	r2, #1
 8000cd4:	2140      	movs	r1, #64	; 0x40
 8000cd6:	f04f 4090 	mov.w	r0, #1207959552	; 0x48000000
 8000cda:	f000 fdef 	bl	80018bc <HAL_GPIO_WritePin>
HAL_GPIO_WritePin (KEY_R2_GPIO_Port,KEY_R2_Pin, SET);
 8000cde:	2201      	movs	r2, #1
 8000ce0:	2180      	movs	r1, #128	; 0x80
 8000ce2:	f04f 4090 	mov.w	r0, #1207959552	; 0x48000000
 8000ce6:	f000 fde9 	bl	80018bc <HAL_GPIO_WritePin>
HAL_GPIO_WritePin (KEY_R3_GPIO_Port,KEY_R3_Pin, SET);
 8000cea:	2201      	movs	r2, #1
 8000cec:	2140      	movs	r1, #64	; 0x40
 8000cee:	4815      	ldr	r0, [pc, #84]	; (8000d44 <alphanum+0x62c>)
 8000cf0:	f000 fde4 	bl	80018bc <HAL_GPIO_WritePin>
HAL_GPIO_WritePin (KEY_R4_GPIO_Port,KEY_R4_Pin, RESET);
 8000cf4:	2200      	movs	r2, #0
 8000cf6:	2180      	movs	r1, #128	; 0x80
 8000cf8:	4813      	ldr	r0, [pc, #76]	; (8000d48 <alphanum+0x630>)
 8000cfa:	f000 fddf 	bl	80018bc <HAL_GPIO_WritePin>

if(HAL_GPIO_ReadPin(KEY_C3_GPIO_Port, KEY_C3_Pin)==0)
 8000cfe:	f44f 6180 	mov.w	r1, #1024	; 0x400
 8000d02:	4810      	ldr	r0, [pc, #64]	; (8000d44 <alphanum+0x62c>)
 8000d04:	f000 fdc2 	bl	800188c <HAL_GPIO_ReadPin>
 8000d08:	4603      	mov	r3, r0
 8000d0a:	2b00      	cmp	r3, #0
 8000d0c:	d110      	bne.n	8000d30 <alphanum+0x618>
	{
		symbol='#';		LCD_Instruction (0b00000001, 0);
 8000d0e:	2323      	movs	r3, #35	; 0x23
 8000d10:	74fb      	strb	r3, [r7, #19]
 8000d12:	2100      	movs	r1, #0
 8000d14:	2001      	movs	r0, #1
 8000d16:	f7ff fbe7 	bl	80004e8 <LCD_Instruction>
		LCD_Instruction (symbol, 1);
 8000d1a:	7cfb      	ldrb	r3, [r7, #19]
 8000d1c:	2101      	movs	r1, #1
 8000d1e:	4618      	mov	r0, r3
 8000d20:	f7ff fbe2 	bl	80004e8 <LCD_Instruction>
		HAL_Delay(1000);
 8000d24:	f44f 707a 	mov.w	r0, #1000	; 0x3e8
 8000d28:	f000 fafc 	bl	8001324 <HAL_Delay>
		flag=0;
 8000d2c:	2300      	movs	r3, #0
 8000d2e:	617b      	str	r3, [r7, #20]
while(flag){
 8000d30:	697b      	ldr	r3, [r7, #20]
 8000d32:	2b00      	cmp	r3, #0
 8000d34:	f47f acfe 	bne.w	8000734 <alphanum+0x1c>
	}
}//zamkniecie while
return symbol;
 8000d38:	7cfb      	ldrb	r3, [r7, #19]

}//zamkniecie alphanum
 8000d3a:	4618      	mov	r0, r3
 8000d3c:	3718      	adds	r7, #24
 8000d3e:	46bd      	mov	sp, r7
 8000d40:	bd80      	pop	{r7, pc}
 8000d42:	bf00      	nop
 8000d44:	48000400 	.word	0x48000400
 8000d48:	48000800 	.word	0x48000800

08000d4c <main>:
/**
  * @brief  The application entry point.
  * @retval int
  */
int main(void)
{
 8000d4c:	b580      	push	{r7, lr}
 8000d4e:	b082      	sub	sp, #8
 8000d50:	af00      	add	r7, sp, #0
  /* USER CODE END 1 */

  /* MCU Configuration--------------------------------------------------------*/

  /* Reset of all peripherals, Initializes the Flash interface and the Systick. */
  HAL_Init();
 8000d52:	f000 fa6b 	bl	800122c <HAL_Init>
  /* USER CODE BEGIN Init */

  /* USER CODE END Init */

  /* Configure the system clock */
  SystemClock_Config();
 8000d56:	f000 f82d 	bl	8000db4 <SystemClock_Config>
  /* USER CODE BEGIN SysInit */

  /* USER CODE END SysInit */

  /* Initialize all configured peripherals */
  MX_GPIO_Init();
 8000d5a:	f000 f8ad 	bl	8000eb8 <MX_GPIO_Init>
  MX_USART2_UART_Init();
 8000d5e:	f000 f87b 	bl	8000e58 <MX_USART2_UART_Init>
  /* USER CODE BEGIN 2 */
  LCD_Init();
 8000d62:	f7ff fc4b 	bl	80005fc <LCD_Init>
  HAL_Delay(50);
 8000d66:	2032      	movs	r0, #50	; 0x32
 8000d68:	f000 fadc 	bl	8001324 <HAL_Delay>
  LCD_Instruction (0b00110000, 0);
 8000d6c:	2100      	movs	r1, #0
 8000d6e:	2030      	movs	r0, #48	; 0x30
 8000d70:	f7ff fbba 	bl	80004e8 <LCD_Instruction>
  HAL_Delay(50);
 8000d74:	2032      	movs	r0, #50	; 0x32
 8000d76:	f000 fad5 	bl	8001324 <HAL_Delay>
  LCD_Instruction (0b00001110, 0);
 8000d7a:	2100      	movs	r1, #0
 8000d7c:	200e      	movs	r0, #14
 8000d7e:	f7ff fbb3 	bl	80004e8 <LCD_Instruction>
  HAL_Delay(50);
 8000d82:	2032      	movs	r0, #50	; 0x32
 8000d84:	f000 face 	bl	8001324 <HAL_Delay>
  LCD_Instruction (0b00000110, 0);
 8000d88:	2100      	movs	r1, #0
 8000d8a:	2006      	movs	r0, #6
 8000d8c:	f7ff fbac 	bl	80004e8 <LCD_Instruction>
  HAL_Delay(50);
 8000d90:	2032      	movs	r0, #50	; 0x32
 8000d92:	f000 fac7 	bl	8001324 <HAL_Delay>
  LCD_Instruction (0b00000001, 0);
 8000d96:	2100      	movs	r1, #0
 8000d98:	2001      	movs	r0, #1
 8000d9a:	f7ff fba5 	bl	80004e8 <LCD_Instruction>

  word("it works!");
 8000d9e:	4804      	ldr	r0, [pc, #16]	; (8000db0 <main+0x64>)
 8000da0:	f7ff fca1 	bl	80006e6 <word>
  /* USER CODE END 2 */

  /* Infinite loop */
  /* USER CODE BEGIN WHILE */
  while (1)
  { znak=alphanum();
 8000da4:	f7ff fcb8 	bl	8000718 <alphanum>
 8000da8:	4603      	mov	r3, r0
 8000daa:	71fb      	strb	r3, [r7, #7]
 8000dac:	e7fa      	b.n	8000da4 <main+0x58>
 8000dae:	bf00      	nop
 8000db0:	080038a8 	.word	0x080038a8

08000db4 <SystemClock_Config>:
/**
  * @brief System Clock Configuration
  * @retval None
  */
void SystemClock_Config(void)
{
 8000db4:	b580      	push	{r7, lr}
 8000db6:	b096      	sub	sp, #88	; 0x58
 8000db8:	af00      	add	r7, sp, #0
  RCC_OscInitTypeDef RCC_OscInitStruct = {0};
 8000dba:	f107 0314 	add.w	r3, r7, #20
 8000dbe:	2244      	movs	r2, #68	; 0x44
 8000dc0:	2100      	movs	r1, #0
 8000dc2:	4618      	mov	r0, r3
 8000dc4:	f002 fd5c 	bl	8003880 <memset>
  RCC_ClkInitTypeDef RCC_ClkInitStruct = {0};
 8000dc8:	463b      	mov	r3, r7
 8000dca:	2200      	movs	r2, #0
 8000dcc:	601a      	str	r2, [r3, #0]
 8000dce:	605a      	str	r2, [r3, #4]
 8000dd0:	609a      	str	r2, [r3, #8]
 8000dd2:	60da      	str	r2, [r3, #12]
 8000dd4:	611a      	str	r2, [r3, #16]

  /** Configure the main internal regulator output voltage
  */
  if (HAL_PWREx_ControlVoltageScaling(PWR_REGULATOR_VOLTAGE_SCALE1) != HAL_OK)
 8000dd6:	f44f 7000 	mov.w	r0, #512	; 0x200
 8000dda:	f000 fd95 	bl	8001908 <HAL_PWREx_ControlVoltageScaling>
 8000dde:	4603      	mov	r3, r0
 8000de0:	2b00      	cmp	r3, #0
 8000de2:	d001      	beq.n	8000de8 <SystemClock_Config+0x34>
  {
    Error_Handler();
 8000de4:	f000 f936 	bl	8001054 <Error_Handler>
  }
  /** Initializes the RCC Oscillators according to the specified parameters
  * in the RCC_OscInitTypeDef structure.
  */
  RCC_OscInitStruct.OscillatorType = RCC_OSCILLATORTYPE_HSI;
 8000de8:	2302      	movs	r3, #2
 8000dea:	617b      	str	r3, [r7, #20]
  RCC_OscInitStruct.HSIState = RCC_HSI_ON;
 8000dec:	f44f 7380 	mov.w	r3, #256	; 0x100
 8000df0:	623b      	str	r3, [r7, #32]
  RCC_OscInitStruct.HSICalibrationValue = RCC_HSICALIBRATION_DEFAULT;
 8000df2:	2310      	movs	r3, #16
 8000df4:	627b      	str	r3, [r7, #36]	; 0x24
  RCC_OscInitStruct.PLL.PLLState = RCC_PLL_ON;
 8000df6:	2302      	movs	r3, #2
 8000df8:	63fb      	str	r3, [r7, #60]	; 0x3c
  RCC_OscInitStruct.PLL.PLLSource = RCC_PLLSOURCE_HSI;
 8000dfa:	2302      	movs	r3, #2
 8000dfc:	643b      	str	r3, [r7, #64]	; 0x40
  RCC_OscInitStruct.PLL.PLLM = 1;
 8000dfe:	2301      	movs	r3, #1
 8000e00:	647b      	str	r3, [r7, #68]	; 0x44
  RCC_OscInitStruct.PLL.PLLN = 10;
 8000e02:	230a      	movs	r3, #10
 8000e04:	64bb      	str	r3, [r7, #72]	; 0x48
  RCC_OscInitStruct.PLL.PLLP = RCC_PLLP_DIV7;
 8000e06:	2307      	movs	r3, #7
 8000e08:	64fb      	str	r3, [r7, #76]	; 0x4c
  RCC_OscInitStruct.PLL.PLLQ = RCC_PLLQ_DIV2;
 8000e0a:	2302      	movs	r3, #2
 8000e0c:	653b      	str	r3, [r7, #80]	; 0x50
  RCC_OscInitStruct.PLL.PLLR = RCC_PLLR_DIV2;
 8000e0e:	2302      	movs	r3, #2
 8000e10:	657b      	str	r3, [r7, #84]	; 0x54
  if (HAL_RCC_OscConfig(&RCC_OscInitStruct) != HAL_OK)
 8000e12:	f107 0314 	add.w	r3, r7, #20
 8000e16:	4618      	mov	r0, r3
 8000e18:	f000 fdcc 	bl	80019b4 <HAL_RCC_OscConfig>
 8000e1c:	4603      	mov	r3, r0
 8000e1e:	2b00      	cmp	r3, #0
 8000e20:	d001      	beq.n	8000e26 <SystemClock_Config+0x72>
  {
    Error_Handler();
 8000e22:	f000 f917 	bl	8001054 <Error_Handler>
  }
  /** Initializes the CPU, AHB and APB buses clocks
  */
  RCC_ClkInitStruct.ClockType = RCC_CLOCKTYPE_HCLK|RCC_CLOCKTYPE_SYSCLK
 8000e26:	230f      	movs	r3, #15
 8000e28:	603b      	str	r3, [r7, #0]
                              |RCC_CLOCKTYPE_PCLK1|RCC_CLOCKTYPE_PCLK2;
  RCC_ClkInitStruct.SYSCLKSource = RCC_SYSCLKSOURCE_PLLCLK;
 8000e2a:	2303      	movs	r3, #3
 8000e2c:	607b      	str	r3, [r7, #4]
  RCC_ClkInitStruct.AHBCLKDivider = RCC_SYSCLK_DIV1;
 8000e2e:	2300      	movs	r3, #0
 8000e30:	60bb      	str	r3, [r7, #8]
  RCC_ClkInitStruct.APB1CLKDivider = RCC_HCLK_DIV1;
 8000e32:	2300      	movs	r3, #0
 8000e34:	60fb      	str	r3, [r7, #12]
  RCC_ClkInitStruct.APB2CLKDivider = RCC_HCLK_DIV1;
 8000e36:	2300      	movs	r3, #0
 8000e38:	613b      	str	r3, [r7, #16]

  if (HAL_RCC_ClockConfig(&RCC_ClkInitStruct, FLASH_LATENCY_4) != HAL_OK)
 8000e3a:	463b      	mov	r3, r7
 8000e3c:	2104      	movs	r1, #4
 8000e3e:	4618      	mov	r0, r3
 8000e40:	f001 f992 	bl	8002168 <HAL_RCC_ClockConfig>
 8000e44:	4603      	mov	r3, r0
 8000e46:	2b00      	cmp	r3, #0
 8000e48:	d001      	beq.n	8000e4e <SystemClock_Config+0x9a>
  {
    Error_Handler();
 8000e4a:	f000 f903 	bl	8001054 <Error_Handler>
  }
}
 8000e4e:	bf00      	nop
 8000e50:	3758      	adds	r7, #88	; 0x58
 8000e52:	46bd      	mov	sp, r7
 8000e54:	bd80      	pop	{r7, pc}
	...

08000e58 <MX_USART2_UART_Init>:
  * @brief USART2 Initialization Function
  * @param None
  * @retval None
  */
static void MX_USART2_UART_Init(void)
{
 8000e58:	b580      	push	{r7, lr}
 8000e5a:	af00      	add	r7, sp, #0
  /* USER CODE END USART2_Init 0 */

  /* USER CODE BEGIN USART2_Init 1 */

  /* USER CODE END USART2_Init 1 */
  huart2.Instance = USART2;
 8000e5c:	4b14      	ldr	r3, [pc, #80]	; (8000eb0 <MX_USART2_UART_Init+0x58>)
 8000e5e:	4a15      	ldr	r2, [pc, #84]	; (8000eb4 <MX_USART2_UART_Init+0x5c>)
 8000e60:	601a      	str	r2, [r3, #0]
  huart2.Init.BaudRate = 115200;
 8000e62:	4b13      	ldr	r3, [pc, #76]	; (8000eb0 <MX_USART2_UART_Init+0x58>)
 8000e64:	f44f 32e1 	mov.w	r2, #115200	; 0x1c200
 8000e68:	605a      	str	r2, [r3, #4]
  huart2.Init.WordLength = UART_WORDLENGTH_8B;
 8000e6a:	4b11      	ldr	r3, [pc, #68]	; (8000eb0 <MX_USART2_UART_Init+0x58>)
 8000e6c:	2200      	movs	r2, #0
 8000e6e:	609a      	str	r2, [r3, #8]
  huart2.Init.StopBits = UART_STOPBITS_1;
 8000e70:	4b0f      	ldr	r3, [pc, #60]	; (8000eb0 <MX_USART2_UART_Init+0x58>)
 8000e72:	2200      	movs	r2, #0
 8000e74:	60da      	str	r2, [r3, #12]
  huart2.Init.Parity = UART_PARITY_NONE;
 8000e76:	4b0e      	ldr	r3, [pc, #56]	; (8000eb0 <MX_USART2_UART_Init+0x58>)
 8000e78:	2200      	movs	r2, #0
 8000e7a:	611a      	str	r2, [r3, #16]
  huart2.Init.Mode = UART_MODE_TX_RX;
 8000e7c:	4b0c      	ldr	r3, [pc, #48]	; (8000eb0 <MX_USART2_UART_Init+0x58>)
 8000e7e:	220c      	movs	r2, #12
 8000e80:	615a      	str	r2, [r3, #20]
  huart2.Init.HwFlowCtl = UART_HWCONTROL_NONE;
 8000e82:	4b0b      	ldr	r3, [pc, #44]	; (8000eb0 <MX_USART2_UART_Init+0x58>)
 8000e84:	2200      	movs	r2, #0
 8000e86:	619a      	str	r2, [r3, #24]
  huart2.Init.OverSampling = UART_OVERSAMPLING_16;
 8000e88:	4b09      	ldr	r3, [pc, #36]	; (8000eb0 <MX_USART2_UART_Init+0x58>)
 8000e8a:	2200      	movs	r2, #0
 8000e8c:	61da      	str	r2, [r3, #28]
  huart2.Init.OneBitSampling = UART_ONE_BIT_SAMPLE_DISABLE;
 8000e8e:	4b08      	ldr	r3, [pc, #32]	; (8000eb0 <MX_USART2_UART_Init+0x58>)
 8000e90:	2200      	movs	r2, #0
 8000e92:	621a      	str	r2, [r3, #32]
  huart2.AdvancedInit.AdvFeatureInit = UART_ADVFEATURE_NO_INIT;
 8000e94:	4b06      	ldr	r3, [pc, #24]	; (8000eb0 <MX_USART2_UART_Init+0x58>)
 8000e96:	2200      	movs	r2, #0
 8000e98:	625a      	str	r2, [r3, #36]	; 0x24
  if (HAL_UART_Init(&huart2) != HAL_OK)
 8000e9a:	4805      	ldr	r0, [pc, #20]	; (8000eb0 <MX_USART2_UART_Init+0x58>)
 8000e9c:	f002 f844 	bl	8002f28 <HAL_UART_Init>
 8000ea0:	4603      	mov	r3, r0
 8000ea2:	2b00      	cmp	r3, #0
 8000ea4:	d001      	beq.n	8000eaa <MX_USART2_UART_Init+0x52>
  {
    Error_Handler();
 8000ea6:	f000 f8d5 	bl	8001054 <Error_Handler>
  }
  /* USER CODE BEGIN USART2_Init 2 */

  /* USER CODE END USART2_Init 2 */

}
 8000eaa:	bf00      	nop
 8000eac:	bd80      	pop	{r7, pc}
 8000eae:	bf00      	nop
 8000eb0:	20000028 	.word	0x20000028
 8000eb4:	40004400 	.word	0x40004400

08000eb8 <MX_GPIO_Init>:
  * @brief GPIO Initialization Function
  * @param None
  * @retval None
  */
static void MX_GPIO_Init(void)
{
 8000eb8:	b580      	push	{r7, lr}
 8000eba:	b08a      	sub	sp, #40	; 0x28
 8000ebc:	af00      	add	r7, sp, #0
  GPIO_InitTypeDef GPIO_InitStruct = {0};
 8000ebe:	f107 0314 	add.w	r3, r7, #20
 8000ec2:	2200      	movs	r2, #0
 8000ec4:	601a      	str	r2, [r3, #0]
 8000ec6:	605a      	str	r2, [r3, #4]
 8000ec8:	609a      	str	r2, [r3, #8]
 8000eca:	60da      	str	r2, [r3, #12]
 8000ecc:	611a      	str	r2, [r3, #16]

  /* GPIO Ports Clock Enable */
  __HAL_RCC_GPIOC_CLK_ENABLE();
 8000ece:	4b5d      	ldr	r3, [pc, #372]	; (8001044 <MX_GPIO_Init+0x18c>)
 8000ed0:	6cdb      	ldr	r3, [r3, #76]	; 0x4c
 8000ed2:	4a5c      	ldr	r2, [pc, #368]	; (8001044 <MX_GPIO_Init+0x18c>)
 8000ed4:	f043 0304 	orr.w	r3, r3, #4
 8000ed8:	64d3      	str	r3, [r2, #76]	; 0x4c
 8000eda:	4b5a      	ldr	r3, [pc, #360]	; (8001044 <MX_GPIO_Init+0x18c>)
 8000edc:	6cdb      	ldr	r3, [r3, #76]	; 0x4c
 8000ede:	f003 0304 	and.w	r3, r3, #4
 8000ee2:	613b      	str	r3, [r7, #16]
 8000ee4:	693b      	ldr	r3, [r7, #16]
  __HAL_RCC_GPIOH_CLK_ENABLE();
 8000ee6:	4b57      	ldr	r3, [pc, #348]	; (8001044 <MX_GPIO_Init+0x18c>)
 8000ee8:	6cdb      	ldr	r3, [r3, #76]	; 0x4c
 8000eea:	4a56      	ldr	r2, [pc, #344]	; (8001044 <MX_GPIO_Init+0x18c>)
 8000eec:	f043 0380 	orr.w	r3, r3, #128	; 0x80
 8000ef0:	64d3      	str	r3, [r2, #76]	; 0x4c
 8000ef2:	4b54      	ldr	r3, [pc, #336]	; (8001044 <MX_GPIO_Init+0x18c>)
 8000ef4:	6cdb      	ldr	r3, [r3, #76]	; 0x4c
 8000ef6:	f003 0380 	and.w	r3, r3, #128	; 0x80
 8000efa:	60fb      	str	r3, [r7, #12]
 8000efc:	68fb      	ldr	r3, [r7, #12]
  __HAL_RCC_GPIOA_CLK_ENABLE();
 8000efe:	4b51      	ldr	r3, [pc, #324]	; (8001044 <MX_GPIO_Init+0x18c>)
 8000f00:	6cdb      	ldr	r3, [r3, #76]	; 0x4c
 8000f02:	4a50      	ldr	r2, [pc, #320]	; (8001044 <MX_GPIO_Init+0x18c>)
 8000f04:	f043 0301 	orr.w	r3, r3, #1
 8000f08:	64d3      	str	r3, [r2, #76]	; 0x4c
 8000f0a:	4b4e      	ldr	r3, [pc, #312]	; (8001044 <MX_GPIO_Init+0x18c>)
 8000f0c:	6cdb      	ldr	r3, [r3, #76]	; 0x4c
 8000f0e:	f003 0301 	and.w	r3, r3, #1
 8000f12:	60bb      	str	r3, [r7, #8]
 8000f14:	68bb      	ldr	r3, [r7, #8]
  __HAL_RCC_GPIOB_CLK_ENABLE();
 8000f16:	4b4b      	ldr	r3, [pc, #300]	; (8001044 <MX_GPIO_Init+0x18c>)
 8000f18:	6cdb      	ldr	r3, [r3, #76]	; 0x4c
 8000f1a:	4a4a      	ldr	r2, [pc, #296]	; (8001044 <MX_GPIO_Init+0x18c>)
 8000f1c:	f043 0302 	orr.w	r3, r3, #2
 8000f20:	64d3      	str	r3, [r2, #76]	; 0x4c
 8000f22:	4b48      	ldr	r3, [pc, #288]	; (8001044 <MX_GPIO_Init+0x18c>)
 8000f24:	6cdb      	ldr	r3, [r3, #76]	; 0x4c
 8000f26:	f003 0302 	and.w	r3, r3, #2
 8000f2a:	607b      	str	r3, [r7, #4]
 8000f2c:	687b      	ldr	r3, [r7, #4]
  __HAL_RCC_GPIOD_CLK_ENABLE();
 8000f2e:	4b45      	ldr	r3, [pc, #276]	; (8001044 <MX_GPIO_Init+0x18c>)
 8000f30:	6cdb      	ldr	r3, [r3, #76]	; 0x4c
 8000f32:	4a44      	ldr	r2, [pc, #272]	; (8001044 <MX_GPIO_Init+0x18c>)
 8000f34:	f043 0308 	orr.w	r3, r3, #8
 8000f38:	64d3      	str	r3, [r2, #76]	; 0x4c
 8000f3a:	4b42      	ldr	r3, [pc, #264]	; (8001044 <MX_GPIO_Init+0x18c>)
 8000f3c:	6cdb      	ldr	r3, [r3, #76]	; 0x4c
 8000f3e:	f003 0308 	and.w	r3, r3, #8
 8000f42:	603b      	str	r3, [r7, #0]
 8000f44:	683b      	ldr	r3, [r7, #0]

  /*Configure GPIO pin Output Level */
  HAL_GPIO_WritePin(GPIOC, LCD_E_Pin|LCD_RS_Pin|LCD_D3_Pin|KEY_R4_Pin
 8000f46:	2200      	movs	r2, #0
 8000f48:	f641 71c9 	movw	r1, #8137	; 0x1fc9
 8000f4c:	483e      	ldr	r0, [pc, #248]	; (8001048 <MX_GPIO_Init+0x190>)
 8000f4e:	f000 fcb5 	bl	80018bc <HAL_GPIO_WritePin>
                          |LCD_D0_Pin|LCD_D1_Pin|LCD_D4_Pin|LCD_D5_Pin
                          |LCD_D7_Pin, GPIO_PIN_RESET);

  /*Configure GPIO pin Output Level */
  HAL_GPIO_WritePin(GPIOA, LD2_Pin|KEY_R1_Pin|KEY_R2_Pin, GPIO_PIN_RESET);
 8000f52:	2200      	movs	r2, #0
 8000f54:	21e0      	movs	r1, #224	; 0xe0
 8000f56:	f04f 4090 	mov.w	r0, #1207959552	; 0x48000000
 8000f5a:	f000 fcaf 	bl	80018bc <HAL_GPIO_WritePin>

  /*Configure GPIO pin Output Level */
  HAL_GPIO_WritePin(LCD_D6_GPIO_Port, LCD_D6_Pin, GPIO_PIN_RESET);
 8000f5e:	2200      	movs	r2, #0
 8000f60:	2104      	movs	r1, #4
 8000f62:	483a      	ldr	r0, [pc, #232]	; (800104c <MX_GPIO_Init+0x194>)
 8000f64:	f000 fcaa 	bl	80018bc <HAL_GPIO_WritePin>

  /*Configure GPIO pin Output Level */
  HAL_GPIO_WritePin(GPIOB, KEY_R3_Pin|LCD_D2_Pin, GPIO_PIN_RESET);
 8000f68:	2200      	movs	r2, #0
 8000f6a:	f44f 71a0 	mov.w	r1, #320	; 0x140
 8000f6e:	4838      	ldr	r0, [pc, #224]	; (8001050 <MX_GPIO_Init+0x198>)
 8000f70:	f000 fca4 	bl	80018bc <HAL_GPIO_WritePin>

  /*Configure GPIO pin : B1_Pin */
  GPIO_InitStruct.Pin = B1_Pin;
 8000f74:	f44f 5300 	mov.w	r3, #8192	; 0x2000
 8000f78:	617b      	str	r3, [r7, #20]
  GPIO_InitStruct.Mode = GPIO_MODE_IT_FALLING;
 8000f7a:	f44f 1304 	mov.w	r3, #2162688	; 0x210000
 8000f7e:	61bb      	str	r3, [r7, #24]
  GPIO_InitStruct.Pull = GPIO_NOPULL;
 8000f80:	2300      	movs	r3, #0
 8000f82:	61fb      	str	r3, [r7, #28]
  HAL_GPIO_Init(B1_GPIO_Port, &GPIO_InitStruct);
 8000f84:	f107 0314 	add.w	r3, r7, #20
 8000f88:	4619      	mov	r1, r3
 8000f8a:	482f      	ldr	r0, [pc, #188]	; (8001048 <MX_GPIO_Init+0x190>)
 8000f8c:	f000 fad4 	bl	8001538 <HAL_GPIO_Init>

  /*Configure GPIO pins : LCD_E_Pin LCD_RS_Pin LCD_D3_Pin KEY_R4_Pin
                           LCD_D0_Pin LCD_D1_Pin LCD_D4_Pin LCD_D5_Pin
                           LCD_D7_Pin */
  GPIO_InitStruct.Pin = LCD_E_Pin|LCD_RS_Pin|LCD_D3_Pin|KEY_R4_Pin
 8000f90:	f641 73c9 	movw	r3, #8137	; 0x1fc9
 8000f94:	617b      	str	r3, [r7, #20]
                          |LCD_D0_Pin|LCD_D1_Pin|LCD_D4_Pin|LCD_D5_Pin
                          |LCD_D7_Pin;
  GPIO_InitStruct.Mode = GPIO_MODE_OUTPUT_PP;
 8000f96:	2301      	movs	r3, #1
 8000f98:	61bb      	str	r3, [r7, #24]
  GPIO_InitStruct.Pull = GPIO_NOPULL;
 8000f9a:	2300      	movs	r3, #0
 8000f9c:	61fb      	str	r3, [r7, #28]
  GPIO_InitStruct.Speed = GPIO_SPEED_FREQ_LOW;
 8000f9e:	2300      	movs	r3, #0
 8000fa0:	623b      	str	r3, [r7, #32]
  HAL_GPIO_Init(GPIOC, &GPIO_InitStruct);
 8000fa2:	f107 0314 	add.w	r3, r7, #20
 8000fa6:	4619      	mov	r1, r3
 8000fa8:	4827      	ldr	r0, [pc, #156]	; (8001048 <MX_GPIO_Init+0x190>)
 8000faa:	f000 fac5 	bl	8001538 <HAL_GPIO_Init>

  /*Configure GPIO pins : LD2_Pin KEY_R1_Pin KEY_R2_Pin */
  GPIO_InitStruct.Pin = LD2_Pin|KEY_R1_Pin|KEY_R2_Pin;
 8000fae:	23e0      	movs	r3, #224	; 0xe0
 8000fb0:	617b      	str	r3, [r7, #20]
  GPIO_InitStruct.Mode = GPIO_MODE_OUTPUT_PP;
 8000fb2:	2301      	movs	r3, #1
 8000fb4:	61bb      	str	r3, [r7, #24]
  GPIO_InitStruct.Pull = GPIO_NOPULL;
 8000fb6:	2300      	movs	r3, #0
 8000fb8:	61fb      	str	r3, [r7, #28]
  GPIO_InitStruct.Speed = GPIO_SPEED_FREQ_LOW;
 8000fba:	2300      	movs	r3, #0
 8000fbc:	623b      	str	r3, [r7, #32]
  HAL_GPIO_Init(GPIOA, &GPIO_InitStruct);
 8000fbe:	f107 0314 	add.w	r3, r7, #20
 8000fc2:	4619      	mov	r1, r3
 8000fc4:	f04f 4090 	mov.w	r0, #1207959552	; 0x48000000
 8000fc8:	f000 fab6 	bl	8001538 <HAL_GPIO_Init>

  /*Configure GPIO pin : KEY_C3_Pin */
  GPIO_InitStruct.Pin = KEY_C3_Pin;
 8000fcc:	f44f 6380 	mov.w	r3, #1024	; 0x400
 8000fd0:	617b      	str	r3, [r7, #20]
  GPIO_InitStruct.Mode = GPIO_MODE_INPUT;
 8000fd2:	2300      	movs	r3, #0
 8000fd4:	61bb      	str	r3, [r7, #24]
  GPIO_InitStruct.Pull = GPIO_PULLUP;
 8000fd6:	2301      	movs	r3, #1
 8000fd8:	61fb      	str	r3, [r7, #28]
  HAL_GPIO_Init(KEY_C3_GPIO_Port, &GPIO_InitStruct);
 8000fda:	f107 0314 	add.w	r3, r7, #20
 8000fde:	4619      	mov	r1, r3
 8000fe0:	481b      	ldr	r0, [pc, #108]	; (8001050 <MX_GPIO_Init+0x198>)
 8000fe2:	f000 faa9 	bl	8001538 <HAL_GPIO_Init>

  /*Configure GPIO pins : KEY_C2_Pin KEY_C1_Pin */
  GPIO_InitStruct.Pin = KEY_C2_Pin|KEY_C1_Pin;
 8000fe6:	f44f 7340 	mov.w	r3, #768	; 0x300
 8000fea:	617b      	str	r3, [r7, #20]
  GPIO_InitStruct.Mode = GPIO_MODE_INPUT;
 8000fec:	2300      	movs	r3, #0
 8000fee:	61bb      	str	r3, [r7, #24]
  GPIO_InitStruct.Pull = GPIO_PULLUP;
 8000ff0:	2301      	movs	r3, #1
 8000ff2:	61fb      	str	r3, [r7, #28]
  HAL_GPIO_Init(GPIOA, &GPIO_InitStruct);
 8000ff4:	f107 0314 	add.w	r3, r7, #20
 8000ff8:	4619      	mov	r1, r3
 8000ffa:	f04f 4090 	mov.w	r0, #1207959552	; 0x48000000
 8000ffe:	f000 fa9b 	bl	8001538 <HAL_GPIO_Init>

  /*Configure GPIO pin : LCD_D6_Pin */
  GPIO_InitStruct.Pin = LCD_D6_Pin;
 8001002:	2304      	movs	r3, #4
 8001004:	617b      	str	r3, [r7, #20]
  GPIO_InitStruct.Mode = GPIO_MODE_OUTPUT_PP;
 8001006:	2301      	movs	r3, #1
 8001008:	61bb      	str	r3, [r7, #24]
  GPIO_InitStruct.Pull = GPIO_NOPULL;
 800100a:	2300      	movs	r3, #0
 800100c:	61fb      	str	r3, [r7, #28]
  GPIO_InitStruct.Speed = GPIO_SPEED_FREQ_LOW;
 800100e:	2300      	movs	r3, #0
 8001010:	623b      	str	r3, [r7, #32]
  HAL_GPIO_Init(LCD_D6_GPIO_Port, &GPIO_InitStruct);
 8001012:	f107 0314 	add.w	r3, r7, #20
 8001016:	4619      	mov	r1, r3
 8001018:	480c      	ldr	r0, [pc, #48]	; (800104c <MX_GPIO_Init+0x194>)
 800101a:	f000 fa8d 	bl	8001538 <HAL_GPIO_Init>

  /*Configure GPIO pins : KEY_R3_Pin LCD_D2_Pin */
  GPIO_InitStruct.Pin = KEY_R3_Pin|LCD_D2_Pin;
 800101e:	f44f 73a0 	mov.w	r3, #320	; 0x140
 8001022:	617b      	str	r3, [r7, #20]
  GPIO_InitStruct.Mode = GPIO_MODE_OUTPUT_PP;
 8001024:	2301      	movs	r3, #1
 8001026:	61bb      	str	r3, [r7, #24]
  GPIO_InitStruct.Pull = GPIO_NOPULL;
 8001028:	2300      	movs	r3, #0
 800102a:	61fb      	str	r3, [r7, #28]
  GPIO_InitStruct.Speed = GPIO_SPEED_FREQ_LOW;
 800102c:	2300      	movs	r3, #0
 800102e:	623b      	str	r3, [r7, #32]
  HAL_GPIO_Init(GPIOB, &GPIO_InitStruct);
 8001030:	f107 0314 	add.w	r3, r7, #20
 8001034:	4619      	mov	r1, r3
 8001036:	4806      	ldr	r0, [pc, #24]	; (8001050 <MX_GPIO_Init+0x198>)
 8001038:	f000 fa7e 	bl	8001538 <HAL_GPIO_Init>

}
 800103c:	bf00      	nop
 800103e:	3728      	adds	r7, #40	; 0x28
 8001040:	46bd      	mov	sp, r7
 8001042:	bd80      	pop	{r7, pc}
 8001044:	40021000 	.word	0x40021000
 8001048:	48000800 	.word	0x48000800
 800104c:	48000c00 	.word	0x48000c00
 8001050:	48000400 	.word	0x48000400

08001054 <Error_Handler>:
/**
  * @brief  This function is executed in case of error occurrence.
  * @retval None
  */
void Error_Handler(void)
{
 8001054:	b480      	push	{r7}
 8001056:	af00      	add	r7, sp, #0
  \details Disables IRQ interrupts by setting the I-bit in the CPSR.
           Can only be executed in Privileged modes.
 */
__STATIC_FORCEINLINE void __disable_irq(void)
{
  __ASM volatile ("cpsid i" : : : "memory");
 8001058:	b672      	cpsid	i
}
 800105a:	bf00      	nop
  /* USER CODE BEGIN Error_Handler_Debug */
  /* User can add his own implementation to report the HAL error return state */
  __disable_irq();
  while (1)
 800105c:	e7fe      	b.n	800105c <Error_Handler+0x8>
	...

08001060 <HAL_MspInit>:
/* USER CODE END 0 */
/**
  * Initializes the Global MSP.
  */
void HAL_MspInit(void)
{
 8001060:	b480      	push	{r7}
 8001062:	b083      	sub	sp, #12
 8001064:	af00      	add	r7, sp, #0
  /* USER CODE BEGIN MspInit 0 */

  /* USER CODE END MspInit 0 */

  __HAL_RCC_SYSCFG_CLK_ENABLE();
 8001066:	4b0f      	ldr	r3, [pc, #60]	; (80010a4 <HAL_MspInit+0x44>)
 8001068:	6e1b      	ldr	r3, [r3, #96]	; 0x60
 800106a:	4a0e      	ldr	r2, [pc, #56]	; (80010a4 <HAL_MspInit+0x44>)
 800106c:	f043 0301 	orr.w	r3, r3, #1
 8001070:	6613      	str	r3, [r2, #96]	; 0x60
 8001072:	4b0c      	ldr	r3, [pc, #48]	; (80010a4 <HAL_MspInit+0x44>)
 8001074:	6e1b      	ldr	r3, [r3, #96]	; 0x60
 8001076:	f003 0301 	and.w	r3, r3, #1
 800107a:	607b      	str	r3, [r7, #4]
 800107c:	687b      	ldr	r3, [r7, #4]
  __HAL_RCC_PWR_CLK_ENABLE();
 800107e:	4b09      	ldr	r3, [pc, #36]	; (80010a4 <HAL_MspInit+0x44>)
 8001080:	6d9b      	ldr	r3, [r3, #88]	; 0x58
 8001082:	4a08      	ldr	r2, [pc, #32]	; (80010a4 <HAL_MspInit+0x44>)
 8001084:	f043 5380 	orr.w	r3, r3, #268435456	; 0x10000000
 8001088:	6593      	str	r3, [r2, #88]	; 0x58
 800108a:	4b06      	ldr	r3, [pc, #24]	; (80010a4 <HAL_MspInit+0x44>)
 800108c:	6d9b      	ldr	r3, [r3, #88]	; 0x58
 800108e:	f003 5380 	and.w	r3, r3, #268435456	; 0x10000000
 8001092:	603b      	str	r3, [r7, #0]
 8001094:	683b      	ldr	r3, [r7, #0]
  /* System interrupt init*/

  /* USER CODE BEGIN MspInit 1 */

  /* USER CODE END MspInit 1 */
}
 8001096:	bf00      	nop
 8001098:	370c      	adds	r7, #12
 800109a:	46bd      	mov	sp, r7
 800109c:	f85d 7b04 	ldr.w	r7, [sp], #4
 80010a0:	4770      	bx	lr
 80010a2:	bf00      	nop
 80010a4:	40021000 	.word	0x40021000

080010a8 <HAL_UART_MspInit>:
* This function configures the hardware resources used in this example
* @param huart: UART handle pointer
* @retval None
*/
void HAL_UART_MspInit(UART_HandleTypeDef* huart)
{
 80010a8:	b580      	push	{r7, lr}
 80010aa:	b0ac      	sub	sp, #176	; 0xb0
 80010ac:	af00      	add	r7, sp, #0
 80010ae:	6078      	str	r0, [r7, #4]
  GPIO_InitTypeDef GPIO_InitStruct = {0};
 80010b0:	f107 039c 	add.w	r3, r7, #156	; 0x9c
 80010b4:	2200      	movs	r2, #0
 80010b6:	601a      	str	r2, [r3, #0]
 80010b8:	605a      	str	r2, [r3, #4]
 80010ba:	609a      	str	r2, [r3, #8]
 80010bc:	60da      	str	r2, [r3, #12]
 80010be:	611a      	str	r2, [r3, #16]
  RCC_PeriphCLKInitTypeDef PeriphClkInit = {0};
 80010c0:	f107 0314 	add.w	r3, r7, #20
 80010c4:	2288      	movs	r2, #136	; 0x88
 80010c6:	2100      	movs	r1, #0
 80010c8:	4618      	mov	r0, r3
 80010ca:	f002 fbd9 	bl	8003880 <memset>
  if(huart->Instance==USART2)
 80010ce:	687b      	ldr	r3, [r7, #4]
 80010d0:	681b      	ldr	r3, [r3, #0]
 80010d2:	4a21      	ldr	r2, [pc, #132]	; (8001158 <HAL_UART_MspInit+0xb0>)
 80010d4:	4293      	cmp	r3, r2
 80010d6:	d13b      	bne.n	8001150 <HAL_UART_MspInit+0xa8>
  /* USER CODE BEGIN USART2_MspInit 0 */

  /* USER CODE END USART2_MspInit 0 */
  /** Initializes the peripherals clock
  */
    PeriphClkInit.PeriphClockSelection = RCC_PERIPHCLK_USART2;
 80010d8:	2302      	movs	r3, #2
 80010da:	617b      	str	r3, [r7, #20]
    PeriphClkInit.Usart2ClockSelection = RCC_USART2CLKSOURCE_PCLK1;
 80010dc:	2300      	movs	r3, #0
 80010de:	653b      	str	r3, [r7, #80]	; 0x50
    if (HAL_RCCEx_PeriphCLKConfig(&PeriphClkInit) != HAL_OK)
 80010e0:	f107 0314 	add.w	r3, r7, #20
 80010e4:	4618      	mov	r0, r3
 80010e6:	f001 fa63 	bl	80025b0 <HAL_RCCEx_PeriphCLKConfig>
 80010ea:	4603      	mov	r3, r0
 80010ec:	2b00      	cmp	r3, #0
 80010ee:	d001      	beq.n	80010f4 <HAL_UART_MspInit+0x4c>
    {
      Error_Handler();
 80010f0:	f7ff ffb0 	bl	8001054 <Error_Handler>
    }

    /* Peripheral clock enable */
    __HAL_RCC_USART2_CLK_ENABLE();
 80010f4:	4b19      	ldr	r3, [pc, #100]	; (800115c <HAL_UART_MspInit+0xb4>)
 80010f6:	6d9b      	ldr	r3, [r3, #88]	; 0x58
 80010f8:	4a18      	ldr	r2, [pc, #96]	; (800115c <HAL_UART_MspInit+0xb4>)
 80010fa:	f443 3300 	orr.w	r3, r3, #131072	; 0x20000
 80010fe:	6593      	str	r3, [r2, #88]	; 0x58
 8001100:	4b16      	ldr	r3, [pc, #88]	; (800115c <HAL_UART_MspInit+0xb4>)
 8001102:	6d9b      	ldr	r3, [r3, #88]	; 0x58
 8001104:	f403 3300 	and.w	r3, r3, #131072	; 0x20000
 8001108:	613b      	str	r3, [r7, #16]
 800110a:	693b      	ldr	r3, [r7, #16]

    __HAL_RCC_GPIOA_CLK_ENABLE();
 800110c:	4b13      	ldr	r3, [pc, #76]	; (800115c <HAL_UART_MspInit+0xb4>)
 800110e:	6cdb      	ldr	r3, [r3, #76]	; 0x4c
 8001110:	4a12      	ldr	r2, [pc, #72]	; (800115c <HAL_UART_MspInit+0xb4>)
 8001112:	f043 0301 	orr.w	r3, r3, #1
 8001116:	64d3      	str	r3, [r2, #76]	; 0x4c
 8001118:	4b10      	ldr	r3, [pc, #64]	; (800115c <HAL_UART_MspInit+0xb4>)
 800111a:	6cdb      	ldr	r3, [r3, #76]	; 0x4c
 800111c:	f003 0301 	and.w	r3, r3, #1
 8001120:	60fb      	str	r3, [r7, #12]
 8001122:	68fb      	ldr	r3, [r7, #12]
    /**USART2 GPIO Configuration
    PA2     ------> USART2_TX
    PA3     ------> USART2_RX
    */
    GPIO_InitStruct.Pin = USART_TX_Pin|USART_RX_Pin;
 8001124:	230c      	movs	r3, #12
 8001126:	f8c7 309c 	str.w	r3, [r7, #156]	; 0x9c
    GPIO_InitStruct.Mode = GPIO_MODE_AF_PP;
 800112a:	2302      	movs	r3, #2
 800112c:	f8c7 30a0 	str.w	r3, [r7, #160]	; 0xa0
    GPIO_InitStruct.Pull = GPIO_NOPULL;
 8001130:	2300      	movs	r3, #0
 8001132:	f8c7 30a4 	str.w	r3, [r7, #164]	; 0xa4
    GPIO_InitStruct.Speed = GPIO_SPEED_FREQ_VERY_HIGH;
 8001136:	2303      	movs	r3, #3
 8001138:	f8c7 30a8 	str.w	r3, [r7, #168]	; 0xa8
    GPIO_InitStruct.Alternate = GPIO_AF7_USART2;
 800113c:	2307      	movs	r3, #7
 800113e:	f8c7 30ac 	str.w	r3, [r7, #172]	; 0xac
    HAL_GPIO_Init(GPIOA, &GPIO_InitStruct);
 8001142:	f107 039c 	add.w	r3, r7, #156	; 0x9c
 8001146:	4619      	mov	r1, r3
 8001148:	f04f 4090 	mov.w	r0, #1207959552	; 0x48000000
 800114c:	f000 f9f4 	bl	8001538 <HAL_GPIO_Init>
  /* USER CODE BEGIN USART2_MspInit 1 */

  /* USER CODE END USART2_MspInit 1 */
  }

}
 8001150:	bf00      	nop
 8001152:	37b0      	adds	r7, #176	; 0xb0
 8001154:	46bd      	mov	sp, r7
 8001156:	bd80      	pop	{r7, pc}
 8001158:	40004400 	.word	0x40004400
 800115c:	40021000 	.word	0x40021000

08001160 <NMI_Handler>:
/******************************************************************************/
/**
  * @brief This function handles Non maskable interrupt.
  */
void NMI_Handler(void)
{
 8001160:	b480      	push	{r7}
 8001162:	af00      	add	r7, sp, #0
  /* USER CODE BEGIN NonMaskableInt_IRQn 0 */

  /* USER CODE END NonMaskableInt_IRQn 0 */
  /* USER CODE BEGIN NonMaskableInt_IRQn 1 */
  while (1)
 8001164:	e7fe      	b.n	8001164 <NMI_Handler+0x4>

08001166 <HardFault_Handler>:

/**
  * @brief This function handles Hard fault interrupt.
  */
void HardFault_Handler(void)
{
 8001166:	b480      	push	{r7}
 8001168:	af00      	add	r7, sp, #0
  /* USER CODE BEGIN HardFault_IRQn 0 */

  /* USER CODE END HardFault_IRQn 0 */
  while (1)
 800116a:	e7fe      	b.n	800116a <HardFault_Handler+0x4>

0800116c <MemManage_Handler>:

/**
  * @brief This function handles Memory management fault.
  */
void MemManage_Handler(void)
{
 800116c:	b480      	push	{r7}
 800116e:	af00      	add	r7, sp, #0
  /* USER CODE BEGIN MemoryManagement_IRQn 0 */

  /* USER CODE END MemoryManagement_IRQn 0 */
  while (1)
 8001170:	e7fe      	b.n	8001170 <MemManage_Handler+0x4>

08001172 <BusFault_Handler>:

/**
  * @brief This function handles Prefetch fault, memory access fault.
  */
void BusFault_Handler(void)
{
 8001172:	b480      	push	{r7}
 8001174:	af00      	add	r7, sp, #0
  /* USER CODE BEGIN BusFault_IRQn 0 */

  /* USER CODE END BusFault_IRQn 0 */
  while (1)
 8001176:	e7fe      	b.n	8001176 <BusFault_Handler+0x4>

08001178 <UsageFault_Handler>:

/**
  * @brief This function handles Undefined instruction or illegal state.
  */
void UsageFault_Handler(void)
{
 8001178:	b480      	push	{r7}
 800117a:	af00      	add	r7, sp, #0
  /* USER CODE BEGIN UsageFault_IRQn 0 */

  /* USER CODE END UsageFault_IRQn 0 */
  while (1)
 800117c:	e7fe      	b.n	800117c <UsageFault_Handler+0x4>

0800117e <SVC_Handler>:

/**
  * @brief This function handles System service call via SWI instruction.
  */
void SVC_Handler(void)
{
 800117e:	b480      	push	{r7}
 8001180:	af00      	add	r7, sp, #0

  /* USER CODE END SVCall_IRQn 0 */
  /* USER CODE BEGIN SVCall_IRQn 1 */

  /* USER CODE END SVCall_IRQn 1 */
}
 8001182:	bf00      	nop
 8001184:	46bd      	mov	sp, r7
 8001186:	f85d 7b04 	ldr.w	r7, [sp], #4
 800118a:	4770      	bx	lr

0800118c <DebugMon_Handler>:

/**
  * @brief This function handles Debug monitor.
  */
void DebugMon_Handler(void)
{
 800118c:	b480      	push	{r7}
 800118e:	af00      	add	r7, sp, #0

  /* USER CODE END DebugMonitor_IRQn 0 */
  /* USER CODE BEGIN DebugMonitor_IRQn 1 */

  /* USER CODE END DebugMonitor_IRQn 1 */
}
 8001190:	bf00      	nop
 8001192:	46bd      	mov	sp, r7
 8001194:	f85d 7b04 	ldr.w	r7, [sp], #4
 8001198:	4770      	bx	lr

0800119a <PendSV_Handler>:

/**
  * @brief This function handles Pendable request for system service.
  */
void PendSV_Handler(void)
{
 800119a:	b480      	push	{r7}
 800119c:	af00      	add	r7, sp, #0

  /* USER CODE END PendSV_IRQn 0 */
  /* USER CODE BEGIN PendSV_IRQn 1 */

  /* USER CODE END PendSV_IRQn 1 */
}
 800119e:	bf00      	nop
 80011a0:	46bd      	mov	sp, r7
 80011a2:	f85d 7b04 	ldr.w	r7, [sp], #4
 80011a6:	4770      	bx	lr

080011a8 <SysTick_Handler>:

/**
  * @brief This function handles System tick timer.
  */
void SysTick_Handler(void)
{
 80011a8:	b580      	push	{r7, lr}
 80011aa:	af00      	add	r7, sp, #0
  /* USER CODE BEGIN SysTick_IRQn 0 */

  /* USER CODE END SysTick_IRQn 0 */
  HAL_IncTick();
 80011ac:	f000 f89a 	bl	80012e4 <HAL_IncTick>
  /* USER CODE BEGIN SysTick_IRQn 1 */

  /* USER CODE END SysTick_IRQn 1 */
}
 80011b0:	bf00      	nop
 80011b2:	bd80      	pop	{r7, pc}

080011b4 <SystemInit>:
  * @brief  Setup the microcontroller system.
  * @retval None
  */

void SystemInit(void)
{
 80011b4:	b480      	push	{r7}
 80011b6:	af00      	add	r7, sp, #0
  SCB->VTOR = VECT_TAB_BASE_ADDRESS | VECT_TAB_OFFSET;
#endif

  /* FPU settings ------------------------------------------------------------*/
#if (__FPU_PRESENT == 1) && (__FPU_USED == 1)
  SCB->CPACR |= ((3UL << 20U)|(3UL << 22U));  /* set CP10 and CP11 Full Access */
 80011b8:	4b06      	ldr	r3, [pc, #24]	; (80011d4 <SystemInit+0x20>)
 80011ba:	f8d3 3088 	ldr.w	r3, [r3, #136]	; 0x88
 80011be:	4a05      	ldr	r2, [pc, #20]	; (80011d4 <SystemInit+0x20>)
 80011c0:	f443 0370 	orr.w	r3, r3, #15728640	; 0xf00000
 80011c4:	f8c2 3088 	str.w	r3, [r2, #136]	; 0x88
#endif
}
 80011c8:	bf00      	nop
 80011ca:	46bd      	mov	sp, r7
 80011cc:	f85d 7b04 	ldr.w	r7, [sp], #4
 80011d0:	4770      	bx	lr
 80011d2:	bf00      	nop
 80011d4:	e000ed00 	.word	0xe000ed00

080011d8 <Reset_Handler>:

    .section	.text.Reset_Handler
	.weak	Reset_Handler
	.type	Reset_Handler, %function
Reset_Handler:
  ldr   sp, =_estack    /* Set stack pointer */
 80011d8:	f8df d034 	ldr.w	sp, [pc, #52]	; 8001210 <LoopForever+0x2>

/* Call the clock system initialization function.*/
    bl  SystemInit
 80011dc:	f7ff ffea 	bl	80011b4 <SystemInit>

/* Copy the data segment initializers from flash to SRAM */
  ldr r0, =_sdata
 80011e0:	480c      	ldr	r0, [pc, #48]	; (8001214 <LoopForever+0x6>)
  ldr r1, =_edata
 80011e2:	490d      	ldr	r1, [pc, #52]	; (8001218 <LoopForever+0xa>)
  ldr r2, =_sidata
 80011e4:	4a0d      	ldr	r2, [pc, #52]	; (800121c <LoopForever+0xe>)
  movs r3, #0
 80011e6:	2300      	movs	r3, #0
  b LoopCopyDataInit
 80011e8:	e002      	b.n	80011f0 <LoopCopyDataInit>

080011ea <CopyDataInit>:

CopyDataInit:
  ldr r4, [r2, r3]
 80011ea:	58d4      	ldr	r4, [r2, r3]
  str r4, [r0, r3]
 80011ec:	50c4      	str	r4, [r0, r3]
  adds r3, r3, #4
 80011ee:	3304      	adds	r3, #4

080011f0 <LoopCopyDataInit>:

LoopCopyDataInit:
  adds r4, r0, r3
 80011f0:	18c4      	adds	r4, r0, r3
  cmp r4, r1
 80011f2:	428c      	cmp	r4, r1
  bcc CopyDataInit
 80011f4:	d3f9      	bcc.n	80011ea <CopyDataInit>
  
/* Zero fill the bss segment. */
  ldr r2, =_sbss
 80011f6:	4a0a      	ldr	r2, [pc, #40]	; (8001220 <LoopForever+0x12>)
  ldr r4, =_ebss
 80011f8:	4c0a      	ldr	r4, [pc, #40]	; (8001224 <LoopForever+0x16>)
  movs r3, #0
 80011fa:	2300      	movs	r3, #0
  b LoopFillZerobss
 80011fc:	e001      	b.n	8001202 <LoopFillZerobss>

080011fe <FillZerobss>:

FillZerobss:
  str  r3, [r2]
 80011fe:	6013      	str	r3, [r2, #0]
  adds r2, r2, #4
 8001200:	3204      	adds	r2, #4

08001202 <LoopFillZerobss>:

LoopFillZerobss:
  cmp r2, r4
 8001202:	42a2      	cmp	r2, r4
  bcc FillZerobss
 8001204:	d3fb      	bcc.n	80011fe <FillZerobss>

/* Call static constructors */
    bl __libc_init_array
 8001206:	f002 fb17 	bl	8003838 <__libc_init_array>
/* Call the application's entry point.*/
	bl	main
 800120a:	f7ff fd9f 	bl	8000d4c <main>

0800120e <LoopForever>:

LoopForever:
    b LoopForever
 800120e:	e7fe      	b.n	800120e <LoopForever>
  ldr   sp, =_estack    /* Set stack pointer */
 8001210:	20018000 	.word	0x20018000
  ldr r0, =_sdata
 8001214:	20000000 	.word	0x20000000
  ldr r1, =_edata
 8001218:	2000000c 	.word	0x2000000c
  ldr r2, =_sidata
 800121c:	0800390c 	.word	0x0800390c
  ldr r2, =_sbss
 8001220:	2000000c 	.word	0x2000000c
  ldr r4, =_ebss
 8001224:	200000b0 	.word	0x200000b0

08001228 <ADC1_2_IRQHandler>:
 * @retval : None
*/
    .section	.text.Default_Handler,"ax",%progbits
Default_Handler:
Infinite_Loop:
	b	Infinite_Loop
 8001228:	e7fe      	b.n	8001228 <ADC1_2_IRQHandler>
	...

0800122c <HAL_Init>:
  *         each 1ms in the SysTick_Handler() interrupt handler.
  *
  * @retval HAL status
  */
HAL_StatusTypeDef HAL_Init(void)
{
 800122c:	b580      	push	{r7, lr}
 800122e:	b082      	sub	sp, #8
 8001230:	af00      	add	r7, sp, #0
  HAL_StatusTypeDef  status = HAL_OK;
 8001232:	2300      	movs	r3, #0
 8001234:	71fb      	strb	r3, [r7, #7]
#if (DATA_CACHE_ENABLE == 0)
   __HAL_FLASH_DATA_CACHE_DISABLE();
#endif /* DATA_CACHE_ENABLE */

#if (PREFETCH_ENABLE != 0)
  __HAL_FLASH_PREFETCH_BUFFER_ENABLE();
 8001236:	4b0c      	ldr	r3, [pc, #48]	; (8001268 <HAL_Init+0x3c>)
 8001238:	681b      	ldr	r3, [r3, #0]
 800123a:	4a0b      	ldr	r2, [pc, #44]	; (8001268 <HAL_Init+0x3c>)
 800123c:	f443 7380 	orr.w	r3, r3, #256	; 0x100
 8001240:	6013      	str	r3, [r2, #0]
#endif /* PREFETCH_ENABLE */

  /* Set Interrupt Group Priority */
  HAL_NVIC_SetPriorityGrouping(NVIC_PRIORITYGROUP_4);
 8001242:	2003      	movs	r0, #3
 8001244:	f000 f944 	bl	80014d0 <HAL_NVIC_SetPriorityGrouping>

  /* Use SysTick as time base source and configure 1ms tick (default clock after Reset is MSI) */
  if (HAL_InitTick(TICK_INT_PRIORITY) != HAL_OK)
 8001248:	2000      	movs	r0, #0
 800124a:	f000 f80f 	bl	800126c <HAL_InitTick>
 800124e:	4603      	mov	r3, r0
 8001250:	2b00      	cmp	r3, #0
 8001252:	d002      	beq.n	800125a <HAL_Init+0x2e>
  {
    status = HAL_ERROR;
 8001254:	2301      	movs	r3, #1
 8001256:	71fb      	strb	r3, [r7, #7]
 8001258:	e001      	b.n	800125e <HAL_Init+0x32>
  }
  else
  {
    /* Init the low level hardware */
    HAL_MspInit();
 800125a:	f7ff ff01 	bl	8001060 <HAL_MspInit>
  }

  /* Return function status */
  return status;
 800125e:	79fb      	ldrb	r3, [r7, #7]
}
 8001260:	4618      	mov	r0, r3
 8001262:	3708      	adds	r7, #8
 8001264:	46bd      	mov	sp, r7
 8001266:	bd80      	pop	{r7, pc}
 8001268:	40022000 	.word	0x40022000

0800126c <HAL_InitTick>:
  *       implementation  in user file.
  * @param TickPriority  Tick interrupt priority.
  * @retval HAL status
  */
__weak HAL_StatusTypeDef HAL_InitTick(uint32_t TickPriority)
{
 800126c:	b580      	push	{r7, lr}
 800126e:	b084      	sub	sp, #16
 8001270:	af00      	add	r7, sp, #0
 8001272:	6078      	str	r0, [r7, #4]
  HAL_StatusTypeDef  status = HAL_OK;
 8001274:	2300      	movs	r3, #0
 8001276:	73fb      	strb	r3, [r7, #15]

  /* Check uwTickFreq for MisraC 2012 (even if uwTickFreq is a enum type that doesn't take the value zero)*/
  if ((uint32_t)uwTickFreq != 0U)
 8001278:	4b17      	ldr	r3, [pc, #92]	; (80012d8 <HAL_InitTick+0x6c>)
 800127a:	781b      	ldrb	r3, [r3, #0]
 800127c:	2b00      	cmp	r3, #0
 800127e:	d023      	beq.n	80012c8 <HAL_InitTick+0x5c>
  {
    /*Configure the SysTick to have interrupt in 1ms time basis*/
    if (HAL_SYSTICK_Config(SystemCoreClock / (1000U / (uint32_t)uwTickFreq)) == 0U)
 8001280:	4b16      	ldr	r3, [pc, #88]	; (80012dc <HAL_InitTick+0x70>)
 8001282:	681a      	ldr	r2, [r3, #0]
 8001284:	4b14      	ldr	r3, [pc, #80]	; (80012d8 <HAL_InitTick+0x6c>)
 8001286:	781b      	ldrb	r3, [r3, #0]
 8001288:	4619      	mov	r1, r3
 800128a:	f44f 737a 	mov.w	r3, #1000	; 0x3e8
 800128e:	fbb3 f3f1 	udiv	r3, r3, r1
 8001292:	fbb2 f3f3 	udiv	r3, r2, r3
 8001296:	4618      	mov	r0, r3
 8001298:	f000 f941 	bl	800151e <HAL_SYSTICK_Config>
 800129c:	4603      	mov	r3, r0
 800129e:	2b00      	cmp	r3, #0
 80012a0:	d10f      	bne.n	80012c2 <HAL_InitTick+0x56>
    {
      /* Configure the SysTick IRQ priority */
      if (TickPriority < (1UL << __NVIC_PRIO_BITS))
 80012a2:	687b      	ldr	r3, [r7, #4]
 80012a4:	2b0f      	cmp	r3, #15
 80012a6:	d809      	bhi.n	80012bc <HAL_InitTick+0x50>
      {
        HAL_NVIC_SetPriority(SysTick_IRQn, TickPriority, 0U);
 80012a8:	2200      	movs	r2, #0
 80012aa:	6879      	ldr	r1, [r7, #4]
 80012ac:	f04f 30ff 	mov.w	r0, #4294967295
 80012b0:	f000 f919 	bl	80014e6 <HAL_NVIC_SetPriority>
        uwTickPrio = TickPriority;
 80012b4:	4a0a      	ldr	r2, [pc, #40]	; (80012e0 <HAL_InitTick+0x74>)
 80012b6:	687b      	ldr	r3, [r7, #4]
 80012b8:	6013      	str	r3, [r2, #0]
 80012ba:	e007      	b.n	80012cc <HAL_InitTick+0x60>
      }
      else
      {
        status = HAL_ERROR;
 80012bc:	2301      	movs	r3, #1
 80012be:	73fb      	strb	r3, [r7, #15]
 80012c0:	e004      	b.n	80012cc <HAL_InitTick+0x60>
      }
    }
    else
    {
      status = HAL_ERROR;
 80012c2:	2301      	movs	r3, #1
 80012c4:	73fb      	strb	r3, [r7, #15]
 80012c6:	e001      	b.n	80012cc <HAL_InitTick+0x60>
    }
  }
  else
  {
    status = HAL_ERROR;
 80012c8:	2301      	movs	r3, #1
 80012ca:	73fb      	strb	r3, [r7, #15]
  }

  /* Return function status */
  return status;
 80012cc:	7bfb      	ldrb	r3, [r7, #15]
}
 80012ce:	4618      	mov	r0, r3
 80012d0:	3710      	adds	r7, #16
 80012d2:	46bd      	mov	sp, r7
 80012d4:	bd80      	pop	{r7, pc}
 80012d6:	bf00      	nop
 80012d8:	20000008 	.word	0x20000008
 80012dc:	20000000 	.word	0x20000000
 80012e0:	20000004 	.word	0x20000004

080012e4 <HAL_IncTick>:
 * @note This function is declared as __weak to be overwritten in case of other
  *      implementations in user file.
  * @retval None
  */
__weak void HAL_IncTick(void)
{
 80012e4:	b480      	push	{r7}
 80012e6:	af00      	add	r7, sp, #0
  uwTick += (uint32_t)uwTickFreq;
 80012e8:	4b06      	ldr	r3, [pc, #24]	; (8001304 <HAL_IncTick+0x20>)
 80012ea:	781b      	ldrb	r3, [r3, #0]
 80012ec:	461a      	mov	r2, r3
 80012ee:	4b06      	ldr	r3, [pc, #24]	; (8001308 <HAL_IncTick+0x24>)
 80012f0:	681b      	ldr	r3, [r3, #0]
 80012f2:	4413      	add	r3, r2
 80012f4:	4a04      	ldr	r2, [pc, #16]	; (8001308 <HAL_IncTick+0x24>)
 80012f6:	6013      	str	r3, [r2, #0]
}
 80012f8:	bf00      	nop
 80012fa:	46bd      	mov	sp, r7
 80012fc:	f85d 7b04 	ldr.w	r7, [sp], #4
 8001300:	4770      	bx	lr
 8001302:	bf00      	nop
 8001304:	20000008 	.word	0x20000008
 8001308:	200000ac 	.word	0x200000ac

0800130c <HAL_GetTick>:
  * @note This function is declared as __weak to be overwritten in case of other
  *       implementations in user file.
  * @retval tick value
  */
__weak uint32_t HAL_GetTick(void)
{
 800130c:	b480      	push	{r7}
 800130e:	af00      	add	r7, sp, #0
  return uwTick;
 8001310:	4b03      	ldr	r3, [pc, #12]	; (8001320 <HAL_GetTick+0x14>)
 8001312:	681b      	ldr	r3, [r3, #0]
}
 8001314:	4618      	mov	r0, r3
 8001316:	46bd      	mov	sp, r7
 8001318:	f85d 7b04 	ldr.w	r7, [sp], #4
 800131c:	4770      	bx	lr
 800131e:	bf00      	nop
 8001320:	200000ac 	.word	0x200000ac

08001324 <HAL_Delay>:
  *       implementations in user file.
  * @param Delay  specifies the delay time length, in milliseconds.
  * @retval None
  */
__weak void HAL_Delay(uint32_t Delay)
{
 8001324:	b580      	push	{r7, lr}
 8001326:	b084      	sub	sp, #16
 8001328:	af00      	add	r7, sp, #0
 800132a:	6078      	str	r0, [r7, #4]
  uint32_t tickstart = HAL_GetTick();
 800132c:	f7ff ffee 	bl	800130c <HAL_GetTick>
 8001330:	60b8      	str	r0, [r7, #8]
  uint32_t wait = Delay;
 8001332:	687b      	ldr	r3, [r7, #4]
 8001334:	60fb      	str	r3, [r7, #12]

  /* Add a period to guaranty minimum wait */
  if (wait < HAL_MAX_DELAY)
 8001336:	68fb      	ldr	r3, [r7, #12]
 8001338:	f1b3 3fff 	cmp.w	r3, #4294967295
 800133c:	d005      	beq.n	800134a <HAL_Delay+0x26>
  {
    wait += (uint32_t)uwTickFreq;
 800133e:	4b0a      	ldr	r3, [pc, #40]	; (8001368 <HAL_Delay+0x44>)
 8001340:	781b      	ldrb	r3, [r3, #0]
 8001342:	461a      	mov	r2, r3
 8001344:	68fb      	ldr	r3, [r7, #12]
 8001346:	4413      	add	r3, r2
 8001348:	60fb      	str	r3, [r7, #12]
  }

  while ((HAL_GetTick() - tickstart) < wait)
 800134a:	bf00      	nop
 800134c:	f7ff ffde 	bl	800130c <HAL_GetTick>
 8001350:	4602      	mov	r2, r0
 8001352:	68bb      	ldr	r3, [r7, #8]
 8001354:	1ad3      	subs	r3, r2, r3
 8001356:	68fa      	ldr	r2, [r7, #12]
 8001358:	429a      	cmp	r2, r3
 800135a:	d8f7      	bhi.n	800134c <HAL_Delay+0x28>
  {
  }
}
 800135c:	bf00      	nop
 800135e:	bf00      	nop
 8001360:	3710      	adds	r7, #16
 8001362:	46bd      	mov	sp, r7
 8001364:	bd80      	pop	{r7, pc}
 8001366:	bf00      	nop
 8001368:	20000008 	.word	0x20000008

0800136c <__NVIC_SetPriorityGrouping>:
           In case of a conflict between priority grouping and available
           priority bits (__NVIC_PRIO_BITS), the smallest possible priority group is set.
  \param [in]      PriorityGroup  Priority grouping field.
 */
__STATIC_INLINE void __NVIC_SetPriorityGrouping(uint32_t PriorityGroup)
{
 800136c:	b480      	push	{r7}
 800136e:	b085      	sub	sp, #20
 8001370:	af00      	add	r7, sp, #0
 8001372:	6078      	str	r0, [r7, #4]
  uint32_t reg_value;
  uint32_t PriorityGroupTmp = (PriorityGroup & (uint32_t)0x07UL);             /* only values 0..7 are used          */
 8001374:	687b      	ldr	r3, [r7, #4]
 8001376:	f003 0307 	and.w	r3, r3, #7
 800137a:	60fb      	str	r3, [r7, #12]

  reg_value  =  SCB->AIRCR;                                                   /* read old register configuration    */
 800137c:	4b0c      	ldr	r3, [pc, #48]	; (80013b0 <__NVIC_SetPriorityGrouping+0x44>)
 800137e:	68db      	ldr	r3, [r3, #12]
 8001380:	60bb      	str	r3, [r7, #8]
  reg_value &= ~((uint32_t)(SCB_AIRCR_VECTKEY_Msk | SCB_AIRCR_PRIGROUP_Msk)); /* clear bits to change               */
 8001382:	68ba      	ldr	r2, [r7, #8]
 8001384:	f64f 03ff 	movw	r3, #63743	; 0xf8ff
 8001388:	4013      	ands	r3, r2
 800138a:	60bb      	str	r3, [r7, #8]
  reg_value  =  (reg_value                                   |
                ((uint32_t)0x5FAUL << SCB_AIRCR_VECTKEY_Pos) |
                (PriorityGroupTmp << SCB_AIRCR_PRIGROUP_Pos)  );              /* Insert write key and priority group */
 800138c:	68fb      	ldr	r3, [r7, #12]
 800138e:	021a      	lsls	r2, r3, #8
                ((uint32_t)0x5FAUL << SCB_AIRCR_VECTKEY_Pos) |
 8001390:	68bb      	ldr	r3, [r7, #8]
 8001392:	4313      	orrs	r3, r2
  reg_value  =  (reg_value                                   |
 8001394:	f043 63bf 	orr.w	r3, r3, #100139008	; 0x5f80000
 8001398:	f443 3300 	orr.w	r3, r3, #131072	; 0x20000
 800139c:	60bb      	str	r3, [r7, #8]
  SCB->AIRCR =  reg_value;
 800139e:	4a04      	ldr	r2, [pc, #16]	; (80013b0 <__NVIC_SetPriorityGrouping+0x44>)
 80013a0:	68bb      	ldr	r3, [r7, #8]
 80013a2:	60d3      	str	r3, [r2, #12]
}
 80013a4:	bf00      	nop
 80013a6:	3714      	adds	r7, #20
 80013a8:	46bd      	mov	sp, r7
 80013aa:	f85d 7b04 	ldr.w	r7, [sp], #4
 80013ae:	4770      	bx	lr
 80013b0:	e000ed00 	.word	0xe000ed00

080013b4 <__NVIC_GetPriorityGrouping>:
  \brief   Get Priority Grouping
  \details Reads the priority grouping field from the NVIC Interrupt Controller.
  \return                Priority grouping field (SCB->AIRCR [10:8] PRIGROUP field).
 */
__STATIC_INLINE uint32_t __NVIC_GetPriorityGrouping(void)
{
 80013b4:	b480      	push	{r7}
 80013b6:	af00      	add	r7, sp, #0
  return ((uint32_t)((SCB->AIRCR & SCB_AIRCR_PRIGROUP_Msk) >> SCB_AIRCR_PRIGROUP_Pos));
 80013b8:	4b04      	ldr	r3, [pc, #16]	; (80013cc <__NVIC_GetPriorityGrouping+0x18>)
 80013ba:	68db      	ldr	r3, [r3, #12]
 80013bc:	0a1b      	lsrs	r3, r3, #8
 80013be:	f003 0307 	and.w	r3, r3, #7
}
 80013c2:	4618      	mov	r0, r3
 80013c4:	46bd      	mov	sp, r7
 80013c6:	f85d 7b04 	ldr.w	r7, [sp], #4
 80013ca:	4770      	bx	lr
 80013cc:	e000ed00 	.word	0xe000ed00

080013d0 <__NVIC_SetPriority>:
  \param [in]      IRQn  Interrupt number.
  \param [in]  priority  Priority to set.
  \note    The priority cannot be set for every processor exception.
 */
__STATIC_INLINE void __NVIC_SetPriority(IRQn_Type IRQn, uint32_t priority)
{
 80013d0:	b480      	push	{r7}
 80013d2:	b083      	sub	sp, #12
 80013d4:	af00      	add	r7, sp, #0
 80013d6:	4603      	mov	r3, r0
 80013d8:	6039      	str	r1, [r7, #0]
 80013da:	71fb      	strb	r3, [r7, #7]
  if ((int32_t)(IRQn) >= 0)
 80013dc:	f997 3007 	ldrsb.w	r3, [r7, #7]
 80013e0:	2b00      	cmp	r3, #0
 80013e2:	db0a      	blt.n	80013fa <__NVIC_SetPriority+0x2a>
  {
    NVIC->IP[((uint32_t)IRQn)]               = (uint8_t)((priority << (8U - __NVIC_PRIO_BITS)) & (uint32_t)0xFFUL);
 80013e4:	683b      	ldr	r3, [r7, #0]
 80013e6:	b2da      	uxtb	r2, r3
 80013e8:	490c      	ldr	r1, [pc, #48]	; (800141c <__NVIC_SetPriority+0x4c>)
 80013ea:	f997 3007 	ldrsb.w	r3, [r7, #7]
 80013ee:	0112      	lsls	r2, r2, #4
 80013f0:	b2d2      	uxtb	r2, r2
 80013f2:	440b      	add	r3, r1
 80013f4:	f883 2300 	strb.w	r2, [r3, #768]	; 0x300
  }
  else
  {
    SCB->SHP[(((uint32_t)IRQn) & 0xFUL)-4UL] = (uint8_t)((priority << (8U - __NVIC_PRIO_BITS)) & (uint32_t)0xFFUL);
  }
}
 80013f8:	e00a      	b.n	8001410 <__NVIC_SetPriority+0x40>
    SCB->SHP[(((uint32_t)IRQn) & 0xFUL)-4UL] = (uint8_t)((priority << (8U - __NVIC_PRIO_BITS)) & (uint32_t)0xFFUL);
 80013fa:	683b      	ldr	r3, [r7, #0]
 80013fc:	b2da      	uxtb	r2, r3
 80013fe:	4908      	ldr	r1, [pc, #32]	; (8001420 <__NVIC_SetPriority+0x50>)
 8001400:	79fb      	ldrb	r3, [r7, #7]
 8001402:	f003 030f 	and.w	r3, r3, #15
 8001406:	3b04      	subs	r3, #4
 8001408:	0112      	lsls	r2, r2, #4
 800140a:	b2d2      	uxtb	r2, r2
 800140c:	440b      	add	r3, r1
 800140e:	761a      	strb	r2, [r3, #24]
}
 8001410:	bf00      	nop
 8001412:	370c      	adds	r7, #12
 8001414:	46bd      	mov	sp, r7
 8001416:	f85d 7b04 	ldr.w	r7, [sp], #4
 800141a:	4770      	bx	lr
 800141c:	e000e100 	.word	0xe000e100
 8001420:	e000ed00 	.word	0xe000ed00

08001424 <NVIC_EncodePriority>:
  \param [in]   PreemptPriority  Preemptive priority value (starting from 0).
  \param [in]       SubPriority  Subpriority value (starting from 0).
  \return                        Encoded priority. Value can be used in the function \ref NVIC_SetPriority().
 */
__STATIC_INLINE uint32_t NVIC_EncodePriority (uint32_t PriorityGroup, uint32_t PreemptPriority, uint32_t SubPriority)
{
 8001424:	b480      	push	{r7}
 8001426:	b089      	sub	sp, #36	; 0x24
 8001428:	af00      	add	r7, sp, #0
 800142a:	60f8      	str	r0, [r7, #12]
 800142c:	60b9      	str	r1, [r7, #8]
 800142e:	607a      	str	r2, [r7, #4]
  uint32_t PriorityGroupTmp = (PriorityGroup & (uint32_t)0x07UL);   /* only values 0..7 are used          */
 8001430:	68fb      	ldr	r3, [r7, #12]
 8001432:	f003 0307 	and.w	r3, r3, #7
 8001436:	61fb      	str	r3, [r7, #28]
  uint32_t PreemptPriorityBits;
  uint32_t SubPriorityBits;

  PreemptPriorityBits = ((7UL - PriorityGroupTmp) > (uint32_t)(__NVIC_PRIO_BITS)) ? (uint32_t)(__NVIC_PRIO_BITS) : (uint32_t)(7UL - PriorityGroupTmp);
 8001438:	69fb      	ldr	r3, [r7, #28]
 800143a:	f1c3 0307 	rsb	r3, r3, #7
 800143e:	2b04      	cmp	r3, #4
 8001440:	bf28      	it	cs
 8001442:	2304      	movcs	r3, #4
 8001444:	61bb      	str	r3, [r7, #24]
  SubPriorityBits     = ((PriorityGroupTmp + (uint32_t)(__NVIC_PRIO_BITS)) < (uint32_t)7UL) ? (uint32_t)0UL : (uint32_t)((PriorityGroupTmp - 7UL) + (uint32_t)(__NVIC_PRIO_BITS));
 8001446:	69fb      	ldr	r3, [r7, #28]
 8001448:	3304      	adds	r3, #4
 800144a:	2b06      	cmp	r3, #6
 800144c:	d902      	bls.n	8001454 <NVIC_EncodePriority+0x30>
 800144e:	69fb      	ldr	r3, [r7, #28]
 8001450:	3b03      	subs	r3, #3
 8001452:	e000      	b.n	8001456 <NVIC_EncodePriority+0x32>
 8001454:	2300      	movs	r3, #0
 8001456:	617b      	str	r3, [r7, #20]

  return (
           ((PreemptPriority & (uint32_t)((1UL << (PreemptPriorityBits)) - 1UL)) << SubPriorityBits) |
 8001458:	f04f 32ff 	mov.w	r2, #4294967295
 800145c:	69bb      	ldr	r3, [r7, #24]
 800145e:	fa02 f303 	lsl.w	r3, r2, r3
 8001462:	43da      	mvns	r2, r3
 8001464:	68bb      	ldr	r3, [r7, #8]
 8001466:	401a      	ands	r2, r3
 8001468:	697b      	ldr	r3, [r7, #20]
 800146a:	409a      	lsls	r2, r3
           ((SubPriority     & (uint32_t)((1UL << (SubPriorityBits    )) - 1UL)))
 800146c:	f04f 31ff 	mov.w	r1, #4294967295
 8001470:	697b      	ldr	r3, [r7, #20]
 8001472:	fa01 f303 	lsl.w	r3, r1, r3
 8001476:	43d9      	mvns	r1, r3
 8001478:	687b      	ldr	r3, [r7, #4]
 800147a:	400b      	ands	r3, r1
           ((PreemptPriority & (uint32_t)((1UL << (PreemptPriorityBits)) - 1UL)) << SubPriorityBits) |
 800147c:	4313      	orrs	r3, r2
         );
}
 800147e:	4618      	mov	r0, r3
 8001480:	3724      	adds	r7, #36	; 0x24
 8001482:	46bd      	mov	sp, r7
 8001484:	f85d 7b04 	ldr.w	r7, [sp], #4
 8001488:	4770      	bx	lr
	...

0800148c <SysTick_Config>:
  \note    When the variable <b>__Vendor_SysTickConfig</b> is set to 1, then the
           function <b>SysTick_Config</b> is not included. In this case, the file <b><i>device</i>.h</b>
           must contain a vendor-specific implementation of this function.
 */
__STATIC_INLINE uint32_t SysTick_Config(uint32_t ticks)
{
 800148c:	b580      	push	{r7, lr}
 800148e:	b082      	sub	sp, #8
 8001490:	af00      	add	r7, sp, #0
 8001492:	6078      	str	r0, [r7, #4]
  if ((ticks - 1UL) > SysTick_LOAD_RELOAD_Msk)
 8001494:	687b      	ldr	r3, [r7, #4]
 8001496:	3b01      	subs	r3, #1
 8001498:	f1b3 7f80 	cmp.w	r3, #16777216	; 0x1000000
 800149c:	d301      	bcc.n	80014a2 <SysTick_Config+0x16>
  {
    return (1UL);                                                   /* Reload value impossible */
 800149e:	2301      	movs	r3, #1
 80014a0:	e00f      	b.n	80014c2 <SysTick_Config+0x36>
  }

  SysTick->LOAD  = (uint32_t)(ticks - 1UL);                         /* set reload register */
 80014a2:	4a0a      	ldr	r2, [pc, #40]	; (80014cc <SysTick_Config+0x40>)
 80014a4:	687b      	ldr	r3, [r7, #4]
 80014a6:	3b01      	subs	r3, #1
 80014a8:	6053      	str	r3, [r2, #4]
  NVIC_SetPriority (SysTick_IRQn, (1UL << __NVIC_PRIO_BITS) - 1UL); /* set Priority for Systick Interrupt */
 80014aa:	210f      	movs	r1, #15
 80014ac:	f04f 30ff 	mov.w	r0, #4294967295
 80014b0:	f7ff ff8e 	bl	80013d0 <__NVIC_SetPriority>
  SysTick->VAL   = 0UL;                                             /* Load the SysTick Counter Value */
 80014b4:	4b05      	ldr	r3, [pc, #20]	; (80014cc <SysTick_Config+0x40>)
 80014b6:	2200      	movs	r2, #0
 80014b8:	609a      	str	r2, [r3, #8]
  SysTick->CTRL  = SysTick_CTRL_CLKSOURCE_Msk |
 80014ba:	4b04      	ldr	r3, [pc, #16]	; (80014cc <SysTick_Config+0x40>)
 80014bc:	2207      	movs	r2, #7
 80014be:	601a      	str	r2, [r3, #0]
                   SysTick_CTRL_TICKINT_Msk   |
                   SysTick_CTRL_ENABLE_Msk;                         /* Enable SysTick IRQ and SysTick Timer */
  return (0UL);                                                     /* Function successful */
 80014c0:	2300      	movs	r3, #0
}
 80014c2:	4618      	mov	r0, r3
 80014c4:	3708      	adds	r7, #8
 80014c6:	46bd      	mov	sp, r7
 80014c8:	bd80      	pop	{r7, pc}
 80014ca:	bf00      	nop
 80014cc:	e000e010 	.word	0xe000e010

080014d0 <HAL_NVIC_SetPriorityGrouping>:
  * @note   When the NVIC_PriorityGroup_0 is selected, IRQ pre-emption is no more possible.
  *         The pending IRQ priority will be managed only by the subpriority.
  * @retval None
  */
void HAL_NVIC_SetPriorityGrouping(uint32_t PriorityGroup)
{
 80014d0:	b580      	push	{r7, lr}
 80014d2:	b082      	sub	sp, #8
 80014d4:	af00      	add	r7, sp, #0
 80014d6:	6078      	str	r0, [r7, #4]
  /* Check the parameters */
  assert_param(IS_NVIC_PRIORITY_GROUP(PriorityGroup));

  /* Set the PRIGROUP[10:8] bits according to the PriorityGroup parameter value */
  NVIC_SetPriorityGrouping(PriorityGroup);
 80014d8:	6878      	ldr	r0, [r7, #4]
 80014da:	f7ff ff47 	bl	800136c <__NVIC_SetPriorityGrouping>
}
 80014de:	bf00      	nop
 80014e0:	3708      	adds	r7, #8
 80014e2:	46bd      	mov	sp, r7
 80014e4:	bd80      	pop	{r7, pc}

080014e6 <HAL_NVIC_SetPriority>:
  *         This parameter can be a value between 0 and 15
  *         A lower priority value indicates a higher priority.
  * @retval None
  */
void HAL_NVIC_SetPriority(IRQn_Type IRQn, uint32_t PreemptPriority, uint32_t SubPriority)
{
 80014e6:	b580      	push	{r7, lr}
 80014e8:	b086      	sub	sp, #24
 80014ea:	af00      	add	r7, sp, #0
 80014ec:	4603      	mov	r3, r0
 80014ee:	60b9      	str	r1, [r7, #8]
 80014f0:	607a      	str	r2, [r7, #4]
 80014f2:	73fb      	strb	r3, [r7, #15]
  uint32_t prioritygroup = 0x00;
 80014f4:	2300      	movs	r3, #0
 80014f6:	617b      	str	r3, [r7, #20]

  /* Check the parameters */
  assert_param(IS_NVIC_SUB_PRIORITY(SubPriority));
  assert_param(IS_NVIC_PREEMPTION_PRIORITY(PreemptPriority));

  prioritygroup = NVIC_GetPriorityGrouping();
 80014f8:	f7ff ff5c 	bl	80013b4 <__NVIC_GetPriorityGrouping>
 80014fc:	6178      	str	r0, [r7, #20]

  NVIC_SetPriority(IRQn, NVIC_EncodePriority(prioritygroup, PreemptPriority, SubPriority));
 80014fe:	687a      	ldr	r2, [r7, #4]
 8001500:	68b9      	ldr	r1, [r7, #8]
 8001502:	6978      	ldr	r0, [r7, #20]
 8001504:	f7ff ff8e 	bl	8001424 <NVIC_EncodePriority>
 8001508:	4602      	mov	r2, r0
 800150a:	f997 300f 	ldrsb.w	r3, [r7, #15]
 800150e:	4611      	mov	r1, r2
 8001510:	4618      	mov	r0, r3
 8001512:	f7ff ff5d 	bl	80013d0 <__NVIC_SetPriority>
}
 8001516:	bf00      	nop
 8001518:	3718      	adds	r7, #24
 800151a:	46bd      	mov	sp, r7
 800151c:	bd80      	pop	{r7, pc}

0800151e <HAL_SYSTICK_Config>:
  * @param  TicksNumb: Specifies the ticks Number of ticks between two interrupts.
  * @retval status:  - 0  Function succeeded.
  *                  - 1  Function failed.
  */
uint32_t HAL_SYSTICK_Config(uint32_t TicksNumb)
{
 800151e:	b580      	push	{r7, lr}
 8001520:	b082      	sub	sp, #8
 8001522:	af00      	add	r7, sp, #0
 8001524:	6078      	str	r0, [r7, #4]
   return SysTick_Config(TicksNumb);
 8001526:	6878      	ldr	r0, [r7, #4]
 8001528:	f7ff ffb0 	bl	800148c <SysTick_Config>
 800152c:	4603      	mov	r3, r0
}
 800152e:	4618      	mov	r0, r3
 8001530:	3708      	adds	r7, #8
 8001532:	46bd      	mov	sp, r7
 8001534:	bd80      	pop	{r7, pc}
	...

08001538 <HAL_GPIO_Init>:
  * @param  GPIO_Init pointer to a GPIO_InitTypeDef structure that contains
  *         the configuration information for the specified GPIO peripheral.
  * @retval None
  */
void HAL_GPIO_Init(GPIO_TypeDef  *GPIOx, GPIO_InitTypeDef *GPIO_Init)
{
 8001538:	b480      	push	{r7}
 800153a:	b087      	sub	sp, #28
 800153c:	af00      	add	r7, sp, #0
 800153e:	6078      	str	r0, [r7, #4]
 8001540:	6039      	str	r1, [r7, #0]
  uint32_t position = 0x00u;
 8001542:	2300      	movs	r3, #0
 8001544:	617b      	str	r3, [r7, #20]
  assert_param(IS_GPIO_ALL_INSTANCE(GPIOx));
  assert_param(IS_GPIO_PIN(GPIO_Init->Pin));
  assert_param(IS_GPIO_MODE(GPIO_Init->Mode));

  /* Configure the port pins */
  while (((GPIO_Init->Pin) >> position) != 0x00u)
 8001546:	e17f      	b.n	8001848 <HAL_GPIO_Init+0x310>
  {
    /* Get current io position */
    iocurrent = (GPIO_Init->Pin) & (1uL << position);
 8001548:	683b      	ldr	r3, [r7, #0]
 800154a:	681a      	ldr	r2, [r3, #0]
 800154c:	2101      	movs	r1, #1
 800154e:	697b      	ldr	r3, [r7, #20]
 8001550:	fa01 f303 	lsl.w	r3, r1, r3
 8001554:	4013      	ands	r3, r2
 8001556:	60fb      	str	r3, [r7, #12]

    if (iocurrent != 0x00u)
 8001558:	68fb      	ldr	r3, [r7, #12]
 800155a:	2b00      	cmp	r3, #0
 800155c:	f000 8171 	beq.w	8001842 <HAL_GPIO_Init+0x30a>
    {
      /*--------------------- GPIO Mode Configuration ------------------------*/
      /* In case of Output or Alternate function mode selection */
      if (((GPIO_Init->Mode & GPIO_MODE) == MODE_OUTPUT) || ((GPIO_Init->Mode & GPIO_MODE) == MODE_AF))
 8001560:	683b      	ldr	r3, [r7, #0]
 8001562:	685b      	ldr	r3, [r3, #4]
 8001564:	f003 0303 	and.w	r3, r3, #3
 8001568:	2b01      	cmp	r3, #1
 800156a:	d005      	beq.n	8001578 <HAL_GPIO_Init+0x40>
 800156c:	683b      	ldr	r3, [r7, #0]
 800156e:	685b      	ldr	r3, [r3, #4]
 8001570:	f003 0303 	and.w	r3, r3, #3
 8001574:	2b02      	cmp	r3, #2
 8001576:	d130      	bne.n	80015da <HAL_GPIO_Init+0xa2>
      {
        /* Check the Speed parameter */
        assert_param(IS_GPIO_SPEED(GPIO_Init->Speed));

        /* Configure the IO Speed */
        temp = GPIOx->OSPEEDR;
 8001578:	687b      	ldr	r3, [r7, #4]
 800157a:	689b      	ldr	r3, [r3, #8]
 800157c:	613b      	str	r3, [r7, #16]
        temp &= ~(GPIO_OSPEEDR_OSPEED0 << (position * 2u));
 800157e:	697b      	ldr	r3, [r7, #20]
 8001580:	005b      	lsls	r3, r3, #1
 8001582:	2203      	movs	r2, #3
 8001584:	fa02 f303 	lsl.w	r3, r2, r3
 8001588:	43db      	mvns	r3, r3
 800158a:	693a      	ldr	r2, [r7, #16]
 800158c:	4013      	ands	r3, r2
 800158e:	613b      	str	r3, [r7, #16]
        temp |= (GPIO_Init->Speed << (position * 2u));
 8001590:	683b      	ldr	r3, [r7, #0]
 8001592:	68da      	ldr	r2, [r3, #12]
 8001594:	697b      	ldr	r3, [r7, #20]
 8001596:	005b      	lsls	r3, r3, #1
 8001598:	fa02 f303 	lsl.w	r3, r2, r3
 800159c:	693a      	ldr	r2, [r7, #16]
 800159e:	4313      	orrs	r3, r2
 80015a0:	613b      	str	r3, [r7, #16]
        GPIOx->OSPEEDR = temp;
 80015a2:	687b      	ldr	r3, [r7, #4]
 80015a4:	693a      	ldr	r2, [r7, #16]
 80015a6:	609a      	str	r2, [r3, #8]

        /* Configure the IO Output Type */
        temp = GPIOx->OTYPER;
 80015a8:	687b      	ldr	r3, [r7, #4]
 80015aa:	685b      	ldr	r3, [r3, #4]
 80015ac:	613b      	str	r3, [r7, #16]
        temp &= ~(GPIO_OTYPER_OT0 << position) ;
 80015ae:	2201      	movs	r2, #1
 80015b0:	697b      	ldr	r3, [r7, #20]
 80015b2:	fa02 f303 	lsl.w	r3, r2, r3
 80015b6:	43db      	mvns	r3, r3
 80015b8:	693a      	ldr	r2, [r7, #16]
 80015ba:	4013      	ands	r3, r2
 80015bc:	613b      	str	r3, [r7, #16]
        temp |= (((GPIO_Init->Mode & OUTPUT_TYPE) >> OUTPUT_TYPE_Pos) << position);
 80015be:	683b      	ldr	r3, [r7, #0]
 80015c0:	685b      	ldr	r3, [r3, #4]
 80015c2:	091b      	lsrs	r3, r3, #4
 80015c4:	f003 0201 	and.w	r2, r3, #1
 80015c8:	697b      	ldr	r3, [r7, #20]
 80015ca:	fa02 f303 	lsl.w	r3, r2, r3
 80015ce:	693a      	ldr	r2, [r7, #16]
 80015d0:	4313      	orrs	r3, r2
 80015d2:	613b      	str	r3, [r7, #16]
        GPIOx->OTYPER = temp;
 80015d4:	687b      	ldr	r3, [r7, #4]
 80015d6:	693a      	ldr	r2, [r7, #16]
 80015d8:	605a      	str	r2, [r3, #4]
      }

#if defined(STM32L471xx) || defined(STM32L475xx) || defined(STM32L476xx) || defined(STM32L485xx) || defined(STM32L486xx)

      /* In case of Analog mode, check if ADC control mode is selected */
      if((GPIO_Init->Mode & GPIO_MODE_ANALOG) == GPIO_MODE_ANALOG)
 80015da:	683b      	ldr	r3, [r7, #0]
 80015dc:	685b      	ldr	r3, [r3, #4]
 80015de:	f003 0303 	and.w	r3, r3, #3
 80015e2:	2b03      	cmp	r3, #3
 80015e4:	d118      	bne.n	8001618 <HAL_GPIO_Init+0xe0>
      {
        /* Configure the IO Output Type */
        temp = GPIOx->ASCR;
 80015e6:	687b      	ldr	r3, [r7, #4]
 80015e8:	6adb      	ldr	r3, [r3, #44]	; 0x2c
 80015ea:	613b      	str	r3, [r7, #16]
        temp &= ~(GPIO_ASCR_ASC0 << position) ;
 80015ec:	2201      	movs	r2, #1
 80015ee:	697b      	ldr	r3, [r7, #20]
 80015f0:	fa02 f303 	lsl.w	r3, r2, r3
 80015f4:	43db      	mvns	r3, r3
 80015f6:	693a      	ldr	r2, [r7, #16]
 80015f8:	4013      	ands	r3, r2
 80015fa:	613b      	str	r3, [r7, #16]
        temp |= (((GPIO_Init->Mode & GPIO_MODE_ANALOG_ADC_CONTROL) >> 3) << position);
 80015fc:	683b      	ldr	r3, [r7, #0]
 80015fe:	685b      	ldr	r3, [r3, #4]
 8001600:	08db      	lsrs	r3, r3, #3
 8001602:	f003 0201 	and.w	r2, r3, #1
 8001606:	697b      	ldr	r3, [r7, #20]
 8001608:	fa02 f303 	lsl.w	r3, r2, r3
 800160c:	693a      	ldr	r2, [r7, #16]
 800160e:	4313      	orrs	r3, r2
 8001610:	613b      	str	r3, [r7, #16]
        GPIOx->ASCR = temp;
 8001612:	687b      	ldr	r3, [r7, #4]
 8001614:	693a      	ldr	r2, [r7, #16]
 8001616:	62da      	str	r2, [r3, #44]	; 0x2c
      }

#endif /* STM32L471xx || STM32L475xx || STM32L476xx || STM32L485xx || STM32L486xx */

      /* Activate the Pull-up or Pull down resistor for the current IO */
      if ((GPIO_Init->Mode & GPIO_MODE) != MODE_ANALOG)
 8001618:	683b      	ldr	r3, [r7, #0]
 800161a:	685b      	ldr	r3, [r3, #4]
 800161c:	f003 0303 	and.w	r3, r3, #3
 8001620:	2b03      	cmp	r3, #3
 8001622:	d017      	beq.n	8001654 <HAL_GPIO_Init+0x11c>
      {
        /* Check the Pull parameter */
        assert_param(IS_GPIO_PULL(GPIO_Init->Pull));

        temp = GPIOx->PUPDR;
 8001624:	687b      	ldr	r3, [r7, #4]
 8001626:	68db      	ldr	r3, [r3, #12]
 8001628:	613b      	str	r3, [r7, #16]
        temp &= ~(GPIO_PUPDR_PUPD0 << (position * 2U));
 800162a:	697b      	ldr	r3, [r7, #20]
 800162c:	005b      	lsls	r3, r3, #1
 800162e:	2203      	movs	r2, #3
 8001630:	fa02 f303 	lsl.w	r3, r2, r3
 8001634:	43db      	mvns	r3, r3
 8001636:	693a      	ldr	r2, [r7, #16]
 8001638:	4013      	ands	r3, r2
 800163a:	613b      	str	r3, [r7, #16]
        temp |= ((GPIO_Init->Pull) << (position * 2U));
 800163c:	683b      	ldr	r3, [r7, #0]
 800163e:	689a      	ldr	r2, [r3, #8]
 8001640:	697b      	ldr	r3, [r7, #20]
 8001642:	005b      	lsls	r3, r3, #1
 8001644:	fa02 f303 	lsl.w	r3, r2, r3
 8001648:	693a      	ldr	r2, [r7, #16]
 800164a:	4313      	orrs	r3, r2
 800164c:	613b      	str	r3, [r7, #16]
        GPIOx->PUPDR = temp;
 800164e:	687b      	ldr	r3, [r7, #4]
 8001650:	693a      	ldr	r2, [r7, #16]
 8001652:	60da      	str	r2, [r3, #12]
      }

      /* In case of Alternate function mode selection */
      if ((GPIO_Init->Mode & GPIO_MODE) == MODE_AF)
 8001654:	683b      	ldr	r3, [r7, #0]
 8001656:	685b      	ldr	r3, [r3, #4]
 8001658:	f003 0303 	and.w	r3, r3, #3
 800165c:	2b02      	cmp	r3, #2
 800165e:	d123      	bne.n	80016a8 <HAL_GPIO_Init+0x170>
        /* Check the Alternate function parameters */
        assert_param(IS_GPIO_AF_INSTANCE(GPIOx));
        assert_param(IS_GPIO_AF(GPIO_Init->Alternate));

        /* Configure Alternate function mapped with the current IO */
        temp = GPIOx->AFR[position >> 3u];
 8001660:	697b      	ldr	r3, [r7, #20]
 8001662:	08da      	lsrs	r2, r3, #3
 8001664:	687b      	ldr	r3, [r7, #4]
 8001666:	3208      	adds	r2, #8
 8001668:	f853 3022 	ldr.w	r3, [r3, r2, lsl #2]
 800166c:	613b      	str	r3, [r7, #16]
        temp &= ~(0xFu << ((position & 0x07u) * 4u));
 800166e:	697b      	ldr	r3, [r7, #20]
 8001670:	f003 0307 	and.w	r3, r3, #7
 8001674:	009b      	lsls	r3, r3, #2
 8001676:	220f      	movs	r2, #15
 8001678:	fa02 f303 	lsl.w	r3, r2, r3
 800167c:	43db      	mvns	r3, r3
 800167e:	693a      	ldr	r2, [r7, #16]
 8001680:	4013      	ands	r3, r2
 8001682:	613b      	str	r3, [r7, #16]
        temp |= ((GPIO_Init->Alternate) << ((position & 0x07u) * 4u));
 8001684:	683b      	ldr	r3, [r7, #0]
 8001686:	691a      	ldr	r2, [r3, #16]
 8001688:	697b      	ldr	r3, [r7, #20]
 800168a:	f003 0307 	and.w	r3, r3, #7
 800168e:	009b      	lsls	r3, r3, #2
 8001690:	fa02 f303 	lsl.w	r3, r2, r3
 8001694:	693a      	ldr	r2, [r7, #16]
 8001696:	4313      	orrs	r3, r2
 8001698:	613b      	str	r3, [r7, #16]
        GPIOx->AFR[position >> 3u] = temp;
 800169a:	697b      	ldr	r3, [r7, #20]
 800169c:	08da      	lsrs	r2, r3, #3
 800169e:	687b      	ldr	r3, [r7, #4]
 80016a0:	3208      	adds	r2, #8
 80016a2:	6939      	ldr	r1, [r7, #16]
 80016a4:	f843 1022 	str.w	r1, [r3, r2, lsl #2]
      }

      /* Configure IO Direction mode (Input, Output, Alternate or Analog) */
      temp = GPIOx->MODER;
 80016a8:	687b      	ldr	r3, [r7, #4]
 80016aa:	681b      	ldr	r3, [r3, #0]
 80016ac:	613b      	str	r3, [r7, #16]
      temp &= ~(GPIO_MODER_MODE0 << (position * 2u));
 80016ae:	697b      	ldr	r3, [r7, #20]
 80016b0:	005b      	lsls	r3, r3, #1
 80016b2:	2203      	movs	r2, #3
 80016b4:	fa02 f303 	lsl.w	r3, r2, r3
 80016b8:	43db      	mvns	r3, r3
 80016ba:	693a      	ldr	r2, [r7, #16]
 80016bc:	4013      	ands	r3, r2
 80016be:	613b      	str	r3, [r7, #16]
      temp |= ((GPIO_Init->Mode & GPIO_MODE) << (position * 2u));
 80016c0:	683b      	ldr	r3, [r7, #0]
 80016c2:	685b      	ldr	r3, [r3, #4]
 80016c4:	f003 0203 	and.w	r2, r3, #3
 80016c8:	697b      	ldr	r3, [r7, #20]
 80016ca:	005b      	lsls	r3, r3, #1
 80016cc:	fa02 f303 	lsl.w	r3, r2, r3
 80016d0:	693a      	ldr	r2, [r7, #16]
 80016d2:	4313      	orrs	r3, r2
 80016d4:	613b      	str	r3, [r7, #16]
      GPIOx->MODER = temp;
 80016d6:	687b      	ldr	r3, [r7, #4]
 80016d8:	693a      	ldr	r2, [r7, #16]
 80016da:	601a      	str	r2, [r3, #0]

      /*--------------------- EXTI Mode Configuration ------------------------*/
      /* Configure the External Interrupt or event for the current IO */
      if ((GPIO_Init->Mode & EXTI_MODE) != 0x00u)
 80016dc:	683b      	ldr	r3, [r7, #0]
 80016de:	685b      	ldr	r3, [r3, #4]
 80016e0:	f403 3340 	and.w	r3, r3, #196608	; 0x30000
 80016e4:	2b00      	cmp	r3, #0
 80016e6:	f000 80ac 	beq.w	8001842 <HAL_GPIO_Init+0x30a>
      {
        /* Enable SYSCFG Clock */
        __HAL_RCC_SYSCFG_CLK_ENABLE();
 80016ea:	4b5f      	ldr	r3, [pc, #380]	; (8001868 <HAL_GPIO_Init+0x330>)
 80016ec:	6e1b      	ldr	r3, [r3, #96]	; 0x60
 80016ee:	4a5e      	ldr	r2, [pc, #376]	; (8001868 <HAL_GPIO_Init+0x330>)
 80016f0:	f043 0301 	orr.w	r3, r3, #1
 80016f4:	6613      	str	r3, [r2, #96]	; 0x60
 80016f6:	4b5c      	ldr	r3, [pc, #368]	; (8001868 <HAL_GPIO_Init+0x330>)
 80016f8:	6e1b      	ldr	r3, [r3, #96]	; 0x60
 80016fa:	f003 0301 	and.w	r3, r3, #1
 80016fe:	60bb      	str	r3, [r7, #8]
 8001700:	68bb      	ldr	r3, [r7, #8]

        temp = SYSCFG->EXTICR[position >> 2u];
 8001702:	4a5a      	ldr	r2, [pc, #360]	; (800186c <HAL_GPIO_Init+0x334>)
 8001704:	697b      	ldr	r3, [r7, #20]
 8001706:	089b      	lsrs	r3, r3, #2
 8001708:	3302      	adds	r3, #2
 800170a:	f852 3023 	ldr.w	r3, [r2, r3, lsl #2]
 800170e:	613b      	str	r3, [r7, #16]
        temp &= ~(0x0FuL << (4u * (position & 0x03u)));
 8001710:	697b      	ldr	r3, [r7, #20]
 8001712:	f003 0303 	and.w	r3, r3, #3
 8001716:	009b      	lsls	r3, r3, #2
 8001718:	220f      	movs	r2, #15
 800171a:	fa02 f303 	lsl.w	r3, r2, r3
 800171e:	43db      	mvns	r3, r3
 8001720:	693a      	ldr	r2, [r7, #16]
 8001722:	4013      	ands	r3, r2
 8001724:	613b      	str	r3, [r7, #16]
        temp |= (GPIO_GET_INDEX(GPIOx) << (4u * (position & 0x03u)));
 8001726:	687b      	ldr	r3, [r7, #4]
 8001728:	f1b3 4f90 	cmp.w	r3, #1207959552	; 0x48000000
 800172c:	d025      	beq.n	800177a <HAL_GPIO_Init+0x242>
 800172e:	687b      	ldr	r3, [r7, #4]
 8001730:	4a4f      	ldr	r2, [pc, #316]	; (8001870 <HAL_GPIO_Init+0x338>)
 8001732:	4293      	cmp	r3, r2
 8001734:	d01f      	beq.n	8001776 <HAL_GPIO_Init+0x23e>
 8001736:	687b      	ldr	r3, [r7, #4]
 8001738:	4a4e      	ldr	r2, [pc, #312]	; (8001874 <HAL_GPIO_Init+0x33c>)
 800173a:	4293      	cmp	r3, r2
 800173c:	d019      	beq.n	8001772 <HAL_GPIO_Init+0x23a>
 800173e:	687b      	ldr	r3, [r7, #4]
 8001740:	4a4d      	ldr	r2, [pc, #308]	; (8001878 <HAL_GPIO_Init+0x340>)
 8001742:	4293      	cmp	r3, r2
 8001744:	d013      	beq.n	800176e <HAL_GPIO_Init+0x236>
 8001746:	687b      	ldr	r3, [r7, #4]
 8001748:	4a4c      	ldr	r2, [pc, #304]	; (800187c <HAL_GPIO_Init+0x344>)
 800174a:	4293      	cmp	r3, r2
 800174c:	d00d      	beq.n	800176a <HAL_GPIO_Init+0x232>
 800174e:	687b      	ldr	r3, [r7, #4]
 8001750:	4a4b      	ldr	r2, [pc, #300]	; (8001880 <HAL_GPIO_Init+0x348>)
 8001752:	4293      	cmp	r3, r2
 8001754:	d007      	beq.n	8001766 <HAL_GPIO_Init+0x22e>
 8001756:	687b      	ldr	r3, [r7, #4]
 8001758:	4a4a      	ldr	r2, [pc, #296]	; (8001884 <HAL_GPIO_Init+0x34c>)
 800175a:	4293      	cmp	r3, r2
 800175c:	d101      	bne.n	8001762 <HAL_GPIO_Init+0x22a>
 800175e:	2306      	movs	r3, #6
 8001760:	e00c      	b.n	800177c <HAL_GPIO_Init+0x244>
 8001762:	2307      	movs	r3, #7
 8001764:	e00a      	b.n	800177c <HAL_GPIO_Init+0x244>
 8001766:	2305      	movs	r3, #5
 8001768:	e008      	b.n	800177c <HAL_GPIO_Init+0x244>
 800176a:	2304      	movs	r3, #4
 800176c:	e006      	b.n	800177c <HAL_GPIO_Init+0x244>
 800176e:	2303      	movs	r3, #3
 8001770:	e004      	b.n	800177c <HAL_GPIO_Init+0x244>
 8001772:	2302      	movs	r3, #2
 8001774:	e002      	b.n	800177c <HAL_GPIO_Init+0x244>
 8001776:	2301      	movs	r3, #1
 8001778:	e000      	b.n	800177c <HAL_GPIO_Init+0x244>
 800177a:	2300      	movs	r3, #0
 800177c:	697a      	ldr	r2, [r7, #20]
 800177e:	f002 0203 	and.w	r2, r2, #3
 8001782:	0092      	lsls	r2, r2, #2
 8001784:	4093      	lsls	r3, r2
 8001786:	693a      	ldr	r2, [r7, #16]
 8001788:	4313      	orrs	r3, r2
 800178a:	613b      	str	r3, [r7, #16]
        SYSCFG->EXTICR[position >> 2u] = temp;
 800178c:	4937      	ldr	r1, [pc, #220]	; (800186c <HAL_GPIO_Init+0x334>)
 800178e:	697b      	ldr	r3, [r7, #20]
 8001790:	089b      	lsrs	r3, r3, #2
 8001792:	3302      	adds	r3, #2
 8001794:	693a      	ldr	r2, [r7, #16]
 8001796:	f841 2023 	str.w	r2, [r1, r3, lsl #2]

        /* Clear Rising Falling edge configuration */
        temp = EXTI->RTSR1;
 800179a:	4b3b      	ldr	r3, [pc, #236]	; (8001888 <HAL_GPIO_Init+0x350>)
 800179c:	689b      	ldr	r3, [r3, #8]
 800179e:	613b      	str	r3, [r7, #16]
        temp &= ~(iocurrent);
 80017a0:	68fb      	ldr	r3, [r7, #12]
 80017a2:	43db      	mvns	r3, r3
 80017a4:	693a      	ldr	r2, [r7, #16]
 80017a6:	4013      	ands	r3, r2
 80017a8:	613b      	str	r3, [r7, #16]
        if ((GPIO_Init->Mode & TRIGGER_RISING) != 0x00u)
 80017aa:	683b      	ldr	r3, [r7, #0]
 80017ac:	685b      	ldr	r3, [r3, #4]
 80017ae:	f403 1380 	and.w	r3, r3, #1048576	; 0x100000
 80017b2:	2b00      	cmp	r3, #0
 80017b4:	d003      	beq.n	80017be <HAL_GPIO_Init+0x286>
        {
          temp |= iocurrent;
 80017b6:	693a      	ldr	r2, [r7, #16]
 80017b8:	68fb      	ldr	r3, [r7, #12]
 80017ba:	4313      	orrs	r3, r2
 80017bc:	613b      	str	r3, [r7, #16]
        }
        EXTI->RTSR1 = temp;
 80017be:	4a32      	ldr	r2, [pc, #200]	; (8001888 <HAL_GPIO_Init+0x350>)
 80017c0:	693b      	ldr	r3, [r7, #16]
 80017c2:	6093      	str	r3, [r2, #8]

        temp = EXTI->FTSR1;
 80017c4:	4b30      	ldr	r3, [pc, #192]	; (8001888 <HAL_GPIO_Init+0x350>)
 80017c6:	68db      	ldr	r3, [r3, #12]
 80017c8:	613b      	str	r3, [r7, #16]
        temp &= ~(iocurrent);
 80017ca:	68fb      	ldr	r3, [r7, #12]
 80017cc:	43db      	mvns	r3, r3
 80017ce:	693a      	ldr	r2, [r7, #16]
 80017d0:	4013      	ands	r3, r2
 80017d2:	613b      	str	r3, [r7, #16]
        if ((GPIO_Init->Mode & TRIGGER_FALLING) != 0x00u)
 80017d4:	683b      	ldr	r3, [r7, #0]
 80017d6:	685b      	ldr	r3, [r3, #4]
 80017d8:	f403 1300 	and.w	r3, r3, #2097152	; 0x200000
 80017dc:	2b00      	cmp	r3, #0
 80017de:	d003      	beq.n	80017e8 <HAL_GPIO_Init+0x2b0>
        {
          temp |= iocurrent;
 80017e0:	693a      	ldr	r2, [r7, #16]
 80017e2:	68fb      	ldr	r3, [r7, #12]
 80017e4:	4313      	orrs	r3, r2
 80017e6:	613b      	str	r3, [r7, #16]
        }
        EXTI->FTSR1 = temp;
 80017e8:	4a27      	ldr	r2, [pc, #156]	; (8001888 <HAL_GPIO_Init+0x350>)
 80017ea:	693b      	ldr	r3, [r7, #16]
 80017ec:	60d3      	str	r3, [r2, #12]

        /* Clear EXTI line configuration */
        temp = EXTI->EMR1;
 80017ee:	4b26      	ldr	r3, [pc, #152]	; (8001888 <HAL_GPIO_Init+0x350>)
 80017f0:	685b      	ldr	r3, [r3, #4]
 80017f2:	613b      	str	r3, [r7, #16]
        temp &= ~(iocurrent);
 80017f4:	68fb      	ldr	r3, [r7, #12]
 80017f6:	43db      	mvns	r3, r3
 80017f8:	693a      	ldr	r2, [r7, #16]
 80017fa:	4013      	ands	r3, r2
 80017fc:	613b      	str	r3, [r7, #16]
        if ((GPIO_Init->Mode & EXTI_EVT) != 0x00u)
 80017fe:	683b      	ldr	r3, [r7, #0]
 8001800:	685b      	ldr	r3, [r3, #4]
 8001802:	f403 3300 	and.w	r3, r3, #131072	; 0x20000
 8001806:	2b00      	cmp	r3, #0
 8001808:	d003      	beq.n	8001812 <HAL_GPIO_Init+0x2da>
        {
          temp |= iocurrent;
 800180a:	693a      	ldr	r2, [r7, #16]
 800180c:	68fb      	ldr	r3, [r7, #12]
 800180e:	4313      	orrs	r3, r2
 8001810:	613b      	str	r3, [r7, #16]
        }
        EXTI->EMR1 = temp;
 8001812:	4a1d      	ldr	r2, [pc, #116]	; (8001888 <HAL_GPIO_Init+0x350>)
 8001814:	693b      	ldr	r3, [r7, #16]
 8001816:	6053      	str	r3, [r2, #4]

        temp = EXTI->IMR1;
 8001818:	4b1b      	ldr	r3, [pc, #108]	; (8001888 <HAL_GPIO_Init+0x350>)
 800181a:	681b      	ldr	r3, [r3, #0]
 800181c:	613b      	str	r3, [r7, #16]
        temp &= ~(iocurrent);
 800181e:	68fb      	ldr	r3, [r7, #12]
 8001820:	43db      	mvns	r3, r3
 8001822:	693a      	ldr	r2, [r7, #16]
 8001824:	4013      	ands	r3, r2
 8001826:	613b      	str	r3, [r7, #16]
        if ((GPIO_Init->Mode & EXTI_IT) != 0x00u)
 8001828:	683b      	ldr	r3, [r7, #0]
 800182a:	685b      	ldr	r3, [r3, #4]
 800182c:	f403 3380 	and.w	r3, r3, #65536	; 0x10000
 8001830:	2b00      	cmp	r3, #0
 8001832:	d003      	beq.n	800183c <HAL_GPIO_Init+0x304>
        {
          temp |= iocurrent;
 8001834:	693a      	ldr	r2, [r7, #16]
 8001836:	68fb      	ldr	r3, [r7, #12]
 8001838:	4313      	orrs	r3, r2
 800183a:	613b      	str	r3, [r7, #16]
        }
        EXTI->IMR1 = temp;
 800183c:	4a12      	ldr	r2, [pc, #72]	; (8001888 <HAL_GPIO_Init+0x350>)
 800183e:	693b      	ldr	r3, [r7, #16]
 8001840:	6013      	str	r3, [r2, #0]
      }
    }

    position++;
 8001842:	697b      	ldr	r3, [r7, #20]
 8001844:	3301      	adds	r3, #1
 8001846:	617b      	str	r3, [r7, #20]
  while (((GPIO_Init->Pin) >> position) != 0x00u)
 8001848:	683b      	ldr	r3, [r7, #0]
 800184a:	681a      	ldr	r2, [r3, #0]
 800184c:	697b      	ldr	r3, [r7, #20]
 800184e:	fa22 f303 	lsr.w	r3, r2, r3
 8001852:	2b00      	cmp	r3, #0
 8001854:	f47f ae78 	bne.w	8001548 <HAL_GPIO_Init+0x10>
  }
}
 8001858:	bf00      	nop
 800185a:	bf00      	nop
 800185c:	371c      	adds	r7, #28
 800185e:	46bd      	mov	sp, r7
 8001860:	f85d 7b04 	ldr.w	r7, [sp], #4
 8001864:	4770      	bx	lr
 8001866:	bf00      	nop
 8001868:	40021000 	.word	0x40021000
 800186c:	40010000 	.word	0x40010000
 8001870:	48000400 	.word	0x48000400
 8001874:	48000800 	.word	0x48000800
 8001878:	48000c00 	.word	0x48000c00
 800187c:	48001000 	.word	0x48001000
 8001880:	48001400 	.word	0x48001400
 8001884:	48001800 	.word	0x48001800
 8001888:	40010400 	.word	0x40010400

0800188c <HAL_GPIO_ReadPin>:
  * @param  GPIO_Pin specifies the port bit to read.
  *         This parameter can be any combination of GPIO_Pin_x where x can be (0..15).
  * @retval The input port pin value.
  */
GPIO_PinState HAL_GPIO_ReadPin(GPIO_TypeDef* GPIOx, uint16_t GPIO_Pin)
{
 800188c:	b480      	push	{r7}
 800188e:	b085      	sub	sp, #20
 8001890:	af00      	add	r7, sp, #0
 8001892:	6078      	str	r0, [r7, #4]
 8001894:	460b      	mov	r3, r1
 8001896:	807b      	strh	r3, [r7, #2]
  GPIO_PinState bitstatus;

  /* Check the parameters */
  assert_param(IS_GPIO_PIN(GPIO_Pin));

  if ((GPIOx->IDR & GPIO_Pin) != 0x00u)
 8001898:	687b      	ldr	r3, [r7, #4]
 800189a:	691a      	ldr	r2, [r3, #16]
 800189c:	887b      	ldrh	r3, [r7, #2]
 800189e:	4013      	ands	r3, r2
 80018a0:	2b00      	cmp	r3, #0
 80018a2:	d002      	beq.n	80018aa <HAL_GPIO_ReadPin+0x1e>
  {
    bitstatus = GPIO_PIN_SET;
 80018a4:	2301      	movs	r3, #1
 80018a6:	73fb      	strb	r3, [r7, #15]
 80018a8:	e001      	b.n	80018ae <HAL_GPIO_ReadPin+0x22>
  }
  else
  {
    bitstatus = GPIO_PIN_RESET;
 80018aa:	2300      	movs	r3, #0
 80018ac:	73fb      	strb	r3, [r7, #15]
  }
  return bitstatus;
 80018ae:	7bfb      	ldrb	r3, [r7, #15]
}
 80018b0:	4618      	mov	r0, r3
 80018b2:	3714      	adds	r7, #20
 80018b4:	46bd      	mov	sp, r7
 80018b6:	f85d 7b04 	ldr.w	r7, [sp], #4
 80018ba:	4770      	bx	lr

080018bc <HAL_GPIO_WritePin>:
  *            @arg GPIO_PIN_RESET: to clear the port pin
  *            @arg GPIO_PIN_SET: to set the port pin
  * @retval None
  */
void HAL_GPIO_WritePin(GPIO_TypeDef* GPIOx, uint16_t GPIO_Pin, GPIO_PinState PinState)
{
 80018bc:	b480      	push	{r7}
 80018be:	b083      	sub	sp, #12
 80018c0:	af00      	add	r7, sp, #0
 80018c2:	6078      	str	r0, [r7, #4]
 80018c4:	460b      	mov	r3, r1
 80018c6:	807b      	strh	r3, [r7, #2]
 80018c8:	4613      	mov	r3, r2
 80018ca:	707b      	strb	r3, [r7, #1]
  /* Check the parameters */
  assert_param(IS_GPIO_PIN(GPIO_Pin));
  assert_param(IS_GPIO_PIN_ACTION(PinState));

  if(PinState != GPIO_PIN_RESET)
 80018cc:	787b      	ldrb	r3, [r7, #1]
 80018ce:	2b00      	cmp	r3, #0
 80018d0:	d003      	beq.n	80018da <HAL_GPIO_WritePin+0x1e>
  {
    GPIOx->BSRR = (uint32_t)GPIO_Pin;
 80018d2:	887a      	ldrh	r2, [r7, #2]
 80018d4:	687b      	ldr	r3, [r7, #4]
 80018d6:	619a      	str	r2, [r3, #24]
  }
  else
  {
    GPIOx->BRR = (uint32_t)GPIO_Pin;
  }
}
 80018d8:	e002      	b.n	80018e0 <HAL_GPIO_WritePin+0x24>
    GPIOx->BRR = (uint32_t)GPIO_Pin;
 80018da:	887a      	ldrh	r2, [r7, #2]
 80018dc:	687b      	ldr	r3, [r7, #4]
 80018de:	629a      	str	r2, [r3, #40]	; 0x28
}
 80018e0:	bf00      	nop
 80018e2:	370c      	adds	r7, #12
 80018e4:	46bd      	mov	sp, r7
 80018e6:	f85d 7b04 	ldr.w	r7, [sp], #4
 80018ea:	4770      	bx	lr

080018ec <HAL_PWREx_GetVoltageRange>:
  * @brief Return Voltage Scaling Range.
  * @retval VOS bit field (PWR_REGULATOR_VOLTAGE_SCALE1 or PWR_REGULATOR_VOLTAGE_SCALE2
  *         or PWR_REGULATOR_VOLTAGE_SCALE1_BOOST when applicable)
  */
uint32_t HAL_PWREx_GetVoltageRange(void)
{
 80018ec:	b480      	push	{r7}
 80018ee:	af00      	add	r7, sp, #0
    else
    {
      return PWR_REGULATOR_VOLTAGE_SCALE1_BOOST;
    }
#else
  return  (PWR->CR1 & PWR_CR1_VOS);
 80018f0:	4b04      	ldr	r3, [pc, #16]	; (8001904 <HAL_PWREx_GetVoltageRange+0x18>)
 80018f2:	681b      	ldr	r3, [r3, #0]
 80018f4:	f403 63c0 	and.w	r3, r3, #1536	; 0x600
#endif
}
 80018f8:	4618      	mov	r0, r3
 80018fa:	46bd      	mov	sp, r7
 80018fc:	f85d 7b04 	ldr.w	r7, [sp], #4
 8001900:	4770      	bx	lr
 8001902:	bf00      	nop
 8001904:	40007000 	.word	0x40007000

08001908 <HAL_PWREx_ControlVoltageScaling>:
  *        cleared before returning the status. If the flag is not cleared within
  *        50 microseconds, HAL_TIMEOUT status is reported.
  * @retval HAL Status
  */
HAL_StatusTypeDef HAL_PWREx_ControlVoltageScaling(uint32_t VoltageScaling)
{
 8001908:	b480      	push	{r7}
 800190a:	b085      	sub	sp, #20
 800190c:	af00      	add	r7, sp, #0
 800190e:	6078      	str	r0, [r7, #4]
  }

#else

  /* If Set Range 1 */
  if (VoltageScaling == PWR_REGULATOR_VOLTAGE_SCALE1)
 8001910:	687b      	ldr	r3, [r7, #4]
 8001912:	f5b3 7f00 	cmp.w	r3, #512	; 0x200
 8001916:	d130      	bne.n	800197a <HAL_PWREx_ControlVoltageScaling+0x72>
  {
    if (READ_BIT(PWR->CR1, PWR_CR1_VOS) != PWR_REGULATOR_VOLTAGE_SCALE1)
 8001918:	4b23      	ldr	r3, [pc, #140]	; (80019a8 <HAL_PWREx_ControlVoltageScaling+0xa0>)
 800191a:	681b      	ldr	r3, [r3, #0]
 800191c:	f403 63c0 	and.w	r3, r3, #1536	; 0x600
 8001920:	f5b3 7f00 	cmp.w	r3, #512	; 0x200
 8001924:	d038      	beq.n	8001998 <HAL_PWREx_ControlVoltageScaling+0x90>
    {
      /* Set Range 1 */
      MODIFY_REG(PWR->CR1, PWR_CR1_VOS, PWR_REGULATOR_VOLTAGE_SCALE1);
 8001926:	4b20      	ldr	r3, [pc, #128]	; (80019a8 <HAL_PWREx_ControlVoltageScaling+0xa0>)
 8001928:	681b      	ldr	r3, [r3, #0]
 800192a:	f423 63c0 	bic.w	r3, r3, #1536	; 0x600
 800192e:	4a1e      	ldr	r2, [pc, #120]	; (80019a8 <HAL_PWREx_ControlVoltageScaling+0xa0>)
 8001930:	f443 7300 	orr.w	r3, r3, #512	; 0x200
 8001934:	6013      	str	r3, [r2, #0]

      /* Wait until VOSF is cleared */
      wait_loop_index = ((PWR_FLAG_SETTING_DELAY_US * SystemCoreClock) / 1000000U) + 1U;
 8001936:	4b1d      	ldr	r3, [pc, #116]	; (80019ac <HAL_PWREx_ControlVoltageScaling+0xa4>)
 8001938:	681b      	ldr	r3, [r3, #0]
 800193a:	2232      	movs	r2, #50	; 0x32
 800193c:	fb02 f303 	mul.w	r3, r2, r3
 8001940:	4a1b      	ldr	r2, [pc, #108]	; (80019b0 <HAL_PWREx_ControlVoltageScaling+0xa8>)
 8001942:	fba2 2303 	umull	r2, r3, r2, r3
 8001946:	0c9b      	lsrs	r3, r3, #18
 8001948:	3301      	adds	r3, #1
 800194a:	60fb      	str	r3, [r7, #12]
      while ((HAL_IS_BIT_SET(PWR->SR2, PWR_SR2_VOSF)) && (wait_loop_index != 0U))
 800194c:	e002      	b.n	8001954 <HAL_PWREx_ControlVoltageScaling+0x4c>
      {
        wait_loop_index--;
 800194e:	68fb      	ldr	r3, [r7, #12]
 8001950:	3b01      	subs	r3, #1
 8001952:	60fb      	str	r3, [r7, #12]
      while ((HAL_IS_BIT_SET(PWR->SR2, PWR_SR2_VOSF)) && (wait_loop_index != 0U))
 8001954:	4b14      	ldr	r3, [pc, #80]	; (80019a8 <HAL_PWREx_ControlVoltageScaling+0xa0>)
 8001956:	695b      	ldr	r3, [r3, #20]
 8001958:	f403 6380 	and.w	r3, r3, #1024	; 0x400
 800195c:	f5b3 6f80 	cmp.w	r3, #1024	; 0x400
 8001960:	d102      	bne.n	8001968 <HAL_PWREx_ControlVoltageScaling+0x60>
 8001962:	68fb      	ldr	r3, [r7, #12]
 8001964:	2b00      	cmp	r3, #0
 8001966:	d1f2      	bne.n	800194e <HAL_PWREx_ControlVoltageScaling+0x46>
      }
      if (HAL_IS_BIT_SET(PWR->SR2, PWR_SR2_VOSF))
 8001968:	4b0f      	ldr	r3, [pc, #60]	; (80019a8 <HAL_PWREx_ControlVoltageScaling+0xa0>)
 800196a:	695b      	ldr	r3, [r3, #20]
 800196c:	f403 6380 	and.w	r3, r3, #1024	; 0x400
 8001970:	f5b3 6f80 	cmp.w	r3, #1024	; 0x400
 8001974:	d110      	bne.n	8001998 <HAL_PWREx_ControlVoltageScaling+0x90>
      {
        return HAL_TIMEOUT;
 8001976:	2303      	movs	r3, #3
 8001978:	e00f      	b.n	800199a <HAL_PWREx_ControlVoltageScaling+0x92>
      }
    }
  }
  else
  {
    if (READ_BIT(PWR->CR1, PWR_CR1_VOS) != PWR_REGULATOR_VOLTAGE_SCALE2)
 800197a:	4b0b      	ldr	r3, [pc, #44]	; (80019a8 <HAL_PWREx_ControlVoltageScaling+0xa0>)
 800197c:	681b      	ldr	r3, [r3, #0]
 800197e:	f403 63c0 	and.w	r3, r3, #1536	; 0x600
 8001982:	f5b3 6f80 	cmp.w	r3, #1024	; 0x400
 8001986:	d007      	beq.n	8001998 <HAL_PWREx_ControlVoltageScaling+0x90>
    {
      /* Set Range 2 */
      MODIFY_REG(PWR->CR1, PWR_CR1_VOS, PWR_REGULATOR_VOLTAGE_SCALE2);
 8001988:	4b07      	ldr	r3, [pc, #28]	; (80019a8 <HAL_PWREx_ControlVoltageScaling+0xa0>)
 800198a:	681b      	ldr	r3, [r3, #0]
 800198c:	f423 63c0 	bic.w	r3, r3, #1536	; 0x600
 8001990:	4a05      	ldr	r2, [pc, #20]	; (80019a8 <HAL_PWREx_ControlVoltageScaling+0xa0>)
 8001992:	f443 6380 	orr.w	r3, r3, #1024	; 0x400
 8001996:	6013      	str	r3, [r2, #0]
      /* No need to wait for VOSF to be cleared for this transition */
    }
  }
#endif

  return HAL_OK;
 8001998:	2300      	movs	r3, #0
}
 800199a:	4618      	mov	r0, r3
 800199c:	3714      	adds	r7, #20
 800199e:	46bd      	mov	sp, r7
 80019a0:	f85d 7b04 	ldr.w	r7, [sp], #4
 80019a4:	4770      	bx	lr
 80019a6:	bf00      	nop
 80019a8:	40007000 	.word	0x40007000
 80019ac:	20000000 	.word	0x20000000
 80019b0:	431bde83 	.word	0x431bde83

080019b4 <HAL_RCC_OscConfig>:
  *         supported by this macro. User should request a transition to HSE Off
  *         first and then HSE On or HSE Bypass.
  * @retval HAL status
  */
HAL_StatusTypeDef HAL_RCC_OscConfig(RCC_OscInitTypeDef  *RCC_OscInitStruct)
{
 80019b4:	b580      	push	{r7, lr}
 80019b6:	b088      	sub	sp, #32
 80019b8:	af00      	add	r7, sp, #0
 80019ba:	6078      	str	r0, [r7, #4]
  uint32_t tickstart;
  HAL_StatusTypeDef status;
  uint32_t sysclk_source, pll_config;

  /* Check Null pointer */
  if(RCC_OscInitStruct == NULL)
 80019bc:	687b      	ldr	r3, [r7, #4]
 80019be:	2b00      	cmp	r3, #0
 80019c0:	d101      	bne.n	80019c6 <HAL_RCC_OscConfig+0x12>
  {
    return HAL_ERROR;
 80019c2:	2301      	movs	r3, #1
 80019c4:	e3c6      	b.n	8002154 <HAL_RCC_OscConfig+0x7a0>
  }

  /* Check the parameters */
  assert_param(IS_RCC_OSCILLATORTYPE(RCC_OscInitStruct->OscillatorType));

  sysclk_source = __HAL_RCC_GET_SYSCLK_SOURCE();
 80019c6:	4ba1      	ldr	r3, [pc, #644]	; (8001c4c <HAL_RCC_OscConfig+0x298>)
 80019c8:	689b      	ldr	r3, [r3, #8]
 80019ca:	f003 030c 	and.w	r3, r3, #12
 80019ce:	61bb      	str	r3, [r7, #24]
  pll_config = __HAL_RCC_GET_PLL_OSCSOURCE();
 80019d0:	4b9e      	ldr	r3, [pc, #632]	; (8001c4c <HAL_RCC_OscConfig+0x298>)
 80019d2:	68db      	ldr	r3, [r3, #12]
 80019d4:	f003 0303 	and.w	r3, r3, #3
 80019d8:	617b      	str	r3, [r7, #20]

  /*----------------------------- MSI Configuration --------------------------*/
  if(((RCC_OscInitStruct->OscillatorType) & RCC_OSCILLATORTYPE_MSI) == RCC_OSCILLATORTYPE_MSI)
 80019da:	687b      	ldr	r3, [r7, #4]
 80019dc:	681b      	ldr	r3, [r3, #0]
 80019de:	f003 0310 	and.w	r3, r3, #16
 80019e2:	2b00      	cmp	r3, #0
 80019e4:	f000 80e4 	beq.w	8001bb0 <HAL_RCC_OscConfig+0x1fc>
    assert_param(IS_RCC_MSI(RCC_OscInitStruct->MSIState));
    assert_param(IS_RCC_MSICALIBRATION_VALUE(RCC_OscInitStruct->MSICalibrationValue));
    assert_param(IS_RCC_MSI_CLOCK_RANGE(RCC_OscInitStruct->MSIClockRange));

    /* Check if MSI is used as system clock or as PLL source when PLL is selected as system clock */
    if((sysclk_source == RCC_CFGR_SWS_MSI) ||
 80019e8:	69bb      	ldr	r3, [r7, #24]
 80019ea:	2b00      	cmp	r3, #0
 80019ec:	d007      	beq.n	80019fe <HAL_RCC_OscConfig+0x4a>
 80019ee:	69bb      	ldr	r3, [r7, #24]
 80019f0:	2b0c      	cmp	r3, #12
 80019f2:	f040 808b 	bne.w	8001b0c <HAL_RCC_OscConfig+0x158>
       ((sysclk_source == RCC_CFGR_SWS_PLL) && (pll_config == RCC_PLLSOURCE_MSI)))
 80019f6:	697b      	ldr	r3, [r7, #20]
 80019f8:	2b01      	cmp	r3, #1
 80019fa:	f040 8087 	bne.w	8001b0c <HAL_RCC_OscConfig+0x158>
    {
      if((READ_BIT(RCC->CR, RCC_CR_MSIRDY) != 0U) && (RCC_OscInitStruct->MSIState == RCC_MSI_OFF))
 80019fe:	4b93      	ldr	r3, [pc, #588]	; (8001c4c <HAL_RCC_OscConfig+0x298>)
 8001a00:	681b      	ldr	r3, [r3, #0]
 8001a02:	f003 0302 	and.w	r3, r3, #2
 8001a06:	2b00      	cmp	r3, #0
 8001a08:	d005      	beq.n	8001a16 <HAL_RCC_OscConfig+0x62>
 8001a0a:	687b      	ldr	r3, [r7, #4]
 8001a0c:	699b      	ldr	r3, [r3, #24]
 8001a0e:	2b00      	cmp	r3, #0
 8001a10:	d101      	bne.n	8001a16 <HAL_RCC_OscConfig+0x62>
      {
        return HAL_ERROR;
 8001a12:	2301      	movs	r3, #1
 8001a14:	e39e      	b.n	8002154 <HAL_RCC_OscConfig+0x7a0>
      else
      {
        /* To correctly read data from FLASH memory, the number of wait states (LATENCY)
           must be correctly programmed according to the frequency of the CPU clock
           (HCLK) and the supply voltage of the device. */
        if(RCC_OscInitStruct->MSIClockRange > __HAL_RCC_GET_MSI_RANGE())
 8001a16:	687b      	ldr	r3, [r7, #4]
 8001a18:	6a1a      	ldr	r2, [r3, #32]
 8001a1a:	4b8c      	ldr	r3, [pc, #560]	; (8001c4c <HAL_RCC_OscConfig+0x298>)
 8001a1c:	681b      	ldr	r3, [r3, #0]
 8001a1e:	f003 0308 	and.w	r3, r3, #8
 8001a22:	2b00      	cmp	r3, #0
 8001a24:	d004      	beq.n	8001a30 <HAL_RCC_OscConfig+0x7c>
 8001a26:	4b89      	ldr	r3, [pc, #548]	; (8001c4c <HAL_RCC_OscConfig+0x298>)
 8001a28:	681b      	ldr	r3, [r3, #0]
 8001a2a:	f003 03f0 	and.w	r3, r3, #240	; 0xf0
 8001a2e:	e005      	b.n	8001a3c <HAL_RCC_OscConfig+0x88>
 8001a30:	4b86      	ldr	r3, [pc, #536]	; (8001c4c <HAL_RCC_OscConfig+0x298>)
 8001a32:	f8d3 3094 	ldr.w	r3, [r3, #148]	; 0x94
 8001a36:	091b      	lsrs	r3, r3, #4
 8001a38:	f003 03f0 	and.w	r3, r3, #240	; 0xf0
 8001a3c:	4293      	cmp	r3, r2
 8001a3e:	d223      	bcs.n	8001a88 <HAL_RCC_OscConfig+0xd4>
        {
          /* First increase number of wait states update if necessary */
          if(RCC_SetFlashLatencyFromMSIRange(RCC_OscInitStruct->MSIClockRange) != HAL_OK)
 8001a40:	687b      	ldr	r3, [r7, #4]
 8001a42:	6a1b      	ldr	r3, [r3, #32]
 8001a44:	4618      	mov	r0, r3
 8001a46:	f000 fd53 	bl	80024f0 <RCC_SetFlashLatencyFromMSIRange>
 8001a4a:	4603      	mov	r3, r0
 8001a4c:	2b00      	cmp	r3, #0
 8001a4e:	d001      	beq.n	8001a54 <HAL_RCC_OscConfig+0xa0>
          {
            return HAL_ERROR;
 8001a50:	2301      	movs	r3, #1
 8001a52:	e37f      	b.n	8002154 <HAL_RCC_OscConfig+0x7a0>
          }

          /* Selects the Multiple Speed oscillator (MSI) clock range .*/
          __HAL_RCC_MSI_RANGE_CONFIG(RCC_OscInitStruct->MSIClockRange);
 8001a54:	4b7d      	ldr	r3, [pc, #500]	; (8001c4c <HAL_RCC_OscConfig+0x298>)
 8001a56:	681b      	ldr	r3, [r3, #0]
 8001a58:	4a7c      	ldr	r2, [pc, #496]	; (8001c4c <HAL_RCC_OscConfig+0x298>)
 8001a5a:	f043 0308 	orr.w	r3, r3, #8
 8001a5e:	6013      	str	r3, [r2, #0]
 8001a60:	4b7a      	ldr	r3, [pc, #488]	; (8001c4c <HAL_RCC_OscConfig+0x298>)
 8001a62:	681b      	ldr	r3, [r3, #0]
 8001a64:	f023 02f0 	bic.w	r2, r3, #240	; 0xf0
 8001a68:	687b      	ldr	r3, [r7, #4]
 8001a6a:	6a1b      	ldr	r3, [r3, #32]
 8001a6c:	4977      	ldr	r1, [pc, #476]	; (8001c4c <HAL_RCC_OscConfig+0x298>)
 8001a6e:	4313      	orrs	r3, r2
 8001a70:	600b      	str	r3, [r1, #0]
          /* Adjusts the Multiple Speed oscillator (MSI) calibration value.*/
          __HAL_RCC_MSI_CALIBRATIONVALUE_ADJUST(RCC_OscInitStruct->MSICalibrationValue);
 8001a72:	4b76      	ldr	r3, [pc, #472]	; (8001c4c <HAL_RCC_OscConfig+0x298>)
 8001a74:	685b      	ldr	r3, [r3, #4]
 8001a76:	f423 427f 	bic.w	r2, r3, #65280	; 0xff00
 8001a7a:	687b      	ldr	r3, [r7, #4]
 8001a7c:	69db      	ldr	r3, [r3, #28]
 8001a7e:	021b      	lsls	r3, r3, #8
 8001a80:	4972      	ldr	r1, [pc, #456]	; (8001c4c <HAL_RCC_OscConfig+0x298>)
 8001a82:	4313      	orrs	r3, r2
 8001a84:	604b      	str	r3, [r1, #4]
 8001a86:	e025      	b.n	8001ad4 <HAL_RCC_OscConfig+0x120>
        }
        else
        {
          /* Else, keep current flash latency while decreasing applies */
          /* Selects the Multiple Speed oscillator (MSI) clock range .*/
          __HAL_RCC_MSI_RANGE_CONFIG(RCC_OscInitStruct->MSIClockRange);
 8001a88:	4b70      	ldr	r3, [pc, #448]	; (8001c4c <HAL_RCC_OscConfig+0x298>)
 8001a8a:	681b      	ldr	r3, [r3, #0]
 8001a8c:	4a6f      	ldr	r2, [pc, #444]	; (8001c4c <HAL_RCC_OscConfig+0x298>)
 8001a8e:	f043 0308 	orr.w	r3, r3, #8
 8001a92:	6013      	str	r3, [r2, #0]
 8001a94:	4b6d      	ldr	r3, [pc, #436]	; (8001c4c <HAL_RCC_OscConfig+0x298>)
 8001a96:	681b      	ldr	r3, [r3, #0]
 8001a98:	f023 02f0 	bic.w	r2, r3, #240	; 0xf0
 8001a9c:	687b      	ldr	r3, [r7, #4]
 8001a9e:	6a1b      	ldr	r3, [r3, #32]
 8001aa0:	496a      	ldr	r1, [pc, #424]	; (8001c4c <HAL_RCC_OscConfig+0x298>)
 8001aa2:	4313      	orrs	r3, r2
 8001aa4:	600b      	str	r3, [r1, #0]
          /* Adjusts the Multiple Speed oscillator (MSI) calibration value.*/
          __HAL_RCC_MSI_CALIBRATIONVALUE_ADJUST(RCC_OscInitStruct->MSICalibrationValue);
 8001aa6:	4b69      	ldr	r3, [pc, #420]	; (8001c4c <HAL_RCC_OscConfig+0x298>)
 8001aa8:	685b      	ldr	r3, [r3, #4]
 8001aaa:	f423 427f 	bic.w	r2, r3, #65280	; 0xff00
 8001aae:	687b      	ldr	r3, [r7, #4]
 8001ab0:	69db      	ldr	r3, [r3, #28]
 8001ab2:	021b      	lsls	r3, r3, #8
 8001ab4:	4965      	ldr	r1, [pc, #404]	; (8001c4c <HAL_RCC_OscConfig+0x298>)
 8001ab6:	4313      	orrs	r3, r2
 8001ab8:	604b      	str	r3, [r1, #4]

          /* Decrease number of wait states update if necessary */
          /* Only possible when MSI is the System clock source  */
          if(sysclk_source == RCC_CFGR_SWS_MSI)
 8001aba:	69bb      	ldr	r3, [r7, #24]
 8001abc:	2b00      	cmp	r3, #0
 8001abe:	d109      	bne.n	8001ad4 <HAL_RCC_OscConfig+0x120>
          {
            if(RCC_SetFlashLatencyFromMSIRange(RCC_OscInitStruct->MSIClockRange) != HAL_OK)
 8001ac0:	687b      	ldr	r3, [r7, #4]
 8001ac2:	6a1b      	ldr	r3, [r3, #32]
 8001ac4:	4618      	mov	r0, r3
 8001ac6:	f000 fd13 	bl	80024f0 <RCC_SetFlashLatencyFromMSIRange>
 8001aca:	4603      	mov	r3, r0
 8001acc:	2b00      	cmp	r3, #0
 8001ace:	d001      	beq.n	8001ad4 <HAL_RCC_OscConfig+0x120>
            {
              return HAL_ERROR;
 8001ad0:	2301      	movs	r3, #1
 8001ad2:	e33f      	b.n	8002154 <HAL_RCC_OscConfig+0x7a0>
            }
          }
        }

        /* Update the SystemCoreClock global variable */
        SystemCoreClock = HAL_RCC_GetSysClockFreq() >> (AHBPrescTable[READ_BIT(RCC->CFGR, RCC_CFGR_HPRE) >> RCC_CFGR_HPRE_Pos] & 0x1FU);
 8001ad4:	f000 fc48 	bl	8002368 <HAL_RCC_GetSysClockFreq>
 8001ad8:	4602      	mov	r2, r0
 8001ada:	4b5c      	ldr	r3, [pc, #368]	; (8001c4c <HAL_RCC_OscConfig+0x298>)
 8001adc:	689b      	ldr	r3, [r3, #8]
 8001ade:	091b      	lsrs	r3, r3, #4
 8001ae0:	f003 030f 	and.w	r3, r3, #15
 8001ae4:	495a      	ldr	r1, [pc, #360]	; (8001c50 <HAL_RCC_OscConfig+0x29c>)
 8001ae6:	5ccb      	ldrb	r3, [r1, r3]
 8001ae8:	f003 031f 	and.w	r3, r3, #31
 8001aec:	fa22 f303 	lsr.w	r3, r2, r3
 8001af0:	4a58      	ldr	r2, [pc, #352]	; (8001c54 <HAL_RCC_OscConfig+0x2a0>)
 8001af2:	6013      	str	r3, [r2, #0]

        /* Configure the source of time base considering new system clocks settings*/
        status = HAL_InitTick(uwTickPrio);
 8001af4:	4b58      	ldr	r3, [pc, #352]	; (8001c58 <HAL_RCC_OscConfig+0x2a4>)
 8001af6:	681b      	ldr	r3, [r3, #0]
 8001af8:	4618      	mov	r0, r3
 8001afa:	f7ff fbb7 	bl	800126c <HAL_InitTick>
 8001afe:	4603      	mov	r3, r0
 8001b00:	73fb      	strb	r3, [r7, #15]
        if(status != HAL_OK)
 8001b02:	7bfb      	ldrb	r3, [r7, #15]
 8001b04:	2b00      	cmp	r3, #0
 8001b06:	d052      	beq.n	8001bae <HAL_RCC_OscConfig+0x1fa>
        {
          return status;
 8001b08:	7bfb      	ldrb	r3, [r7, #15]
 8001b0a:	e323      	b.n	8002154 <HAL_RCC_OscConfig+0x7a0>
      }
    }
    else
    {
      /* Check the MSI State */
      if(RCC_OscInitStruct->MSIState != RCC_MSI_OFF)
 8001b0c:	687b      	ldr	r3, [r7, #4]
 8001b0e:	699b      	ldr	r3, [r3, #24]
 8001b10:	2b00      	cmp	r3, #0
 8001b12:	d032      	beq.n	8001b7a <HAL_RCC_OscConfig+0x1c6>
      {
        /* Enable the Internal High Speed oscillator (MSI). */
        __HAL_RCC_MSI_ENABLE();
 8001b14:	4b4d      	ldr	r3, [pc, #308]	; (8001c4c <HAL_RCC_OscConfig+0x298>)
 8001b16:	681b      	ldr	r3, [r3, #0]
 8001b18:	4a4c      	ldr	r2, [pc, #304]	; (8001c4c <HAL_RCC_OscConfig+0x298>)
 8001b1a:	f043 0301 	orr.w	r3, r3, #1
 8001b1e:	6013      	str	r3, [r2, #0]

        /* Get timeout */
        tickstart = HAL_GetTick();
 8001b20:	f7ff fbf4 	bl	800130c <HAL_GetTick>
 8001b24:	6138      	str	r0, [r7, #16]

        /* Wait till MSI is ready */
        while(READ_BIT(RCC->CR, RCC_CR_MSIRDY) == 0U)
 8001b26:	e008      	b.n	8001b3a <HAL_RCC_OscConfig+0x186>
        {
          if((HAL_GetTick() - tickstart) > MSI_TIMEOUT_VALUE)
 8001b28:	f7ff fbf0 	bl	800130c <HAL_GetTick>
 8001b2c:	4602      	mov	r2, r0
 8001b2e:	693b      	ldr	r3, [r7, #16]
 8001b30:	1ad3      	subs	r3, r2, r3
 8001b32:	2b02      	cmp	r3, #2
 8001b34:	d901      	bls.n	8001b3a <HAL_RCC_OscConfig+0x186>
          {
            return HAL_TIMEOUT;
 8001b36:	2303      	movs	r3, #3
 8001b38:	e30c      	b.n	8002154 <HAL_RCC_OscConfig+0x7a0>
        while(READ_BIT(RCC->CR, RCC_CR_MSIRDY) == 0U)
 8001b3a:	4b44      	ldr	r3, [pc, #272]	; (8001c4c <HAL_RCC_OscConfig+0x298>)
 8001b3c:	681b      	ldr	r3, [r3, #0]
 8001b3e:	f003 0302 	and.w	r3, r3, #2
 8001b42:	2b00      	cmp	r3, #0
 8001b44:	d0f0      	beq.n	8001b28 <HAL_RCC_OscConfig+0x174>
          }
        }
         /* Selects the Multiple Speed oscillator (MSI) clock range .*/
        __HAL_RCC_MSI_RANGE_CONFIG(RCC_OscInitStruct->MSIClockRange);
 8001b46:	4b41      	ldr	r3, [pc, #260]	; (8001c4c <HAL_RCC_OscConfig+0x298>)
 8001b48:	681b      	ldr	r3, [r3, #0]
 8001b4a:	4a40      	ldr	r2, [pc, #256]	; (8001c4c <HAL_RCC_OscConfig+0x298>)
 8001b4c:	f043 0308 	orr.w	r3, r3, #8
 8001b50:	6013      	str	r3, [r2, #0]
 8001b52:	4b3e      	ldr	r3, [pc, #248]	; (8001c4c <HAL_RCC_OscConfig+0x298>)
 8001b54:	681b      	ldr	r3, [r3, #0]
 8001b56:	f023 02f0 	bic.w	r2, r3, #240	; 0xf0
 8001b5a:	687b      	ldr	r3, [r7, #4]
 8001b5c:	6a1b      	ldr	r3, [r3, #32]
 8001b5e:	493b      	ldr	r1, [pc, #236]	; (8001c4c <HAL_RCC_OscConfig+0x298>)
 8001b60:	4313      	orrs	r3, r2
 8001b62:	600b      	str	r3, [r1, #0]
         /* Adjusts the Multiple Speed oscillator (MSI) calibration value.*/
        __HAL_RCC_MSI_CALIBRATIONVALUE_ADJUST(RCC_OscInitStruct->MSICalibrationValue);
 8001b64:	4b39      	ldr	r3, [pc, #228]	; (8001c4c <HAL_RCC_OscConfig+0x298>)
 8001b66:	685b      	ldr	r3, [r3, #4]
 8001b68:	f423 427f 	bic.w	r2, r3, #65280	; 0xff00
 8001b6c:	687b      	ldr	r3, [r7, #4]
 8001b6e:	69db      	ldr	r3, [r3, #28]
 8001b70:	021b      	lsls	r3, r3, #8
 8001b72:	4936      	ldr	r1, [pc, #216]	; (8001c4c <HAL_RCC_OscConfig+0x298>)
 8001b74:	4313      	orrs	r3, r2
 8001b76:	604b      	str	r3, [r1, #4]
 8001b78:	e01a      	b.n	8001bb0 <HAL_RCC_OscConfig+0x1fc>

      }
      else
      {
        /* Disable the Internal High Speed oscillator (MSI). */
        __HAL_RCC_MSI_DISABLE();
 8001b7a:	4b34      	ldr	r3, [pc, #208]	; (8001c4c <HAL_RCC_OscConfig+0x298>)
 8001b7c:	681b      	ldr	r3, [r3, #0]
 8001b7e:	4a33      	ldr	r2, [pc, #204]	; (8001c4c <HAL_RCC_OscConfig+0x298>)
 8001b80:	f023 0301 	bic.w	r3, r3, #1
 8001b84:	6013      	str	r3, [r2, #0]

        /* Get timeout */
        tickstart = HAL_GetTick();
 8001b86:	f7ff fbc1 	bl	800130c <HAL_GetTick>
 8001b8a:	6138      	str	r0, [r7, #16]

        /* Wait till MSI is ready */
        while(READ_BIT(RCC->CR, RCC_CR_MSIRDY) != 0U)
 8001b8c:	e008      	b.n	8001ba0 <HAL_RCC_OscConfig+0x1ec>
        {
          if((HAL_GetTick() - tickstart) > MSI_TIMEOUT_VALUE)
 8001b8e:	f7ff fbbd 	bl	800130c <HAL_GetTick>
 8001b92:	4602      	mov	r2, r0
 8001b94:	693b      	ldr	r3, [r7, #16]
 8001b96:	1ad3      	subs	r3, r2, r3
 8001b98:	2b02      	cmp	r3, #2
 8001b9a:	d901      	bls.n	8001ba0 <HAL_RCC_OscConfig+0x1ec>
          {
            return HAL_TIMEOUT;
 8001b9c:	2303      	movs	r3, #3
 8001b9e:	e2d9      	b.n	8002154 <HAL_RCC_OscConfig+0x7a0>
        while(READ_BIT(RCC->CR, RCC_CR_MSIRDY) != 0U)
 8001ba0:	4b2a      	ldr	r3, [pc, #168]	; (8001c4c <HAL_RCC_OscConfig+0x298>)
 8001ba2:	681b      	ldr	r3, [r3, #0]
 8001ba4:	f003 0302 	and.w	r3, r3, #2
 8001ba8:	2b00      	cmp	r3, #0
 8001baa:	d1f0      	bne.n	8001b8e <HAL_RCC_OscConfig+0x1da>
 8001bac:	e000      	b.n	8001bb0 <HAL_RCC_OscConfig+0x1fc>
      if((READ_BIT(RCC->CR, RCC_CR_MSIRDY) != 0U) && (RCC_OscInitStruct->MSIState == RCC_MSI_OFF))
 8001bae:	bf00      	nop
        }
      }
    }
  }
  /*------------------------------- HSE Configuration ------------------------*/
  if(((RCC_OscInitStruct->OscillatorType) & RCC_OSCILLATORTYPE_HSE) == RCC_OSCILLATORTYPE_HSE)
 8001bb0:	687b      	ldr	r3, [r7, #4]
 8001bb2:	681b      	ldr	r3, [r3, #0]
 8001bb4:	f003 0301 	and.w	r3, r3, #1
 8001bb8:	2b00      	cmp	r3, #0
 8001bba:	d074      	beq.n	8001ca6 <HAL_RCC_OscConfig+0x2f2>
  {
    /* Check the parameters */
    assert_param(IS_RCC_HSE(RCC_OscInitStruct->HSEState));

    /* When the HSE is used as system clock or clock source for PLL in these cases it is not allowed to be disabled */
    if((sysclk_source == RCC_CFGR_SWS_HSE) ||
 8001bbc:	69bb      	ldr	r3, [r7, #24]
 8001bbe:	2b08      	cmp	r3, #8
 8001bc0:	d005      	beq.n	8001bce <HAL_RCC_OscConfig+0x21a>
 8001bc2:	69bb      	ldr	r3, [r7, #24]
 8001bc4:	2b0c      	cmp	r3, #12
 8001bc6:	d10e      	bne.n	8001be6 <HAL_RCC_OscConfig+0x232>
       ((sysclk_source == RCC_CFGR_SWS_PLL) && (pll_config == RCC_PLLSOURCE_HSE)))
 8001bc8:	697b      	ldr	r3, [r7, #20]
 8001bca:	2b03      	cmp	r3, #3
 8001bcc:	d10b      	bne.n	8001be6 <HAL_RCC_OscConfig+0x232>
    {
      if((READ_BIT(RCC->CR, RCC_CR_HSERDY) != 0U) && (RCC_OscInitStruct->HSEState == RCC_HSE_OFF))
 8001bce:	4b1f      	ldr	r3, [pc, #124]	; (8001c4c <HAL_RCC_OscConfig+0x298>)
 8001bd0:	681b      	ldr	r3, [r3, #0]
 8001bd2:	f403 3300 	and.w	r3, r3, #131072	; 0x20000
 8001bd6:	2b00      	cmp	r3, #0
 8001bd8:	d064      	beq.n	8001ca4 <HAL_RCC_OscConfig+0x2f0>
 8001bda:	687b      	ldr	r3, [r7, #4]
 8001bdc:	685b      	ldr	r3, [r3, #4]
 8001bde:	2b00      	cmp	r3, #0
 8001be0:	d160      	bne.n	8001ca4 <HAL_RCC_OscConfig+0x2f0>
      {
        return HAL_ERROR;
 8001be2:	2301      	movs	r3, #1
 8001be4:	e2b6      	b.n	8002154 <HAL_RCC_OscConfig+0x7a0>
      }
    }
    else
    {
      /* Set the new HSE configuration ---------------------------------------*/
      __HAL_RCC_HSE_CONFIG(RCC_OscInitStruct->HSEState);
 8001be6:	687b      	ldr	r3, [r7, #4]
 8001be8:	685b      	ldr	r3, [r3, #4]
 8001bea:	f5b3 3f80 	cmp.w	r3, #65536	; 0x10000
 8001bee:	d106      	bne.n	8001bfe <HAL_RCC_OscConfig+0x24a>
 8001bf0:	4b16      	ldr	r3, [pc, #88]	; (8001c4c <HAL_RCC_OscConfig+0x298>)
 8001bf2:	681b      	ldr	r3, [r3, #0]
 8001bf4:	4a15      	ldr	r2, [pc, #84]	; (8001c4c <HAL_RCC_OscConfig+0x298>)
 8001bf6:	f443 3380 	orr.w	r3, r3, #65536	; 0x10000
 8001bfa:	6013      	str	r3, [r2, #0]
 8001bfc:	e01d      	b.n	8001c3a <HAL_RCC_OscConfig+0x286>
 8001bfe:	687b      	ldr	r3, [r7, #4]
 8001c00:	685b      	ldr	r3, [r3, #4]
 8001c02:	f5b3 2fa0 	cmp.w	r3, #327680	; 0x50000
 8001c06:	d10c      	bne.n	8001c22 <HAL_RCC_OscConfig+0x26e>
 8001c08:	4b10      	ldr	r3, [pc, #64]	; (8001c4c <HAL_RCC_OscConfig+0x298>)
 8001c0a:	681b      	ldr	r3, [r3, #0]
 8001c0c:	4a0f      	ldr	r2, [pc, #60]	; (8001c4c <HAL_RCC_OscConfig+0x298>)
 8001c0e:	f443 2380 	orr.w	r3, r3, #262144	; 0x40000
 8001c12:	6013      	str	r3, [r2, #0]
 8001c14:	4b0d      	ldr	r3, [pc, #52]	; (8001c4c <HAL_RCC_OscConfig+0x298>)
 8001c16:	681b      	ldr	r3, [r3, #0]
 8001c18:	4a0c      	ldr	r2, [pc, #48]	; (8001c4c <HAL_RCC_OscConfig+0x298>)
 8001c1a:	f443 3380 	orr.w	r3, r3, #65536	; 0x10000
 8001c1e:	6013      	str	r3, [r2, #0]
 8001c20:	e00b      	b.n	8001c3a <HAL_RCC_OscConfig+0x286>
 8001c22:	4b0a      	ldr	r3, [pc, #40]	; (8001c4c <HAL_RCC_OscConfig+0x298>)
 8001c24:	681b      	ldr	r3, [r3, #0]
 8001c26:	4a09      	ldr	r2, [pc, #36]	; (8001c4c <HAL_RCC_OscConfig+0x298>)
 8001c28:	f423 3380 	bic.w	r3, r3, #65536	; 0x10000
 8001c2c:	6013      	str	r3, [r2, #0]
 8001c2e:	4b07      	ldr	r3, [pc, #28]	; (8001c4c <HAL_RCC_OscConfig+0x298>)
 8001c30:	681b      	ldr	r3, [r3, #0]
 8001c32:	4a06      	ldr	r2, [pc, #24]	; (8001c4c <HAL_RCC_OscConfig+0x298>)
 8001c34:	f423 2380 	bic.w	r3, r3, #262144	; 0x40000
 8001c38:	6013      	str	r3, [r2, #0]

      /* Check the HSE State */
      if(RCC_OscInitStruct->HSEState != RCC_HSE_OFF)
 8001c3a:	687b      	ldr	r3, [r7, #4]
 8001c3c:	685b      	ldr	r3, [r3, #4]
 8001c3e:	2b00      	cmp	r3, #0
 8001c40:	d01c      	beq.n	8001c7c <HAL_RCC_OscConfig+0x2c8>
      {
        /* Get Start Tick*/
        tickstart = HAL_GetTick();
 8001c42:	f7ff fb63 	bl	800130c <HAL_GetTick>
 8001c46:	6138      	str	r0, [r7, #16]

        /* Wait till HSE is ready */
        while(READ_BIT(RCC->CR, RCC_CR_HSERDY) == 0U)
 8001c48:	e011      	b.n	8001c6e <HAL_RCC_OscConfig+0x2ba>
 8001c4a:	bf00      	nop
 8001c4c:	40021000 	.word	0x40021000
 8001c50:	080038b4 	.word	0x080038b4
 8001c54:	20000000 	.word	0x20000000
 8001c58:	20000004 	.word	0x20000004
        {
          if((HAL_GetTick() - tickstart) > HSE_TIMEOUT_VALUE)
 8001c5c:	f7ff fb56 	bl	800130c <HAL_GetTick>
 8001c60:	4602      	mov	r2, r0
 8001c62:	693b      	ldr	r3, [r7, #16]
 8001c64:	1ad3      	subs	r3, r2, r3
 8001c66:	2b64      	cmp	r3, #100	; 0x64
 8001c68:	d901      	bls.n	8001c6e <HAL_RCC_OscConfig+0x2ba>
          {
            return HAL_TIMEOUT;
 8001c6a:	2303      	movs	r3, #3
 8001c6c:	e272      	b.n	8002154 <HAL_RCC_OscConfig+0x7a0>
        while(READ_BIT(RCC->CR, RCC_CR_HSERDY) == 0U)
 8001c6e:	4baf      	ldr	r3, [pc, #700]	; (8001f2c <HAL_RCC_OscConfig+0x578>)
 8001c70:	681b      	ldr	r3, [r3, #0]
 8001c72:	f403 3300 	and.w	r3, r3, #131072	; 0x20000
 8001c76:	2b00      	cmp	r3, #0
 8001c78:	d0f0      	beq.n	8001c5c <HAL_RCC_OscConfig+0x2a8>
 8001c7a:	e014      	b.n	8001ca6 <HAL_RCC_OscConfig+0x2f2>
        }
      }
      else
      {
        /* Get Start Tick*/
        tickstart = HAL_GetTick();
 8001c7c:	f7ff fb46 	bl	800130c <HAL_GetTick>
 8001c80:	6138      	str	r0, [r7, #16]

        /* Wait till HSE is disabled */
        while(READ_BIT(RCC->CR, RCC_CR_HSERDY) != 0U)
 8001c82:	e008      	b.n	8001c96 <HAL_RCC_OscConfig+0x2e2>
        {
          if((HAL_GetTick() - tickstart) > HSE_TIMEOUT_VALUE)
 8001c84:	f7ff fb42 	bl	800130c <HAL_GetTick>
 8001c88:	4602      	mov	r2, r0
 8001c8a:	693b      	ldr	r3, [r7, #16]
 8001c8c:	1ad3      	subs	r3, r2, r3
 8001c8e:	2b64      	cmp	r3, #100	; 0x64
 8001c90:	d901      	bls.n	8001c96 <HAL_RCC_OscConfig+0x2e2>
          {
            return HAL_TIMEOUT;
 8001c92:	2303      	movs	r3, #3
 8001c94:	e25e      	b.n	8002154 <HAL_RCC_OscConfig+0x7a0>
        while(READ_BIT(RCC->CR, RCC_CR_HSERDY) != 0U)
 8001c96:	4ba5      	ldr	r3, [pc, #660]	; (8001f2c <HAL_RCC_OscConfig+0x578>)
 8001c98:	681b      	ldr	r3, [r3, #0]
 8001c9a:	f403 3300 	and.w	r3, r3, #131072	; 0x20000
 8001c9e:	2b00      	cmp	r3, #0
 8001ca0:	d1f0      	bne.n	8001c84 <HAL_RCC_OscConfig+0x2d0>
 8001ca2:	e000      	b.n	8001ca6 <HAL_RCC_OscConfig+0x2f2>
      if((READ_BIT(RCC->CR, RCC_CR_HSERDY) != 0U) && (RCC_OscInitStruct->HSEState == RCC_HSE_OFF))
 8001ca4:	bf00      	nop
        }
      }
    }
  }
  /*----------------------------- HSI Configuration --------------------------*/
  if(((RCC_OscInitStruct->OscillatorType) & RCC_OSCILLATORTYPE_HSI) == RCC_OSCILLATORTYPE_HSI)
 8001ca6:	687b      	ldr	r3, [r7, #4]
 8001ca8:	681b      	ldr	r3, [r3, #0]
 8001caa:	f003 0302 	and.w	r3, r3, #2
 8001cae:	2b00      	cmp	r3, #0
 8001cb0:	d060      	beq.n	8001d74 <HAL_RCC_OscConfig+0x3c0>
    /* Check the parameters */
    assert_param(IS_RCC_HSI(RCC_OscInitStruct->HSIState));
    assert_param(IS_RCC_HSI_CALIBRATION_VALUE(RCC_OscInitStruct->HSICalibrationValue));

    /* Check if HSI is used as system clock or as PLL source when PLL is selected as system clock */
    if((sysclk_source == RCC_CFGR_SWS_HSI) ||
 8001cb2:	69bb      	ldr	r3, [r7, #24]
 8001cb4:	2b04      	cmp	r3, #4
 8001cb6:	d005      	beq.n	8001cc4 <HAL_RCC_OscConfig+0x310>
 8001cb8:	69bb      	ldr	r3, [r7, #24]
 8001cba:	2b0c      	cmp	r3, #12
 8001cbc:	d119      	bne.n	8001cf2 <HAL_RCC_OscConfig+0x33e>
       ((sysclk_source == RCC_CFGR_SWS_PLL) && (pll_config == RCC_PLLSOURCE_HSI)))
 8001cbe:	697b      	ldr	r3, [r7, #20]
 8001cc0:	2b02      	cmp	r3, #2
 8001cc2:	d116      	bne.n	8001cf2 <HAL_RCC_OscConfig+0x33e>
    {
      /* When HSI is used as system clock it will not be disabled */
      if((READ_BIT(RCC->CR, RCC_CR_HSIRDY) != 0U) && (RCC_OscInitStruct->HSIState == RCC_HSI_OFF))
 8001cc4:	4b99      	ldr	r3, [pc, #612]	; (8001f2c <HAL_RCC_OscConfig+0x578>)
 8001cc6:	681b      	ldr	r3, [r3, #0]
 8001cc8:	f403 6380 	and.w	r3, r3, #1024	; 0x400
 8001ccc:	2b00      	cmp	r3, #0
 8001cce:	d005      	beq.n	8001cdc <HAL_RCC_OscConfig+0x328>
 8001cd0:	687b      	ldr	r3, [r7, #4]
 8001cd2:	68db      	ldr	r3, [r3, #12]
 8001cd4:	2b00      	cmp	r3, #0
 8001cd6:	d101      	bne.n	8001cdc <HAL_RCC_OscConfig+0x328>
      {
        return HAL_ERROR;
 8001cd8:	2301      	movs	r3, #1
 8001cda:	e23b      	b.n	8002154 <HAL_RCC_OscConfig+0x7a0>
      }
      /* Otherwise, just the calibration is allowed */
      else
      {
        /* Adjusts the Internal High Speed oscillator (HSI) calibration value.*/
        __HAL_RCC_HSI_CALIBRATIONVALUE_ADJUST(RCC_OscInitStruct->HSICalibrationValue);
 8001cdc:	4b93      	ldr	r3, [pc, #588]	; (8001f2c <HAL_RCC_OscConfig+0x578>)
 8001cde:	685b      	ldr	r3, [r3, #4]
 8001ce0:	f023 52f8 	bic.w	r2, r3, #520093696	; 0x1f000000
 8001ce4:	687b      	ldr	r3, [r7, #4]
 8001ce6:	691b      	ldr	r3, [r3, #16]
 8001ce8:	061b      	lsls	r3, r3, #24
 8001cea:	4990      	ldr	r1, [pc, #576]	; (8001f2c <HAL_RCC_OscConfig+0x578>)
 8001cec:	4313      	orrs	r3, r2
 8001cee:	604b      	str	r3, [r1, #4]
      if((READ_BIT(RCC->CR, RCC_CR_HSIRDY) != 0U) && (RCC_OscInitStruct->HSIState == RCC_HSI_OFF))
 8001cf0:	e040      	b.n	8001d74 <HAL_RCC_OscConfig+0x3c0>
      }
    }
    else
    {
      /* Check the HSI State */
      if(RCC_OscInitStruct->HSIState != RCC_HSI_OFF)
 8001cf2:	687b      	ldr	r3, [r7, #4]
 8001cf4:	68db      	ldr	r3, [r3, #12]
 8001cf6:	2b00      	cmp	r3, #0
 8001cf8:	d023      	beq.n	8001d42 <HAL_RCC_OscConfig+0x38e>
      {
        /* Enable the Internal High Speed oscillator (HSI). */
        __HAL_RCC_HSI_ENABLE();
 8001cfa:	4b8c      	ldr	r3, [pc, #560]	; (8001f2c <HAL_RCC_OscConfig+0x578>)
 8001cfc:	681b      	ldr	r3, [r3, #0]
 8001cfe:	4a8b      	ldr	r2, [pc, #556]	; (8001f2c <HAL_RCC_OscConfig+0x578>)
 8001d00:	f443 7380 	orr.w	r3, r3, #256	; 0x100
 8001d04:	6013      	str	r3, [r2, #0]

        /* Get Start Tick*/
        tickstart = HAL_GetTick();
 8001d06:	f7ff fb01 	bl	800130c <HAL_GetTick>
 8001d0a:	6138      	str	r0, [r7, #16]

        /* Wait till HSI is ready */
        while(READ_BIT(RCC->CR, RCC_CR_HSIRDY) == 0U)
 8001d0c:	e008      	b.n	8001d20 <HAL_RCC_OscConfig+0x36c>
        {
          if((HAL_GetTick() - tickstart) > HSI_TIMEOUT_VALUE)
 8001d0e:	f7ff fafd 	bl	800130c <HAL_GetTick>
 8001d12:	4602      	mov	r2, r0
 8001d14:	693b      	ldr	r3, [r7, #16]
 8001d16:	1ad3      	subs	r3, r2, r3
 8001d18:	2b02      	cmp	r3, #2
 8001d1a:	d901      	bls.n	8001d20 <HAL_RCC_OscConfig+0x36c>
          {
            return HAL_TIMEOUT;
 8001d1c:	2303      	movs	r3, #3
 8001d1e:	e219      	b.n	8002154 <HAL_RCC_OscConfig+0x7a0>
        while(READ_BIT(RCC->CR, RCC_CR_HSIRDY) == 0U)
 8001d20:	4b82      	ldr	r3, [pc, #520]	; (8001f2c <HAL_RCC_OscConfig+0x578>)
 8001d22:	681b      	ldr	r3, [r3, #0]
 8001d24:	f403 6380 	and.w	r3, r3, #1024	; 0x400
 8001d28:	2b00      	cmp	r3, #0
 8001d2a:	d0f0      	beq.n	8001d0e <HAL_RCC_OscConfig+0x35a>
          }
        }

        /* Adjusts the Internal High Speed oscillator (HSI) calibration value.*/
        __HAL_RCC_HSI_CALIBRATIONVALUE_ADJUST(RCC_OscInitStruct->HSICalibrationValue);
 8001d2c:	4b7f      	ldr	r3, [pc, #508]	; (8001f2c <HAL_RCC_OscConfig+0x578>)
 8001d2e:	685b      	ldr	r3, [r3, #4]
 8001d30:	f023 52f8 	bic.w	r2, r3, #520093696	; 0x1f000000
 8001d34:	687b      	ldr	r3, [r7, #4]
 8001d36:	691b      	ldr	r3, [r3, #16]
 8001d38:	061b      	lsls	r3, r3, #24
 8001d3a:	497c      	ldr	r1, [pc, #496]	; (8001f2c <HAL_RCC_OscConfig+0x578>)
 8001d3c:	4313      	orrs	r3, r2
 8001d3e:	604b      	str	r3, [r1, #4]
 8001d40:	e018      	b.n	8001d74 <HAL_RCC_OscConfig+0x3c0>
      }
      else
      {
        /* Disable the Internal High Speed oscillator (HSI). */
        __HAL_RCC_HSI_DISABLE();
 8001d42:	4b7a      	ldr	r3, [pc, #488]	; (8001f2c <HAL_RCC_OscConfig+0x578>)
 8001d44:	681b      	ldr	r3, [r3, #0]
 8001d46:	4a79      	ldr	r2, [pc, #484]	; (8001f2c <HAL_RCC_OscConfig+0x578>)
 8001d48:	f423 7380 	bic.w	r3, r3, #256	; 0x100
 8001d4c:	6013      	str	r3, [r2, #0]

        /* Get Start Tick*/
        tickstart = HAL_GetTick();
 8001d4e:	f7ff fadd 	bl	800130c <HAL_GetTick>
 8001d52:	6138      	str	r0, [r7, #16]

        /* Wait till HSI is disabled */
        while(READ_BIT(RCC->CR, RCC_CR_HSIRDY) != 0U)
 8001d54:	e008      	b.n	8001d68 <HAL_RCC_OscConfig+0x3b4>
        {
          if((HAL_GetTick() - tickstart) > HSI_TIMEOUT_VALUE)
 8001d56:	f7ff fad9 	bl	800130c <HAL_GetTick>
 8001d5a:	4602      	mov	r2, r0
 8001d5c:	693b      	ldr	r3, [r7, #16]
 8001d5e:	1ad3      	subs	r3, r2, r3
 8001d60:	2b02      	cmp	r3, #2
 8001d62:	d901      	bls.n	8001d68 <HAL_RCC_OscConfig+0x3b4>
          {
            return HAL_TIMEOUT;
 8001d64:	2303      	movs	r3, #3
 8001d66:	e1f5      	b.n	8002154 <HAL_RCC_OscConfig+0x7a0>
        while(READ_BIT(RCC->CR, RCC_CR_HSIRDY) != 0U)
 8001d68:	4b70      	ldr	r3, [pc, #448]	; (8001f2c <HAL_RCC_OscConfig+0x578>)
 8001d6a:	681b      	ldr	r3, [r3, #0]
 8001d6c:	f403 6380 	and.w	r3, r3, #1024	; 0x400
 8001d70:	2b00      	cmp	r3, #0
 8001d72:	d1f0      	bne.n	8001d56 <HAL_RCC_OscConfig+0x3a2>
        }
      }
    }
  }
  /*------------------------------ LSI Configuration -------------------------*/
  if(((RCC_OscInitStruct->OscillatorType) & RCC_OSCILLATORTYPE_LSI) == RCC_OSCILLATORTYPE_LSI)
 8001d74:	687b      	ldr	r3, [r7, #4]
 8001d76:	681b      	ldr	r3, [r3, #0]
 8001d78:	f003 0308 	and.w	r3, r3, #8
 8001d7c:	2b00      	cmp	r3, #0
 8001d7e:	d03c      	beq.n	8001dfa <HAL_RCC_OscConfig+0x446>
  {
    /* Check the parameters */
    assert_param(IS_RCC_LSI(RCC_OscInitStruct->LSIState));

    /* Check the LSI State */
    if(RCC_OscInitStruct->LSIState != RCC_LSI_OFF)
 8001d80:	687b      	ldr	r3, [r7, #4]
 8001d82:	695b      	ldr	r3, [r3, #20]
 8001d84:	2b00      	cmp	r3, #0
 8001d86:	d01c      	beq.n	8001dc2 <HAL_RCC_OscConfig+0x40e>
        MODIFY_REG(RCC->CSR, RCC_CSR_LSIPREDIV, RCC_OscInitStruct->LSIDiv);
      }
#endif /* RCC_CSR_LSIPREDIV */

      /* Enable the Internal Low Speed oscillator (LSI). */
      __HAL_RCC_LSI_ENABLE();
 8001d88:	4b68      	ldr	r3, [pc, #416]	; (8001f2c <HAL_RCC_OscConfig+0x578>)
 8001d8a:	f8d3 3094 	ldr.w	r3, [r3, #148]	; 0x94
 8001d8e:	4a67      	ldr	r2, [pc, #412]	; (8001f2c <HAL_RCC_OscConfig+0x578>)
 8001d90:	f043 0301 	orr.w	r3, r3, #1
 8001d94:	f8c2 3094 	str.w	r3, [r2, #148]	; 0x94

      /* Get Start Tick*/
      tickstart = HAL_GetTick();
 8001d98:	f7ff fab8 	bl	800130c <HAL_GetTick>
 8001d9c:	6138      	str	r0, [r7, #16]

      /* Wait till LSI is ready */
      while(READ_BIT(RCC->CSR, RCC_CSR_LSIRDY) == 0U)
 8001d9e:	e008      	b.n	8001db2 <HAL_RCC_OscConfig+0x3fe>
      {
        if((HAL_GetTick() - tickstart) > LSI_TIMEOUT_VALUE)
 8001da0:	f7ff fab4 	bl	800130c <HAL_GetTick>
 8001da4:	4602      	mov	r2, r0
 8001da6:	693b      	ldr	r3, [r7, #16]
 8001da8:	1ad3      	subs	r3, r2, r3
 8001daa:	2b02      	cmp	r3, #2
 8001dac:	d901      	bls.n	8001db2 <HAL_RCC_OscConfig+0x3fe>
        {
          return HAL_TIMEOUT;
 8001dae:	2303      	movs	r3, #3
 8001db0:	e1d0      	b.n	8002154 <HAL_RCC_OscConfig+0x7a0>
      while(READ_BIT(RCC->CSR, RCC_CSR_LSIRDY) == 0U)
 8001db2:	4b5e      	ldr	r3, [pc, #376]	; (8001f2c <HAL_RCC_OscConfig+0x578>)
 8001db4:	f8d3 3094 	ldr.w	r3, [r3, #148]	; 0x94
 8001db8:	f003 0302 	and.w	r3, r3, #2
 8001dbc:	2b00      	cmp	r3, #0
 8001dbe:	d0ef      	beq.n	8001da0 <HAL_RCC_OscConfig+0x3ec>
 8001dc0:	e01b      	b.n	8001dfa <HAL_RCC_OscConfig+0x446>
      }
    }
    else
    {
      /* Disable the Internal Low Speed oscillator (LSI). */
      __HAL_RCC_LSI_DISABLE();
 8001dc2:	4b5a      	ldr	r3, [pc, #360]	; (8001f2c <HAL_RCC_OscConfig+0x578>)
 8001dc4:	f8d3 3094 	ldr.w	r3, [r3, #148]	; 0x94
 8001dc8:	4a58      	ldr	r2, [pc, #352]	; (8001f2c <HAL_RCC_OscConfig+0x578>)
 8001dca:	f023 0301 	bic.w	r3, r3, #1
 8001dce:	f8c2 3094 	str.w	r3, [r2, #148]	; 0x94

      /* Get Start Tick*/
      tickstart = HAL_GetTick();
 8001dd2:	f7ff fa9b 	bl	800130c <HAL_GetTick>
 8001dd6:	6138      	str	r0, [r7, #16]

      /* Wait till LSI is disabled */
      while(READ_BIT(RCC->CSR, RCC_CSR_LSIRDY) != 0U)
 8001dd8:	e008      	b.n	8001dec <HAL_RCC_OscConfig+0x438>
      {
        if((HAL_GetTick() - tickstart) > LSI_TIMEOUT_VALUE)
 8001dda:	f7ff fa97 	bl	800130c <HAL_GetTick>
 8001dde:	4602      	mov	r2, r0
 8001de0:	693b      	ldr	r3, [r7, #16]
 8001de2:	1ad3      	subs	r3, r2, r3
 8001de4:	2b02      	cmp	r3, #2
 8001de6:	d901      	bls.n	8001dec <HAL_RCC_OscConfig+0x438>
        {
          return HAL_TIMEOUT;
 8001de8:	2303      	movs	r3, #3
 8001dea:	e1b3      	b.n	8002154 <HAL_RCC_OscConfig+0x7a0>
      while(READ_BIT(RCC->CSR, RCC_CSR_LSIRDY) != 0U)
 8001dec:	4b4f      	ldr	r3, [pc, #316]	; (8001f2c <HAL_RCC_OscConfig+0x578>)
 8001dee:	f8d3 3094 	ldr.w	r3, [r3, #148]	; 0x94
 8001df2:	f003 0302 	and.w	r3, r3, #2
 8001df6:	2b00      	cmp	r3, #0
 8001df8:	d1ef      	bne.n	8001dda <HAL_RCC_OscConfig+0x426>
        }
      }
    }
  }
  /*------------------------------ LSE Configuration -------------------------*/
  if(((RCC_OscInitStruct->OscillatorType) & RCC_OSCILLATORTYPE_LSE) == RCC_OSCILLATORTYPE_LSE)
 8001dfa:	687b      	ldr	r3, [r7, #4]
 8001dfc:	681b      	ldr	r3, [r3, #0]
 8001dfe:	f003 0304 	and.w	r3, r3, #4
 8001e02:	2b00      	cmp	r3, #0
 8001e04:	f000 80a6 	beq.w	8001f54 <HAL_RCC_OscConfig+0x5a0>
  {
    FlagStatus       pwrclkchanged = RESET;
 8001e08:	2300      	movs	r3, #0
 8001e0a:	77fb      	strb	r3, [r7, #31]
    /* Check the parameters */
    assert_param(IS_RCC_LSE(RCC_OscInitStruct->LSEState));

    /* Update LSE configuration in Backup Domain control register    */
    /* Requires to enable write access to Backup Domain of necessary */
    if(HAL_IS_BIT_CLR(RCC->APB1ENR1, RCC_APB1ENR1_PWREN))
 8001e0c:	4b47      	ldr	r3, [pc, #284]	; (8001f2c <HAL_RCC_OscConfig+0x578>)
 8001e0e:	6d9b      	ldr	r3, [r3, #88]	; 0x58
 8001e10:	f003 5380 	and.w	r3, r3, #268435456	; 0x10000000
 8001e14:	2b00      	cmp	r3, #0
 8001e16:	d10d      	bne.n	8001e34 <HAL_RCC_OscConfig+0x480>
    {
      __HAL_RCC_PWR_CLK_ENABLE();
 8001e18:	4b44      	ldr	r3, [pc, #272]	; (8001f2c <HAL_RCC_OscConfig+0x578>)
 8001e1a:	6d9b      	ldr	r3, [r3, #88]	; 0x58
 8001e1c:	4a43      	ldr	r2, [pc, #268]	; (8001f2c <HAL_RCC_OscConfig+0x578>)
 8001e1e:	f043 5380 	orr.w	r3, r3, #268435456	; 0x10000000
 8001e22:	6593      	str	r3, [r2, #88]	; 0x58
 8001e24:	4b41      	ldr	r3, [pc, #260]	; (8001f2c <HAL_RCC_OscConfig+0x578>)
 8001e26:	6d9b      	ldr	r3, [r3, #88]	; 0x58
 8001e28:	f003 5380 	and.w	r3, r3, #268435456	; 0x10000000
 8001e2c:	60bb      	str	r3, [r7, #8]
 8001e2e:	68bb      	ldr	r3, [r7, #8]
      pwrclkchanged = SET;
 8001e30:	2301      	movs	r3, #1
 8001e32:	77fb      	strb	r3, [r7, #31]
    }

    if(HAL_IS_BIT_CLR(PWR->CR1, PWR_CR1_DBP))
 8001e34:	4b3e      	ldr	r3, [pc, #248]	; (8001f30 <HAL_RCC_OscConfig+0x57c>)
 8001e36:	681b      	ldr	r3, [r3, #0]
 8001e38:	f403 7380 	and.w	r3, r3, #256	; 0x100
 8001e3c:	2b00      	cmp	r3, #0
 8001e3e:	d118      	bne.n	8001e72 <HAL_RCC_OscConfig+0x4be>
    {
      /* Enable write access to Backup domain */
      SET_BIT(PWR->CR1, PWR_CR1_DBP);
 8001e40:	4b3b      	ldr	r3, [pc, #236]	; (8001f30 <HAL_RCC_OscConfig+0x57c>)
 8001e42:	681b      	ldr	r3, [r3, #0]
 8001e44:	4a3a      	ldr	r2, [pc, #232]	; (8001f30 <HAL_RCC_OscConfig+0x57c>)
 8001e46:	f443 7380 	orr.w	r3, r3, #256	; 0x100
 8001e4a:	6013      	str	r3, [r2, #0]

      /* Wait for Backup domain Write protection disable */
      tickstart = HAL_GetTick();
 8001e4c:	f7ff fa5e 	bl	800130c <HAL_GetTick>
 8001e50:	6138      	str	r0, [r7, #16]

      while(HAL_IS_BIT_CLR(PWR->CR1, PWR_CR1_DBP))
 8001e52:	e008      	b.n	8001e66 <HAL_RCC_OscConfig+0x4b2>
      {
        if((HAL_GetTick() - tickstart) > RCC_DBP_TIMEOUT_VALUE)
 8001e54:	f7ff fa5a 	bl	800130c <HAL_GetTick>
 8001e58:	4602      	mov	r2, r0
 8001e5a:	693b      	ldr	r3, [r7, #16]
 8001e5c:	1ad3      	subs	r3, r2, r3
 8001e5e:	2b02      	cmp	r3, #2
 8001e60:	d901      	bls.n	8001e66 <HAL_RCC_OscConfig+0x4b2>
        {
          return HAL_TIMEOUT;
 8001e62:	2303      	movs	r3, #3
 8001e64:	e176      	b.n	8002154 <HAL_RCC_OscConfig+0x7a0>
      while(HAL_IS_BIT_CLR(PWR->CR1, PWR_CR1_DBP))
 8001e66:	4b32      	ldr	r3, [pc, #200]	; (8001f30 <HAL_RCC_OscConfig+0x57c>)
 8001e68:	681b      	ldr	r3, [r3, #0]
 8001e6a:	f403 7380 	and.w	r3, r3, #256	; 0x100
 8001e6e:	2b00      	cmp	r3, #0
 8001e70:	d0f0      	beq.n	8001e54 <HAL_RCC_OscConfig+0x4a0>
    {
      CLEAR_BIT(RCC->BDCR, RCC_BDCR_LSEON);
      CLEAR_BIT(RCC->BDCR, RCC_BDCR_LSEBYP);
    }
#else
    __HAL_RCC_LSE_CONFIG(RCC_OscInitStruct->LSEState);
 8001e72:	687b      	ldr	r3, [r7, #4]
 8001e74:	689b      	ldr	r3, [r3, #8]
 8001e76:	2b01      	cmp	r3, #1
 8001e78:	d108      	bne.n	8001e8c <HAL_RCC_OscConfig+0x4d8>
 8001e7a:	4b2c      	ldr	r3, [pc, #176]	; (8001f2c <HAL_RCC_OscConfig+0x578>)
 8001e7c:	f8d3 3090 	ldr.w	r3, [r3, #144]	; 0x90
 8001e80:	4a2a      	ldr	r2, [pc, #168]	; (8001f2c <HAL_RCC_OscConfig+0x578>)
 8001e82:	f043 0301 	orr.w	r3, r3, #1
 8001e86:	f8c2 3090 	str.w	r3, [r2, #144]	; 0x90
 8001e8a:	e024      	b.n	8001ed6 <HAL_RCC_OscConfig+0x522>
 8001e8c:	687b      	ldr	r3, [r7, #4]
 8001e8e:	689b      	ldr	r3, [r3, #8]
 8001e90:	2b05      	cmp	r3, #5
 8001e92:	d110      	bne.n	8001eb6 <HAL_RCC_OscConfig+0x502>
 8001e94:	4b25      	ldr	r3, [pc, #148]	; (8001f2c <HAL_RCC_OscConfig+0x578>)
 8001e96:	f8d3 3090 	ldr.w	r3, [r3, #144]	; 0x90
 8001e9a:	4a24      	ldr	r2, [pc, #144]	; (8001f2c <HAL_RCC_OscConfig+0x578>)
 8001e9c:	f043 0304 	orr.w	r3, r3, #4
 8001ea0:	f8c2 3090 	str.w	r3, [r2, #144]	; 0x90
 8001ea4:	4b21      	ldr	r3, [pc, #132]	; (8001f2c <HAL_RCC_OscConfig+0x578>)
 8001ea6:	f8d3 3090 	ldr.w	r3, [r3, #144]	; 0x90
 8001eaa:	4a20      	ldr	r2, [pc, #128]	; (8001f2c <HAL_RCC_OscConfig+0x578>)
 8001eac:	f043 0301 	orr.w	r3, r3, #1
 8001eb0:	f8c2 3090 	str.w	r3, [r2, #144]	; 0x90
 8001eb4:	e00f      	b.n	8001ed6 <HAL_RCC_OscConfig+0x522>
 8001eb6:	4b1d      	ldr	r3, [pc, #116]	; (8001f2c <HAL_RCC_OscConfig+0x578>)
 8001eb8:	f8d3 3090 	ldr.w	r3, [r3, #144]	; 0x90
 8001ebc:	4a1b      	ldr	r2, [pc, #108]	; (8001f2c <HAL_RCC_OscConfig+0x578>)
 8001ebe:	f023 0301 	bic.w	r3, r3, #1
 8001ec2:	f8c2 3090 	str.w	r3, [r2, #144]	; 0x90
 8001ec6:	4b19      	ldr	r3, [pc, #100]	; (8001f2c <HAL_RCC_OscConfig+0x578>)
 8001ec8:	f8d3 3090 	ldr.w	r3, [r3, #144]	; 0x90
 8001ecc:	4a17      	ldr	r2, [pc, #92]	; (8001f2c <HAL_RCC_OscConfig+0x578>)
 8001ece:	f023 0304 	bic.w	r3, r3, #4
 8001ed2:	f8c2 3090 	str.w	r3, [r2, #144]	; 0x90
#endif /* RCC_BDCR_LSESYSDIS */

    /* Check the LSE State */
    if(RCC_OscInitStruct->LSEState != RCC_LSE_OFF)
 8001ed6:	687b      	ldr	r3, [r7, #4]
 8001ed8:	689b      	ldr	r3, [r3, #8]
 8001eda:	2b00      	cmp	r3, #0
 8001edc:	d016      	beq.n	8001f0c <HAL_RCC_OscConfig+0x558>
    {
      /* Get Start Tick*/
      tickstart = HAL_GetTick();
 8001ede:	f7ff fa15 	bl	800130c <HAL_GetTick>
 8001ee2:	6138      	str	r0, [r7, #16]

      /* Wait till LSE is ready */
      while(READ_BIT(RCC->BDCR, RCC_BDCR_LSERDY) == 0U)
 8001ee4:	e00a      	b.n	8001efc <HAL_RCC_OscConfig+0x548>
      {
        if((HAL_GetTick() - tickstart) > RCC_LSE_TIMEOUT_VALUE)
 8001ee6:	f7ff fa11 	bl	800130c <HAL_GetTick>
 8001eea:	4602      	mov	r2, r0
 8001eec:	693b      	ldr	r3, [r7, #16]
 8001eee:	1ad3      	subs	r3, r2, r3
 8001ef0:	f241 3288 	movw	r2, #5000	; 0x1388
 8001ef4:	4293      	cmp	r3, r2
 8001ef6:	d901      	bls.n	8001efc <HAL_RCC_OscConfig+0x548>
        {
          return HAL_TIMEOUT;
 8001ef8:	2303      	movs	r3, #3
 8001efa:	e12b      	b.n	8002154 <HAL_RCC_OscConfig+0x7a0>
      while(READ_BIT(RCC->BDCR, RCC_BDCR_LSERDY) == 0U)
 8001efc:	4b0b      	ldr	r3, [pc, #44]	; (8001f2c <HAL_RCC_OscConfig+0x578>)
 8001efe:	f8d3 3090 	ldr.w	r3, [r3, #144]	; 0x90
 8001f02:	f003 0302 	and.w	r3, r3, #2
 8001f06:	2b00      	cmp	r3, #0
 8001f08:	d0ed      	beq.n	8001ee6 <HAL_RCC_OscConfig+0x532>
 8001f0a:	e01a      	b.n	8001f42 <HAL_RCC_OscConfig+0x58e>
      }
    }
    else
    {
      /* Get Start Tick*/
      tickstart = HAL_GetTick();
 8001f0c:	f7ff f9fe 	bl	800130c <HAL_GetTick>
 8001f10:	6138      	str	r0, [r7, #16]

      /* Wait till LSE is disabled */
      while(READ_BIT(RCC->BDCR, RCC_BDCR_LSERDY) != 0U)
 8001f12:	e00f      	b.n	8001f34 <HAL_RCC_OscConfig+0x580>
      {
        if((HAL_GetTick() - tickstart) > RCC_LSE_TIMEOUT_VALUE)
 8001f14:	f7ff f9fa 	bl	800130c <HAL_GetTick>
 8001f18:	4602      	mov	r2, r0
 8001f1a:	693b      	ldr	r3, [r7, #16]
 8001f1c:	1ad3      	subs	r3, r2, r3
 8001f1e:	f241 3288 	movw	r2, #5000	; 0x1388
 8001f22:	4293      	cmp	r3, r2
 8001f24:	d906      	bls.n	8001f34 <HAL_RCC_OscConfig+0x580>
        {
          return HAL_TIMEOUT;
 8001f26:	2303      	movs	r3, #3
 8001f28:	e114      	b.n	8002154 <HAL_RCC_OscConfig+0x7a0>
 8001f2a:	bf00      	nop
 8001f2c:	40021000 	.word	0x40021000
 8001f30:	40007000 	.word	0x40007000
      while(READ_BIT(RCC->BDCR, RCC_BDCR_LSERDY) != 0U)
 8001f34:	4b89      	ldr	r3, [pc, #548]	; (800215c <HAL_RCC_OscConfig+0x7a8>)
 8001f36:	f8d3 3090 	ldr.w	r3, [r3, #144]	; 0x90
 8001f3a:	f003 0302 	and.w	r3, r3, #2
 8001f3e:	2b00      	cmp	r3, #0
 8001f40:	d1e8      	bne.n	8001f14 <HAL_RCC_OscConfig+0x560>
      CLEAR_BIT(RCC->BDCR, RCC_BDCR_LSESYSDIS);
#endif /* RCC_BDCR_LSESYSDIS */
    }

    /* Restore clock configuration if changed */
    if(pwrclkchanged == SET)
 8001f42:	7ffb      	ldrb	r3, [r7, #31]
 8001f44:	2b01      	cmp	r3, #1
 8001f46:	d105      	bne.n	8001f54 <HAL_RCC_OscConfig+0x5a0>
    {
      __HAL_RCC_PWR_CLK_DISABLE();
 8001f48:	4b84      	ldr	r3, [pc, #528]	; (800215c <HAL_RCC_OscConfig+0x7a8>)
 8001f4a:	6d9b      	ldr	r3, [r3, #88]	; 0x58
 8001f4c:	4a83      	ldr	r2, [pc, #524]	; (800215c <HAL_RCC_OscConfig+0x7a8>)
 8001f4e:	f023 5380 	bic.w	r3, r3, #268435456	; 0x10000000
 8001f52:	6593      	str	r3, [r2, #88]	; 0x58
#endif /* RCC_HSI48_SUPPORT */
  /*-------------------------------- PLL Configuration -----------------------*/
  /* Check the parameters */
  assert_param(IS_RCC_PLL(RCC_OscInitStruct->PLL.PLLState));

  if(RCC_OscInitStruct->PLL.PLLState != RCC_PLL_NONE)
 8001f54:	687b      	ldr	r3, [r7, #4]
 8001f56:	6a9b      	ldr	r3, [r3, #40]	; 0x28
 8001f58:	2b00      	cmp	r3, #0
 8001f5a:	f000 80fa 	beq.w	8002152 <HAL_RCC_OscConfig+0x79e>
  {
    /* PLL On ? */
    if(RCC_OscInitStruct->PLL.PLLState == RCC_PLL_ON)
 8001f5e:	687b      	ldr	r3, [r7, #4]
 8001f60:	6a9b      	ldr	r3, [r3, #40]	; 0x28
 8001f62:	2b02      	cmp	r3, #2
 8001f64:	f040 80d0 	bne.w	8002108 <HAL_RCC_OscConfig+0x754>
#endif /* RCC_PLLP_SUPPORT */
      assert_param(IS_RCC_PLLQ_VALUE(RCC_OscInitStruct->PLL.PLLQ));
      assert_param(IS_RCC_PLLR_VALUE(RCC_OscInitStruct->PLL.PLLR));

      /* Do nothing if PLL configuration is the unchanged */
      pll_config = RCC->PLLCFGR;
 8001f68:	4b7c      	ldr	r3, [pc, #496]	; (800215c <HAL_RCC_OscConfig+0x7a8>)
 8001f6a:	68db      	ldr	r3, [r3, #12]
 8001f6c:	617b      	str	r3, [r7, #20]
      if((READ_BIT(pll_config, RCC_PLLCFGR_PLLSRC)  != RCC_OscInitStruct->PLL.PLLSource) ||
 8001f6e:	697b      	ldr	r3, [r7, #20]
 8001f70:	f003 0203 	and.w	r2, r3, #3
 8001f74:	687b      	ldr	r3, [r7, #4]
 8001f76:	6adb      	ldr	r3, [r3, #44]	; 0x2c
 8001f78:	429a      	cmp	r2, r3
 8001f7a:	d130      	bne.n	8001fde <HAL_RCC_OscConfig+0x62a>
         (READ_BIT(pll_config, RCC_PLLCFGR_PLLM)    != ((RCC_OscInitStruct->PLL.PLLM - 1U) << RCC_PLLCFGR_PLLM_Pos)) ||
 8001f7c:	697b      	ldr	r3, [r7, #20]
 8001f7e:	f003 0270 	and.w	r2, r3, #112	; 0x70
 8001f82:	687b      	ldr	r3, [r7, #4]
 8001f84:	6b1b      	ldr	r3, [r3, #48]	; 0x30
 8001f86:	3b01      	subs	r3, #1
 8001f88:	011b      	lsls	r3, r3, #4
      if((READ_BIT(pll_config, RCC_PLLCFGR_PLLSRC)  != RCC_OscInitStruct->PLL.PLLSource) ||
 8001f8a:	429a      	cmp	r2, r3
 8001f8c:	d127      	bne.n	8001fde <HAL_RCC_OscConfig+0x62a>
         (READ_BIT(pll_config, RCC_PLLCFGR_PLLN)    != (RCC_OscInitStruct->PLL.PLLN << RCC_PLLCFGR_PLLN_Pos)) ||
 8001f8e:	697b      	ldr	r3, [r7, #20]
 8001f90:	f403 42fe 	and.w	r2, r3, #32512	; 0x7f00
 8001f94:	687b      	ldr	r3, [r7, #4]
 8001f96:	6b5b      	ldr	r3, [r3, #52]	; 0x34
 8001f98:	021b      	lsls	r3, r3, #8
         (READ_BIT(pll_config, RCC_PLLCFGR_PLLM)    != ((RCC_OscInitStruct->PLL.PLLM - 1U) << RCC_PLLCFGR_PLLM_Pos)) ||
 8001f9a:	429a      	cmp	r2, r3
 8001f9c:	d11f      	bne.n	8001fde <HAL_RCC_OscConfig+0x62a>
#if defined(RCC_PLLP_SUPPORT)
#if defined(RCC_PLLP_DIV_2_31_SUPPORT)
         (READ_BIT(pll_config, RCC_PLLCFGR_PLLPDIV) != (RCC_OscInitStruct->PLL.PLLP << RCC_PLLCFGR_PLLPDIV_Pos)) ||
#else
         (READ_BIT(pll_config, RCC_PLLCFGR_PLLP)    != ((RCC_OscInitStruct->PLL.PLLP == RCC_PLLP_DIV7) ? 0U : 1U)) ||
 8001f9e:	697b      	ldr	r3, [r7, #20]
 8001fa0:	f403 3300 	and.w	r3, r3, #131072	; 0x20000
 8001fa4:	687a      	ldr	r2, [r7, #4]
 8001fa6:	6b92      	ldr	r2, [r2, #56]	; 0x38
 8001fa8:	2a07      	cmp	r2, #7
 8001faa:	bf14      	ite	ne
 8001fac:	2201      	movne	r2, #1
 8001fae:	2200      	moveq	r2, #0
 8001fb0:	b2d2      	uxtb	r2, r2
         (READ_BIT(pll_config, RCC_PLLCFGR_PLLN)    != (RCC_OscInitStruct->PLL.PLLN << RCC_PLLCFGR_PLLN_Pos)) ||
 8001fb2:	4293      	cmp	r3, r2
 8001fb4:	d113      	bne.n	8001fde <HAL_RCC_OscConfig+0x62a>
#endif
#endif
         (READ_BIT(pll_config, RCC_PLLCFGR_PLLQ)    != ((((RCC_OscInitStruct->PLL.PLLQ) >> 1U) - 1U) << RCC_PLLCFGR_PLLQ_Pos)) ||
 8001fb6:	697b      	ldr	r3, [r7, #20]
 8001fb8:	f403 02c0 	and.w	r2, r3, #6291456	; 0x600000
 8001fbc:	687b      	ldr	r3, [r7, #4]
 8001fbe:	6bdb      	ldr	r3, [r3, #60]	; 0x3c
 8001fc0:	085b      	lsrs	r3, r3, #1
 8001fc2:	3b01      	subs	r3, #1
 8001fc4:	055b      	lsls	r3, r3, #21
         (READ_BIT(pll_config, RCC_PLLCFGR_PLLP)    != ((RCC_OscInitStruct->PLL.PLLP == RCC_PLLP_DIV7) ? 0U : 1U)) ||
 8001fc6:	429a      	cmp	r2, r3
 8001fc8:	d109      	bne.n	8001fde <HAL_RCC_OscConfig+0x62a>
         (READ_BIT(pll_config, RCC_PLLCFGR_PLLR)    != ((((RCC_OscInitStruct->PLL.PLLR) >> 1U) - 1U) << RCC_PLLCFGR_PLLR_Pos)))
 8001fca:	697b      	ldr	r3, [r7, #20]
 8001fcc:	f003 62c0 	and.w	r2, r3, #100663296	; 0x6000000
 8001fd0:	687b      	ldr	r3, [r7, #4]
 8001fd2:	6c1b      	ldr	r3, [r3, #64]	; 0x40
 8001fd4:	085b      	lsrs	r3, r3, #1
 8001fd6:	3b01      	subs	r3, #1
 8001fd8:	065b      	lsls	r3, r3, #25
         (READ_BIT(pll_config, RCC_PLLCFGR_PLLQ)    != ((((RCC_OscInitStruct->PLL.PLLQ) >> 1U) - 1U) << RCC_PLLCFGR_PLLQ_Pos)) ||
 8001fda:	429a      	cmp	r2, r3
 8001fdc:	d06e      	beq.n	80020bc <HAL_RCC_OscConfig+0x708>
      {
        /* Check if the PLL is used as system clock or not */
        if(sysclk_source != RCC_CFGR_SWS_PLL)
 8001fde:	69bb      	ldr	r3, [r7, #24]
 8001fe0:	2b0c      	cmp	r3, #12
 8001fe2:	d069      	beq.n	80020b8 <HAL_RCC_OscConfig+0x704>
        {
#if defined(RCC_PLLSAI1_SUPPORT) || defined(RCC_PLLSAI2_SUPPORT)
          /* Check if main PLL can be updated */
          /* Not possible if the source is shared by other enabled PLLSAIx */
          if((READ_BIT(RCC->CR, RCC_CR_PLLSAI1ON) != 0U)
 8001fe4:	4b5d      	ldr	r3, [pc, #372]	; (800215c <HAL_RCC_OscConfig+0x7a8>)
 8001fe6:	681b      	ldr	r3, [r3, #0]
 8001fe8:	f003 6380 	and.w	r3, r3, #67108864	; 0x4000000
 8001fec:	2b00      	cmp	r3, #0
 8001fee:	d105      	bne.n	8001ffc <HAL_RCC_OscConfig+0x648>
#if defined(RCC_PLLSAI2_SUPPORT)
             || (READ_BIT(RCC->CR, RCC_CR_PLLSAI2ON) != 0U)
 8001ff0:	4b5a      	ldr	r3, [pc, #360]	; (800215c <HAL_RCC_OscConfig+0x7a8>)
 8001ff2:	681b      	ldr	r3, [r3, #0]
 8001ff4:	f003 5380 	and.w	r3, r3, #268435456	; 0x10000000
 8001ff8:	2b00      	cmp	r3, #0
 8001ffa:	d001      	beq.n	8002000 <HAL_RCC_OscConfig+0x64c>
#endif
            )
          {
            return HAL_ERROR;
 8001ffc:	2301      	movs	r3, #1
 8001ffe:	e0a9      	b.n	8002154 <HAL_RCC_OscConfig+0x7a0>
          }
          else
#endif /* RCC_PLLSAI1_SUPPORT || RCC_PLLSAI2_SUPPORT */
          {
            /* Disable the main PLL. */
            __HAL_RCC_PLL_DISABLE();
 8002000:	4b56      	ldr	r3, [pc, #344]	; (800215c <HAL_RCC_OscConfig+0x7a8>)
 8002002:	681b      	ldr	r3, [r3, #0]
 8002004:	4a55      	ldr	r2, [pc, #340]	; (800215c <HAL_RCC_OscConfig+0x7a8>)
 8002006:	f023 7380 	bic.w	r3, r3, #16777216	; 0x1000000
 800200a:	6013      	str	r3, [r2, #0]

            /* Get Start Tick*/
            tickstart = HAL_GetTick();
 800200c:	f7ff f97e 	bl	800130c <HAL_GetTick>
 8002010:	6138      	str	r0, [r7, #16]

            /* Wait till PLL is ready */
            while(READ_BIT(RCC->CR, RCC_CR_PLLRDY) != 0U)
 8002012:	e008      	b.n	8002026 <HAL_RCC_OscConfig+0x672>
            {
              if((HAL_GetTick() - tickstart) > PLL_TIMEOUT_VALUE)
 8002014:	f7ff f97a 	bl	800130c <HAL_GetTick>
 8002018:	4602      	mov	r2, r0
 800201a:	693b      	ldr	r3, [r7, #16]
 800201c:	1ad3      	subs	r3, r2, r3
 800201e:	2b02      	cmp	r3, #2
 8002020:	d901      	bls.n	8002026 <HAL_RCC_OscConfig+0x672>
              {
                return HAL_TIMEOUT;
 8002022:	2303      	movs	r3, #3
 8002024:	e096      	b.n	8002154 <HAL_RCC_OscConfig+0x7a0>
            while(READ_BIT(RCC->CR, RCC_CR_PLLRDY) != 0U)
 8002026:	4b4d      	ldr	r3, [pc, #308]	; (800215c <HAL_RCC_OscConfig+0x7a8>)
 8002028:	681b      	ldr	r3, [r3, #0]
 800202a:	f003 7300 	and.w	r3, r3, #33554432	; 0x2000000
 800202e:	2b00      	cmp	r3, #0
 8002030:	d1f0      	bne.n	8002014 <HAL_RCC_OscConfig+0x660>
              }
            }

            /* Configure the main PLL clock source, multiplication and division factors. */
#if defined(RCC_PLLP_SUPPORT)
            __HAL_RCC_PLL_CONFIG(RCC_OscInitStruct->PLL.PLLSource,
 8002032:	4b4a      	ldr	r3, [pc, #296]	; (800215c <HAL_RCC_OscConfig+0x7a8>)
 8002034:	68da      	ldr	r2, [r3, #12]
 8002036:	4b4a      	ldr	r3, [pc, #296]	; (8002160 <HAL_RCC_OscConfig+0x7ac>)
 8002038:	4013      	ands	r3, r2
 800203a:	687a      	ldr	r2, [r7, #4]
 800203c:	6ad1      	ldr	r1, [r2, #44]	; 0x2c
 800203e:	687a      	ldr	r2, [r7, #4]
 8002040:	6b12      	ldr	r2, [r2, #48]	; 0x30
 8002042:	3a01      	subs	r2, #1
 8002044:	0112      	lsls	r2, r2, #4
 8002046:	4311      	orrs	r1, r2
 8002048:	687a      	ldr	r2, [r7, #4]
 800204a:	6b52      	ldr	r2, [r2, #52]	; 0x34
 800204c:	0212      	lsls	r2, r2, #8
 800204e:	4311      	orrs	r1, r2
 8002050:	687a      	ldr	r2, [r7, #4]
 8002052:	6bd2      	ldr	r2, [r2, #60]	; 0x3c
 8002054:	0852      	lsrs	r2, r2, #1
 8002056:	3a01      	subs	r2, #1
 8002058:	0552      	lsls	r2, r2, #21
 800205a:	4311      	orrs	r1, r2
 800205c:	687a      	ldr	r2, [r7, #4]
 800205e:	6c12      	ldr	r2, [r2, #64]	; 0x40
 8002060:	0852      	lsrs	r2, r2, #1
 8002062:	3a01      	subs	r2, #1
 8002064:	0652      	lsls	r2, r2, #25
 8002066:	4311      	orrs	r1, r2
 8002068:	687a      	ldr	r2, [r7, #4]
 800206a:	6b92      	ldr	r2, [r2, #56]	; 0x38
 800206c:	0912      	lsrs	r2, r2, #4
 800206e:	0452      	lsls	r2, r2, #17
 8002070:	430a      	orrs	r2, r1
 8002072:	493a      	ldr	r1, [pc, #232]	; (800215c <HAL_RCC_OscConfig+0x7a8>)
 8002074:	4313      	orrs	r3, r2
 8002076:	60cb      	str	r3, [r1, #12]
                                 RCC_OscInitStruct->PLL.PLLQ,
                                 RCC_OscInitStruct->PLL.PLLR);
#endif

            /* Enable the main PLL. */
            __HAL_RCC_PLL_ENABLE();
 8002078:	4b38      	ldr	r3, [pc, #224]	; (800215c <HAL_RCC_OscConfig+0x7a8>)
 800207a:	681b      	ldr	r3, [r3, #0]
 800207c:	4a37      	ldr	r2, [pc, #220]	; (800215c <HAL_RCC_OscConfig+0x7a8>)
 800207e:	f043 7380 	orr.w	r3, r3, #16777216	; 0x1000000
 8002082:	6013      	str	r3, [r2, #0]

            /* Enable PLL System Clock output. */
            __HAL_RCC_PLLCLKOUT_ENABLE(RCC_PLL_SYSCLK);
 8002084:	4b35      	ldr	r3, [pc, #212]	; (800215c <HAL_RCC_OscConfig+0x7a8>)
 8002086:	68db      	ldr	r3, [r3, #12]
 8002088:	4a34      	ldr	r2, [pc, #208]	; (800215c <HAL_RCC_OscConfig+0x7a8>)
 800208a:	f043 7380 	orr.w	r3, r3, #16777216	; 0x1000000
 800208e:	60d3      	str	r3, [r2, #12]

            /* Get Start Tick*/
            tickstart = HAL_GetTick();
 8002090:	f7ff f93c 	bl	800130c <HAL_GetTick>
 8002094:	6138      	str	r0, [r7, #16]

            /* Wait till PLL is ready */
            while(READ_BIT(RCC->CR, RCC_CR_PLLRDY) == 0U)
 8002096:	e008      	b.n	80020aa <HAL_RCC_OscConfig+0x6f6>
            {
              if((HAL_GetTick() - tickstart) > PLL_TIMEOUT_VALUE)
 8002098:	f7ff f938 	bl	800130c <HAL_GetTick>
 800209c:	4602      	mov	r2, r0
 800209e:	693b      	ldr	r3, [r7, #16]
 80020a0:	1ad3      	subs	r3, r2, r3
 80020a2:	2b02      	cmp	r3, #2
 80020a4:	d901      	bls.n	80020aa <HAL_RCC_OscConfig+0x6f6>
              {
                return HAL_TIMEOUT;
 80020a6:	2303      	movs	r3, #3
 80020a8:	e054      	b.n	8002154 <HAL_RCC_OscConfig+0x7a0>
            while(READ_BIT(RCC->CR, RCC_CR_PLLRDY) == 0U)
 80020aa:	4b2c      	ldr	r3, [pc, #176]	; (800215c <HAL_RCC_OscConfig+0x7a8>)
 80020ac:	681b      	ldr	r3, [r3, #0]
 80020ae:	f003 7300 	and.w	r3, r3, #33554432	; 0x2000000
 80020b2:	2b00      	cmp	r3, #0
 80020b4:	d0f0      	beq.n	8002098 <HAL_RCC_OscConfig+0x6e4>
        if(sysclk_source != RCC_CFGR_SWS_PLL)
 80020b6:	e04c      	b.n	8002152 <HAL_RCC_OscConfig+0x79e>
          }
        }
        else
        {
          /* PLL is already used as System core clock */
          return HAL_ERROR;
 80020b8:	2301      	movs	r3, #1
 80020ba:	e04b      	b.n	8002154 <HAL_RCC_OscConfig+0x7a0>
      }
      else
      {
        /* PLL configuration is unchanged */
        /* Re-enable PLL if it was disabled (ie. low power mode) */
        if(READ_BIT(RCC->CR, RCC_CR_PLLRDY) == 0U)
 80020bc:	4b27      	ldr	r3, [pc, #156]	; (800215c <HAL_RCC_OscConfig+0x7a8>)
 80020be:	681b      	ldr	r3, [r3, #0]
 80020c0:	f003 7300 	and.w	r3, r3, #33554432	; 0x2000000
 80020c4:	2b00      	cmp	r3, #0
 80020c6:	d144      	bne.n	8002152 <HAL_RCC_OscConfig+0x79e>
        {
          /* Enable the main PLL. */
          __HAL_RCC_PLL_ENABLE();
 80020c8:	4b24      	ldr	r3, [pc, #144]	; (800215c <HAL_RCC_OscConfig+0x7a8>)
 80020ca:	681b      	ldr	r3, [r3, #0]
 80020cc:	4a23      	ldr	r2, [pc, #140]	; (800215c <HAL_RCC_OscConfig+0x7a8>)
 80020ce:	f043 7380 	orr.w	r3, r3, #16777216	; 0x1000000
 80020d2:	6013      	str	r3, [r2, #0]

